:020000040800F2
:1000000000900020C139000871080008730800083A
:1000100000000000000000000000000000000000E0
:10002000000000000000000000000000750800084B
:1000300000000000000000007708000879080008B0
:10004000113A0008113A0008113A00088108000826
:1000500089080008113A0008113A0008113A00080E
:10006000113A00088D080008113A0008113A0008FA
:10007000113A0008113A0008113A0008113A000834
:10008000113A00089D080008113A0008113A0008CA
:10009000113A0008113A0008113A0008113A000814
:1000A000113A0008113A0008113A0008113A000804
:0C00B000C1080008113A0008113A0008CD
:1000BC0010B5064C2378002B07D1054B002B02D032
:1000CC00044800E000BF0123237010BD7000002025
:1000DC0000000000D4420008044B10B5002B03D0E4
:1000EC000349044800E000BF10BDC04600000000FA
:1000FC0074000020D442000803B471464908400043
:10010C004900095E49008E4403BC70470022430835
:10011C008B4274D303098B425FD3030A8B4244D3C3
:10012C00030B8B4228D3030C8B420DD3FF22090205
:10013C0012BA030C8B4202D31212090265D0030BC4
:10014C008B4219D300E0090AC30B8B4201D3CB03BA
:10015C00C01A5241830B8B4201D38B03C01A5241FC
:10016C00430B8B4201D34B03C01A5241030B8B42FE
:10017C0001D30B03C01A5241C30A8B4201D3CB02E9
:10018C00C01A5241830A8B4201D38B02C01A5241CE
:10019C00430A8B4201D34B02C01A5241030A8B42D1
:1001AC0001D30B02C01A5241CDD2C3098B4201D3E9
:1001BC00CB01C01A524183098B4201D38B01C01A67
:1001CC00524143098B4201D34B01C01A52410309DE
:1001DC008B4201D30B01C01A5241C3088B4201D38D
:1001EC00CB00C01A524183088B4201D38B00C01A3A
:1001FC00524143088B4201D34B00C01A5241411A61
:10020C0000D20146524110467047FFE701B500206D
:10021C0000F0F0F802BDC0460029F7D076E7704731
:10022C0003460B437FD4002243088B4274D303094B
:10023C008B425FD3030A8B4244D3030B8B4228D3EC
:10024C00030C8B420DD3FF22090212BA030C8B4212
:10025C0002D31212090265D0030B8B4219D300E0B2
:10026C00090AC30B8B4201D3CB03C01A5241830B37
:10027C008B4201D38B03C01A5241430B8B4201D3E7
:10028C004B03C01A5241030B8B4201D30B03C01A10
:10029C005241C30A8B4201D3CB02C01A5241830A8A
:1002AC008B4201D38B02C01A5241430A8B4201D3B9
:1002BC004B02C01A5241030A8B4201D30B02C01AE3
:1002CC005241CDD2C3098B4201D3CB01C01A52414A
:1002DC0083098B4201D38B01C01A524143098B42D3
:1002EC0001D34B01C01A524103098B4201D30B01BC
:1002FC00C01A5241C3088B4201D3CB00C01A5241E1
:10030C0083088B4201D38B00C01A524143088B42A5
:10031C0001D34B00C01A5241411A00D2014652413E
:10032C00104670475DE0CA0F00D04942031000D35D
:10033C004042534000229C4603098B422DD3030AB2
:10034C008B4212D3FC22890112BA030A8B420CD3C2
:10035C00890192118B4208D3890192118B4204D3EB
:10036C0089013AD0921100E08909C3098B4201D36B
:10037C00CB01C01A524183098B4201D38B01C01AA5
:10038C00524143098B4201D34B01C01A524103091C
:10039C008B4201D30B01C01A5241C3088B4201D3CB
:1003AC00CB00C01A524183088B4201D38B00C01A78
:1003BC005241D9D243088B4201D34B00C01A52414F
:1003CC00411A00D20146634652415B10104601D3DC
:1003DC004042002B00D54942704763465B1000D366
:1003EC00404201B5002000F005F802BD0029F8D00C
:1003FC0016E770477047C046002B11D1002A0FD169
:10040C00002900D1002802D00021C943081C07B4E0
:10041C00024802A14018029003BDC046D9FFFFFF5D
:10042C0003B4684601B5029800F006F8019B9E469D
:10043C0002B00CBC7047C046F0B557464E46454618
:10044C00DE46E0B504000D009246994683B08B421F
:10045C0030D82DD04946504600F0BAF82900060095
:10046C00200000F0B5F8331A9846203B9B4633D455
:10047C005A465346934042461F00534693401E0033
:10048C00AF423AD8AF4200D178E05B46A41BBD41E5
:10049C00002B00DA75E00022002300920193012367
:1004AC005A4693400193012342469340009328E01F
:1004BC008242CFD900220023009201930C9B002B87
:1004CC0001D01C605D600098019903B03CBC904663
:1004DC009946A246AB46F0BD424620239B1A524693
:1004EC00DA40414613004A468A40170042461F43F1
:1004FC00534693401E00AF42C4D900220023009201
:10050C0001934346002BD9D0FB0772081A43464689
:10051C007B080EE0AB4201D1A2420CD8A41A9D413B
:10052C00012024196D410021013E24184D41002E5B
:10053C0006D0AB42EED9013E24196D41002EF8D104
:10054C00009801995B4600196941002B24DB2B00B4
:10055C005A464446D3402A00E2401C005B46150034
:10056C00002B2ADB26009E40330026004746BE4067
:10057C003200801A9941009001919FE7A342BCD8A8
:10058C0083E74246202300219B1A0022009101920E
:10059C000122DA40019286E7424620239B1A2A0068
:1005AC0046469A402300F340444613432A00E24057
:1005BC001C005B461500002BD4DA42462F0020238A
:1005CC00260097409B1ADE403B003343CDE7C046E4
:1005DC0010B5002903D100F007F8203002E0081C08
:1005EC0000F002F810BDC0461C2101231B049842E8
:1005FC0001D3000C10391B0A984201D3000A0839A8
:10060C001B09984201D30009043902A2105C40185E
:10061C007047C04604030202010101010000000002
:10062C000000000010B50024092C09DCA0200121D9
:10063C00C00500F043FA642001F046FA0134F3E7F8
:10064C00A02000220121C00500F032FA10BD0000EC
:10065C0000B5A1B03822002112A803F0F9F910223C
:10066C0000210EA803F0F4F93422002101A803F0B4
:10067C00EFF98020800001F053F90A231293F6332E
:10068C00159300231693402217923F3A1892013289
:10069C0019921A921B9308331C9380239B021D936F
:1006AC0080239B041E9380239B051F9312A800F0AC
:1006BC000DFA00281AD107230E93053B0F93002344
:1006CC001093119302210EA800F0BCFC002810D14D
:1006DC000B4B0193002303938023DB02079301A8A8
:1006EC0000F090FD002807D121B000BDFFF79AFF64
:1006FC00E1E7FFF797FFEBE7FFF794FFF4E7C0465E
:10070C000202000030B59BB001F0B8F9FFF7A0FF72
:10071C0000F03CF803F028F901F0F0F901F02CFAA4
:10072C0002F060FE144C200001F006FAFA212000C1
:10073C0001F088FB114802F07DFE02F0BDFE01AC19
:10074C006022002102A803F083F90D4B220003CB99
:10075C0003C2FA230B4D9B0007222100280002F054
:10076C00A5FC40220849280001F022FCFA20800058
:10077C0001F0AAF9FAE7C046F800002018020020A0
:10078C00F44200088C01002090000020F0B58BB0E2
:10079C001422002105A803F05BF92D4B5A6B04249D
:1007AC0022435A635A6B22400192019A596B2022C0
:1007BC0011435963596B0A400292029A5A6B0127F2
:1007CC003A435A635A6B3A400392039A596B02228A
:1007DC00114359635B6B1A400492049BA026F605E7
:1007EC0000228321300000F063F90594032506955F
:1007FC000024079405A9174800F090F8832305936B
:10080C0006970794089405A9300000F087F8124B5E
:10081C0005930695079405A9300000F07FF83F3743
:10082C0005970694079405A9300000F077F83B2350
:10083C0005930695079405A9084800F06FF80597ED
:10084C000695079405A9064800F068F80BB0F0BDB2
:10085C0000100240001400503099000000040050B9
:10086C00000800507047FEE77047704710B501F064
:10087C0019F910BD10B500F0EBFD10BD704700006C
:10088C0010B5024800F0E4FF10BDC0463001002056
:10089C0010B5064A136801331360A0200221C0056D
:1008AC0000F00CF9024801F002FB10BD8C00002096
:1008BC00F800002010B5044C200001F08DFC200045
:1008CC0001F014FA10BDC0468C01002000B583B0B5
:1008DC00114B196C012211431964196C0A400092D6
:1008EC00009ADA6B802149050A43DA63DB6B0B4013
:1008FC000193019B00220021032001F03BF803200F
:10090C0001F068F800220021042001F033F80420E3
:10091C0001F060F803B000BD00100240F0B5D646FF
:10092C004F464646C0B500233BE0032600E00026B8
:10093C00A64034003C435A4E183292009451802207
:10094C00B4584A46D24326004D46AE434D68ED039B
:10095C0002D54D462C432600514C8027E651842667
:10096C00A459260016404D68AD0302D54D462C43C4
:10097C0026004B4C8427E6512468260016404D680F
:10098C00ED0202D54D462C432600454C266064688A
:10099C0022404D68AD0201D54A462243404C62606C
:1009AC0001330C682200DA4075D001229A402500F0
:1009BC001540A9461442F3D04C68022C01D0122CDD
:1009CC000ED1DC080834A400275807261E40B600B8
:1009DC000F25B540AF430D69B5402E003E43265060
:1009EC000468A4465E000324A2462700B740B8461C
:1009FC00FF4365464446A543AC464C6855462540E6
:100A0C002C00B44065462C4304604C68651E012DD7
:100A1C0003D9112C01D0122C13D184683C40A4466C
:100A2C00CC68B44065462C438460446894432200EF
:100A3C004C682409A446012465462C409C40144370
:100A4C004460C26817408A68B2403A43C2604A6840
:100A5C00D200A5D59A0814001834A400104EA7593A
:100A6C0003241C40E4000F26A640B743A026F6053D
:100A7C00B04200D15BE70B4EB04208D00A4EB042F8
:100A8C0007D00A4EB04200D14FE7052650E70126A9
:100A9C004EE702264CE71CBC90469946A246F0BD98
:100AAC00001802400004005000080050000C0050D8
:100ABC00002A01D0816170478162FCE743691942C9
:100ACC0001D0816270478161FCE7000070B582B093
:100ADC00041E00D134E20368DB0739D5C14A9168A2
:100AEC0038230B40D16803220A40102B26D0082B48
:100AFC0026D063688022520293427FD0A022D20279
:100B0C00934200D181E0B74B1A68B7490A401A608A
:100B1C001A68B6490A401A606368002B00D180E05D
:100B2C0000F0CCFF0500AF4B1B689B0310D400F00A
:100B3C00C5FF401B6428F6D9032002E2032AD6D154
:100B4C00A84B1B689B0303D56368002B00D1FAE10B
:100B5C0023689B0731D5A34A936838210B40D16891
:100B6C0003220A40102B6AD0002B6BD19D4A1268CD
:100B7C00520503D5E268002A00D1E6E199484268A3
:100B8C009B490A40616909020A434260002B0DD15E
:100B9C00036898490B4021690B4303600368DB0A27
:100BAC0007221A40944BD340944A1360944B186814
:100BBC0000F038FF002800D0C9E123681B0700D4DF
:100BCC0081E0884B9A6838231340182B73D0A369A3
:100BDC00002B00D1B4E0834A136E01210B43136642
:100BEC0000F06CFF05007F4B1B6E9B076BD400F075
:100BFC0065FF401B0228F6D90320A2E1794A11684F
:100C0C0080235B020B43136086E7764B19688022C6
:100C1C00D2020A431A601968802252020A431A60EF
:100C2C007AE700F04BFF05006E4B1B689B038FD5DA
:100C3C0000F044FF401B6428F6D9032081E1022A0E
:100C4C0092D193E7E368002B22D0664A1368694976
:100C5C000B4021690B431360116880235B000B432D
:100C6C00136000F02BFF05005E4B1B685B0506D480
:100C7C0000F024FF401B0228F6D9032061E15949FA
:100C8C004B685B4A13406269120213434B6094E752
:100C9C00544A13685B490B40136000F00FFF0500CA
:100CAC00504B1B685B0588D500F008FF401B0228E1
:100CBC00F6D9032045E14B4B1B6E9B0703D5A3696B
:100CCC00002B00D145E123685B0700D4A2E0454B23
:100CDC009A6838231340202B45D0424BDB6BDB004A
:100CEC004AD4404AD16B802040050143D163D36B79
:100CFC0003400193019B0125434B1B68DB053DD54C
:100D0C00A368012B4ED0052B52D0364BDA6D012146
:100D1C008A43DA65DA6D03318A43DA65A368002BFE
:100D2C0050D000F0CBFE06002E4BDB6D9B076FD432
:100D3C0000F0C4FE801B354B9842F5D9032000E12E
:100D4C00284A136E01218B43136600F0B7FE050091
:100D5C00244B1B6E9B07B6D500F0B0FE401B02283F
:100D6C00F6D90320EDE01F4BDB6D9B0752D5A36832
:100D7C00002B4FD10120E4E00025BDE7224A116889
:100D8C0080235B000B43136000F098FE06001E4BA3
:100D9C001B68DB05B4D400F091FE801B0228F6D949
:100DAC000320CEE00F4AD36D01210B43D365B5E789
:100DBC000C4BDA6D04210A43DA65DA6D03390A4308
:100DCC00DA65ABE700F07AFE0600064BDB6D9B079D
:100DDC001ED500F073FE801B0C4B9842F5D90320F6
:100DEC00AFE0C04600100240FFFFFEFFFFFFFBFF1D
:100DFC00FF80FFFFFFC7FFFF0024F4000800002066
:100E0C0004000020FFFEFFFF0070004010270000D0
:100E1C00012D26D0E369002B00D19CE0564A916845
:100E2C0038220A40102A63D0022B20D0524B1A6869
:100E3C0052490A401A60DA6803218A43DA60DA6898
:100E4C004F490A40DA6000F039FE04004A4B1B6837
:100E5C009B014BD500F032FE001B0228F6D9032073
:100E6C006FE0454AD36B47490B40D363D2E7424A04
:100E7C00136842490B40136000F020FE05003E4B06
:100E8C001B689B0106D500F019FE401B0228F6D901
:100E9C00032056E0384AD3683B491940236A606AFC
:100EAC000343A06A00020343E06A0343206B03433D
:100EBC00606B03430B43D360116880235B040B43CB
:100ECC001360D16880235B050B43D36000F0F6FD03
:100EDC000400294B1B689B0106D400F0EFFD001B9E
:100EEC000228F6D903202CE000202AE0002028E07C
:100EFC00012B32D0204BDA6803231340216A8B423A
:100F0C002DD170231340616A8B422AD1FE21C90175
:100F1C001140A36A1B02994225D1F8239B0313406D
:100F2C00E16A8B4221D1E0231B051340216B8B42DC
:100F3C001DD1520F5207636B9A421AD1002000E068
:100F4C00012002B070BD0120FBE70120F9E7012070
:100F5C00F7E70120F5E70020F3E70120F1E7012096
:100F6C00EFE70120EDE70120EBE70120E9E70120A5
:100F7C00E7E70120E5E7C04600100240FFFFFFFE57
:100F8C00FFFFFEEEFFFFFFEF8C80C11110B52A4B67
:100F9C009B6838221A4207D1274B1A68D20A0723BA
:100FAC0013402648D84010BD234B9A683823134071
:100FBC00082B3BD0204B9A6838231340102B0DD0B4
:100FCC001D4B9A6838231340202B31D01A4B9A684A
:100FDC0038231340182B26D00020E4E7164AD1689A
:100FEC000D3B0B40D2681209072111400131032B34
:100FFC000FD01248FFF78AF80F4BDA68120A7F23DA
:10100C00134058430C4BD968490F0131FFF77EF858
:10101C00C9E70B48FFF77AF8074BDA68120A7F2307
:10102C0013405843EEE7FA20C001BCE70448BAE786
:10103C0080200002B7E7C046001002400024F400F4
:10104C0000127A0070B504000D00002800D1AAE04F
:10105C00574B1A68072313408B4221D323689A07F6
:10106C000ED55B0705D5534A9168E023DB010B4392
:10107C009360504A936850490B40A1680B439360AE
:10108C002368DB0754D56368012B20D0022B3BD09F
:10109C00002B3FD1474A126852051CD401206AE04C
:1010AC00434A136807218B432B43136000F006FD62
:1010BC0006003F4B1A6807231340AB42CED000F01A
:1010CC00FDFC801B3D4A9042F3D9032053E0394A82
:1010DC001268920369D537498A6807208243134303
:1010EC008B6000F0EBFC0600324B9B6838221A40F8
:1010FC006368DB009A421BD000F0E0FC801B2F4B96
:10110C009842F1D9032036E02A4A12689201E2D4BF
:10111C00012030E0032B05D0264AD26D9207DAD499
:10112C00012028E0234A126E9207D4D4012022E039
:10113C001F4B1A6807231340AB421DD823685B076B
:10114C0006D51C4A93681E490B40E1680B4393601B
:10115C00FFF71CFF174B9A68120A0F2313409B00D2
:10116C00184A9A581F231340D840174B1860174B36
:10117C00186800F057FC70BD0D4A136807218B43AB
:10118C002B43136000F09AFC0600094B1A680723E6
:10119C001340AB42D2D000F091FC801B074B98421D
:1011AC00F3D90320E7E70120E5E70120E3E7C04698
:1011BC000020024000100240FFF0FFFF88130000E7
:1011CC00FF8FFFFFFC4200080800002004000020F5
:1011DC00014B18687047C0460800002010B5FFF797
:1011EC00F7FF064B9A68120B072313409B00044A27
:1011FC009A581F231340D84010BDC046001002401F
:10120C003C430008F0B583B0040003689B0362D52F
:10121C00814BDB6BDB001ED47F4AD16B80204005F9
:10122C000143D163D36B03400193019B01267B4A9D
:10123C00116880235B000B43136000F03FFC05003A
:10124C00764B1B68DB0508D400F038FC401B0228E9
:10125C00F6D9032502E00026E9E70025002D23D16D
:10126C006D4BD96DC02292000B001340114210D06F
:10127C00226B9A420DD0684AD36D69490B40D06DF0
:10128C00802149020143D165D16D66480140D16589
:10129C00D365DB0710D4002D06D15F4AD36D6049AE
:1012AC000B40216B0B43D365012E15D15A4AD36BDE
:1012BC005D490B40D3630FE000F000FC0700564B78
:1012CC00DB6D9B07E7D400F0F9FBC01B574B984232
:1012DC00F5D90325DFE700252368DB0706D54E4A41
:1012EC00536D03218B4361680B43536523689B0744
:1012FC0006D5494A536D0C218B43A1680B435365AA
:10130C0023689B0606D5444A536D49490B40E16856
:10131C000B43536523689B0506D53F4A536D4549DE
:10132C000B40A1690B43536523685B0506D53A4A0C
:10133C00536D41490B40E1690B43536523685B06D0
:10134C0006D5354A536D3D490B4021690B43536516
:10135C0023685B040BD5304A536D9B009B08216AB4
:10136C000B4353658023DB05226A9A4239D02368EC
:10137C001B0306D5284A536D40218B43616A0B43EE
:10138C00536523689B020BD5234A536D2C490B40A4
:10139C00A16A0B4353658023DB03A26A9A4227D0D0
:1013AC0023685B020BD51C4A536D26490B40E16A3E
:1013BC000B43536580235B04E26A9A421FD0236877
:1013CC001B050BD5144A536D1F490B4061690B4328
:1013DC00536562698023DB019A4215D0280003B063
:1013EC00F0BD0D4AD16880235B020B43D360BEE78E
:1013FC00094AD16880235B040B43D360D0E7064ACB
:10140C00D1680B43D360DAE7034AD16880235B02CF
:10141C000B43D360E2E7C04600100240007000406E
:10142C00FFFCFFFFFFFFFEFFFFFFFFEF1027000099
:10143C00FFF3FFFFFFFFF3FFFFFFCFFFFFCFFFFF28
:10144C00FFFFBFFFFFFFFFFEFF3FFFFF704770472F
:10145C0010B5344A13693449194093698020C0058A
:10146C0003400B4351693148806881435161304AD4
:10147C0010423DD02D4AD468002B17D02B494A6816
:10148C001A434A609A0F9107002A03D0254A9069A3
:10149C00014391619B009A08002B01D0214B1A61EA
:1014AC00224B00229A602000FFF7D1FF1D4B1B69D5
:1014BC00DB070CD51B4B01221A611C4B9B68022BC2
:1014CC001FD01A4B00229A602000FFF7BFFF174B6A
:1014DC009B68002B0BD1134B9A6916490A409A61F1
:1014EC005A6915490A405A61104B00221A7010BDF6
:1014FC000622024202D00D4A1469BDE7012464425F
:10150C00BAE70A4A5369013B5361002B03D1074BDD
:10151C0000229A60D8E713001269501C186100F081
:10152C000DF8D1E700200240FAC30000D0000020E3
:10153C0001000400FFFFFFFEFFFFFFFC044A53699C
:10154C0004490B40C0001843034B184350617047CB
:10155C000020024007FEFFFF02000100F0B5846C82
:10156C00C56C6560046D002C02D0446D856D6560A2
:10157C000B4F7C681C26056C2E400125B5402C4376
:10158C007C60046863608368102B04D003689960E6
:10159C000368DA60F0BD03689A600368D960F9E704
:1015AC000000024010B50400FF20236818400838E2
:1015BC001421FEF7ABFD236C9B08064A944663444A
:1015CC009B006364044BA3641C2318401B3B8340A7
:1015DC00E36410BD0082001080080240FF234268C3
:1015EC001340064A9A1892000265054A4265013B6F
:1015FC0003221A4001239340836570473F820010F9
:10160C004009024070B5041E4DD00568274BE81800
:10161C001421FEF77BFD8000206425230222E25476
:10162C002B68234A13402B6021680A68A368E06882
:10163C0003432069034360690343A0690343E069E2
:10164C000343206A034313430B602000FFF7AAFFF8
:10165C008023DB01A2689A4218D0626CFF23616878
:10166C000B401360A36CE26C5A606368013B032B64
:10167C000FD9002323656365A3650023E36325224B
:10168C000121A154013AA354002070BD00236360D2
:10169C00E3E72000FFF7A2FF236D00221A60636DC1
:1016AC00A26D5A60E9E70120EFE7C046F8FFFDBFE5
:1016BC000F80FFFF70B504002420205C012843D06C
:1016CC002420012525540130205C012804D002205F
:1016DC0024230022E25470BD24300135255400200F
:1016EC00E063256828680126B04328602000FFF7D6
:1016FC0035FF236B002B1CD0226813680E210B4383
:10170C001360636C1A68D20304D5196880225200E6
:10171C000A431A60236D002B04D0196880225200F2
:10172C000A431A602268136801210B4313600020DE
:10173C00CEE72268136804218B4313602268136878
:10174C0006310B431360DCE70220C4E730B50028F8
:10175C0036D02523C35C022B06D00423C36320336D
:10176C000022C254012030BD026813680E218B4345
:10177C001360426C136813490B40136001680A68CC
:10178C0001239A430A60104C62681C21056C2940A5
:10179C008B4013436360836CC26C5A60036D002BE7
:1017AC0006D01A6807490A401A60436D826D5A6068
:1017BC0025230122C254013B0022C2540020D2E74F
:1017CC000120D0E7FFFEFFFF0000024070B524238C
:1017DC000122C2540133C35C022B03D00423C36324
:1017EC00012070BD026813680E218B4313600168E1
:1017FC000A6801239A430A60416C0A68124C224021
:10180C000A60124C62681C21056C29408B40134302
:10181C006360836CC26C5A60036D002B06D01A682F
:10182C0009490A401A60436D826D5A6025230122D2
:10183C00C254013B0022C254836B002B02D0984748
:10184C000020CEE70020CCE7FFFEFFFF00000240A7
:10185C0070B5314B1968046825681C23026C134061
:10186C0004229A40114216D06A0714D523689B06AD
:10187C0003D42368042293432360274C63681C2100
:10188C00026C114004228A4013436360036B002BEB
:10189C0000D0984770BD02229A4011421CD0AA0772
:1018AC001AD523689B0606D423680A229343236027
:1018BC002523093AC254184C63681C21026C114050
:1018CC0002228A401343636024230022C254C36A59
:1018DC00002BDFD09847DDE708229A401142D9D07F
:1018EC002B07D7D523680E22934323600A4C6268DA
:1018FC001C21036C194001231D008D402A4362609A
:10190C00C3632522835423330022C254436B002B20
:10191C00C0D09847BEE7C04600000240C06B70477D
:10192C0010B5104A136810490B4003431360802311
:10193C009B00984201D0002010BD0C4B1B68580036
:10194C00C01840000A49FEF7E1FB0130054B5B690A
:10195C005B0503D5002803D00138F7E70020EBE73F
:10196C000320E9E700700040FFF9FFFF08000020AA
:10197C0040420F0070B5002811DB8308134EC033B2
:10198C009B009D5903242040C000FF22140084407A
:10199C00A54389010A4082402A439A5170BD0F2306
:1019AC000340083B9B0806339B00094A944663445A
:1019BC005C6803221040C000FC3215008540AC432B
:1019CC0089010A40824022435A60E7E700E100E0C7
:1019DC0000ED00E0002805DB1F2318401E3B834070
:1019EC00014A13607047C04600E100E001388023D3
:1019FC005B0498420FD2094A50600948036A1B02E3
:101A0C001B0AC02109060B430362002393600733B2
:101A1C001360002070470120FCE7C04610E000E096
:101A2C0000ED00E010B50400114B1968002901D13C
:101A3C00012010BDFA208000FEF768FB01000D4B61
:101A4C001868FEF763FBFFF7D1FF00280DD1032CBC
:101A5C0001D90120EDE70130002221004042FFF7BF
:101A6C0089FF054B1C600020E3E70120E1E7C0463D
:101A7C0000000020080000200400002010B5084AD7
:101A8C00116880235B000B4313600020FFF7CAFF33
:101A9C00041E02D00124200010BDFEF717FFFAE748
:101AAC0000200240034A1368034909685B1813605D
:101ABC007047C046F400002000000020014B18685D
:101ACC007047C046F400002070B50400FFF7F6FF25
:101ADC000500631C02D0044B1B68E418FFF7EEFFF3
:101AEC00401BA042FAD370BD00000020024B8022A4
:101AFC0012059A607047C04600ED00E010B50B4827
:101B0C000B4B036000234360E02212018260094A00
:101B1C004261036243628362C362036300F038F97B
:101B2C00002800D110BDFEF77DFDFBE7F80000207A
:101B3C00007C0040FFFF000000B583B002680C4B36
:101B4C009A4201D003B000BD0A4BD96B8022120619
:101B5C000A43DA63DB6BDB0FDB070193019B00228B
:101B6C0000211120FFF706FF1120FFF733FFE9E7F3
:101B7C00007C00400010024010B51948194B03605E
:101B8C00E1235B02436000238360C36003610C228A
:101B9C0042618361C36103624362836201F044FB6F
:101BAC00002811D100210E4801F0CEFB00280ED1E7
:101BBC0000210B4801F0EEFB00280BD1084801F086
:101BCC00A3FB002809D110BDFEF72CFDEAE7FEF7B8
:101BDC0029FDEDE7FEF726FDF0E7FEF723FDF2E722
:101BEC008C0100200044004030B589B00400142260
:101BFC00002103A801F02CFF254B22689A4201D04A
:101C0C0009B030BD234BD96B802080020143D963CE
:101C1C00DA6B02400192019A596B0122114359630C
:101C2C005B6B13400293029B0C2303930A3B0493BC
:101C3C000025059506950792A02003A9C005FEF77F
:101C4C006DFE1548154B0360342343608560C560F9
:101C5C004C33036145618561603BC3610562FFF7ED
:101C6C00D1FC002811D10C4BA3679C6200220021EF
:101C7C001C20FFF77FFE1C20FFF7ACFE084B1A68F8
:101C8C00136810210B431360BAE7FEF7CBFCEAE7AD
:101C9C0000440040001002403001002008000240C7
:101CAC008C01002010B500243F2C19DC0D4B1B5D62
:101CBC000D2B01D00134F7E70A4B00221A5500F026
:101CCC0029F8094800F0DEF9002C04DB054B002252
:101CDC001A55013CF8E740220249034800F068F924
:101CEC0010BDC046900000208C01002010B5074BA1
:101CFC001B68074A934200D010BDDA69D206FBD5A7
:101D0C0010221A62FFF7CEFFF6E7C0468C010020C6
:101D1C0000440040F0B59BB001AC002760220021CC
:101D2C0002A801F095FE174B220003CB03C21B88BF
:101D3C001380FA26B600144D330009222100280026
:101D4C0001F0B4F901976022002102A801F080FE95
:101D5C000E49200001F084FE82B2330021002800DD
:101D6C0001F0A4F901976022002102A801F070FE95
:101D7C000A232380330001222100280001F096F968
:101D8C001BB0F0BD5C4300088C01002090000020CB
:101D9C0070B5041E4CD03623C35C002B3DD03623CB
:101DAC000222E2542568EB686068012804D0802286
:101DBC001204A16A914201D11E22934361691D4A0A
:101DCC00914201D01C4A13401C4A1A40A368034399
:101DDC00266A3343666A3343A66A334313430128A6
:101DEC0003D080221204964203D1E2682069024398
:101DFC001343104A914204D0A2691143E269114382
:101E0C000B43EB6023680E4A93420CD0E26A5A6291
:101E1C0036230122E254002070BD35330022C25417
:101E2C00FFF78AFEBBE7E26A216B0A435A62EFE7CF
:101E3C000120F1E7FFFF00003F1FFFFFF8F119FF42
:101E4C00007C004010B536230222C2544368012B9B
:101E5C0004D080231B04826A9A4219D002689368CA
:101E6C00102423439360026893680E3C23439360D1
:101E7C000468236901221343236103689961016893
:101E8C000B69042423430B613623C254002010BD7C
:101E9C000268D368014C2340D360DFE7FFF1FFFFFA
:101EAC00704770477047704770477047704710B560
:101EBC00040003681A68D20702D59A68D2072AD49C
:101ECC0023681A68920702D59A68920728D4236867
:101EDC001A68520702D59A68520727D423681A68E1
:101EEC00120702D59A68120726D423681A68D206FC
:101EFC0002D59A68D20625D423681A68920602D5B0
:101F0C009A68920624D423681A68520602D59A68F5
:101F1C00520623D410BD01225A60FFF7C1FFCFE750
:101F2C0002225A602000FFF7BCFFD0E704225A605F
:101F3C002000FFF7B7FFD1E708225A602000FFF717
:101F4C00B2FFD2E710225A602000FFF7ADFFD3E7B3
:101F5C0020225A602000FFF7A8FFD4E740225A60E5
:101F6C002000FFF7A3FFD5E702681368C0218B435D
:101F7C0013600268936803490B409360802320220E
:101F8C00C2507047FFFF7FFF0268136806490B4081
:101F9C0013600268936805490B40936084232022E8
:101FAC00C2500023C3667047DFFEFFFFFEFFFFEF4A
:101FBC0010B504008423C358202B55D1002955D0CB
:101FCC00002A55D080235B018068984231D07C2355
:101FDC00E35C012B4ED07C230120E054A165203B17
:101FEC00E2522C330021E150043B2231E150A36F2B
:101FFC00002B25D02049D962A36F20491963A36F08
:10200C001F495963A36F0021996321682431130080
:10201C00A26DA06FFFF74EFB002811D08823102271
:10202C00E2500C3B0022E25404332032E2500120F7
:10203C001BE02369002BCAD1CB07C8D5012014E0C3
:10204C007C230022E2542268116884330B43136012
:10205C002268936801210B439360226893683F3197
:10206C000B439360002000E0022010BD0120FCE730
:10207C000120FAE70220F8E7412100088721000837
:10208C009321000870B504008023C0588422A55801
:10209C00226891680B4201D0212807D023689A68E6
:1020AC00520636D5222D1AD0002033E093688021B9
:1020BC008B439360606F002803D0FFF747FB002829
:1020CC0003D12000FFF750FFE8E7606FFFF726FC15
:1020DC002028F6D188231022E2501D381AE09A6885
:1020EC0040218A439A60A06F002803D0FFF72EFB93
:1020FC00002804D12000FFF747FF00200AE0A06F62
:10210C00FFF70CFC2028F5D188231022E2501D3853
:10211C0000E0002070BD704710B5026813684021C4
:10212C008B43136080232022C25000230367FFF7E8
:10213C00F2FF10BD10B50300806A1B681B689B067C
:10214C0015D45E230022C2520268136809490B4061
:10215C001360026893680331FF318B43936002680C
:10216C0093683F318B43936084232022C25001F04B
:10217C0013FC10BDFFFEFFFF704710B5806AFFF720
:10218C00FBFF10BD704770B5846A8023E158842230
:10219C00A55822689268134201D021290ED02368D9
:1021AC009B685B0601D5222D0FD08822A3581021E5
:1021BC000B43A3502000FFF7E5FF70BD2A3B002224
:1021CC00E2522000FFF7D0FEE9E75E230022E25244
:1021DC002000FFF7D9FEE8E7F8B504000268D369E0
:1021EC00156890680F210E001E40194205D1990602
:1021FC0003D5A90629D4C10027D4002E08D05A49EA
:10220C0006000E40084226D1902149000D4222D1F1
:10221C00D90202D5410200D58BE01A0605D52A0653
:10222C0000D58DE0020200D58AE05A0602D56A0676
:10223C0000D58CE01A0202D56A0000D58BE0DB01D8
:10224C0002D5002D00DA8AE0F8BDE36E002BFBD03E
:10225C0020009847F8E7D90707D5E90505D50127E8
:10226C001762882162583A4362509A0709D5C2070F
:10227C0007D52268022111628631625804273A433D
:10228C0062505A0709D5C20707D52268042111628A
:10229C008431625802273A4362501A070AD5AA06BB
:1022AC0001D4002E06D022680826166288216258B6
:1022BC00324362508822A258002AC5D09B0608D50A
:1022CC00AB0601D4C30004D5E36E002B01D0200073
:1022DC0098478823E25823689B685B0601D4130750
:1022EC0020D52000FFF750FE23689A68520615D5BA
:1022FC009A6840218A439A60A36F002B0AD01B4A2C
:10230C009A63A06FFFF762FA00289DD0A06F836BD1
:10231C00984799E72000FFF735FF95E72000FFF776
:10232C0031FF91E72000FFF72DFF88230022E250B8
:10233C008AE780235B031362200000F0E1FF83E750
:10234C00236F002B00D17FE7200098477CE720000B
:10235C00FFF7E2FE78E7200000F0D4FF74E72000DE
:10236C0000F0CFFF70E7C046010000107D2300088D
:10237C0010B5806A00235E228352083A8352FFF71D
:10238C0001FF10BD70B50400016883680269134336
:10239C0042691343C2691343426E1A430B68A9483E
:1023AC00034013430B6022685368A7490B40E16854
:1023BC000B435360A1692268A44B9A4201D0236A53
:1023CC0019439368A24803400B4393602268D36A75
:1023DC000F218B43616A0B43D36223689D4A93425E
:1023EC000FD09D4A93426CD09C4A934200D1A1E0FD
:1023FC009B4A934200D19FE0944A934272D010269C
:10240C000EE0984A516D03220A40022A00D181E065
:10241C0053D8002A00D17FE0012A00D07EE00426A8
:10242C008A4A934200D191E080231B02E2699A42CE
:10243C0000D136E3042E01D100F019FD01D900F0D2
:10244C0070FC002E01D100F0A9FC022E01D000F08E
:10245C0065FC636A002B01D100F0E7FC012B01D174
:10246C0000F0F1FC022B01D100F0EFFC032B01D1A9
:10247C0000F0EDFC042B01D100F0EBFC052B01D19D
:10248C0000F0E9FC062B01D100F0E7FC072B01D191
:10249C0000F0E5FC082B01D100F0E3FC092B01D185
:1024AC0000F0E1FC0A2B01D100F0DFFC0B2B01D179
:1024BC0000F0B8FC012100F0B9FC032A30D1082649
:1024CC00AEE7684A516D0C220A40082A2AD005D87A
:1024DC00002A29D0042A29D10426A1E70C2A27D1C5
:1024EC0008269DE75F4A526DC02109010A408021F0
:1024FC0009018A4222D007D8002A21D08021C900A4
:10250C008A421FD104268BE7C02109018A421BD1C4
:10251C00082685E7022683E7002681E710267FE759
:10252C0010267DE702267BE7002679E7102677E761
:10253C00102675E7002673E7002671E702266FE781
:10254C0000266DE710266BE7102669E7042E00D1F4
:10255C0000E12CD8002E55D0022E26D1636A002B18
:10256C0000D1DEE0012B00D1E0E0022B00D1DFE056
:10257C00032B00D1DEE0042B00D1DDE0052B00D1D4
:10258C00DCE0062B00D1DBE0072B00D1DAE0082BD6
:10259C0000D1D9E0092B00D1D8E00A2B00D1D7E02B
:1025AC000B2B00D1BAE00121BCE00126ECE3082E94
:1025BC0026D1636A002B00D107E1012B00D10AE17F
:1025CC00022B00D109E1032B00D108E1042B00D12F
:1025DC0007E1052B00D106E1062B00D105E1072B05
:1025EC0000D104E1082B00D103E1092B00D102E159
:1025FC000A2B00D101E10B2B00D1E3E00121E5E036
:10260C000126C1E3FEF7EAFD636A002B2CD0012BF7
:10261C0070D0022B70D0032B70D0042B70D0052BF4
:10262C0070D0062B70D0072B70D0082B70D0092BD4
:10263C0070D00A2B70D00B2B01D0012115E080211A
:10264C00490012E0F369FFCFFFCFFFFF008000408D
:10265C00FFF4FF11003801400044004000480040E6
:10266C00004C0040001002400121FDF74FFD0028F6
:10267C0001D100F063FC65686B005B19834201D9E2
:10268C0000F05EFC2B03834201D200F05BFC042EB5
:10269C0000D175E100D9B5E0002E00D1E7E0022EA3
:1026AC0000D0ACE0636A002B00D137E1012B00D1E4
:1026BC0048E1022B00D148E1032B00D148E1042B67
:1026CC0000D148E1052B00D148E1062B00D148E1AF
:1026DC00072B00D148E1082B00D148E1092B00D190
:1026EC0048E10A2B00D148E10B2B00D112E1012269
:1026FC00002315E10221B8E70421B6E70621B4E76F
:10270C000821B2E70A21B0E70C21AEE71021ACE7B3
:10271C002021AAE74021A8E78021A6E780214900D3
:10272C0000E00121A748FDF7F1FCA0E70221F9E741
:10273C000421F7E70621F5E70821F3E70A21F1E781
:10274C000C21EFE71021EDE72021EBE74021E9E731
:10275C008021E7E7FEF71AFC636A002B1AD0012BE5
:10276C001CD0022B1CD0032B1CD0042B1CD0052BF3
:10277C001CD0062B1CD0072B1CD0082B1CD0092BD3
:10278C001CD00A2B1CD00B2B01D0012103E0802183
:10279C00490000E00121FDF7B9FC68E70221FAE7E6
:1027AC000421F8E70621F6E70821F4E70A21F2E70D
:1027BC000C21F0E71021EEE72021ECE74021EAE7BD
:1027CC008021E8E78021490000E0012180200002FF
:1027DC00FDF79CFC4BE70221F8E70421F6E7062104
:1027EC00F4E70821F2E70A21F0E70C21EEE71021CB
:1027FC00ECE72021EAE74021E8E78021E6E7012623
:10280C0000202BE0082E27D1636A002B00D115E1A4
:10281C00012B00D127E1022B00D127E1032B00D1A2
:10282C0027E1042B00D127E1052B00D127E1062B52
:10283C0000D127E1072B00D127E1082B00D127E19C
:10284C00092B00D127E10A2B00D127E10B2B00D15A
:10285C00F0E001220023F3E0012600205A4A5B4BF2
:10286C00C318934200D96FE32368D8608CE2FEF75B
:10287C00B5FC636A002B1CD0012B2DD0022B2ED063
:10288C00032B2FD0042B30D0052B31D0062B32D07C
:10289C00072B33D0082B34D0092B35D00A2B36D04C
:1028AC000B2B02D00122002305E0802252000023D2
:1028BC0001E0012200230021FDF79EFD050E0B0215
:1028CC002B430202656868080021801859412A00D0
:1028DC000023FDF791FDC1E702220023EBE7042260
:1028EC000023E8E706220023E5E708220023E2E7BD
:1028FC000A220023DFE70C220023DCE7102200234E
:10290C00D9E720220023D6E740220023D3E78022F8
:10291C000023D0E780225200002301E00122002393
:10292C0028480021FDF768FD060E0B023343020216
:10293C0068080021801859412A000023FDF75CFD2E
:10294C0000268BE702220023EAE704220023E7E7B4
:10295C0006220023E4E708220023E1E70A220023F1
:10296C00DEE70C220023DBE710220023D8E720222D
:10297C000023D5E740220023D2E780220023CFE7B3
:10298C00FEF704FB636A002B22D0012B34D0022B00
:10299C0035D0032B36D0042B37D0052B38D0062B53
:1029AC0039D0072B3AD0082B3BD0092B3CD00A2B23
:1029BC003DD00B2B02D0012200230BE080225200D1
:1029CC00002307E00024F400FFFC0F0000FDFFFFD4
:1029DC00012200230021FDF70FFD050E0B022B43F6
:1029EC000202656868080021801859412A000023FA
:1029FC00FDF702FD002631E702220023EAE704225C
:102A0C000023E7E706220023E4E708220023E1E79E
:102A1C000A220023DEE70C220023DBE7102200232E
:102A2C00D8E720220023D5E740220023D2E78022DA
:102A3C000023CFE780225200002301E00122002373
:102A4C00802000020021FDF7D7FC060E0B02334359
:102A5C00020268080021801859412A000023FDF762
:102A6C00CBFC0026FAE602220023E9E7042200232D
:102A7C00E6E706220023E3E708220023E0E70A2228
:102A8C000023DDE70C220023DAE710220023D7E72E
:102A9C0020220023D4E740220023D1E78022002308
:102AAC00CEE7042E00D1D0E02DD8002E66D0022E19
:102ABC0026D1636A002B00D1A4E0012B00D1B0E039
:102ACC00022B00D1AFE0032B00D1AEE0042B00D1E0
:102ADC00ADE0052B00D1ACE0062B00D1ABE0072B11
:102AEC0000D1AAE0082B00D1A9E0092B00D1A8E065
:102AFC000A2B00D1A7E00B2B00D180E0012182E052
:102B0C00012600202AE0082E26D1636A002B00D172
:102B1C00E0E0012B00D1EDE0022B00D1ECE0032B27
:102B2C0000D1EBE0042B00D1EAE0052B00D1E9E069
:102B3C00062B00D1E8E0072B00D1E7E0082B00D1F1
:102B4C00E6E0092B00D1E5E00A2B00D1E4E00B2BE9
:102B5C0000D1BCE00121BEE001260020A84A030000
:102B6C00103B934200D9F1E10F2302009A43400835
:102B7C00083B184010432368D86005E1FEF72EFB94
:102B8C00636A002B1AD0012B25D0022B25D0032BE6
:102B9C0025D0042B25D0052B25D0062B25D0072B93
:102BAC0025D0082B25D0092B25D00A2B25D00B2B73
:102BBC0001D0012103E08021490000E00121FDF753
:102BCC00A5FA400063685B08C0186168FDF79EFABF
:102BDC000004000CC2E70221F1E70421EFE7062113
:102BEC00EDE70821EBE70A21E9E70C21E7E71021E3
:102BFC00E5E72021E3E74021E1E78021DFE78021C1
:102C0C00490000E001217F48FDF780FA400063682D
:102C1C005B08C0186168FDF779FA0004000C002607
:102C2C009CE70221EFE70421EDE70621EBE7082101
:102C3C00E9E70A21E7E70C21E5E71021E3E720218A
:102C4C00E1E74021DFE78021DDE7FEF79FF9636ACA
:102C5C00002B1AD0012B26D0022B26D0032B26D0EA
:102C6C00042B26D0052B26D0062B26D0072B26D0BE
:102C7C00082B26D0092B26D00A2B26D00B2B01D0C3
:102C8C00012103E08021490000E00121FDF73EFA1B
:102C9C00400063685B08C0186168FDF737FA0004F0
:102CAC00000C00265AE70221F0E70421EEE706218A
:102CBC00ECE70821EAE70A21E8E70C21E6E7102116
:102CCC00E4E72021E2E74021E0E78021DEE78021F4
:102CDC00490000E0012180200002FDF717FA4000B6
:102CEC0063685B08C0186168FDF710FA0004000CFB
:102CFC00002633E70221EEE70421ECE70621EAE7A0
:102D0C000821E8E70A21E6E70C21E4E71021E2E7D5
:102D1C002021E0E74021DEE78021DCE701260020CE
:102D2C002AE0082E26D1636A002B00D1E3E0012BA8
:102D3C0000D1EFE0022B00D1EEE0032B00D1EDE04F
:102D4C00042B00D1ECE0052B00D1EBE0062B00D1DD
:102D5C00EAE0072B00D1E9E0082B00D1E8E0092BD1
:102D6C0000D1E7E00A2B00D1E6E00B2B00D1BFE04D
:102D7C000121C1E001260020214A0300103B9342AF
:102D8C0000D9E5E02368D86001236A22A352023AF5
:102D9C00A3520023E3662367300070BDFEF71EFAD2
:102DAC00636A002B1AD0012B24D0022B24D0032BC6
:102DBC0024D0042B28D0052B28D0062B28D0072B69
:102DCC0028D0082B28D0092B28D00A2B28D00B2B45
:102DDC0001D0012103E08021490000E00121FDF731
:102DEC0095F963685B08C0186168FDF78FF90004FA
:102DFC00000CC1E70221F2E70421F0E70621EEE71F
:102E0C00EFFF00000024F4000821E8E70A21E6E7C0
:102E1C000C21E4E71021E2E72021E0E74021DEE786
:102E2C008021DCE78021490000E001214948FDF7C1
:102E3C006DF963685B08C0186168FDF767F90004F9
:102E4C00000C002698E70221F0E70421EEE70621AA
:102E5C00ECE70821EAE70A21E8E70C21E6E7102174
:102E6C00E4E72021E2E74021E0E78021DEE7FEF7FE
:102E7C008DF8636A002B1AD0012B25D0022B25D09C
:102E8C00032B25D0042B25D0052B25D0062B25D0A4
:102E9C00072B25D0082B25D0092B25D00A2B25D084
:102EAC000B2B01D0012103E08021490000E001211E
:102EBC00FDF72CF963685B08C0186168FDF726F90B
:102ECC000004000C002657E70221F1E70421EFE78C
:102EDC000621EDE70821EBE70A21E9E70C21E7E7FA
:102EEC001021E5E72021E3E74021E1E78021DFE73E
:102EFC008021490000E0012180200002FDF706F945
:102F0C0063685B08C0186168FDF700F90004000CE9
:102F1C00002631E70221EFE70421EDE70621EBE77C
:102F2C000821E9E70A21E7E70C21E5E71021E3E7AF
:102F3C002021E1E74021DFE78021DDE7002623E7C0
:102F4C00012621E701261FE701261DE701261BE7C5
:102F5C00012619E70024F400836ADB0706D5026812
:102F6C0053682C490B40C16A0B435360836A9B071F
:102F7C0006D50268536828490B40016B0B4353601C
:102F8C00836A5B0706D50268536824490B40416B82
:102F9C000B435360836A1B0706D5026853682049AC
:102FAC000B40816B0B435360836ADB0606D50268CA
:102FBC0093681C490B40C16B0B439360836A9B065F
:102FCC0006D50268936818490B40016C0B4393605B
:102FDC00836A5B060BD50268536814490B40416C3D
:102FEC000B43536080235B03426C9A420AD0836A82
:102FFC001B0606D5026853680D490B40C16C0B4388
:10300C0053607047026853680A490B40816C0B434C
:10301C005360ECE7FFFFFDFFFFFFFEFFFFFFFBFF31
:10302C00FF7FFFFFFFEFFFFFFFDFFFFFFFFFEFFF64
:10303C00FFFFF7FFFFFF9FFFF8B5CE46474680B571
:10304C0006000D0017009946089B98463368DC690A
:10305C002C40641B63425C41BC4220D1434601338B
:10306C00F4D0FEF72BFD4B46C01A404502D8434620
:10307C00002BEBD1326813680B490B40136032689C
:10308C009368A331FF318B43936020238022B3508C
:10309C000432B3505C330022F254032000E00020D1
:1030AC000CBC90469946F8BD5FFEFFFFF0B5C646D6
:1030BC0000B582B004000D0090461E008023C3585A
:1030CC00202B6AD1002900D16CE0002A00D16BE0E2
:1030DC0080235B0182689A421CD07C23E35C012B29
:1030EC0064D07C230122E2540C330022E250083BD2
:1030FC002132E250FEF7E2FC070054234246E25232
:10310C000233E25280235B01A2689A4209D0002369
:10311C0098461AE00369002BDFD1CB07DDD50120DF
:10312C003CE02369002B25D0002398460DE0434654
:10313C001B882268DB05DB0D936202239C46E0446E
:10314C005623E25A013A92B2E2525623E35A9BB208
:10315C00002B12D000963B00002280212000FFF7AC
:10316C006BFF002824D1002DE1D02A7823689A62C5
:10317C000135E5E7A8460025E7E700963B0000226D
:10318C0040212000FFF758FF002813D18023202274
:10319C00E250043B0022E25400E0022002B004BCE6
:1031AC009046F0BD0120F9E70120F7E70220F5E792
:1031BC000320F3E70320F1E730B583B00400882344
:1031CC000022C250FEF77AFC050023681B681B071F
:1031DC000ED423681B685B0717D420238022A350CE
:1031EC000432A3505C330022E254002003B030BD03
:1031FC0080210C4B00930300002289032000FFF771
:10320C001BFF0028E5D00320F0E78021054B00933D
:10321C002B000022C9032000FFF70EFF0028DCD092
:10322C000320E3E7FFFFFF0110B5041E30D080231D
:10323C00C358002B22D080232422E250226813682A
:10324C0001218B4313602000FFF79CF8012814D058
:10325C00A36A002B18D1226853680E490B405360A7
:10326C00226893682A218B4393602268136829395A
:10327C000B4313602000FFF79FFF10BD7C3300222F
:10328C00C254FEF7B1FCD6E72000FFF765FEE2E77B
:10329C000120F2E7FFB7FFFF70B584B0040002AA6B
:1032AC00154B03CB03C26A46144B03CB03C2636EAC
:1032BC00002B06D101336A22A352023AA35204B066
:1032CC0070BD226895686D0E07231D409268520FE1
:1032DC00134002AEF05CC0006A46D15CFCF7A0FF64
:1032EC006A23E052705DC0006B46595DFCF798FF95
:1032FC006823E052E3E7C046EC420008684300084C
:10330C00704770477047000070B57C23C35C012B7D
:10331C0015D07C24012606558025242343510268B0
:10332C0013681168B1431160064A134000224266CB
:10333C0001680B60202343510255002070BD022010
:10334C00FCE7C046FFFFFFDFF8B504000B007C2252
:10335C00825C012A1BD07C2501206055802624220A
:10336C00A251226817681168814311602268916824
:10337C00C900C908194391602000FFF78DFF23682D
:10338C001F602023A351002363550020F8BD0220A9
:10339C00FCE70000F8B504000B007C22825C012ADB
:1033AC001BD07C250120605580262422A251226846
:1033BC0017681168814311602268916808480140C0
:1033CC00194391602000FFF767FF23681F602023DB
:1033DC00A351002363550020F8BD0220FCE7C04632
:1033EC00FFFFFFF110B51148114B036082235B0006
:1033FC00436000238360E022D200C260036143611A
:10340C00802292008261D13AFF3AC2610362436228
:10341C008362293AC26203630833436300F048F9BC
:10342C00002800D110BDFDF7FDF8FBE718020020C5
:10343C000038004070B588B004001422002103A8A5
:10344C0000F006FB2268194B9A4201D008B070BDFF
:10345C00174BD96B8020C0010143D963DA6B024052
:10346C000192019A5A6B02252A435A635B6B2B40DB
:10347C000293029B40230393049500240594069425
:10348C003C3B07930B4E03A93000FDF747FAC023D2
:10349C005B000393049505940694803BFF3B0793D4
:1034AC0003A93000FDF73AFAD0E7C04600380040D7
:1034BC00001002400004005000B583B0FF230093BD
:1034CC0000230193034B08226946034800F056F988
:1034DC0003B000BDA086010018020020F0B5C6465E
:1034EC0000B507000D0090461E003B689C682C4000
:1034FC00641B63425C4144453BD0731CF5D0FEF722
:10350C00DDFA069BC01AB04201D2002EEDD13A680A
:10351C005368E0218B43536082235B007A689A42A4
:10352C000CD080239B01BA6A9A4216D05D230122EB
:10353C00FA54013B0022FA5403201BE0BB688022A2
:10354C001202934203D08022D2009342E9D13A680E
:10355C00136840218B431360E3E73A68136807490B
:10356C000B4013603A68116880239B010B43136076
:10357C00DCE7002004BC9046F0BDC046FFDFFFFF37
:10358C00F8B5CE46474680B581460E0017009846E2
:10359C0002E0434601330DD14B461D68AC68344004
:1035AC00BC424AD0C021C9008E42F2D1002FF0D1CA
:1035BC002B7BEEE7FEF782FA089BC01A404502D23D
:1035CC004346002BE8D14B461A685368E0218B43E5
:1035DC00536082235B004A4652689A420ED0802385
:1035EC009B014A46926A9A4219D05D2301224946B0
:1035FC00CA54013B0022CA5403201FE04B469B686F
:10360C0080221202934203D08022D2009342E6D150
:10361C004B461A68136840218B431360DFE74B4617
:10362C001A68136807490B4013604B461A681168F7
:10363C0080239B010B431360D7E700200CBC904602
:10364C009946F8BDFFDFFFFF70B582B004000D0096
:10365C001600C02100922B0000224901FFF790FFB9
:10366C00002818D100962B00002280212000FFF7A3
:10367C0035FF002816D1C02100962B000022C9006E
:10368C002000FFF77DFF00280AD0236E2022134371
:10369C002366032004E0236E2022134323660320B9
:1036AC0002B070BD236E2022134323660320F7E77C
:1036BC0010B5041E5ED0002383625D33C35C002B07
:1036CC004CD05D230222E2542268136840218B43C4
:1036DC001360E368E022D200934245D90022F02126
:1036EC0009018B4205D0E021C9008B4201D0002199
:1036FC00A162216B002905D1E021C9008B4236D98A
:10370C00022323636368A1680B4321690B4361693E
:10371C000B4380218900A06901400B43E1690B43F5
:10372C00216A0B432168A06A03430B60618B04235D
:10373C000B40616A0B43616B0B43E1680B432168DF
:10374C0013434B602268D3690B490B40D3610023B0
:10375C0023665D330122E254002010BD5C3300224D
:10376C00C254FFF767FEACE780225201B7E7012392
:10377C002363C7E70120F0E7FFF7FFFFF0B5CE4664
:10378C0000B584B00400019191461D005C23C35C1C
:10379C00012B00D1E5E05C230122C254FEF78EF927
:1037AC0006005D23E35CDFB2012B00D0C5E001997C
:1037BC00002900D1C2E04B46002B00D1BEE05D23B6
:1037CC000322E25400232366A1634A46A287E287C0
:1037DC0023644422A3520232A3522365E364802360
:1037EC001B02A2689A421ED023681A68520603D4A0
:1037FC001A6840210A431A60E023DB00E2689A420F
:10380C0036D96368002B02D04B46012B1DD123689F
:10381C00A26B1288DA60A36B0233A363E38F013BC4
:10382C009BB2E38711E0226811688023DB010B4314
:10383C001360D9E7FEF742F9801BA84202D36B1C38
:10384C0000D086E0002D00D185E0E28F92B2002AF4
:10385C005BD023689A689207ECD5A26B1288DA6069
:10386C00A36B0233A363E38F013B9BB2E387ECE7CB
:10387C006368002B02D04B46012B2FD1E38F9BB2F8
:10388C00012B0BD92368A26B1288DA60A36B02336D
:10389C00A363E38F023B9BB2E3871FE0A36B1B7810
:1038AC0022681373A36B0133A363E38F013B9BB2B9
:1038BC00E38713E0A36B1B781373A36B0133A36330
:1038CC00E38F013B9BB2E38708E0FEF7F7F8801B20
:1038DC00A84201D36B1C40D1002D40D0E28F92B294
:1038EC00002A12D0226893689B07EED5E38F9BB217
:1038FC00012BDFD9A36B1B88D360A36B0233A363AB
:10390C00E38F023B9BB2E387E8E7320029002000FB
:10391C00FFF79AFE002801D020232366A368002B12
:10392C0006D103932368DA6803929B680393039B85
:10393C00236E002B02D1002700E002275D23012219
:10394C00E254013B0022E254380004B004BC91461E
:10395C00F0BD0327F2E70327F0E70327EEE7032781
:10396C00ECE70227F0E7000000B583B0094A916B41
:10397C00012319439163926B13400193019B002225
:10398C0000210920FDF7F6FF0920FEF723F803B00C
:10399C0000BDC0460010024010B5FEF7BBF9402335
:1039AC00002B04DB024A0021D154013BF8E710BD87
:1039BC00900000200D488546002103E00C4B5B581D
:1039CC00435004310B480C4B42189A42F6D30B4A25
:1039DC0002E0002313600432094B9A42F9D3FEF73C
:1039EC0085F800F011F8FCF78DFEFEE70090002042
:1039FC00B44300080000002070000020700000207C
:103A0C008C020020FEE7000070B500260C4D0D4C1A
:103A1C00641BA410A64209D1002600F055FC0A4DE7
:103A2C000A4C641BA410A64205D170BDB300EB5820
:103A3C0098470136EEE7B300EB5898470136F2E7AA
:103A4C00AC430008AC430008AC430008B04300088A
:103A5C0003008218934200D1704719700133F9E7C3
:103A6C000EB400B50B499CB01DAB029006900791AB
:103A7C0004910948094904CB0591006802A90193F6
:103A8C0000F070F80023029A13701CB008BC03B04D
:103A9C001847C046FFFFFF7F0C0000200802FFFF05
:103AAC00F0B58E6885B007000C00039201939E421E
:103ABC003CD890238A89DB001A4234D0032509694B
:103ACC0023685B1A0293636902985D43EB0F5D19DF
:103ADC00019B6D1001331B18AB4200D91D0053051F
:103AEC0032D52900380000F031FB061E09D10C2319
:103AFC003B6040230120A28940421343A38105B0BF
:103B0C00F0BD029A216900F0BAFAA389144A1A404E
:103B1C0080231343A381029B2661F61826606561FE
:103B2C00019EED1AA560019B9E4200D9019E3200B8
:103B3C000399206800F0ACFAA36800209B1BA360DB
:103B4C0023689E192660DAE72A00380000F05CFB37
:103B5C00061EE0D13800216900F0AEFAC7E7C04676
:103B6C007FFBFFFFF0B5A1B003901D008B890F0008
:103B7C0016001B0611D50B69002B0ED1402100F04D
:103B8C00E5FA38603861002805D10C23039A013816
:103B9C00136021B0F0BD40237B61002308AC63614E
:103BAC00203363761033A376079535002B78002BE2
:103BBC0001D0252B47D1AB1B0593B5420CD032005D
:103BCC0039000398FFF76CFF431C00D1AEE062692B
:103BDC00059B9446634463612B78002B00D1A5E0D0
:103BEC00012200235242626004A9543252186E1C06
:103BFC002360E360A3601370A365052231785448F9
:103C0C0000F032FA751C00281FD12268D30604D5A7
:103C1C00532304A95B1820211970130704D55323CF
:103C2C0004A95B182B21197033782A2B16D0350078
:103C3C0000210A20E3682A786E1C303A092A4ED9F2
:103C4C00002911D117E00135B0E7414B2268C01AA9
:103C5C000123834013432E002360CEE7079B191DDD
:103C6C001B680791002B01DB0B9304E05B42E360C4
:103C7C000223134323602B782E2B0AD16B782A2B2B
:103C8C0035D1079B02351A1D1B680792002B2BDBC5
:103C9C000993304E03223000297800F0E5F9002812
:103CAC0006D04023801B83402268013513432360D8
:103CBC002978062228486E1C217600F0D5F90028B8
:103CCC003CD0264B002B25D10722079B073393436F
:103CDC00083307936369049A9B18636165E7434350
:103CEC00350001219B18A6E701235B42D0E7002396
:103CFC000A201A000135636029786E1C30390929B5
:103D0C0003D9002BC5D00992C3E7424335000123E8
:103D1C005218F1E707AB00933A002100104B0398BF
:103D2C0000E000BF0490049B0133D3D1BB890D98F4
:103D3C005B0600D42DE7012040422AE707AB009335
:103D4C003A002100064B039800F07CF8EAE7C046E5
:103D5C0071430008774300087B4300080000000013
:103D6C00AD3A0008F7B5150001938A680B690C0091
:103D7C000090934200DA130022002B604332127839
:103D8C00002A01D001332B6023689B0602D52B68D7
:103D9C0002332B602268062317001F401A4227D0DB
:103DAC00230043331B785A1E93412268920630D469
:103DBC00220001990098089E4332B047431C25D03D
:103DCC00062320682A68E16800250340042B03D1F0
:103DDC008D1AEB43DB171D40A3682269934201DD6A
:103DEC009B1AED180027BD4220D1002010E00137AE
:103DFC00E3682A689B1ABB42D2DD22000123019999
:103E0C000098089E1932B047431CF0D10120404263
:103E1C00FEBD3020E1184331087021005A1C453199
:103E2C000978A218433202331170C1E72200012332
:103E3C0001990098089E1A32B047431CE6D001370E
:103E4C00D1E70000F0B58BB006920A00433207931D
:103E5C00059004920A7E0C00109B782A06D8622AE0
:103E6C0008D8002A00D1C0E0582A52D02600423689
:103E7C00327022E0100063381528F7D8FCF73CF9B3
:103E8C0016001F00F6FFF6FFF6FFF6FF1F00F6FF09
:103E9C00F6FFF6FFF6FFA80036009A00F6FFF6FFD5
:103EAC00B900F6FF3600F6FFF6FF9E0026001A68F2
:103EBC004236111D1960136833700123A7E008689E
:103ECC0019680A1D05060BD50D681A60002D03DA5A
:103EDC002D23049A6D421370614B0A27039332E031
:103EEC000D681A604106F1D52DB2EFE70D6819681F
:103EFC00081D18602E0601D50D6803E06D06FBD574
:103F0C000D68ADB2564B0A2703936F2A17D10827B9
:103F1C0015E045310A70524A03921A68216820CA8A
:103F2C001A60080650D5CB0702D52023194321600F
:103F3C001027002D03D1202322689A4322602300EE
:103F4C00002243331A706368A360002B03DB042246
:103F5C00216891432160002D02D1049E002B0CD0CE
:103F6C00049E28003900FCF757F9039B013E5B5C6B
:103F7C0033702B0005009F42F3D9082F09D1236819
:103F8C00DB0706D563682269934202DC3023013ECD
:103F9C003370049B9B1B2361079B210000930598A6
:103FAC00069B09AAFFF7DEFE431C35D101204042D7
:103FBC000BB0F0BD202209680A4322602200782150
:103FCC0045321170274AA7E74806ACD5ADB2AAE72F
:103FDC001A680D68101D4969186013682E0601D502
:103FEC00196002E06D06FBD519800023049E236145
:103FFC00D2E71A68111D196016680021300062683A
:10400C0000F032F8002801D0801B606063682361E7
:10401C000023049A1370BFE72369320006990598B0
:10402C00079DA847431CC1D023689B0715D4099B47
:10403C00E0689842BCDA1800BAE72200012306991E
:10404C000598079E1932B047431CAFD00135E36881
:10405C00099A9B1AAB42F0DCE9E70025F7E7C0466A
:10406C008243000893430008C9B28218904201D1E0
:10407C000020704703788B42FBD00130F6E7002319
:10408C0010B59A4200D110BDCC5CC4540133F8E792
:10409C0010B5884202D98B18984203D3002307E04D
:1040AC008B5C8354013AFBD210BDCC5CC4540133FD
:1040BC009A42FAD1F8E7000070B50500002910D03B
:1040CC000C1F2368002B00DAE418280000F0D4F849
:1040DC001D4A1368002B05D163601460280000F0A2
:1040EC00D3F870BDA34208D9216860188342F3D17C
:1040FC0018685B6841182160EEE71A005B68002BBA
:10410C0001D0A342F9D911685018A0420BD12068F4
:10411C000918501811608342E0D118685B68411887
:10412C0011605360DAE7A04202D90C232B60D5E76B
:10413C0021686018834203D118685B6841182160BC
:10414C0063605460CAE7C046E8000020F8B503235A
:10415C00CD1C9D43083506000C2D1FD20C25A94201
:10416C001ED8300000F088F825490A681400002C8D
:10417C001AD1244F3B68002B04D12100300000F0F1
:10418C0069F838602900300000F064F8431C2BD12A
:10419C000C233000336000F077F803E0002DDEDAFA
:1041AC000C2333600020F8BD23685B1B19D40B2B48
:1041BC0003D92360E418256003E06368A2420ED1A2
:1041CC000B60300000F060F8200007220B30231D3C
:1041DC009043C21A9842E6D01B1AA350E3E75360EF
:1041EC00EFE722006468C2E70323C41C9C43A0428F
:1041FC00E1D0211A300000F02DF8431CDBD1C7E7C9
:10420C00E8000020EC000020F8B507000D001600B7
:10421C00002905D11100FFF799FF04002000F8BD1B
:10422C00002A03D1FFF748FF3400F7E700F034F819
:10423C002C00B042F2D231003800FFF787FF041E89
:10424C00ECD029003200FFF71AFF29003800FFF7E5
:10425C0033FFE3E7002370B5064D040008002B6024
:10426C0000F024F8431C03D12B68002B00D02360F2
:10427C0070BDC0467C02002010B5024800F014F856
:10428C0010BDC0468402002010B5024800F00DF8A5
:10429C0010BDC046840200200B1F1B68181F002B8A
:1042AC0001DA0B58C018704770477047044A030076
:1042BC001068002802D0C318136070470148FAE751
:1042CC00F000002090020020F8B5C046F8BC08BCF5
:1042DC009E467047F8B5C046F8BC08BC9E46704771
:1042EC0001010103070100000D52455345540A001A
:1042FC0000000000000000000000000000000000B2
:10430C0000000000000000000000000000000000A1
:10431C000100000002000000030000000400000087
:10432C000600000007000000080000000900000063
:10433C000000000000000000000000000000000071
:10434C000100000002000000030000000400000057
:10435C00434F4D4D414E443A0A00000008040204FC
:10436C000801010100232D302B2000686C4C0065E6
:10437C006667454647003031323334353637383985
:10438C0041424344454600303132333435363738B8
:08439C0039616263646566008B
:0843A400A0C0FF7F0100000032
:0443AC00E500000820
:0443B000BD00000844
:1043B40001000000040000000024F40010000020AC
:1043C40000000000000000000000000000000000E9
:1043D40000000000000000000000000000000000D9
:1043E40000000000000000000000000000000000C9
:1043F40000000000000000000000000000000000B9
:1044040000000000000000000000000000000000A8
:104414000000000000000000000000000000000098
:04000005080039C1F5
:00000001FF
