:020000040800F2
:100000000090002065720008D50C0008D70C00088D
:1000100000000000000000000000000000000000E0
:10002000000000000000000000000000D90C0008E3
:100030000000000000000000DB0C0008DD0C0008E0
:10004000B5720008B5720008B5720008E50C00082A
:10005000ED0C0008B5720008B5720008EF0C00083E
:10006000B5720008010D0008B5720008B5720008ED
:10007000B5720008B5720008B5720008B5720008C4
:10008000B5720008110D0008B5720008B5720008BD
:10009000B5720008B5720008B5720008B5720008A4
:1000A000B5720008B5720008450D0008B572000869
:0C00B000550D0008B5720008B57200087C
:1000BC0010B5064C2378002B07D1054B002B02D032
:1000CC00044800E000BF0123237010BD7000002025
:1000DC0000000000787B0008044B10B5002B03D007
:1000EC000349044800E000BF10BDC04600000000FA
:1000FC0074000020787B000802780B78002A03D06B
:10010C00013001319A42F7D0D01A704703B47146CE
:10011C00490840004900095E49008E4403BC704701
:10012C00002243088B4274D303098B425FD3030A2A
:10013C008B4244D3030B8B4228D3030C8B420DD33D
:10014C00FF22090212BA030C8B4202D312120902CB
:10015C0065D0030B8B4219D300E0090AC30B8B4209
:10016C0001D3CB03C01A5241830B8B4201D38B03B7
:10017C00C01A5241430B8B4201D34B03C01A52415C
:10018C00030B8B4201D30B03C01A5241C30A8B429F
:10019C0001D3CB02C01A5241830A8B4201D38B028A
:1001AC00C01A5241430A8B4201D34B02C01A52412E
:1001BC00030A8B4201D30B02C01A5241CDD2C309A0
:1001CC008B4201D3CB01C01A524183098B4201D31C
:1001DC008B01C01A524143098B4201D34B01C01A07
:1001EC00524103098B4201D30B01C01A5241C3087F
:1001FC008B4201D3CB00C01A524183088B4201D3EE
:10020C008B00C01A524143088B4201D34B00C01AD9
:10021C005241411A00D20146524110467047FFE745
:10022C0001B5002000F0F0F802BDC0460029F7D05F
:10023C0076E7704703460B437FD4002243088B427A
:10024C0074D303098B425FD3030A8B4244D3030B51
:10025C008B4228D3030C8B420DD3FF22090212BA16
:10026C00030C8B4202D31212090265D0030B8B4292
:10027C0019D300E0090AC30B8B4201D3CB03C01A7C
:10028C005241830B8B4201D38B03C01A5241430B57
:10029C008B4201D34B03C01A5241030B8B4201D347
:1002AC000B03C01A5241C30A8B4201D3CB02C01AB2
:1002BC005241830A8B4201D38B02C01A5241430A2A
:1002CC008B4201D34B02C01A5241030A8B4201D319
:1002DC000B02C01A5241CDD2C3098B4201D3CB01C0
:1002EC00C01A524183098B4201D38B01C01A52416F
:1002FC0043098B4201D34B01C01A524103098B4273
:10030C0001D30B01C01A5241C3088B4201D3CB005D
:10031C00C01A524183088B4201D38B00C01A524140
:10032C0043088B4201D34B00C01A5241411A00D2F0
:10033C0001465241104670475DE0CA0F00D0494259
:10034C00031000D34042534000229C4603098B42C9
:10035C002DD3030A8B4212D3FC22890112BA030A51
:10036C008B420CD3890192118B4208D389019211D3
:10037C008B4204D389013AD0921100E08909C30958
:10038C008B4201D3CB01C01A524183098B4201D35A
:10039C008B01C01A524143098B4201D34B01C01A45
:1003AC00524103098B4201D30B01C01A5241C308BD
:1003BC008B4201D3CB00C01A524183088B4201D32C
:1003CC008B00C01A5241D9D243088B4201D34B0047
:1003DC00C01A5241411A00D20146634652415B1089
:1003EC00104601D34042002B00D54942704763466A
:1003FC005B1000D3404201B5002000F005F802BDAF
:10040C000029F8D016E770477047C046002B15D16D
:10041C00002A13D1002906DB01DC002806D00020BD
:10042C00C043410802E080210906002007B40248BD
:10043C0001A14018029003BDD1FFFFFF03B4684631
:10044C0001B5029800F01AF9019B9E4602B00CBC53
:10045C007047C046002B11D1002A0FD1002900D1C2
:10046C00002802D00021C943081C07B4024802A18D
:10047C004018029003BDC04691FFFFFF03B46846CD
:10048C0001B5029800F02EF8019B9E4602B00CBC00
:10049C007047C046F0B515042D0C0F0001002E005E
:1004AC00C64684460004140C000C090C46434D430C
:1004BC00604361434019340C241800B5A54203D99C
:1004CC008020400280464144250C6D1861465943FA
:1004DC007A43300449192404000C2018891804BCF0
:1004EC009046F0BDF0B557464E464546DE46E0B563
:1004FC0004000D009246994683B08B4230D82DD023
:10050C004946504600F0D8F829000600200000F0BB
:10051C00D3F8331A9846203B9B4633D45A4653465D
:10052C00934042461F00534693401E00AF423AD8B8
:10053C00AF4200D178E05B46A41BBD41002B00DA32
:10054C0075E0002200230092019301235A46934048
:10055C000193012342469340009328E08242CFD975
:10056C0000220023009201930C9B002B01D01C60F5
:10057C005D600098019903B03CBC90469946A24638
:10058C00AB46F0BD424620239B1A5246DA40414608
:10059C0013004A468A40170042461F435346934075
:1005AC001E00AF42C4D9002200230092019343469F
:1005BC00002BD9D0FB0772081A4346467B080EE085
:1005CC00AB4201D1A2420CD8A41A9D41012024199E
:1005DC006D410021013E24184D41002E06D0AB4246
:1005EC00EED9013E24196D41002EF8D100980199E5
:1005FC005B4600196941002B24DB2B005A4644460C
:10060C00D3402A00E2401C005B461500002B2ADB7D
:10061C0026009E40330026004746BE403200801A1A
:10062C009941009001919FE7A342BCD883E74246D1
:10063C00202300219B1A0022009101920122DA4012
:10064C00019286E7424620239B1A2A0046469A408E
:10065C002300F340444613432A00E2401C005B464F
:10066C001500002BD4DA42462F0020232600974099
:10067C009B1ADE403B003343CDE7C046F8B5CE466F
:10068C00474680B59146984604000D0000F020F8CE
:10069C0007000E0002000B0048464146FFF7FAFE29
:1006AC00241A8D41089B380031001C605D600CBC25
:1006BC0090469946F8BDC04610B5002903D100F00C
:1006CC00EDF8203002E0081C00F0E8F810BDC04640
:1006DC00F0B557464E464546DE46E0B50F001900CC
:1006EC00002306009846100083B0002F07DA330071
:1006FC003C0000275E42A74101235B42984600293B
:10070C0007DA4346DB430C009846030000215842AD
:10071C00A14134003D0082468946B9426AD867D06F
:10072C0049465046FFF7C8FF834639003000FFF7B3
:10073C00C3FF5B461B1A9C46203B9B466BD458461A
:10074C005146814060460B00514681400A00BB4235
:10075C0000D972E0BB4200D179E034003D0059462B
:10076C00A41A9D41002900DA74E000210020012622
:10077C000090019159468E400196614601268E40AB
:10078C006146009600295FD0D90756080E435F08D2
:10079C006146012200230CE0AF4201D1A6420AD8E7
:1007AC00A41BBD4124196D410139A4185D410029D8
:1007BC0006D0AF42F0D9013924196D410029F8D186
:1007CC00009801995B4600196941002B4DDB2E0006
:1007DC002C00DE406346DC405B46002B55DB3400CE
:1007EC009C4023006446A6403200801A994103E0E5
:1007FC00B04295D9002000214346002B04D00300C1
:10080C000C0000215842A14103B03CBC90469946D3
:10081C00A246AB46F0BD6246484620235146904066
:10082C009B1AD94003000091009960460B43514636
:10083C0081400A00BB4200D88CE7002100200090C8
:10084C000191614600299FD100980199D4E7B142EA
:10085C00F3D882E7614620260127761A0020002172
:10086C00F74000900191019787E7624620239B1A7D
:10087C002A009A40260013006246D6402C001E43E4
:10088C006346DC405B46002BA9DA62462023350028
:10089C0094409B1ADD4023002B43A3E71C2101232A
:1008AC001B04984201D3000C10391B0A984201D347
:1008BC00000A08391B09984201D30009043902A225
:1008CC00105C40187047C04604030202010101018C
:1008DC00000000000000000010B50024092C09DC09
:1008EC00A0200121C00500F0BDFB642002F020F81F
:1008FC000134F3E7A02000220121C00500F0ACFB7D
:10090C0010BD000000B5A1B03822002112A806F0DD
:10091C00FAFC102200210EA806F0F5FC342200216E
:10092C0001A806F0F0FC8020800001F00FFF0A23E4
:10093C001293F633159300231693402217923F3AE5
:10094C001892013219921A921B9308331C9380232C
:10095C009B021D9380239B041E9380239B051F9356
:10096C0012A800F0C9FF00281BD107230E93053BEA
:10097C000F9300231093119302210EA801F078FA23
:10098C00002811D10B4B0193002303938022D20238
:10099C0007920B9301A801F04BFB002807D121B063
:1009AC0000BDFFF799FFE0E7FFF796FFEAE7FFF7D7
:1009BC0093FFF4E702022000F0B59BB001F092FF28
:1009CC00FFF7A0FF00F0E2F806F06AFB01F0CAFFA7
:1009DC0002F006F805F01CFB05F0F0FA06F0B8FB87
:1009EC005C4C200001F0DCFFFA21200004F014F82C
:1009FC00594805F035FB594805F032FB01AC602233
:100A0C00002102A806F07FFC554B220003CB03C249
:100A1C00198811809B789370FA26B600514D3300DB
:100A2C000A222100280005F02DF96022002102A8DD
:100A3C0006F069FC4C4B220083CB83C283CB83C270
:100A4C001B881380330019222100280005F01AF9A5
:100A5C00464C200006F03CFB0021200000F084FEF8
:100A6C0005F0E0FC0D2005F0A5FC414C40222100D6
:100A7C00280004F087F805F013FD002001F006FFB4
:100A8C0000220121072001F08BFE00220221092007
:100A9C0001F086FE00220221112001F081FE0022CD
:100AAC0002211A2001F07CFE002202211C2001F000
:100ABC0077FE304805F014FD2F4805F011FD2F4846
:100ACC0005F00EFD2E4805F00BFD05F02BFC03F098
:100ADC0093FD0C3C0123E3720C33A37200241EE043
:100AEC00284B00221A7201AD6032002102A806F0D8
:100AFC000AFC1B4B2A0003CB03C2198811809B787C
:100B0C009370FA239B000A222900164805F0BAF8C4
:100B1C0002F092F81B4A4D23D35C002B0CD1194BDD
:100B2C009B7A002BF6D0174B1B7A002BD8D1154B88
:100B3C00DB7A002BEED1D3E7013403F067FC2307FB
:100B4C00EDD1104A104BD35C002BE8D003F044FEDF
:100B5C00E5E7C046B0060020D0070020340800208E
:100B6C001C7C000844070020287C00089808002002
:100B7C009C000020FFFF1200FFFF1300FFFF11007D
:100B8C00FFFF100090000020D1040000F0B5D64605
:100B9C004F464646C0B58AB01422002105A806F07F
:100BAC00B2FB424B5A6B042422435A635A6B2240C9
:100BBC000192019A596B202211435963596B0A40D7
:100BCC000292029A5A6B012632435A635A6B324094
:100BDC000392039A596B0222114359635B6B1A40BF
:100BEC000492049B324B9946A025ED050022190076
:100BFC00280000F031FA2F4B9A46002203211800EE
:100C0C0000F02AFA2C4B984600224021180000F0E4
:100C1C0023FA0594032706970024079405A927486F
:100C2C0000F0CEF84B46059306960794089405A958
:100C3C00280000F0C5F8224B05930697079405A9E8
:100C4C00280000F0BDF840239946059306940794BC
:100C5C0005A9280000F0B4F80597069607940894A7
:100C6C0005A9504600F0ACF84B4605930696079440
:100C7C00089405A9404600F0A3F880231B010593B6
:100C8C00104B0693079405A9280000F099F8002250
:100C9C000321072001F084FD072001F0B1FD0AB00B
:100CAC001CBC90469946A246F0BDC04600100240BE
:100CBC0083C00000000400500008005000140050D5
:100CCC0030300000000011107047FEE7704770478D
:100CDC0010B501F01BFE10BD10B501F0CFFA10BD20
:100CEC00704710B5402000F0C5F98020000100F0DD
:100CFC00C1F910BD10B5024801F0C0FC10BDC046D2
:100D0C00E806002070B50A4B012000211C685D68C4
:100D1C00001969411860596001221A72A020022141
:100D2C00C00500F09FF9034803F0ABFE70BDC04650
:100D3C0090000020B006002010B5024806F014F90F
:100D4C0010BDC046D007002010B5044C200004F0A4
:100D5C002FF8200001F05CFF10BDC04644070020B6
:100D6C0010B5402800D010BD05F0DCFAFBE7000000
:100D7C0000B583B0114B196C012211431964196C25
:100D8C000A400092009ADA6B802149050A43DA6323
:100D9C00DB6B0B400193019B00220021032001F02F
:100DAC00FFFC032001F02CFD00220021042001F0A7
:100DBC00F7FC042001F024FD03B000BD001002403C
:100DCC00F0B5D6464F464646C0B500233BE0032659
:100DDC0000E00026A64034003C435A4E18329200E4
:100DEC0094518022B4584A46D24326004D46AE4315
:100DFC004D68ED0302D54D462C432600514C8027FF
:100E0C00E6518426A459260016404D68AD0302D540
:100E1C004D462C4326004B4C8427E6512468260073
:100E2C0016404D68ED0202D54D462C432600454C2C
:100E3C002660646822404D68AD0201D54A462243C3
:100E4C00404C626001330C682200DA4075D00122FC
:100E5C009A4025001540A9461442F3D04C68022C48
:100E6C0001D0122C0ED1DC080834A4002758072618
:100E7C001E40B6000F25B540AF430D69B5402E009E
:100E8C003E4326500468A4465E000324A246270075
:100E9C00B740B846FF4365464446A543AC464C684C
:100EAC00554625402C00B44065462C4304604C68E4
:100EBC00651E012D03D9112C01D0122C13D184687D
:100ECC003C40A446CC68B44065462C4384604468DE
:100EDC00944322004C682409A446012465462C4006
:100EEC009C4014434460C26817408A68B2403A433D
:100EFC00C2604A68D200A5D59A0814001834A40020
:100F0C00104EA75903241C40E4000F26A640B743FB
:100F1C00A026F605B04200D15BE70B4EB04208D0DC
:100F2C000A4EB04207D00A4EB04200D14FE7052618
:100F3C0050E701264EE702264CE71CBC904699462A
:100F4C00A246F0BD001802400004005000080050FA
:100F5C00000C0050F0B5CE46474680B589460023BC
:100F6C0023E00321884601E0002188464146A14048
:100F7C00A94247D004685E000325B5402C430460A9
:100F8C00DC080834A400275807261E40B6000F21A1
:100F9C00B1408F4327508468AC43846044689443C9
:100FAC004460C268AA43C26001334A46DA4046D064
:100FBC0001229A404C461440A44649461142F3D0B3
:100FCC009F083C001834A4001F4D655903241C4095
:100FDC00E4000F26A6403540A021C9058842C3D0A5
:100FEC001A49884208D01A49884208D019498842BF
:100FFC00B7D005218846B9E701218846B6E702211A
:10100C008846B3E7104D802188466C5861468C4366
:10101C0041466C50043188466C5861468C434146BD
:10102C006C502C6861468C432C606C688C436C60F3
:10103C003C001834A4006759B74367519AE70CBCBD
:10104C0090469946F0BDC04600180240000400507E
:10105C0000080050000C0050002A01D0816170473C
:10106C008162FCE74369194201D08162704781615A
:10107C00FCE7704710B50400094BDB68184204D13B
:10108C00074B1B69234205D110BD054BD860FFF7F8
:10109C00F0FFF5E7024B1C612000FFF761FEF3E760
:1010AC000018024030B5036A012293430362036ABD
:1010BC0042688469184D2C400D682C430225AB43C3
:1010CC008D682B43154DA84208D0154DA84205D06C
:1010DC00144DA84202D0144DA84205D10825AB43AB
:1010EC00CD682B430425AB430C4DA84208D00C4DC6
:1010FC00A84205D00B4DA84202D00B4DA84205D1F9
:10110C000A4D2A404D692A438D692A434260846105
:10111C004A684263036230BD8CFFFEFF002C014025
:10112C00004001400044014000480140FFFCFFFF2B
:10113C0070B5036A194A13400362036A4268C469B2
:10114C00174D2C400E682643164C23408C68240205
:10115C002343154CA04219D0134CA04208D0134C79
:10116C00A04205D0124CA04202D0124CA04207D192
:10117C00114C14404A69120122438C6925012A43FF
:10118C004260C6614A68C263036270BD0B4C1C406E
:10119C00CB681B0223430A4C2340DDE7FFFEFFFF15
:1011AC008CFFFEFFFFFDFFFF002C014000400140C3
:1011BC000044014000480140FFCFFFFFFFF7FFFF55
:1011CC00FFFBFFFF30B5036A134A13400362026A48
:1011DC004368C469114D2C400D682D022C43104DF1
:1011EC0015408A6812032A430E4DA84208D00E4DB2
:1011FC00A84205D00D4DA84202D00D4DA84204D1F5
:10120C000C4D2B404D69AD012B434360C4614B68C1
:10121C000364026230BDC046FFEFFFFFFF8CFFFE90
:10122C00FFDFFFFF002C0140004001400044014063
:10123C0000480140FFBFFFFF30B5036A124A13405C
:10124C000362026A4368446D104D2C400D682C43B8
:10125C000F4D15408A6812042A430E4DA84208D03F
:10126C000D4DA84205D00D4DA84202D00C4DA84200
:10127C0004D1054D2B404D692D022B434360446531
:10128C004B688365026230BDFFFFFEFF8FFFFEFFE0
:10129C00FFFFFDFF002C01400040014000440140D5
:1012AC000048014030B5036A134A13400362026AD6
:1012BC004368446D114D2C400D682D022C43104D8C
:1012CC0015408A6812052A430E4DA84208D00E4DCF
:1012DC00A84205D00D4DA84202D00D4DA84204D114
:1012EC000C4D2B404D69AD022B43436044654B685C
:1012FC00C365026230BDC046FFFFEFFFFF8FFFFEEC
:10130C00FFFFDFFF002C0140004001400044014082
:10131C0000480140FFFFFBFF30B5036A046A01255A
:10132C00AC4304628469EF35AC43120122430A24B6
:10133C00A3430B438261036230BD000030B5036AE6
:10134C001024A34303628469036A054D2C401203E5
:10135C002243A024A343090119438261016230BDD9
:10136C00FF0FFFFF8368034A13400B4307210B4316
:10137C00836070478FFFCFFF704700000368214ADE
:10138C00904206D08022D205904202D01E4A904252
:10139C0003D1702293434A6813431A4A904212D0E5
:1013AC008022D20590420ED0174A90420BD0174A99
:1013BC00904208D0164A904205D0164A904202D06C
:1013CC00154A904203D1154A1340CA681343802230
:1013DC0093434A69134303608B68C3620B6883624F
:1013EC00084B984208D00A4B984205D0094B9842BA
:1013FC0002D0094B984201D10B690363012343616D
:10140C007047C046002C0140000400400020004002
:10141C00004001400044014000480140FFFCFFFF38
:10142C0070B5041E14D03D23C35C002B0AD03D259F
:10143C0002236355210001C9FFF7A0FF0123635567
:10144C00002070BD3C330022C25405F041FEEEE793
:10145C000120F6E770B5041E14D03D23C35C002BAD
:10146C000AD03D2502236355210001C9FFF786FFF1
:10147C0001236355002070BD3C330022C254FFF79A
:10148C007BFFEEE70120F6E770B5036A1022934369
:10149C000362036A42688469174D2C400D682D0263
:1014AC0025432024A3438C6824012343134CA042DE
:1014BC0019D0124CA04208D0114CA04205D0114CAE
:1014CC00A04202D0104CA04207D1104C14404A69E3
:1014DC00920022438C69A6003243426085614A68BF
:1014EC008263036270BD8024A3431C00CB681B0184
:1014FC0023434024A343DCE7FF8CFFFE002C014078
:10150C00004001400044014000480140FFF3FFFF50
:10151C0070B504000D003C23C35C012B00D190E09E
:10152C003C230121C15401330131C154142A16D872
:10153C009200454B9B589F4629000068FFF7B2FD6F
:10154C002268936908210B439361226893690439DB
:10155C008B4393612268936929690B4393613D2303
:10156C000122E254013B0022E254002070BD29000C
:10157C000068FFF789FF2268916980231B010B43E8
:10158C0093612268936931490B40936121688B699F
:10159C002A69120213438B61E1E729000068FFF707
:1015AC00C7FD2268D36908210B43D3612268D36934
:1015BC0004398B43D3612268D36929690B43D36106
:1015CC00CDE729000068FFF7FDFD2268D169802373
:1015DC001B010B43D3612268D3691C490B40D361B7
:1015EC002168CB692A6912021343CB61B7E7290042
:1015FC000068FFF721FE2268536D08210B435365E9
:10160C002268536D04398B4353652268536D2969E5
:10161C000B435365A3E729000068FFF743FE2268DC
:10162C00516D80231B010B4353652268536D074991
:10163C000B40536521684B6D2A69120213434B65AD
:10164C008DE7022092E7C046447C0008FFFBFFFFB9
:10165C0030B58468034D2C401B0213430B432343CA
:10166C00836030BDFF00FFFF10B504003C23C35C5A
:10167C00012B66D03C230122C25401330132C254E7
:10168C00026893683048034093600B68602B44D029
:10169C0024D8402B4BD00BD9502B0ED1CA6849689B
:1016AC002068FFF739FE50212068FFF75BFE04E04D
:1016BC00202B0ED009D9302B0BD03D230122E25424
:1016CC00013B0022E254002010BD002B01D0102B56
:1016DC00F3D119002068FFF745FEEEE7702B10D010
:1016EC00802292019342E8D1CB684A6889682068CD
:1016FC00FFF7AEFF226891688023DB010B439360F8
:10170C00DBE7CB684A6889682068FFF7A1FF22688D
:10171C00936877210B439360CFE7CA6849682068C8
:10172C00FFF70CFE60212068FFF71CFEC5E7CA68B6
:10173C0049682068FFF7F0FD40212068FFF712FE92
:10174C00BBE70220C0E7C0468800CEFF10B51F23C0
:10175C00194001248C40036AA3430362036A8A4044
:10176C001343036210BD000010B504000122006891
:10177C00FFF7ECFF2368104A934208D00F4A9342BC
:10178C0005D00F4A934202D00E4A934204D1596CB1
:10179C00802212020A435A64226893680A490B4059
:1017AC00062B06D007398B4203D0136801210B435B
:1017BC001360002010BDC046002C014000400140C9
:1017CC0000440140004801400700010030B53C23B3
:1017DC00C35C012B23D03C230122C25401330132C0
:1017EC00C2540268536894680E4DAA4212D07025F8
:1017FC00AB430D682B438025AC4389682143536070
:10180C00036899603D230122C254013B0022C2545B
:10181C00002030BD044D2B404D682B43E7E70220E0
:10182C00F7E7C046002C0140FFFF0FFF10B53C232B
:10183C00C35C012B44D03C230122C254214BCA6807
:10184C0013408A681343204A13404A6813431F4AC3
:10185C0013400A6813431E4A13400A6913431D4A76
:10186C0013404A6913431C4A13400A6B13431B4A27
:10187C0013408A69120413430268194CA24208D01F
:10188C00174CA2420AD053643C230022C2540020BD
:10189C0010BD144C2340CC692343F1E7124C234078
:1018AC008C6A24052343114C23400C6A2343104CAF
:1018BC0023404C6A23430F4C2340C96A0B43E2E795
:1018CC000220E5E7FFFCFFFFFFFBFFFFFFF7FFFF39
:1018DC00FFEFFFFFFFDFFFFFFFBFFFFFFFFFF0FF8B
:1018EC00002C0140FFFFFFEFFFFF0FFFFFFFFFFE8C
:1018FC00FFFFFFFDFFFFFFDF70B582B0041E00D1BC
:10190C0034E20368DB0739D5C14A916838230B40B0
:10191C00D16803220A40102B26D0082B26D06368EE
:10192C008022520293427FD0A022D202934200D155
:10193C0081E0B74B1A68B7490A401A601A68B64971
:10194C000A401A606368002B00D180E000F0EAFFC7
:10195C000500AF4B1B689B0310D400F0E3FF401B4A
:10196C006428F6D9032002E2032AD6D1A84B1B68BF
:10197C009B0303D56368002B00D1FAE123689B0716
:10198C0031D5A34A936838210B40D16803220A4011
:10199C00102B6AD0002B6BD19D4A1268520503D5CF
:1019AC00E268002A00D1E6E1994842689B490A4066
:1019BC00616909020A434260002B0DD10368984902
:1019CC000B4021690B4303600368DB0A07221A40B2
:1019DC00944BD340944A1360944B186800F056FF14
:1019EC00002800D0C9E123681B0700D481E0884B94
:1019FC009A6838231340182B73D0A369002B00D19D
:101A0C00B4E0834A136E01210B43136600F08AFF86
:101A1C0005007F4B1B6E9B076BD400F083FF401BB4
:101A2C000228F6D90320A2E1794A116880235B02CF
:101A3C000B43136086E7764B19688022D2020A4367
:101A4C001A601968802252020A431A607AE700F081
:101A5C0069FF05006E4B1B689B038FD500F062FF7E
:101A6C00401B6428F6D9032081E1022A92D193E726
:101A7C00E368002B22D0664A136869490B40216940
:101A8C000B431360116880235B000B43136000F061
:101A9C0049FF05005E4B1B685B0506D400F042FF56
:101AAC00401B0228F6D9032061E159494B685B4A77
:101ABC0013406269120213434B6094E7544A136853
:101ACC005B490B40136000F02DFF0500504B1B6869
:101ADC005B0588D500F026FF401B0228F6D90320B1
:101AEC0045E14B4B1B6E9B0703D5A369002B00D123
:101AFC0045E123685B0700D4A2E0454B9A68382384
:101B0C001340202B45D0424BDB6BDB004AD4404AC0
:101B1C00D16B802040050143D163D36B034001930B
:101B2C00019B0125434B1B68DB053DD5A368012BAD
:101B3C004ED0052B52D0364BDA6D01218A43DA6533
:101B4C00DA6D03318A43DA65A368002B50D000F0BC
:101B5C00E9FE06002E4BDB6D9B076FD400F0E2FE16
:101B6C00801B354B9842F5D9032000E1284A136EAF
:101B7C0001218B43136600F0D5FE0500244B1B6E30
:101B8C009B07B6D500F0CEFE401B0228F6D90320E9
:101B9C00EDE01F4BDB6D9B0752D5A368002B4FD19B
:101BAC000120E4E00025BDE7224A116880235B0098
:101BBC000B43136000F0B6FE06001E4B1B68DB05E2
:101BCC00B4D400F0AFFE801B0228F6D90320CEE07F
:101BDC000F4AD36D01210B43D365B5E70C4BDA6D7E
:101BEC0004210A43DA65DA6D03390A43DA65ABE797
:101BFC0000F098FE0600064BDB6D9B071ED500F02F
:101C0C0091FE801B0C4B9842F5D90320AFE0C046E7
:101C1C0000100240FFFFFEFFFFFFFBFFFF80FFFFF6
:101C2C00FFC7FFFF0024F400080000200400002080
:101C3C00FFFEFFFF0070004010270000012D26D092
:101C4C00E369002B00D19CE0564A916838220A4087
:101C5C00102A63D0022B20D0524B1A6852490A40EA
:101C6C001A60DA6803218A43DA60DA684F490A405D
:101C7C00DA6000F057FE04004A4B1B689B014BD501
:101C8C0000F050FE001B0228F6D903206FE0454AF5
:101C9C00D36B47490B40D363D2E7424A136842499E
:101CAC000B40136000F03EFE05003E4B1B689B0191
:101CBC0006D500F037FE401B0228F6D9032056E06B
:101CCC00384AD3683B491940236A606A0343A06AC7
:101CDC0000020343E06A0343206B0343606B03433E
:101CEC000B43D360116880235B040B431360D168F2
:101CFC0080235B050B43D36000F014FE0400294BDA
:101D0C001B689B0106D400F00DFE001B0228F6D9BF
:101D1C0003202CE000202AE0002028E0012B32D008
:101D2C00204BDA6803231340216A8B422DD1702398
:101D3C001340616A8B422AD1FE21C9011140A36A6A
:101D4C001B02994225D1F8239B031340E16A8B4275
:101D5C0021D1E0231B051340216B8B421DD1520F67
:101D6C005207636B9A421AD1002000E0012002B0A6
:101D7C0070BD0120FBE70120F9E70120F7E7012006
:101D8C00F5E70020F3E70120F1E70120EFE7012060
:101D9C00EDE70120EBE70120E9E70120E7E701206F
:101DAC00E5E7C04600100240FFFFFFFEFFFFFEEE1E
:101DBC00FFFFFFEF8C80C11110B52A4B9B683822B6
:101DCC001A4207D1274B1A68D20A07231340264818
:101DDC00D84010BD234B9A6838231340082B3BD0B6
:101DEC00204B9A6838231340102B0DD01D4B9A684A
:101DFC0038231340202B31D01A4B9A6838231340C8
:101E0C00182B26D00020E4E7164AD1680D3B0B4076
:101E1C00D2681209072111400131032B0FD012484F
:101E2C00FEF77EF90F4BDA68120A7F2313405843F2
:101E3C000C4BD968490F0131FEF772F9C9E70B4811
:101E4C00FEF76EF9074BDA68120A7F2313405843EA
:101E5C00EEE7FA20C001BCE70448BAE78020000294
:101E6C00B7E7C046001002400024F40000127A00CC
:101E7C0070B504000D00002800D1AAE0574B1A6879
:101E8C00072313408B4221D323689A070ED55B0797
:101E9C0005D5534A9168E023DB010B439360504A0C
:101EAC00936850490B40A1680B4393602368DB0790
:101EBC0054D56368012B20D0022B3BD0002B3FD193
:101ECC00474A126852051CD401206AE0434A136841
:101EDC0007218B432B43136000F024FD06003F4B7E
:101EEC001A6807231340AB42CED000F01BFD801BB9
:101EFC003D4A9042F3D9032053E0394A12689203C9
:101F0C0069D537498A680720824313438B6000F0F8
:101F1C0009FD0600324B9B6838221A406368DB00CF
:101F2C009A421BD000F0FEFC801B2F4B9842F1D93B
:101F3C00032036E02A4A12689201E2D4012030E0F4
:101F4C00032B05D0264AD26D9207DAD4012028E063
:101F5C00234A126E9207D4D4012022E01F4B1A6838
:101F6C0007231340AB421DD823685B0706D51C4AD8
:101F7C0093681E490B40E1680B439360FFF71CFF0D
:101F8C00174B9A68120A0F2313409B00184A9A5851
:101F9C001F231340D840174B1860174B186800F0DC
:101FAC0075FC70BD0D4A136807218B432B431360DE
:101FBC0000F0B8FC0600094B1A6807231340AB422B
:101FCC00D2D000F0AFFC801B074B9842F3D9032012
:101FDC00E7E70120E5E70120E3E7C04600200240E7
:101FEC0000100240FFF0FFFF88130000FF8FFFFF7F
:101FFC00987C00080800002004000020014B1868A1
:10200C007047C0460800002010B5FFF7F7FF064BDD
:10201C009A68120B072313409B00044A9A581F23FB
:10202C001340D84010BDC04600100240D87C0008B8
:10203C00F0B583B0040003689B0362D5814BDB6B66
:10204C00DB001ED47F4AD16B802040050143D16355
:10205C00D36B03400193019B01267B4A11688023BB
:10206C005B000B43136000F05DFC0500764B1B68B6
:10207C00DB0508D400F056FC401B0228F6D90325DA
:10208C0002E00026E9E70025002D23D16D4BD96D28
:10209C00C02292000B001340114210D0226B9A42C6
:1020AC000DD0684AD36D69490B40D06D802149022F
:1020BC000143D165D16D66480140D165D365DB071D
:1020CC0010D4002D06D15F4AD36D60490B40216BB3
:1020DC000B43D365012E15D15A4AD36B5D490B4086
:1020EC00D3630FE000F01EFC0700564BDB6D9B0723
:1020FC00E7D400F017FCC01B574B9842F5D90325C9
:10210C00DFE700252368DB0706D54E4A536D032114
:10211C008B4361680B43536523689B0706D5494A7B
:10212C00536D0C218B43A1680B43536523689B06AD
:10213C0006D5444A536D49490B40E1680B4353653E
:10214C0023689B0506D53F4A536D45490B40A16951
:10215C000B43536523685B0506D53A4A536D4149D9
:10216C000B40E1690B43536523685B0606D5354A82
:10217C00536D3D490B4021690B43536523685B0448
:10218C000BD5304A536D9B009B08216A0B4353655A
:10219C008023DB05226A9A4239D023681B0306D5BB
:1021AC00284A536D40218B43616A0B435365236866
:1021BC009B020BD5234A536D2C490B40A16A0B4350
:1021CC0053658023DB03A26A9A4227D023685B0203
:1021DC000BD51C4A536D26490B40E16A0B435365E2
:1021EC0080235B04E26A9A421FD023681B050BD53F
:1021FC00144A536D1F490B4061690B435365626967
:10220C008023DB019A4215D0280003B0F0BD0D4AA3
:10221C00D16880235B020B43D360BEE7094AD168C7
:10222C0080235B040B43D360D0E7064AD1680B4391
:10223C00D360DAE7034AD16880235B020B43D36097
:10224C00E2E7C0460010024000700040FFFCFFFFB8
:10225C00FFFFFEFFFFFFFFEF10270000FFF3FFFF64
:10226C00FFFFF3FFFFFFCFFFFFCFFFFFFFFFBFFF1E
:10227C00FFFFFFFEFF3FFFFF7047704710B5344A6A
:10228C0013693449194093698020C00503400B43FE
:10229C0051693148806881435161304A10423DD0C8
:1022AC002D4AD468002B17D02B494A681A434A6030
:1022BC009A0F9107002A03D0254A90690143916136
:1022CC009B009A08002B01D0214B1A61224B002253
:1022DC009A602000FFF7D1FF1D4B1B69DB070CD563
:1022EC001B4B01221A611C4B9B68022B1FD01A4BF3
:1022FC0000229A602000FFF7BFFF174B9B68002B52
:10230C000BD1134B9A6916490A409A615A691549BF
:10231C000A405A61104B00221A7010BD062202426C
:10232C0002D00D4A1469BDE701246442BAE70A4A97
:10233C005369013B5361002B03D1074B00229A6078
:10234C00D8E713001269501C186100F00DF8D1E7A2
:10235C0000200240FAC3000088060020010004009F
:10236C00FFFFFFFEFFFFFFFC044A536904490B40CB
:10237C00C0001843034B18435061704700200240C3
:10238C0007FEFFFF02000100F0B5846CC56C6560B0
:10239C00046D002C02D0446D856D65600B4F7C681C
:1023AC001C26056C2E400125B5402C437C6004682E
:1023BC0063608368102B04D0036899600368DA604B
:1023CC00F0BD03689A600368D960F9E70000024029
:1023DC0010B50400FF202368184008381421FDF7BD
:1023EC009FFE236C9B08064A944663449B006364DF
:1023FC00044BA3641C2318401B3B8340E36410BDB7
:10240C000082001080080240FF2342681340064AF5
:10241C009A1892000265054A4265013B03221A4054
:10242C0001239340836570473F82001040090240AE
:10243C0070B5041E4DD00568274BE8181421FDF724
:10244C006FFE8000206425230222E2542B68234A6D
:10245C0013402B6021680A68A368E0680343206975
:10246C00034360690343A0690343E0690343206AA3
:10247C00034313430B602000FFF7AAFF8023DB010B
:10248C00A2689A4218D0626CFF2361680B401360FB
:10249C00A36CE26C5A606368013B032B0FD90023D9
:1024AC0023656365A3650023E36325220121A15401
:1024BC00013AA354002070BD00236360E3E72000C1
:1024CC00FFF7A2FF236D00221A60636DA26D5A60A4
:1024DC00E9E70120EFE7C046F8FFFDBF0F80FFFFE3
:1024EC0070B504002420205C012843D02420012551
:1024FC0025540130205C012804D002202423002222
:10250C00E25470BD2430013525540020E063256869
:10251C0028680126B04328602000FFF735FF236BA5
:10252C00002B1CD0226813680E210B431360636CC4
:10253C001A68D20304D51968802252000A431A6023
:10254C00236D002B04D01968802252000A431A60B4
:10255C002268136801210B4313600020CEE7226828
:10256C00136804218B4313602268136806310B43F4
:10257C001360DCE70220C4E730B5002836D02523F1
:10258C00C35C022B06D00423C36320330022C25445
:10259C00012030BD026813680E218B431360426C1E
:1025AC00136813490B40136001680A6801239A43AE
:1025BC000A60104C62681C21056C29408B40134347
:1025CC006360836CC26C5A60036D002B06D01A6872
:1025DC0007490A401A60436D826D5A602523012217
:1025EC00C254013B0022C2540020D2E70120D0E7A4
:1025FC00FFFEFFFF0000024070B524230122C254ED
:10260C000133C35C022B03D00423C363012070BDD0
:10261C00026813680E218B43136001680A6801235A
:10262C009A430A60416C0A68124C22400A60124CB0
:10263C0062681C21056C29408B4013436360836CDA
:10264C00C26C5A60036D002B06D01A6809490A4007
:10265C001A60436D826D5A6025230122C254013BDE
:10266C000022C254836B002B02D098470020CEE787
:10267C000020CCE7FFFEFFFF0000024070B5314B9D
:10268C001968046825681C23026C134004229A40C4
:10269C00114216D06A0714D523689B0603D423680D
:1026AC00042293432360274C63681C21026C114065
:1026BC0004228A4013436360036B002B00D09847BD
:1026CC0070BD02229A4011421CD0AA071AD5236869
:1026DC009B0606D423680A22934323602523093AD8
:1026EC00C254184C63681C21026C114002228A40AF
:1026FC001343636024230022C254C36A002BDFD02F
:10270C009847DDE708229A401142D9D02B07D7D53C
:10271C0023680E22934323600A4C62681C21036CCD
:10272C00194001231D008D402A436260C36325229A
:10273C00835423330022C254436B002BC0D09847E0
:10274C00BEE7C04600000240C06B704710B5104A8F
:10275C00136810490B400343136080239B0098427D
:10276C0001D0002010BD0C4B1B685800C018400055
:10277C000A49FDF7D5FC0130054B5B695B0503D5B8
:10278C00002803D00138F7E70020EBE70320E9E746
:10279C0000700040FFF9FFFF0800002040420F00CE
:1027AC0070B5002811DB8308134EC0339B009D5974
:1027BC0003242040C000FF2214008440A54389015B
:1027CC000A4082402A439A5170BD0F230340083BB4
:1027DC009B0806339B00094A944663445C680322B9
:1027EC001040C000FC3215008540AC4389010A4002
:1027FC00824022435A60E7E700E100E000ED00E090
:10280C00002805DB1F2318401E3B8340014A136040
:10281C007047C04600E100E000280ADB1F23184087
:10282C001E3B8340034980228B50BFF34F8FBFF375
:10283C006F8F704700E100E0BFF34F8F034B044AEA
:10284C00DA60BFF34F8FC046FDE7C04600ED00E0F5
:10285C000400FA05013880235B0498420FD2094A20
:10286C0050600948036A1B021B0AC02109060B436E
:10287C00036200239360073313600020704701202C
:10288C00FCE7C04610E000E000ED00E010B50400ED
:10289C00114B1968002901D1012010BDFA208000CC
:1028AC00FDF73EFC01000D4B1868FDF739FCFFF7F6
:1028BC00D1FF00280DD1032C01D90120EDE7013007
:1028CC00002221004042FFF76BFF054B1C600020EB
:1028DC00E3E70120E1E7C0460000002008000020EB
:1028EC000400002010B5084A116880235B000B43DC
:1028FC0013600020FFF7CAFF041E02D00124200041
:10290C0010BDFEF735FAFAE700200240034A1368BF
:10291C00034909685B1813607047C046AC06002079
:10292C0000000020014B18687047C046AC06002020
:10293C0070B50400FFF7F6FF0500631C02D0044BD2
:10294C001B68E418FFF7EEFF401BA042FAD370BDE2
:10295C0000000020024B802212059A607047C0468E
:10296C0000ED00E010B50B480B4B036000234360F7
:10297C00E02212018260094A42610362436283626F
:10298C00C362036301F0EEFF002800D110BDFDF718
:10299C00A3FFFBE7B0060020007C0040FFFF000017
:1029AC0000B583B002680C4B9A4201D003B000BD55
:1029BC000A4BD96B802212060A43DA63DB6BDB0FFE
:1029CC00DB070193019B002200211120FFF7E8FE99
:1029DC001120FFF715FFE9E7007C004000100240D2
:1029EC0010B51948194B0360E1235B0243600023C7
:1029FC008360C36003610C2242618361C361036223
:102A0C004362836203F0FCF9002811D100210E48C7
:102A1C0003F086FA00280ED100210B4803F0A6FA29
:102A2C0000280BD1084803F05BFA002809D110BD2F
:102A3C00FDF752FFEAE7FDF74FFFEDE7FDF74CFF1F
:102A4C00F0E7FDF749FFF2E744070020004400409F
:102A5C0030B589B004001422002103A804F053FC03
:102A6C00254B22689A4201D009B030BD234BD96B5B
:102A7C00802080020143D963DA6B02400192019AF3
:102A8C00596B0122114359635B6B13400293029BF8
:102A9C000C2303930A3B0493002505950695079296
:102AAC00A02003A9C005FEF78BF91548154B036050
:102ABC00342343608560C5604C3303614561856197
:102ACC00603BC3610562FFF7B3FC002811D10C4BCE
:102ADC00A3679C62002200211C20FFF761FE1C20D2
:102AEC00FFF78EFE084B1A68136810210B43136016
:102AFC00BAE7FDF7F1FEEAE700440040001002409F
:102B0C00E8060020080002404407002070B59AB087
:102B1C00002418E03948031900221A730C3001F014
:102B2C005FFE374802F098F804E0344B1B19002282
:102B3C001A73013C002CF8DA40223249304802F07A
:102B4C0021F859E001343F2C20DC2C4B1B191B7B4A
:102B5C000D2BDFD0082B01D07F2BF3D1274B1B196A
:102B6C0000221A73002C04DD621E244B9B180022D9
:102B7C001A73234D280002F06FF8611E4022121BBD
:102B8C0092B2204BC918280001F0FCFF00260196D8
:102B9C006022002102A804F0B6FB1B221A4901A8EE
:102BAC0004F0BAFBFA25AD00154C2B00062201A946
:102BBC00200003F067F801966022002102A804F0BF
:102BCC00A2FB1B22114901A804F0A6FB2B00042236
:102BDC0001A9200003F056F801966022002102A8FA
:102BEC0004F091FB074901A804F096FB82B22B007C
:102BFC0001A9200003F046F81AB070BD9000002027
:102C0C00440700209C000020F87C0008007D000890
:102C1C0010B5074B1B68074A934200D010BDDA6908
:102C2C00D206FBD510221A62FFF770FFF6E7C046FA
:102C3C004407002000440040F0B5DE4657464E469F
:102C4C004546E0B59BB0A0200121C005FEF70AFA6D
:102C5C00DC4B9B7A0D2B09D8002B00D105E20D2BF8
:102C6C0000D902E29B00D84AD3589F46FF2B00D0D4
:102C7C00FBE1D44B00229A7201AC6032002102A815
:102C8C0004F041FBD14B220003CB03C21988118005
:102C9C009B789370FA239B000A222100CC4802F007
:102CAC00F1FFE2E1C74BDB7A002B02D1C54B0022CE
:102CBC009A726022002102A804F025FBC54B0193F7
:102CCC00FA239B00032201A9C14802F0DBFF002478
:102CDC00092C00DDC9E1A0200121C005FEF7C2F9D5
:102CEC006420FFF725FE0134F2E7002301936022F4
:102CFC00002102A804F007FB03F0FCFA0200B6491D
:102D0C0001A804F009FBFA239B00092201A9B04891
:102D1C0002F0B8FFAB4BDB7A002B00D0A5E1A94B3E
:102D2C0000229A72A1E103F05DFAAC4803F098F925
:102D3C0001AC00276022002102A804F0E4FAA84BA1
:102D4C00220023CB23C21B781370FA26B600A04DA9
:102D5C0033000C222100280002F094FF00214020B7
:102D6C0003F0C0FA01976022002102A804F0CBFA0C
:102D7C0003F0A2FA02009B49200004F0CDFA3300C4
:102D8C0017222100280002F07DFF0121402003F0D2
:102D9C00A9FA01976022002102A804F0B4FA03F00A
:102DAC005BFA02009049200004F0B6FA33001722B7
:102DBC002100280002F066FF0221402003F092FA65
:102DCC0001976022002102A804F09DFA03F044FA56
:102DDC0002008649200004F09FFA33001B222100D8
:102DEC00280002F04FFF0321402003F07BFA0197EB
:102DFC006022002102A804F086FA03F041FA0200D6
:102E0C007B49200004F088FA82B2330021002800AC
:102E1C0002F038FF0421402003F064FA019760228D
:102E2C00002102A804F06FFA03F02AFA020071499B
:102E3C00200004F071FA82B233002100280002F065
:102E4C0021FF0621402003F04DFA0197602200215A
:102E5C0002A804F058FA03F0FFF9020066492000BA
:102E6C0004F05AFA330017222100280002F00AFF5E
:102E7C000721402003F036FA01976022002102A8B6
:102E8C0004F041FA03F0E8F902005C49200004F078
:102E9C0043FA330015222100280002F0F3FE00242F
:102EAC001CE021001031C9B2402003F01BFA0023B2
:102EBC0001936022002102A804F025FA03F0CCF95A
:102ECC00030022004E4901A804F026FAFA2382B22C
:102EDC009B0001A93E4802F0D5FE01340E2CE0DD2A
:102EEC0000241EE0072C20D821002031C9B240203C
:102EFC0003F0F8F9002301936022002102A804F0EA
:102F0C0002FA03F0A9F9030022003E4901A804F0DB
:102F1C0003FAFA239B001B2201A92D4802F0B2FEF2
:102F2C000134062CDEDD002420E00021DFE7072C35
:102F3C0020D821002831C9B2402003F0D3F9002356
:102F4C0001936022002102A804F0DDF903F084F95A
:102F5C00030022002C4901A804F0DEF9FA239B009F
:102F6C001A2201A91A4802F08DFE0134062CDEDD6E
:102F7C00002420E00021DFE7072C20D8210030318D
:102F8C00C9B2402003F0AEF9002301936022002166
:102F9C0002A804F0B8F903F073F9030022001B49EE
:102FAC0001A804F0B9F9FA2382B29B0001A90848E0
:102FBC0002F068FE0134062CDEDD002447E000211F
:102FCC00DFE7C046900000201C8200084881000802
:102FDC00440700206F6B0A00947D0008D007002086
:102FEC00087D0008187D0008347D00084C7D000821
:102FFC00687D0008847D00089C7D0008B47D000875
:10300C00CC7D0008E47D0008047E0008207E0008CA
:10301C00072C31D821003831C9B2402003F062F9B5
:10302C00002301936022002102A804F06CF903F044
:10303C0027F9030022006E4901A804F06DF9FA2368
:10304C0082B29B0001A96B4802F01CFE0134062CD5
:10305C00DEDD694BDB7A002B02D1674B00229A72C2
:10306C00664803F069F803F095F81BB03CBC904639
:10307C009946A246AB46F0BD0021CEE700240F2CAA
:10308C0050DC5D4B9B4625001435AD000023984663
:10309C005B4A0023594668580021FDF7FBF9594A51
:1030AC000023FDF7D7F982468946434601936022F7
:1030BC00002102A804F027F92200534901A804F0CA
:1030CC002BF9FA27BF0082B24A4E3B0001A930000F
:1030DC0002F0D8FD434601936022002102A804F0BF
:1030EC0012F952464B46494901A804F015F93B0028
:1030FC000F2201A9300002F0C5FD43460193602266
:10310C00002102A804F0FFF85B46EA58404901A8E8
:10311C0004F002F982B23B0001A9300002F0B2FDCA
:10312C000134ACE7344BDB7A002B9ED1324B0022BE
:10313C009A729AE7002601966022002102A804F0F8
:10314C00E2F801F011FA334A0023FDF75FF90200AF
:10315C000B00314901A804F0DFF8FA25AD0082B26A
:10316C00244C2B0001A9200002F08CFD019660225A
:10317C00002102A804F0C7F801F0F6F9FA22920037
:10318C000023FDF743F9FA2292000023FDF73EF9E4
:10319C00224901A804F0C0F882B22B0001A920003A
:1031AC0002F070FD144BDB7A002B00D05DE7124B64
:1031BC0000229A7259E701AC00230193602200218E
:1031CC0002A804F0A0F80A232380F0339B0001220C
:1031DC002100084802F056FD03F0AAF9064BDB7AF1
:1031EC00002B00D041E7044B00229A723DE7C04609
:1031FC003C7E00084407002090000020D0070020EF
:10320C0040771B00FFFFFF00587E0008607E00081F
:10321C00947D000840420F006C7E0008707E000810
:10322C0001AC00239B466022002102A804F06BF83D
:10323C00FD4B1A6801929B88A380FA25AD00FB4ECA
:10324C002B0005222100300002F01CFD6022002121
:10325C0002A804F058F8F64B220083CB83C21B78EB
:10326C0013702B000C222100300002F00BFD5B468A
:10327C0001936022002102A804F045F80B2001F014
:10328C0051F9FA2292000023FDF7E4F802000B003A
:10329C00E8498A46200004F03FF882B22B00210056
:1032AC00300002F0EFFC5B4601936022002102A883
:1032BC0004F029F80B2001F035F9FA2292000023D2
:1032CC00FDF7C8F8DC498946200004F025F82B00EE
:1032DC000A222100300002F0D5FC6022002102A855
:1032EC0004F011F8D54B220083CB83C21B781370EA
:1032FC002B000C222100300002F0C4FC5B46019331
:10330C006022002102A803F0FEFF062001F00AF95A
:10331C00FA2292000023FDF79DF802000B005146A3
:10332C00200003F0F9FF82B22B002100300002F0E4
:10333C00A9FC5B4601936022002102A803F0E3FF85
:10334C00062001F0EFF8FA2292000023FDF782F834
:10335C004946200003F0E0FF2B000A222100300038
:10336C0002F090FC6022002102A803F0CCFFB44BC9
:10337C00220083CB83C21B7813702B000C222100FC
:10338C00300002F07FFC5B4601936022002102A812
:10339C0003F0B9FF002001F0C5F8FA2292000023D7
:1033AC00FDF758F802000B005146200003F0B4FF63
:1033BC0082B22B002100300002F064FC5B460193CA
:1033CC006022002102A803F09EFF002001F0AAF861
:1033DC00FA2292000023FDF73DF84946200003F045
:1033EC009BFF2B000A222100300002F04BFC6022D4
:1033FC00002102A803F087FF924B220083CB83C2EB
:10340C001B7813702B000C222100300002F03AFCC8
:10341C005B4601936022002102A803F074FF0E208A
:10342C0001F080F8FA2292000023FDF713F8020055
:10343C000B005146200003F06FFF82B22B002100DD
:10344C00300002F01FFC5B4601936022002102A8B1
:10345C0003F059FF0E2001F065F8FA2292000023C8
:10346C00FCF7F8FF4946200003F056FF2B000A2218
:10347C002100300002F006FC6022002102A803F0BB
:10348C0042FF714B220083CB83C21B7813702B003D
:10349C000C222100300002F0F5FB5B460193602208
:1034AC00002102A803F02FFF022001F03BF8FA22C2
:1034BC0092000023FCF7CEFF02000B0051462000C7
:1034CC0003F02AFF82B22B002100300002F0DAFB5D
:1034DC005B4601936022002102A803F014FF022036
:1034EC0001F020F8FA2292000023FCF7B3FF4946C2
:1034FC00200003F011FF2B000A222100300002F003
:10350C00C1FB6022002102A803F0FDFE4F4B2200FC
:10351C0083CB83C2196811601B7913712B001022A5
:10352C002100300002F0AEFB5B46019360220021CB
:10353C0002A803F0E8FE0C2001F02EF8FA2292000B
:10354C000023FCF763FF02000B0041498946200071
:10355C0003F0E2FE82B22B002100300002F092FB5D
:10356C005B4601936022002102A803F0CCFE0C20E4
:10357C0001F012F8C317C01858402900FCF740FF9F
:10358C000A00344B9A461900200003F0C5FE2B00AC
:10359C0009222100300002F075FB6022002102A8F4
:1035AC0003F0B1FE2C4B220083CB83C2196811604F
:1035BC001B7913712B0010222100300002F062FBEA
:1035CC005B4601936022002102A803F09CFE0520BB
:1035DC0000F0E2FFFA2292000023FCF717FF020032
:1035EC000B004946200003F097FE82B22B0021000D
:1035FC00300002F047FB5B4601936022002102A8D9
:10360C0003F081FE052000F0C7FFC317C018584017
:10361C002900FCF7F5FE0A005146200003F07CFE61
:10362C002B000922210019E07C7E000844070020B1
:10363C00847E0008947E00089C7E0008AC7E000806
:10364C00BC7E0008CC7E0008DC7E0008EC7E000806
:10365C00007F0008087F0008147F0008300002F08B
:10366C0011FB6022002102A803F04DFEFB4B22004F
:10367C0083CB83C2196811601B7913712B00102244
:10368C002100300002F0FEFA5B460193602200211B
:10369C0002A803F038FE012000F07EFFFA2292000F
:1036AC000023FCF7B3FE02000B004946200003F098
:1036BC0033FE82B22B002100300002F0E3FA5B46AD
:1036CC0001936022002102A803F01DFE012000F0EE
:1036DC0063FFC317C01858402900FCF791FE0A007D
:1036EC005146200003F018FE2B0009222100300067
:1036FC0002F0C8FA6022002102A803F004FED84BA5
:10370C00220083CB83C2196811601B7913712B00C3
:10371C0010222100300002F0B5FA5B4601936022C2
:10372C00002102A803F0EFFD0D2000F035FFFA2276
:10373C0092000023FCF76AFE02000B0049462000B1
:10374C0003F0EAFD82B22B002100300002F09AFA5D
:10375C005B4601936022002102A803F0D4FD0D20EA
:10376C0000F01AFFC317C01858402900FCF748FE98
:10377C000A005146200003F0CFFD2B000922210046
:10378C00300002F07FFA6022002102A803F0BBFD9A
:10379C00B44B220083CB83C2196811601B7913715F
:1037AC002B0010222100300002F06CFA5B460193D2
:1037BC006022002102A803F0A6FD032000F0ECFE1D
:1037CC00FA2292000023FCF721FE02000B0049466E
:1037DC00200003F0A1FD82B22B002100300002F08A
:1037EC0051FA5B4601936022002102A803F08BFD85
:1037FC00032000F0D1FEC317C01858402900FCF775
:10380C00FFFD0A005146200003F086FD2B00092223
:10381C002100300002F036FA6022002102A803F0E9
:10382C0072FD914B220083CB83C21B8813802B002B
:10383C000D222100300002F025FA5B460193602234
:10384C00002102A803F05FFD042000F0B5FEFA226F
:10385C0092000023FCF7DAFD02000B004946200021
:10386C0003F05AFD82B22B002100300002F00AFA5C
:10387C005B4601936022002102A803F044FD042062
:10388C0000F09AFEC317C01858402900FCF7B8FD89
:10389C000A007649200003F03FFD2B000A2221008C
:1038AC00300002F0EFF9201D6022002103F02BFD07
:1038BC0001AC6F4B220023CB23C21B881380FA254B
:1038CC00AD006C4E2B000D222100300002F0DAF915
:1038DC00002301936022002102A803F014FD0A20AA
:1038EC0000F06AFEFA2292000023FCF78FFD020022
:1038FC000B0061498946200003F00EFD82B22B00BB
:10390C002100300002F0BEF95B46019360220021D9
:10391C0002A803F0F8FC0A2000F04EFEC317C018F2
:10392C0058402900FCF76CFD0A00504B98461900D2
:10393C00200003F0F1FC2B000A222100300002F0E1
:10394C00A1F96022002102A803F0DDFC4B4B220000
:10395C0083CB83C21B8813802B000D2221003000E7
:10396C0002F090F95B4601936022002102A803F05B
:10397C00CAFC092000F020FEFA2292000023FCF77A
:10398C0045FD02000B004946200003F0C5FC82B245
:10399C002B002100300002F075F95B460193602288
:1039AC00002102A803F0AFFC092000F005FEC317AC
:1039BC00C01858402900FCF723FD0A00414620009E
:1039CC0003F0AAFC2B000A222100300002F05AF965
:1039DC006022002102A803F096FC294B220083CB25
:1039EC0083C21B8813802B000D222100300002F0B3
:1039FC0049F95B4601936022002102A803F083FC85
:103A0C000F2000F0D9FDFA2292000023FCF7FEFCF7
:103A1C0002000B004946200003F07EFC82B22B0012
:103A2C002100300002F02EF95B4601936022002148
:103A3C0002A803F068FC0F2000F0BEFDC317C018ED
:103A4C0058402900FCF7DCFC0A004146200003F03A
:103A5C0063FC2B000A222100300013E0287F0008B1
:103A6C003C7F0008507F0008647F0008747F0008CA
:103A7C00807F000844070020007F0008907F00082A
:103A8C00A07F000802F0FEF81F4BDB7A002B01D060
:103A9C00FFF7EBFA1C4B00229A72FFF7E6FA1A4A70
:103AAC0000239372D37A59424B41DBB2D372002B71
:103ABC0014D001AC6022002102A803F024FC134BAB
:103ACC00220003CB03C21B781370FA239B0008223D
:103ADC0021000F4802F0D6F8FFF7C7FA01AC6022BC
:103AEC00002102A803F00FFC0A4B220003CB03C2F7
:103AFC001B881380FA239B0009222100044802F042
:103B0C00C1F8FFF7B2FAC04690000020B07F000861
:103B1C0044070020BC7F0008FB4BDB7A002B02D152
:103B2C00F94B00229A7201AC002701976022002108
:103B3C0002A803F0E8FB0A232380FA26B600F34D13
:103B4C00330001222100280002F09CF8019760222A
:103B5C00002102A803F0D7FBEB4A90469B22D2002F
:103B6C00424410685168FA2292000023FCF792FC40
:103B7C0002000B00E649200003F0CEFB82B23300BA
:103B8C002100280002F07EF801976022002102A893
:103B9C0003F0B9FBDF4B4246D258DF49200003F05B
:103BAC00BBFB82B233002100280002F06BF80197B6
:103BBC006022002102A803F0A6FBAB22D2004244F3
:103BCC0053681268D549200003F0A6FB82B233007B
:103BDC002100280002F056F86022002102A803F010
:103BEC0092FBCF4B220083CB83C21B781370330024
:103BFC000C222100280002F045F8002701976022D2
:103C0C00002102A803F07FFB062000F09DFCC54AB2
:103C1C000023FCF71FFC02000B00C349894620005F
:103C2C0003F07AFB82B233002100280002F02AF85C
:103C3C0001976022002102A803F065FB062000F02A
:103C4C0083FCB84A0023FCF705FCB8498B462000DE
:103C5C0003F062FB33000D222100280002F012F861
:103C6C006022002102A803F04EFBB14B220083CB53
:103C7C0083C21B78137033000C222100280002F041
:103C8C0001F8002701976022002102A803F03BFBFA
:103C9C00002000F059FCA34A0023FCF7DBFB0200D8
:103CAC000B004946200003F037FB82B233002100A1
:103CBC00280001F0E7FF01976022002102A803F021
:103CCC0022FB002000F040FC964A0023FCF7C2FBCC
:103CDC009849200003F020FB82B233002100280019
:103CEC0001F0D0FF01976022002102A803F00BFB2A
:103CFC009E22D200424410685168FA22920000239E
:103D0C00FCF7C8FB02000B008B49200003F004FBFE
:103D1C0082B233002100280001F0B4FF0197602229
:103D2C00002102A803F0EFFAA123DB004246D2588F
:103D3C008249200003F0F0FA82B2330021002800FF
:103D4C0001F0A0FF01976022002102A803F0DBFA2A
:103D5C00A522D2004244536812687949200003F02E
:103D6C00DBFA82B233002100280001F08BFF6022C5
:103D7C00002102A803F0C7FA724B220083CB83C246
:103D8C001B78137033000C222100280001F07AFFFD
:103D9C00002701976022002102A803F0B4FA0E203C
:103DAC0000F0D2FB5F4A0023FCF754FB02000B002F
:103DBC004946200003F0B0FA82B2330021002800FB
:103DCC0001F060FF01976022002102A803F09BFA2A
:103DDC000E2000F0B9FB534A0023FCF73BFB59467D
:103DEC00200003F099FA33000D222100280001F085
:103DFC0049FF6022002102A803F085FA524B2200F1
:103E0C0083CB83C21B78137033000C222100280053
:103E1C0001F038FF002701976022002102A803F06F
:103E2C0072FA022000F090FB3E4A0023FCF712FBD2
:103E3C0002000B004946200003F06EFA82B23300F8
:103E4C002100280001F01EFF01976022002102A82A
:103E5C0003F059FA022000F077FB324A0023FCF7FA
:103E6C00F9FA3A49200003F057FA33000E222100E8
:103E7C00280001F007FF01976022002102A803F03F
:103E8C0042FA334A92464246514652583149200032
:103E9C0003F042FA82B233002100280001F0F2FE56
:103EAC0001976022002102A803F02DFA2A4B42460A
:103EBC00D2582A49200003F02FFA82B23300210095
:103ECC00280001F0DFFE01976022002102A803F018
:103EDC001AFA234A914642465146525841464846A0
:103EEC0009588A1A1F49200003F016FA82B23300CF
:103EFC002100280001F0C6FE01976022002102A8D3
:103F0C0003F001FA30E0C046900000204407002086
:103F1C00C87F00083C050000E07F0008F87F00081F
:103F2C00AC7E000840420F00947E00080C80000814
:103F3C00BC7E00081C8000082C800008448000080F
:103F4C005C800008CC7E0008DC7E000870800008D5
:103F5C006C05000080800008740500009C8000083F
:103F6C00B4040000B88000084246494652586F49D4
:103F7C00200003F0D1F982B233002100280001F0B7
:103F8C0081FE01976022002102A803F0BCF9AE2249
:103F9C00D20092464246514652586549200003F0E1
:103FAC00BBF982B233002100280001F06BFE0197AF
:103FBC006022002102A803F0A6F95E4B4246D258BB
:103FCC005D49200003F0A8F982B2330021002800DB
:103FDC0001F058FE01976022002102A803F093F92A
:103FEC009722D20091464246514652584146484685
:103FFC0009588A1A5149200003F08EF982B2330015
:10400C002100280001F03EFE01976022002102A849
:10401C0003F079F94246494652584949200003F0C9
:10402C007BF982B233002100280001F02BFE0197AE
:10403C006022002102A803F066F90A2323803300D2
:10404C0001222100280001F01DFEFFF70EF83D4B68
:10405C0000229A728021A0200132C901C005FCF710
:10406C00FBFF01AC6022002102A803F04CF9364B97
:10407C00220023CB23C223CB23C2196811601B79E6
:10408C001371FA25AD00314E2B001C22210030009B
:10409C0001F0F8FD2800FEF74BFC6022002102A87D
:1040AC0003F031F92A4B220083CB83C283CB83C22A
:1040BC00196811601B7913712B001C222100300030
:1040CC0001F0E0FD2800FEF733FC6022002102A87D
:1040DC0003F019F91F4B220083CB83C283CB83C21D
:1040EC00196811601B7913712B001C222100300000
:1040FC0001F0C8FD2800FEF71BFC6022002102A87D
:10410C0003F001F9144B220083CB83C283CB83C20F
:10411C0003CB03C21B8813802B002122210030000B
:10412C0001F0B0FDFEF788FBFEF79FFFD080000882
:10413C00E4800008A4050000008100081C81000830
:10414C0034810008900000205481000844070020AE
:10415C007481000894810008B481000801AC6022CD
:10416C00002102A803F0CFF89A4B1A6801929A88A2
:10417C00A2809B79A371FA25AD00974E2B000622E5
:10418C002100300001F07EFD002701976022002104
:10419C0002A803F0B8F8914B9846BE23DB004246C8
:1041AC00D2588F4B99461900200003F0B5F882B213
:1041BC002B002100300001F065FD6022002102A8D7
:1041CC0003F0A1F8874B1A6801929A88A2809B7918
:1041DC00A3712B0006222100300001F053FD019742
:1041EC006022002102A803F08EF87F4B4246D25881
:1041FC004946200003F090F882B22B0021003000D9
:10420C0001F040FD6022002102A803F07CF8774BFE
:10421C00220003CB03C293462B000722210030005F
:10422C0001F030FD01976022002102A803F06BF829
:10423C0000F09AF96E4A0023FCF7E8F802000B0034
:10424C006C49200003F068F882B22B00210030008A
:10425C0001F018FD01976022002102A803F053F829
:10426C0000F082F9FA2292000023FCF7CFF8C31772
:10427C00C01858402900FCF7C3F80A005E4920001A
:10428C0003F04AF82B0007222100300001F0FAFC61
:10429C006022002102A803F036F8584B220083CB91
:1042AC0083C22B000B222100300001F0EBFC002715
:1042BC0001976022002102A803F025F8BC23DB0043
:1042CC009A464B49434652469858FBF7B3FF0200B7
:1042DC004849200003F020F882B22B002100300066
:1042EC0001F0D0FC01976022002102A803F00BF82A
:1042FC004346524698582900FBF79CFFC317C01839
:10430C0058402900FCF77CF80A003B49200003F0D8
:10431C0003F82B0007222100300001F0B3FC6022CF
:10432C00002102A802F0EFFF354B220003CB03C2A1
:10433C001A8859460A809B788B702B000A22210020
:10434C00300001F09FFC01976022002102A802F0CE
:10435C00DAFF2C4B4246D2584946200002F0DCFFD3
:10436C0082B22B002100300001F08CFC6022002175
:10437C0002A802F0C8FF244B220003CB03C21A8808
:10438C0059460A809B788B702B000A222100300042
:10439C0001F078FC01976022002102A802F0B3FF23
:1043AC00BD23DB004246D2584946200002F0B4FF40
:1043BC0082B22B002100300001F064FC4346DB7A12
:1043CC00002B01D0FEF751FE044B00229A72FEF72F
:1043DC004CFEC046D8810008440700209000002005
:1043EC00E0810008E4810008EC050000EC81000885
:1043FC0040420F00F4810008707E0008F88100082C
:10440C0004820008E40500001082000830B593B067
:10441C002C4A4D230021D154402202A802F073FFF4
:10442C000F2000E00138002819DD00210F29F9DCEC
:10443C00431E244C1B015B1824339B0002015218B1
:10444C00243292001D5915518A0002AD555901951F
:10445C001B59AC46634402AC13510131E6E7002210
:10446C0017E01849130014339B005B5810002430DC
:10447C0080004350900002AC04590194A44663445C
:10448C0002AC03511B0910002530FF308000435053
:10449C0001320F2AE5DD0B499A22D2008B5C0133E5
:1044AC00DBB28B54102B05D8074BCB5C002B07D001
:1044BC00012300E001230349034A8B5413B030BDA0
:1044CC000023F8E790000020D104000010B525303F
:1044DC00FF308000054BC058054A00230021FBF734
:1044EC00D9FF044A0023FBF7B5FF10BD9000002054
:1044FC0000D2496BFFFFFF0010B52530FF30800064
:10450C00054BC058054A00230021FBF7C3FF044AA2
:10451C000023FBF79FFF10BD9000002040771B008D
:10452C00FFFFFF0010B5FFF7D1FF054A0023121A59
:10453C008B4110001900034A0023FBF78BFF10BDC1
:10454C0000D2496B1027000010B5FFF7BFFF054ADA
:10455C000023121A8B41100019000A220023FBF7CA
:10456C0079FF10BD00D2496B10B50720FFF7C4FFCF
:10457C00074A0023FBF78EFF842252000023FBF72F
:10458C0069FF044A01235B428018594110BDC046A3
:10459C005C440000889103FC10B5FFF7ADFF1E22B0
:1045AC000023FBF757FF034A01235B428018594154
:1045BC0010BDC046D08AFFFF10B5A0B00400802209
:1045CC000B49684602F096FE2000FFF795FFE400C9
:1045DC006C4422686368801A994114220023FBF70B
:1045EC0015FF044A01235B428018594120B010BDCD
:1045FC00907B00081802FFFFF0B5304E304FA1231E
:10460C00DB00F7500833F31801204042C117186043
:10461C005960A323DB00F31818605960A423DB0056
:10462C00F318284C00251C605D60A523DB009C461C
:10463C00B44400220023644622606360A624E40094
:10464C00A446B4446446226063601F4C3751043462
:10465C00A446B444644620606160A924E400A446E6
:10466C00B444644620606160AA21C9007118154CDD
:10467C0000250C604D60AB21C90071180A604B60BD
:10468C00AC21C90071180A604B60104977501C317D
:10469C0071180A604B60B321C90071180A604B6035
:1046AC000B497750243171180A604B60BA21C9004C
:1046BC008C46664432607360F0BDC04690000020AA
:1046CC00FF7F000040420F003C0500007405000015
:1046DC00A405000070B5FFF747FF0C4C0C4BE050E5
:1046EC0000230C4AA35001250432A5500A4AA350BA
:1046FC000432A350FFF738FF084B9C466044BC23A0
:10470C00DB00E050064BE55070BDC0469000002029
:10471C00DC050000EC050000E4050000807BE1FFF7
:10472C00F405000070B5244A244BD358002B3BD021
:10473C00FFF71AFF204A224BD050224B984236DC0E
:10474C001D4DBC23DB00EB58C01AFA218900FBF786
:10475C0071FD06001C4BE8500433EA588018E850F1
:10476C00C8214942FBF766FD040032214942300062
:10477C00FBF760FD2018C3171B1ADB0FBE22D200FB
:10478C00AB50C317C0185840642800DD64200A4B96
:10479C000E4A98500E4A5063BE22D2009A5C0221F7
:1047AC000C48FCF759FC70BDFFF794FFC0E7084BB1
:1047BC0000225A63F7E7C04690000020F405000081
:1047CC00DC050000005A6202E4050000EC05000064
:1047DC00002C01400004005010B5FFF7A3FF10BDE2
:1047EC0030B59BB0040001AD6022002102A802F09C
:1047FC008AFD4D4B1A6801921B792B71FA239B0091
:10480C0004222900494801F03DFA49492000FBF7F0
:10481C0073FC002804D1474B01229A721BB030BDA7
:10482C0045492000FBF768FC002803D1414B0222CC
:10483C009A72F3E741492000FBF75EFC002803D194
:10484C003C4B03229A72E9E73D492000FBF754FCEC
:10485C00002803D1374B04229A72DFE73949200034
:10486C00FBF74AFC002809D037492000FBF744FC31
:10487C00002818D12F4B07229A72CFE701AC0023E6
:10488C0001936022002102A802F03DFD0A2323803F
:10489C00F0339B0001222100244801F0F3F9254B51
:1048AC0006229A72BAE729492000FBF725FC00285A
:1048BC0003D1204B08229A72B0E725492000FBF760
:1048CC001BFC002803D11B4B09229A72A6E7214935
:1048DC002000FBF711FC002803D1164B0A229A7218
:1048EC009CE71D492000FBF707FC002803D1114B66
:1048FC000B229A7292E719492000FBF7FDFB002866
:10490C0003D10C4B0C229A7288E715492000FBF757
:10491C00F3FB002803D1074B0D229A727EE7054B5F
:10492C00FF229A727AE7C04654820008440700209E
:10493C005C82000890000020648200086C820008F1
:10494C00788200088482000890820008988200080F
:10495C00A4820008A8820008AC820008B482000877
:10496C00BC82000870B5041E4CD03623C35C002BEF
:10497C003DD036230222E2542568EB68606801289A
:10498C0004D080221204A16A914201D11E229343C9
:10499C0061691D4A914201D01C4A13401C4A1A40BD
:1049AC00A3680343266A3343666A3343A66A3343D8
:1049BC001343012803D080221204964203D1E268EB
:1049CC00206902431343104A914204D0A269114357
:1049DC00E26911430B43EB6023680E4A93420CD0FF
:1049EC00E26A5A6236230122E254002070BD35334C
:1049FC000022C254FDF7D4FFBBE7E26A216B0A43E5
:104A0C005A62EFE70120F1E7FFFF00003F1FFFFFB5
:104A1C00F8F119FF007C004010B536230222C25475
:104A2C004368012B04D080231B04826A9A4219D05C
:104A3C0002689368102423439360026893680E3CC9
:104A4C0023439360046823690122134323610368A1
:104A5C00996101680B69042423430B613623C2540A
:104A6C00002010BD0268D368014C2340D360DFE7FF
:104A7C00FFF1FFFF704770477047704770477047F2
:104A8C00704710B5040003681A68D20702D59A68FB
:104A9C00D2072AD423681A68920702D59A6892071B
:104AAC0028D423681A68520702D59A68520727D46B
:104ABC0023681A68120702D59A68120726D423684D
:104ACC001A68D20602D59A68D20625D423681A68C9
:104ADC00920602D59A68920624D423681A68520664
:104AEC0002D59A68520623D410BD01225A60FFF7F2
:104AFC00C1FFCFE702225A602000FFF7BCFFD0E7CE
:104B0C0004225A602000FFF7B7FFD1E708225A6051
:104B1C002000FFF7B2FFD2E710225A602000FFF707
:104B2C00ADFFD3E720225A602000FFF7A8FFD4E79F
:104B3C0040225A602000FFF7A3FFD5E702681368F4
:104B4C00C0218B4313600268936803490B40936048
:104B5C0080232022C2507047FFFF7FFF026813683A
:104B6C0006490B4013600268936805490B4093603B
:104B7C0084232022C2500023C3667047DFFEFFFF50
:104B8C00FEFFFFEF10B504008423C358202B55D132
:104B9C00002955D0002A55D080235B0180689842AB
:104BAC0031D07C23E35C012B4ED07C230120E054DC
:104BBC00A165203BE2522C330021E150043B223111
:104BCC00E150A36F002B25D02049D962A36F204957
:104BDC001963A36F1F495963A36F0021996321685F
:104BEC0024311300A26DA06FFDF77AFC002811D0C0
:104BFC0088231022E2500C3B0022E2540433203272
:104C0C00E25001201BE02369002BCAD1CB07C8D589
:104C1C00012014E07C230022E254226811688433C2
:104C2C000B4313602268936801210B439360226845
:104C3C0093683F310B439360002000E0022010BDCD
:104C4C000120FCE70120FAE70220F8E7194D0008E3
:104C5C005F4D00086B4D000870B504008023C058F0
:104C6C008422A558226891680B4201D0212807D0D4
:104C7C0023689A68520636D5222D1AD0002033E0CC
:104C8C00936880218B439360606F002803D0FDF7FD
:104C9C0073FC002803D12000FFF750FFE8E7606F9A
:104CAC00FDF752FD2028F6D188231022E2501D3842
:104CBC001AE09A6840218A439A60A06F002803D0BA
:104CCC00FDF75AFC002804D12000FFF747FF002015
:104CDC000AE0A06FFDF738FD2028F5D188231022BB
:104CEC00E2501D3800E0002070BD704710B502681E
:104CFC00136840218B43136080232022C250002371
:104D0C000367FFF7F2FF10BD7047000010B50300FA
:104D1C00806A1B681B689B0615D45E230022C25256
:104D2C000268136809490B401360026893680331E9
:104D3C00FF318B439360026893683F318B439360E0
:104D4C0084232022C250FFF7DFFF10BDFFFEFFFFC0
:104D5C00704710B5806AFFF7FBFF10BD704770B548
:104D6C00846A8023E1588422A558226892681342F1
:104D7C0001D021290ED023689B685B0601D5222D1A
:104D8C000FD08822A35810210B43A3502000FFF70B
:104D9C00E5FF70BD2A3B0022E2522000FFF7CEFE59
:104DAC00E9E75E230022E2522000FFF7D7FEE8E796
:104DBC00F8B504000268D369156890680F210E00DD
:104DCC001E40194205D1990603D5A90629D4C10064
:104DDC0027D4002E08D05A4906000E40084226D18E
:104DEC00902149000D4222D1D90202D5410200D5B1
:104DFC008BE01A0605D52A0600D58DE0020200D5F7
:104E0C008AE05A0602D56A0600D58CE01A0202D551
:104E1C006A0000D58BE0DB0102D5002D00DA8AE0B8
:104E2C00F8BDE36E002BFBD020009847F8E7D907BC
:104E3C0007D5E90505D501271762882162583A4341
:104E4C0062509A0709D5C20707D522680221116260
:104E5C008631625804273A4362505A0709D5C20773
:104E6C0007D52268042111628431625802273A4323
:104E7C0062501A070AD5AA0601D4002E06D0226861
:104E8C000826166288216258324362508822A25842
:104E9C00002AC5D09B0608D5AB0601D4C30004D5A7
:104EAC00E36E002B01D0200098478823E25823683A
:104EBC009B685B0601D4130720D52000FFF74EFE3C
:104ECC0023689A68520615D59A6840218A439A60DD
:104EDC00A36F002B0AD01B4A9A63A06FFDF78CFBC3
:104EEC0000289DD0A06F836B984799E72000FFF7AF
:104EFC0035FF95E72000FFF731FF91E72000FFF722
:104F0C002DFF88230022E2508AE780235B03136283
:104F1C00200000F0E1FF83E7236F002B00D17FE737
:104F2C00200098477CE72000FFF7E0FE78E72000A0
:104F3C0000F0D4FF74E7200000F0CFFF70E7C0460C
:104F4C0001000010554F000810B5806A00235E2246
:104F5C008352083A8352FFF701FF10BD70B504006D
:104F6C00016883680269134342691343C26913439E
:104F7C00426E1A430B68A948034013430B60226826
:104F8C005368A7490B40E1680B435360A169226841
:104F9C00A44B9A4201D0236A19439368A248034058
:104FAC000B4393602268D36A0F218B43616A0B43D6
:104FBC00D36223689D4A93420FD09D4A93426CD092
:104FCC009C4A934200D1A1E09B4A934200D19FE0BE
:104FDC00944A934272D010260EE0984A516D0322E7
:104FEC000A40022A00D181E053D8002A00D17FE088
:104FFC00012A00D07EE004268A4A934200D191E037
:10500C0080231B02E2699A4200D136E3042E01D1BF
:10501C0000F019FD01D900F070FC002E01D100F058
:10502C00A9FC022E01D000F065FC636A002B01D1B3
:10503C0000F0E7FC012B01D100F0F1FC022B01D1B7
:10504C0000F0EFFC032B01D100F0EDFC042B01D19F
:10505C0000F0EBFC052B01D100F0E9FC062B01D193
:10506C0000F0E7FC072B01D100F0E5FC082B01D187
:10507C0000F0E3FC092B01D100F0E1FC0A2B01D17B
:10508C0000F0DFFC0B2B01D100F0B8FC012100F08B
:10509C00B9FC032A30D10826AEE7684A516D0C22C0
:1050AC000A40082A2AD005D8002A29D0042A29D156
:1050BC000426A1E70C2A27D108269DE75F4A526DEA
:1050CC00C02109010A40802109018A4222D007D857
:1050DC00002A21D08021C9008A421FD104268BE7E7
:1050EC00C02109018A421BD1082685E7022683E7E5
:1050FC00002681E710267FE710267DE702267BE756
:10510C00002679E7102677E7102675E7002673E767
:10511C00002671E702266FE700266DE710266BE785
:10512C00102669E7042E00D100E12CD8002E55D0B2
:10513C00022E26D1636A002B00D1DEE0012B00D1B8
:10514C00E0E0022B00D1DFE0032B00D1DEE0042BEA
:10515C0000D1DDE0052B00D1DCE0062B00D1DBE03B
:10516C00072B00D1DAE0082B00D1D9E0092B00D1B4
:10517C00D8E00A2B00D1D7E00B2B00D1BAE00121EB
:10518C00BCE00126ECE3082E26D1636A002B00D18B
:10519C0007E1012B00D10AE1022B00D109E1032B1D
:1051AC0000D108E1042B00D107E1052B00D106E169
:1051BC00062B00D105E1072B00D104E1082B00D10F
:1051CC0003E1092B00D102E10A2B00D101E10B2BE9
:1051DC0000D1E3E00121E5E00126C1E3FCF714FF77
:1051EC00636A002B2CD0012B70D0022B70D0032BB8
:1051FC0070D0042B70D0052B70D0062B70D0072BE1
:10520C0070D0082B70D0092B70D00A2B70D00B2BC0
:10521C0001D0012115E08021490012E0F369FFCF94
:10522C00FFCFFFFF00800040FFF4FF11003801406A
:10523C000044004000480040004C00400010024078
:10524C000121FAF76DFF002801D100F063FC6568BD
:10525C006B005B19834201D900F05EFC2B03834287
:10526C0001D200F05BFC042E00D175E100D9B5E051
:10527C00002E00D1E7E0022E00D0ACE0636A002BD8
:10528C0000D137E1012B00D148E1022B00D148E1DC
:10529C00032B00D148E1042B00D148E1052B00D1B0
:1052AC0048E1062B00D148E1072B00D148E1082B3F
:1052BC0000D148E1092B00D148E10A2B00D148E18B
:1052CC000B2B00D112E10122002315E10221B8E7DA
:1052DC000421B6E70621B4E70821B2E70A21B0E7BA
:1052EC000C21AEE71021ACE72021AAE74021A8E76A
:1052FC008021A6E78021490000E00121A748FAF7A8
:10530C000FFFA0E70221F9E70421F7E70621F5E7F3
:10531C000821F3E70A21F1E70C21EFE71021EDE773
:10532C002021EBE74021E9E78021E7E7FCF744FD8A
:10533C00636A002B1AD0012B1CD0022B1CD0032B20
:10534C001CD0042B1CD0052B1CD0062B1CD0072BDF
:10535C001CD0082B1CD0092B1CD00A2B1CD00B2BBF
:10536C0001D0012103E08021490000E00121FAF77E
:10537C00D7FE68E70221FAE70421F8E70621F6E7F1
:10538C000821F4E70A21F2E70C21F0E71021EEE7FF
:10539C002021ECE74021EAE78021E8E78021490061
:1053AC0000E0012180200002FAF7BAFE4BE702214F
:1053BC00F8E70421F6E70621F4E70821F2E70A21D1
:1053CC00F0E70C21EEE71021ECE72021EAE7402181
:1053DC00E8E78021E6E7012600202BE0082E27D104
:1053EC00636A002B00D115E1012B00D127E1022BC0
:1053FC0000D127E1032B00D127E1042B00D127E1B9
:10540C00052B00D127E1062B00D127E1072B00D17A
:10541C0027E1082B00D127E1092B00D127E10A2B2A
:10542C0000D127E10B2B00D1F0E001220023F3E0A7
:10543C00012600205A4A5B4BC318934200D96FE3F4
:10544C002368D8608CE2FCF7DFFD636A002B1CD06C
:10545C00012B2DD0022B2ED0032B2FD0042B30D090
:10546C00052B31D0062B32D0072B33D0082B34D060
:10547C00092B35D00A2B36D00B2B02D0012200235E
:10548C0005E080225200002301E0012200230021CC
:10549C00FAF7E0FF050E0B022B4302026568680861
:1054AC000021801859412A000023FAF7D3FFC1E7E5
:1054BC0002220023EBE704220023E8E70622002364
:1054CC00E5E708220023E2E70A220023DFE70C22AB
:1054DC000023DCE710220023D9E720220023D6E7A3
:1054EC0040220023D3E780220023D0E78022520001
:1054FC00002301E00122002328480021FAF7AAFF2B
:10550C00060E0B0233430202680800218018594131
:10551C002A000023FAF79EFF00268BE702220023C5
:10552C00EAE704220023E7E706220023E4E7082247
:10553C000023E1E70A220023DEE70C220023DBE74D
:10554C0010220023D8E720220023D5E74022002395
:10555C00D2E780220023CFE7FCF72EFC636A002BF6
:10556C0022D0012B34D0022B35D0032B36D0042B78
:10557C0037D0052B38D0062B39D0072B3AD0082B37
:10558C003BD0092B3CD00A2B3DD00B2B02D0012257
:10559C0000230BE080225200002307E00024F400DB
:1055AC00FFFC0F0000FDFFFF012200230021FAF792
:1055BC0051FF050E0B022B4302026568680800219F
:1055CC00801859412A000023FAF744FF002631E7DE
:1055DC0002220023EAE704220023E7E70622002345
:1055EC00E4E708220023E1E70A220023DEE70C228D
:1055FC000023DBE710220023D8E720220023D5E785
:10560C0040220023D2E780220023CFE780225200E1
:10561C00002301E001220023802000020021FAF780
:10562C0019FF060E0B023343020268080021801892
:10563C0059412A000023FAF70DFF0026FAE6022250
:10564C000023E9E704220023E6E706220023E3E730
:10565C0008220023E0E70A220023DDE70C220023C6
:10566C00DAE710220023D7E720220023D4E74022D8
:10567C000023D1E780220023CEE7042E00D1D0E016
:10568C002DD8002E66D0022E26D1636A002B00D1B5
:10569C00A4E0012B00D1B0E0022B00D1AFE0032B32
:1056AC0000D1AEE0042B00D1ADE0052B00D1ACE075
:1056BC00062B00D1ABE0072B00D1AAE0082B00D1C0
:1056CC00A9E0092B00D1A8E00A2B00D1A7E00B2BF5
:1056DC0000D180E0012182E0012600202AE0082E82
:1056EC0026D1636A002B00D1E0E0012B00D1EDE064
:1056FC00022B00D1ECE0032B00D1EBE0042B00D10A
:10570C00EAE0052B00D1E9E0062B00D1E8E0072BFD
:10571C0000D1E7E0082B00D1E6E0092B00D1E5E051
:10572C000A2B00D1E4E00B2B00D1BCE00121BEE040
:10573C0001260020A84A0300103B934200D9F1E156
:10574C000F2302009A434008083B1840104323687B
:10575C00D86005E1FCF758FC636A002B1AD0012BCA
:10576C0025D0022B25D0032B25D0042B25D0052B9F
:10577C0025D0062B25D0072B25D0082B25D0092B7F
:10578C0025D00A2B25D00B2B01D0012103E0802141
:10579C00490000E00121FAF7C3FC400063685B0894
:1057AC00C0186168FAF7BCFC0004000CC2E70221C7
:1057BC00F1E70421EFE70621EDE70821EBE70A21E9
:1057CC00E9E70C21E7E71021E5E72021E3E7402199
:1057DC00E1E78021DFE78021490000E001217F48DB
:1057EC00FAF79EFC400063685B08C0186168FAF722
:1057FC0097FC0004000C00269CE70221EFE7042133
:10580C00EDE70621EBE70821E9E70A21E7E70C21A0
:10581C00E5E71021E3E72021E1E74021DFE78021E4
:10582C00DDE7FCF7C9FA636A002B1AD0012B26D0EE
:10583C00022B26D0032B26D0042B26D0052B26D0CA
:10584C00062B26D0072B26D0082B26D0092B26D0AA
:10585C000A2B26D00B2B01D0012103E0802149001B
:10586C0000E00121FAF75CFC400063685B08C0189B
:10587C006168FAF755FC0004000C00265AE7022177
:10588C00F0E70421EEE70621ECE70821EAE70A211C
:10589C00E8E70C21E6E71021E4E72021E2E74021CC
:1058AC00E0E78021DEE78021490000E00121802033
:1058BC000002FAF735FC400063685B08C0186168A9
:1058CC00FAF72EFC0004000C002633E70221EEE769
:1058DC000421ECE70621EAE70821E8E70A21E6E7DC
:1058EC000C21E4E71021E2E72021E0E74021DEE78C
:1058FC008021DCE7012600202AE0082E26D1636AED
:10590C00002B00D1E3E0012B00D1EFE0022B00D102
:10591C00EEE0032B00D1EDE0042B00D1ECE0052BE5
:10592C0000D1EBE0062B00D1EAE0072B00D1E9E037
:10593C00082B00D1E8E0092B00D1E7E00A2B00D1BD
:10594C00E6E00B2B00D1BFE00121C1E001260020D5
:10595C00214A0300103B934200D9E5E02368D8604C
:10596C0001236A22A352023AA3520023E36623675F
:10597C00300070BDFCF748FB636A002B1AD0012B7A
:10598C0024D0022B24D0032B24D0042B28D0052B7D
:10599C0028D0062B28D0072B28D0082B28D0092B51
:1059AC0028D00A2B28D00B2B01D0012103E0802119
:1059BC00490000E00121FAF7B3FB63685B08C018EB
:1059CC006168FAF7ADFB0004000CC1E70221F2E7B5
:1059DC000421F0E70621EEE7EFFF00000024F400BD
:1059EC000821E8E70A21E6E70C21E4E71021E2E7C9
:1059FC002021E0E74021DEE78021DCE7802149001F
:105A0C0000E001214948FAF78BFB63685B08C0187A
:105A1C006168FAF785FB0004000C002698E7022168
:105A2C00F0E70421EEE70621ECE70821EAE70A217A
:105A3C00E8E70C21E6E71021E4E72021E2E740212A
:105A4C00E0E78021DEE7FCF7B7F9636A002B1AD098
:105A5C00012B25D0022B25D0032B25D0042B25D0B0
:105A6C00052B25D0062B25D0072B25D0082B25D090
:105A7C00092B25D00A2B25D00B2B01D0012103E0BB
:105A8C008021490000E00121FAF74AFB63685B08BA
:105A9C00C0186168FAF744FB0004000C002657E7B5
:105AAC000221F1E70421EFE70621EDE70821EBE7FE
:105ABC000A21E9E70C21E7E71021E5E72021E3E7DC
:105ACC004021E1E78021DFE78021490000E001214E
