:020000040800F2
:1000000000900020116F0008CD0C0008CF0C0008F4
:1000100000000000000000000000000000000000E0
:10002000000000000000000000000000D10C0008EB
:100030000000000000000000D30C0008D50C0008F0
:10004000616F0008616F0008616F0008DD0C000837
:10005000E50C0008616F0008616F0008E70C0008FC
:10006000616F0008F90C0008616F0008616F0008FB
:10007000616F0008616F0008616F0008616F000820
:10008000616F0008090D0008616F0008616F0008CA
:10009000616F0008616F0008616F0008616F000800
:1000A000616F0008616F00083D0D0008616F000876
:0C00B0004D0D0008616F0008616F000832
:1000BC0010B5064C2378002B07D1054B002B02D032
:1000CC00044800E000BF0123237010BD7000002025
:1000DC000000000024780008044B10B5002B03D05E
:1000EC000349044800E000BF10BDC04600000000FA
:1000FC00740000202478000802780B78002A03D0C2
:10010C00013001319A42F7D0D01A704703B47146CE
:10011C00490840004900095E49008E4403BC704701
:10012C00002243088B4274D303098B425FD3030A2A
:10013C008B4244D3030B8B4228D3030C8B420DD33D
:10014C00FF22090212BA030C8B4202D312120902CB
:10015C0065D0030B8B4219D300E0090AC30B8B4209
:10016C0001D3CB03C01A5241830B8B4201D38B03B7
:10017C00C01A5241430B8B4201D34B03C01A52415C
:10018C00030B8B4201D30B03C01A5241C30A8B429F
:10019C0001D3CB02C01A5241830A8B4201D38B028A
:1001AC00C01A5241430A8B4201D34B02C01A52412E
:1001BC00030A8B4201D30B02C01A5241CDD2C309A0
:1001CC008B4201D3CB01C01A524183098B4201D31C
:1001DC008B01C01A524143098B4201D34B01C01A07
:1001EC00524103098B4201D30B01C01A5241C3087F
:1001FC008B4201D3CB00C01A524183088B4201D3EE
:10020C008B00C01A524143088B4201D34B00C01AD9
:10021C005241411A00D20146524110467047FFE745
:10022C0001B5002000F0F0F802BDC0460029F7D05F
:10023C0076E7704703460B437FD4002243088B427A
:10024C0074D303098B425FD3030A8B4244D3030B51
:10025C008B4228D3030C8B420DD3FF22090212BA16
:10026C00030C8B4202D31212090265D0030B8B4292
:10027C0019D300E0090AC30B8B4201D3CB03C01A7C
:10028C005241830B8B4201D38B03C01A5241430B57
:10029C008B4201D34B03C01A5241030B8B4201D347
:1002AC000B03C01A5241C30A8B4201D3CB02C01AB2
:1002BC005241830A8B4201D38B02C01A5241430A2A
:1002CC008B4201D34B02C01A5241030A8B4201D319
:1002DC000B02C01A5241CDD2C3098B4201D3CB01C0
:1002EC00C01A524183098B4201D38B01C01A52416F
:1002FC0043098B4201D34B01C01A524103098B4273
:10030C0001D30B01C01A5241C3088B4201D3CB005D
:10031C00C01A524183088B4201D38B00C01A524140
:10032C0043088B4201D34B00C01A5241411A00D2F0
:10033C0001465241104670475DE0CA0F00D0494259
:10034C00031000D34042534000229C4603098B42C9
:10035C002DD3030A8B4212D3FC22890112BA030A51
:10036C008B420CD3890192118B4208D389019211D3
:10037C008B4204D389013AD0921100E08909C30958
:10038C008B4201D3CB01C01A524183098B4201D35A
:10039C008B01C01A524143098B4201D34B01C01A45
:1003AC00524103098B4201D30B01C01A5241C308BD
:1003BC008B4201D3CB00C01A524183088B4201D32C
:1003CC008B00C01A5241D9D243088B4201D34B0047
:1003DC00C01A5241411A00D20146634652415B1089
:1003EC00104601D34042002B00D54942704763466A
:1003FC005B1000D3404201B5002000F005F802BDAF
:10040C000029F8D016E770477047C046002B15D16D
:10041C00002A13D1002906DB01DC002806D00020BD
:10042C00C043410802E080210906002007B40248BD
:10043C0001A14018029003BDD1FFFFFF03B4684631
:10044C0001B5029800F01AF9019B9E4602B00CBC53
:10045C007047C046002B11D1002A0FD1002900D1C2
:10046C00002802D00021C943081C07B4024802A18D
:10047C004018029003BDC04691FFFFFF03B46846CD
:10048C0001B5029800F02EF8019B9E4602B00CBC00
:10049C007047C046F0B515042D0C0F0001002E005E
:1004AC00C64684460004140C000C090C46434D430C
:1004BC00604361434019340C241800B5A54203D99C
:1004CC008020400280464144250C6D1861465943FA
:1004DC007A43300449192404000C2018891804BCF0
:1004EC009046F0BDF0B557464E464546DE46E0B563
:1004FC0004000D009246994683B08B4230D82DD023
:10050C004946504600F0D8F829000600200000F0BB
:10051C00D3F8331A9846203B9B4633D45A4653465D
:10052C00934042461F00534693401E00AF423AD8B8
:10053C00AF4200D178E05B46A41BBD41002B00DA32
:10054C0075E0002200230092019301235A46934048
:10055C000193012342469340009328E08242CFD975
:10056C0000220023009201930C9B002B01D01C60F5
:10057C005D600098019903B03CBC90469946A24638
:10058C00AB46F0BD424620239B1A5246DA40414608
:10059C0013004A468A40170042461F435346934075
:1005AC001E00AF42C4D9002200230092019343469F
:1005BC00002BD9D0FB0772081A4346467B080EE085
:1005CC00AB4201D1A2420CD8A41A9D41012024199E
:1005DC006D410021013E24184D41002E06D0AB4246
:1005EC00EED9013E24196D41002EF8D100980199E5
:1005FC005B4600196941002B24DB2B005A4644460C
:10060C00D3402A00E2401C005B461500002B2ADB7D
:10061C0026009E40330026004746BE403200801A1A
:10062C009941009001919FE7A342BCD883E74246D1
:10063C00202300219B1A0022009101920122DA4012
:10064C00019286E7424620239B1A2A0046469A408E
:10065C002300F340444613432A00E2401C005B464F
:10066C001500002BD4DA42462F0020232600974099
:10067C009B1ADE403B003343CDE7C046F8B5CE466F
:10068C00474680B59146984604000D0000F020F8CE
:10069C0007000E0002000B0048464146FFF7FAFE29
:1006AC00241A8D41089B380031001C605D600CBC25
:1006BC0090469946F8BDC04610B5002903D100F00C
:1006CC00EDF8203002E0081C00F0E8F810BDC04640
:1006DC00F0B557464E464546DE46E0B50F001900CC
:1006EC00002306009846100083B0002F07DA330071
:1006FC003C0000275E42A74101235B42984600293B
:10070C0007DA4346DB430C009846030000215842AD
:10071C00A14134003D0082468946B9426AD867D06F
:10072C0049465046FFF7C8FF834639003000FFF7B3
:10073C00C3FF5B461B1A9C46203B9B466BD458461A
:10074C005146814060460B00514681400A00BB4235
:10075C0000D972E0BB4200D179E034003D0059462B
:10076C00A41A9D41002900DA74E000210020012622
:10077C000090019159468E400196614601268E40AB
:10078C006146009600295FD0D90756080E435F08D2
:10079C006146012200230CE0AF4201D1A6420AD8E7
:1007AC00A41BBD4124196D410139A4185D410029D8
:1007BC0006D0AF42F0D9013924196D410029F8D186
:1007CC00009801995B4600196941002B4DDB2E0006
:1007DC002C00DE406346DC405B46002B55DB3400CE
:1007EC009C4023006446A6403200801A994103E0E5
:1007FC00B04295D9002000214346002B04D00300C1
:10080C000C0000215842A14103B03CBC90469946D3
:10081C00A246AB46F0BD6246484620235146904066
:10082C009B1AD94003000091009960460B43514636
:10083C0081400A00BB4200D88CE7002100200090C8
:10084C000191614600299FD100980199D4E7B142EA
:10085C00F3D882E7614620260127761A0020002172
:10086C00F74000900191019787E7624620239B1A7D
:10087C002A009A40260013006246D6402C001E43E4
:10088C006346DC405B46002BA9DA62462023350028
:10089C0094409B1ADD4023002B43A3E71C2101232A
:1008AC001B04984201D3000C10391B0A984201D347
:1008BC00000A08391B09984201D30009043902A225
:1008CC00105C40187047C04604030202010101018C
:1008DC00000000000000000010B50024092C09DC09
:1008EC00A0200121C00500F0B9FB642001F0E4FB5D
:1008FC000134F3E7A02000220121C00500F0A8FB81
:10090C0010BD000000B5A1B03822002112A806F0DD
:10091C0050FB102200210EA806F04BFB34220021C4
:10092C0001A806F046FB8020800001F0E1FA0A23C2
:10093C001293F633159300231693402217923F3AE5
:10094C001892013219921A921B9308331C9380232C
:10095C009B021D9380239B041E9380239B051F9356
:10096C0012A800F09BFB00281AD107230E93053B1D
:10097C000F9300231093119302210EA800F04AFE4E
:10098C00002810D10B4B0193002303938023DB022F
:10099C00079301A800F01EFF002807D121B000BD6D
:1009AC00FFF79AFFE1E7FFF797FFEBE7FFF794FFFD
:1009BC00F4E7C04602020000F0B59BB001F056FB14
:1009CC00FFF7A0FF00F0D2F806F084FA01F08EFBDE
:1009DC0001F0CAFB05F036FA05F00AFA564C200075
:1009EC0001F0A2FBFA21200003F030FF534805F080
:1009FC0051FA534805F04EFA01AC6022002102A8CE
:100A0C0006F0D7FA4F4B220003CB03C21988118092
:100A1C009B789370FA26B6004B4D33000A222100C6
:100A2C00280005F049F86022002102A806F0C1FA5E
:100A3C00464B220083CB83C283CB83C21B8813809B
:100A4C00330019222100280005F036F805F004FCCB
:100A5C000D2005F0C9FB40223D49280003F0ACFFF6
:100A6C0005F038FC002001F0D5FA00220121072006
:100A7C0001F068FA00220221092001F063FA002239
:100A8C000221112001F05EFA002202211A2001F04D
:100A9C0059FA002202211C2001F054FA2D4805F0CD
:100AAC0039FC2D4805F036FC2C4805F033FC2C485D
:100ABC0005F030FC05F050FB03F0A8FA03F074FAD3
:100ACC0000241EE0274B00221A7201AD6032002177
:100ADC0002A806F06EFA1B4B2A0003CB03C219883E
:100AEC0011809B789370FA239B000A2229001648E8
:100AFC0004F0E2FF01F064FC1A4A4D23D35C002B96
:100B0C000CD1184B9B7A002BF6D0164B1B7A002B72
:100B1C00D8D1144BDB7A002BEED1D3E7013402F0A1
:100B2C008BFE2307EDD10F4A0F4BD35C002BE8D083
:100B3C0003F076FDE5E7C046D0060020F007002064
:100B4C0054080020CC78000864070020D8780008EE
:100B5C009C000020FFFF1200FFFF1300FFFF11009D
:100B6C00FFFF100090000020D1040000F0B5DE461D
:100B7C0057464E464546E0B58BB01422002105A8D9
:100B8C0006F017FA474B5A6B042422435A635A6BEC
:100B9C0022400192019A596B202211435963596BDF
:100BAC000A400292029A5A6B01252A435A635A6BE5
:100BBC002A400392039A5A6B022188460A435A63CD
:100BCC005B6B0B400493049B374B9A46A026F605AF
:100BDC0000221900300000F03BFA344F00220121B2
:100BEC00380000F035FA324B9946002240211800AB
:100BFC0000F02EFA059403239B46069300240794D9
:100C0C0005A92C4800F0D8F853460593069507948F
:100C1C00089405A9300000F0CFF8274B05935B46EC
:100C2C000693079405A9300000F0C6F840239A46B5
:100C3C0005930694079405A9300000F0BDF80595BE
:100C4C0006950794089405A9380000F0B5F84346BA
:100C5C0005935B460693079405A9380000F0ACF8A1
:100C6C005346059306950794089405A9484600F049
:100C7C00A3F880231B010593104B0693079405A939
:100C8C00300000F099F800220321072001F05AF9F6
:100C9C00072001F087F90BB03CBC90469946A24660
:100CAC00AB46F0BD0010024083C0000000040050B1
:100CBC0000080050001400503031000000001110EA
:100CCC007047FEE77047704710B501F0E3F910BDAF
:100CDC0010B500F0A5FE10BD704710B5402000F017
:100CEC00C5F98020000100F0C1F910BD10B5024813
:100CFC0001F096F810BDC0460807002070B50A4BED
:100D0C00012000211C685D68001969411860596058
:100D1C0001221A72A0200221C00500F09FF903489D
:100D2C0003F0C9FD70BDC04690000020D006002025
:100D3C0010B5024806F032F810BDC046F00700208E
:100D4C0010B5044C200003F04DFF200001F024FBF3
:100D5C0010BDC0466407002010B5402800D010BD5F
:100D6C0005F0FAF9FBE7000000B583B0114B196CE4
:100D7C00012211431964196C0A400092009ADA6B33
:100D8C00802149050A43DA63DB6B0B400193019B1D
:100D9C0000220021032001F0D5F8032001F002F914
:100DAC0000220021042001F0CDF8042001F0FAF813
:100DBC0003B000BD00100240F0B5D6464F46464683
:100DCC00C0B500233BE0032600E00026A64034001B
:100DDC003C435A4E1832920094518022B4584A46E1
:100DEC00D24326004D46AE434D68ED0302D54D4629
:100DFC002C432600514C8027E6518426A45926000A
:100E0C0016404D68AD0302D54D462C4326004B4C85
:100E1C008427E6512468260016404D68ED0202D561
:100E2C004D462C432600454C2660646822404D6894
:100E3C00AD0201D54A462243404C626001330C6836
:100E4C002200DA4075D001229A4025001540A946AF
:100E5C001442F3D04C68022C01D0122C0ED1DC08B9
:100E6C000834A400275807261E40B6000F25B540AD
:100E7C00AF430D69B5402E003E4326500468A4468E
:100E8C005E000324A2462700B740B846FF436546E0
:100E9C004446A543AC464C68554625402C00B4400E
:100EAC0065462C4304604C68651E012D03D9112C3A
:100EBC0001D0122C13D184683C40A446CC68B440B9
:100ECC0065462C4384604468944322004C68240992
:100EDC00A446012465462C409C4014434460C268DF
:100EEC0017408A68B2403A43C2604A68D200A5D51E
:100EFC009A0814001834A400104EA75903241C405F
:100F0C00E4000F26A640B743A026F605B04200D158
:100F1C005BE70B4EB04208D00A4EB04207D00A4EE7
:100F2C00B04200D14FE7052650E701264EE70226D6
:100F3C004CE71CBC90469946A246F0BD00180240F6
:100F4C000004005000080050000C0050F0B5CE46D4
:100F5C00474680B58946002323E00321884601E0FB
:100F6C00002188464146A140A94247D004685E0052
:100F7C000325B5402C430460DC080834A400275832
:100F8C0007261E40B6000F21B1408F4327508468BE
:100F9C00AC438460446894434460C268AA43C26012
:100FAC0001334A46DA4046D001229A404C4614405E
:100FBC00A44649461142F3D09F083C001834A400C3
:100FCC001F4D655903241C40E4000F26A6403540F4
:100FDC00A021C9058842C3D01A49884208D01A49B1
:100FEC00884208D019498842B7D005218846B9E70C
:100FFC0001218846B6E702218846B3E7104D8021CF
:10100C0088466C5861468C4341466C500431884686
:10101C006C5861468C4341466C502C6861468C433D
:10102C002C606C688C436C603C001834A4006759CD
:10103C00B74367519AE70CBC90469946F0BDC04641
:10104C00001802400004005000080050000C005032
:10105C00002A01D0816170478162FCE74369194223
:10106C0001D0816270478161FCE7704710B50400C4
:10107C00094BDB68184204D1074B1B69234205D18D
:10108C0010BD054BD860FFF7F0FFF5E7024B1C6174
:10109C002000FFF761FEF3E70018024070B582B044
:1010AC00041E00D134E20368DB0739D5C14A9168CC
:1010BC0038230B40D16803220A40102B26D0082B72
:1010CC0026D063688022520293427FD0A022D202A3
:1010DC00934200D181E0B74B1A68B7490A401A60B5
:1010EC001A68B6490A401A606368002B00D180E088
:1010FC0000F0DCFF0500AF4B1B689B0310D400F025
:10110C00D5FF401B6428F6D9032002E2032AD6D16E
:10111C00A84B1B689B0303D56368002B00D1FAE135
:10112C0023689B0731D5A34A936838210B40D168BB
:10113C0003220A40102B6AD0002B6BD19D4A1268F7
:10114C00520503D5E268002A00D1E6E199484268CD
:10115C009B490A40616909020A434260002B0DD188
:10116C00036898490B4021690B4303600368DB0A51
:10117C0007221A40944BD340944A1360944B18683E
:10118C0000F048FF002800D0C9E123681B0700D4F9
:10119C0081E0884B9A6838231340182B73D0A369CD
:1011AC00002B00D1B4E0834A136E01210B4313666C
:1011BC0000F07CFF05007F4B1B6E9B076BD400F08F
:1011CC0075FF401B0228F6D90320A2E1794A116869
:1011DC0080235B020B43136086E7764B19688022F1
:1011EC00D2020A431A601968802252020A431A601A
:1011FC007AE700F05BFF05006E4B1B689B038FD5F5
:10120C0000F054FF401B6428F6D9032081E1022A28
:10121C0092D193E7E368002B22D0664A13686949A0
:10122C000B4021690B431360116880235B000B4357
:10123C00136000F03BFF05005E4B1B685B0506D49A
:10124C0000F034FF401B0228F6D9032061E1594914
:10125C004B685B4A13406269120213434B6094E77C
:10126C00544A13685B490B40136000F01FFF0500E4
:10127C00504B1B685B0588D500F018FF401B0228FB
:10128C00F6D9032045E14B4B1B6E9B0703D5A36995
:10129C00002B00D145E123685B0700D4A2E0454B4D
:1012AC009A6838231340202B45D0424BDB6BDB0074
:1012BC004AD4404AD16B802040050143D163D36BA3
:1012CC0003400193019B0125434B1B68DB053DD576
:1012DC00A368012B4ED0052B52D0364BDA6D012171
:1012EC008A43DA65DA6D03318A43DA65A368002B29
:1012FC0050D000F0DBFE06002E4BDB6D9B076FD44D
:10130C0000F0D4FE801B354B9842F5D9032000E148
:10131C00284A136E01218B43136600F0C7FE0500AB
:10132C00244B1B6E9B07B6D500F0C0FE401B022859
:10133C00F6D90320EDE01F4BDB6D9B0752D5A3685C
:10134C00002B4FD10120E4E00025BDE7224A1168B3
:10135C0080235B000B43136000F0A8FE06001E4BBD
:10136C001B68DB05B4D400F0A1FE801B0228F6D963
:10137C000320CEE00F4AD36D01210B43D365B5E7B3
:10138C000C4BDA6D04210A43DA65DA6D03390A4332
:10139C00DA65ABE700F08AFE0600064BDB6D9B07B7
:1013AC001ED500F083FE801B0C4B9842F5D9032010
:1013BC00AFE0C04600100240FFFFFEFFFFFFFBFF47
:1013CC00FF80FFFFFFC7FFFF0024F4000800002090
:1013DC0004000020FFFEFFFF0070004010270000FB
:1013EC00012D26D0E369002B00D19CE0564A916870
:1013FC0038220A40102A63D0022B20D0524B1A6894
:10140C0052490A401A60DA6803218A43DA60DA68C2
:10141C004F490A40DA6000F049FE04004A4B1B6851
:10142C009B014BD500F042FE001B0228F6D903208D
:10143C006FE0454AD36B47490B40D363D2E7424A2E
:10144C00136842490B40136000F030FE05003E4B20
:10145C001B689B0106D500F029FE401B0228F6D91B
:10146C00032056E0384AD3683B491940236A606A26
:10147C000343A06A00020343E06A0343206B034367
:10148C00606B03430B43D360116880235B040B43F5
:10149C001360D16880235B050B43D36000F006FE1C
:1014AC000400294B1B689B0106D400F0FFFD001BB8
:1014BC000228F6D903202CE000202AE0002028E0A6
:1014CC00012B32D0204BDA6803231340216A8B4264
:1014DC002DD170231340616A8B422AD1FE21C901A0
:1014EC001140A36A1B02994225D1F8239B03134098
:1014FC00E16A8B4221D1E0231B051340216B8B4207
:10150C001DD1520F5207636B9A421AD1002000E092
:10151C00012002B070BD0120FBE70120F9E701209A
:10152C00F7E70120F5E70020F3E70120F1E70120C0
:10153C00EFE70120EDE70120EBE70120E9E70120CF
:10154C00E7E70120E5E7C04600100240FFFFFFFE81
:10155C00FFFFFEEEFFFFFFEF8C80C11110B52A4B91
:10156C009B6838221A4207D1274B1A68D20A0723E4
:10157C0013402648D84010BD234B9A68382313409B
:10158C00082B3BD0204B9A6838231340102B0DD0DE
:10159C001D4B9A6838231340202B31D01A4B9A6874
:1015AC0038231340182B26D00020E4E7164AD168C4
:1015BC000D3B0B40D2681209072111400131032B5E
:1015CC000FD01248FEF7ACFD0F4BDA68120A7F23DE
:1015DC00134058430C4BD968490F0131FEF7A0FD5D
:1015EC00C9E70B48FEF79CFD074BDA68120A7F230C
:1015FC0013405843EEE7FA20C001BCE70448BAE7B1
:10160C0080200002B7E7C046001002400024F4001E
:10161C0000127A0070B504000D00002800D1AAE079
:10162C00574B1A68072313408B4221D323689A0720
:10163C000ED55B0705D5534A9168E023DB010B43BC
:10164C009360504A936850490B40A1680B439360D8
:10165C002368DB0754D56368012B20D0022B3BD0C9
:10166C00002B3FD1474A126852051CD401206AE076
:10167C00434A136807218B432B43136000F016FD7C
:10168C0006003F4B1A6807231340AB42CED000F044
:10169C000DFD801B3D4A9042F3D9032053E0394A9B
:1016AC001268920369D537498A680720824313432D
:1016BC008B6000F0FBFC0600324B9B6838221A4012
:1016CC006368DB009A421BD000F0F0FC801B2F4BB0
:1016DC009842F1D9032036E02A4A12689201E2D4EA
:1016EC00012030E0032B05D0264AD26D9207DAD4C4
:1016FC00012028E0234A126E9207D4D4012022E064
:10170C001F4B1A6807231340AB421DD823685B0795
:10171C0006D51C4A93681E490B40E1680B43936045
:10172C00FFF71CFF174B9A68120A0F2313409B00FC
:10173C00184A9A581F231340D840174B1860174B60
:10174C00186800F067FC70BD0D4A136807218B43C5
:10175C002B43136000F0AAFC0600094B1A68072300
:10176C001340AB42D2D000F0A1FC801B074B984237
:10177C00F3D90320E7E70120E5E70120E3E7C046C2
:10178C000020024000100240FFF0FFFF8813000011
:10179C00FF8FFFFFF47800080800002004000020F1
:1017AC00014B18687047C0460800002010B5FFF7C1
:1017BC00F7FF064B9A68120B072313409B00044A51
:1017CC009A581F231340D84010BDC0460010024049
:1017DC0034790008F0B583B0040003689B0362D52C
:1017EC00814BDB6BDB001ED47F4AD16B8020400524
:1017FC000143D163D36B03400193019B01267B4AC8
:10180C00116880235B000B43136000F04FFC050054
:10181C00764B1B68DB0508D400F048FC401B022803
:10182C00F6D9032502E00026E9E70025002D23D197
:10183C006D4BD96DC02292000B001340114210D099
:10184C00226B9A420DD0684AD36D69490B40D06D1A
:10185C00802149020143D165D16D66480140D165B3
:10186C00D365DB0710D4002D06D15F4AD36D6049D8
:10187C000B40216B0B43D365012E15D15A4AD36B08
:10188C005D490B40D3630FE000F010FC0700564B92
:10189C00DB6D9B07E7D400F009FCC01B574B98424B
:1018AC00F5D90325DFE700252368DB0706D54E4A6B
:1018BC00536D03218B4361680B43536523689B076E
:1018CC0006D5494A536D0C218B43A1680B435365D4
:1018DC0023689B0606D5444A536D49490B40E16881
:1018EC000B43536523689B0506D53F4A536D454909
:1018FC000B40A1690B43536523685B0506D53A4A37
:10190C00536D41490B40E1690B43536523685B06FA
:10191C0006D5354A536D3D490B4021690B43536540
:10192C0023685B040BD5304A536D9B009B08216ADE
:10193C000B4353658023DB05226A9A4239D0236816
:10194C001B0306D5284A536D40218B43616A0B4318
:10195C00536523689B020BD5234A536D2C490B40CE
:10196C00A16A0B4353658023DB03A26A9A4227D0FA
:10197C0023685B020BD51C4A536D26490B40E16A68
:10198C000B43536580235B04E26A9A421FD02368A1
:10199C001B050BD5144A536D1F490B4061690B4352
:1019AC00536562698023DB019A4215D0280003B08D
:1019BC00F0BD0D4AD16880235B020B43D360BEE7B8
:1019CC00094AD16880235B040B43D360D0E7064AF5
:1019DC00D1680B43D360DAE7034AD16880235B02FA
:1019EC000B43D360E2E7C046001002400070004099
:1019FC00FFFCFFFFFFFFFEFFFFFFFFEF10270000C4
:101A0C00FFF3FFFFFFFFF3FFFFFFCFFFFFCFFFFF52
:101A1C00FFFFBFFFFFFFFFFEFF3FFFFF7047704759
:101A2C0010B5344A13693449194093698020C005B4
:101A3C0003400B4351693148806881435161304AFE
:101A4C0010423DD02D4AD468002B17D02B494A6840
:101A5C001A434A609A0F9107002A03D0254A9069CD
:101A6C00014391619B009A08002B01D0214B1A6114
:101A7C00224B00229A602000FFF7D1FF1D4B1B69FF
:101A8C00DB070CD51B4B01221A611C4B9B68022BEC
:101A9C001FD01A4B00229A602000FFF7BFFF174B94
:101AAC009B68002B0BD1134B9A6916490A409A611B
:101ABC005A6915490A405A61104B00221A7010BD20
:101ACC000622024202D00D4A1469BDE70124644289
:101ADC00BAE70A4A5369013B5361002B03D1074B08
:101AEC0000229A60D8E713001269501C186100F0AC
:101AFC000DF8D1E700200240FAC30000A806002030
:101B0C0001000400FFFFFFFEFFFFFFFC044A5369C6
:101B1C0004490B40C0001843034B184350617047F5
:101B2C000020024007FEFFFF02000100F0B5846CAC
:101B3C00C56C6560046D002C02D0446D856D6560CC
:101B4C000B4F7C681C26056C2E400125B5402C43A0
:101B5C007C60046863608368102B04D00368996010
:101B6C000368DA60F0BD03689A600368D960F9E72E
:101B7C000000024010B50400FF202368184008380C
:101B8C001421FEF7CDFA236C9B08064A9446634455
:101B9C009B006364044BA3641C2318401B3B8340D1
:101BAC00E36410BD0082001080080240FF234268ED
:101BBC001340064A9A1892000265054A4265013B99
:101BCC0003221A4001239340836570473F82001023
:101BDC004009024070B5041E4DD00568274BE8182B
:101BEC001421FEF79DFA8000206425230222E25482
:101BFC002B68234A13402B6021680A68A368E068AD
:101C0C0003432069034360690343A0690343E0690C
:101C1C000343206A034313430B602000FFF7AAFF22
:101C2C008023DB01A2689A4218D0626CFF236168A2
:101C3C000B401360A36CE26C5A606368013B032B8E
:101C4C000FD9002323656365A3650023E363252275
:101C5C000121A154013AA354002070BD00236360FC
:101C6C00E3E72000FFF7A2FF236D00221A60636DEB
:101C7C00A26D5A60E9E70120EFE7C046F8FFFDBF0F
:101C8C000F80FFFF70B504002420205C012843D096
:101C9C002420012525540130205C012804D0022089
:101CAC0024230022E25470BD243001352554002039
:101CBC00E063256828680126B04328602000FFF700
:101CCC0035FF236B002B1CD0226813680E210B43AD
:101CDC001360636C1A68D20304D519688022520011
:101CEC000A431A60236D002B04D01968802252001D
:101CFC000A431A602268136801210B431360002009
:101D0C00CEE72268136804218B43136022681368A2
:101D1C0006310B431360DCE70220C4E730B5002822
:101D2C0036D02523C35C022B06D00423C363203397
:101D3C000022C254012030BD026813680E218B436F
:101D4C001360426C136813490B40136001680A68F6
:101D5C0001239A430A60104C62681C21056C2940CF
:101D6C008B4013436360836CC26C5A60036D002B11
:101D7C0006D01A6807490A401A60436D826D5A6092
:101D8C0025230122C254013B0022C2540020D2E779
:101D9C000120D0E7FFFEFFFF0000024070B52423B6
:101DAC000122C2540133C35C022B03D00423C3634E
:101DBC00012070BD026813680E218B43136001680B
:101DCC000A6801239A430A60416C0A68124C22404B
:101DDC000A60124C62681C21056C29408B4013432D
:101DEC006360836CC26C5A60036D002B06D01A685A
:101DFC0009490A401A60436D826D5A6025230122FD
:101E0C00C254013B0022C254836B002B02D0984772
:101E1C000020CEE70020CCE7FFFEFFFF00000240D1
:101E2C0070B5314B1968046825681C23026C13408B
:101E3C0004229A40114216D06A0714D523689B06D7
:101E4C0003D42368042293432360274C63681C212A
:101E5C00026C114004228A4013436360036B002B15
:101E6C0000D0984770BD02229A4011421CD0AA079C
:101E7C001AD523689B0606D423680A229343236051
:101E8C002523093AC254184C63681C21026C11407A
:101E9C0002228A401343636024230022C254C36A83
:101EAC00002BDFD09847DDE708229A401142D9D0A9
:101EBC002B07D7D523680E22934323600A4C626804
:101ECC001C21036C194001231D008D402A436260C4
:101EDC00C3632522835423330022C254436B002B4B
:101EEC00C0D09847BEE7C04600000240C06B7047A8
:101EFC0010B5104A136810490B400343136080233C
:101F0C009B00984201D0002010BD0C4B1B68580060
:101F1C00C01840000A49FEF703F90130054B5B6914
:101F2C005B0503D5002803D00138F7E70020EBE769
:101F3C000320E9E700700040FFF9FFFF08000020D4
:101F4C0040420F0070B5002811DB8308134EC033DC
:101F5C009B009D5903242040C000FF2214008440A4
:101F6C00A54389010A4082402A439A5170BD0F2330
:101F7C000340083B9B0806339B00094A9446634484
:101F8C005C6803221040C000FC3215008540AC4355
:101F9C0089010A40824022435A60E7E700E100E0F1
:101FAC0000ED00E0002805DB1F2318401E3B83409A
:101FBC00014A13607047C04600E100E000280ADBCC
:101FCC001F2318401E3B8340034980228B50BFF3D4
:101FDC004F8FBFF36F8F704700E100E00138802313
:101FEC005B0498420FD2094A50600948036A1B02ED
:101FFC001B0AC02109060B430362002393600733BD
:10200C001360002070470120FCE7C04610E000E0A0
:10201C0000ED00E010B50400114B1968002901D146
:10202C00012010BDFA208000FEF77AF801000D4B5C
:10203C001868FEF775F8FFF7D1FF00280DD1032CB7
:10204C0001D90120EDE70130002221004042FFF7C9
:10205C0079FF054B1C600020E3E70120E1E7C04657
:10206C0000000020080000200400002010B5084AE1
:10207C00116880235B000B4313600020FFF7CAFF3D
:10208C00041E02D00124200010BDFEF76DFEFAE7FD
:10209C0000200240034A1368034909685B18136067
:1020AC007047C046CC06002000000020014B186889
:1020BC007047C046CC06002070B50400FFF7F6FF51
:1020CC000500631C02D0044B1B68E418FFF7EEFFFD
:1020DC00401BA042FAD370BD00000020024B8022AE
:1020EC0012059A607047C04600ED00E010B50B4831
:1020FC000B4B036000234360E02212018260094A0B
:10210C004261036243628362C362036302F044FB75
:10211C00002800D110BDFEF7DFFBFBE7D006002046
:10212C00007C0040FFFF000000B583B002680C4B40
:10213C009A4201D003B000BD0A4BD96B8022120623
:10214C000A43DA63DB6BDB0FDB070193019B002295
:10215C0000211120FFF7F6FE1120FFF723FFE9E71E
:10216C00007C00400010024010B51948194B036068
:10217C00E1235B02436000238360C36003610C2294
:10218C0042618361C36103624362836203F052FD67
:10219C00002811D100210E4803F0DCFD00280ED1DF
:1021AC0000210B4803F0FCFD00280BD1084803F07C
:1021BC00B1FD002809D110BDFEF78EFBEAE7FEF752
:1021CC008BFBEDE7FEF788FBF0E7FEF785FBF2E70C
:1021DC00640700200044004030B589B0040014228C
:1021EC00002103A804F0E5FE254B22689A4201D099
:1021FC0009B030BD234BD96B802080020143D963D9
:10220C00DA6B02400192019A596B01221143596316
:10221C005B6B13400293029B0C2303930A3B0493C6
:10222C000025059506950792A02003A9C005FEF789
:10223C00C3FD1548154B0360342343608560C560AE
:10224C004C33036145618561603BC3610562FFF7F7
:10225C00C1FC002811D10C4BA3679C620022002109
:10226C001C20FFF76FFE1C20FFF79CFE084B1A6822
:10227C00136810210B431360BAE7FEF72DFBEAE756
:10228C0000440040001002400807002008000240F3
:10229C006407002070B59AB0002418E0394803197F
:1022AC0000221A730C3002F0C1F9374802F0EEFB31
:1022BC0004E0344B1B1900221A73013C002CF8DA91
:1022CC0040223249304802F077FB59E001343F2C70
:1022DC0020DC2C4B1B191B7B0D2BDFD0082B01D0CA
:1022EC007F2BF3D1274B1B1900221A73002C04DD12
:1022FC00621E244B9B1800221A73234D280002F0F7
:10230C00C5FB611E4022121B92B2204BC91828003B
:10231C0002F052FB002601966022002102A804F074
:10232C0048FE1B221A4901A804F04CFEFA25AD0008
:10233C00154C2B00062201A9200003F0BDFB0196D1
:10234C006022002102A804F034FE1B22114901A8CE
:10235C0004F038FE2B00042201A9200003F0ACFB92
:10236C0001966022002102A804F023FE074901A86F
:10237C0004F028FE82B22B0001A9200003F09CFB84
:10238C001AB070BD90000020640700209C00002053
:10239C00547900085C79000810B5074B1B68074A94
:1023AC00934200D010BDDA69D206FBD510221A6216
:1023BC00FFF770FFF6E7C0466407002000440040BA
:1023CC00F0B5DE4657464E464546E0B59BB0A020DC
:1023DC000121C005FEF742FEDC4B9B7A0C2B09D881
:1023EC00002B00D105E20C2B00D902E29B00D84A4D
:1023FC00D3589F46FF2B00D0FBE1D44B00229A729E
:10240C0001AC6032002102A804F0D3FDD14B2200B4
:10241C0003CB03C2198811809B789370FA239B001D
:10242C000A222100CC4803F047FBE2E1C74BDB7AE0
:10243C00002B02D1C54B00229A726022002102A807
:10244C0004F0B7FDC54B0193FA239B00032201A9AD
:10245C00C14803F031FB0024092C00DDC9E1A020A8
:10246C000121C005FEF7FAFD6420FFF725FE0134BB
:10247C00F2E7002301936022002102A804F099FDE9
:10248C0003F052FE0200B64901A804F09BFDFA23AA
:10249C009B00092201A9B04803F00EFBAB4BDB7A81
:1024AC00002B00D0A5E1A94B00229A72A1E103F008
:1024BC00B3FDAC4803F0EEFC01AC00276022002118
:1024CC0002A804F076FDA84B220023CB23C21B7874
:1024DC001370FA26B600A04D33000C222100280000
:1024EC0003F0EAFA0021402003F016FE0197602267
:1024FC00002102A804F05DFD03F0F8FD02009B49E9
:10250C00200004F05FFD330017222100280003F0A7
:10251C00D3FA0121402003F0FFFD01976022002136
:10252C0002A804F046FD03F0B1FD02009049200022
:10253C0004F048FD330017222100280003F0BCFAF8
:10254C000221402003F0E8FD01976022002102A83F
:10255C0004F02FFD03F09AFD02008649200004F0E0
:10256C0031FD33001B222100280003F0A5FA0321C2
:10257C00402003F0D1FD01976022002102A804F055
:10258C0018FD03F097FD02007B49200004F01AFDB2
:10259C0082B233002100280003F08EFA042140207F
:1025AC0003F0BAFD01976022002102A804F001FD9E
:1025BC0003F080FD02007149200004F003FD82B29B
:1025CC0033002100280003F077FA0621402003F0A5
:1025DC00A3FD01976022002102A804F0EAFC03F09D
:1025EC0055FD02006649200004F0ECFC3300172274
:1025FC002100280003F060FA0721402003F08CFD35
:10260C0001976022002102A804F0D3FC03F03EFDE8
:10261C0002005C49200004F0D5FC33001522210097
:10262C00280003F049FA00241CE021001031C9B243
:10263C00402003F071FD002301936022002102A8C9
:10264C0004F0B7FC03F022FD030022004E4901A860
:10265C0004F0B8FCFA2382B29B0001A93E4803F0B7
:10266C002BFA01340E2CE0DD00241EE0072C20D8C0
:10267C0021002031C9B2402003F04EFD002301930C
:10268C006022002102A804F094FC03F0FFFC03007C
:10269C0022003E4901A804F095FCFA239B001B2262
:1026AC0001A92D4803F008FA0134062CDEDD0024C4
:1026BC0020E00021DFE7072C20D821002831C9B207
:1026CC00402003F029FD002301936022002102A881
:1026DC0004F06FFC03F0DAFC030022002C4901A883
:1026EC0004F070FCFA239B001A2201A91A4803F08B
:1026FC00E3F90134062CDEDD002420E00021DFE7C5
:10270C00072C20D821003031C9B2402003F004FD41
:10271C00002301936022002102A804F04AFC03F07C
:10272C00C9FC030022001B4901A804F04BFCFA234E
:10273C0082B29B0001A9084803F0BEF90134062CB3
:10274C00DEDD002447E00021DFE7C04690000020DA
:10275C00C47D0008A47D0008640700206F6B0A008C
:10276C00F0790008F00700206479000874790008FB
:10277C0090790008A8790008C4790008E07900086D
:10278C00F8790008107A0008287A0008407A0008C6
:10279C00607A00087C7A0008072C31D82100383187
:1027AC00C9B2402003F0B8FC002301936022002141
:1027BC0002A804F0FEFB03F07DFC030022006E492E
:1027CC0001A804F0FFFBFA2382B29B0001A96B481D
:1027DC0003F072F90134062CDEDD694BDB7A002B39
:1027EC0002D1674B00229A72664803F0BFFB03F0DC
:1027FC00EBFB1BB03CBC90469946A246AB46F0BDE9
:10280C000021CEE700240F2C50DC5D4B9B462500AD
:10281C001435AD00002398465B4A0023594668588E
:10282C000021FDF737FE594A0023FDF713FE8246BF
:10283C008946434601936022002102A804F0B9FBAB
:10284C002200534901A804F0BDFBFA27BF0082B255
:10285C004A4E3B0001A9300003F02EF94346019388
:10286C006022002102A804F0A4FB52464B464949C1
:10287C0001A804F0A7FB3B000F2201A9300003F0D4
:10288C001BF9434601936022002102A804F091FB3E
:10289C005B46EA58404901A804F094FB82B23B0025
:1028AC0001A9300003F008F90134ACE7344BDB7AB2
:1028BC00002B9ED1324B00229A729AE70026019689
:1028CC006022002102A804F074FB01F063F8334A83
:1028DC000023FDF79BFD02000B00314901A804F019
:1028EC0071FBFA25AD0082B2244C2B0001A920000B
:1028FC0003F0E2F801966022002102A804F059FBD3
:10290C0001F048F8FA2292000023FDF77FFDFA222D
:10291C0092000023FDF77AFD224901A804F052FB36
:10292C0082B22B0001A9200003F0C6F8144BDB7A0D
:10293C00002B00D05DE7124B00229A7259E701ACD4
:10294C00002301936022002102A804F032FB0A2329
:10295C002380F0339B0001222100084803F0ACF8DF
:10296C0003F000FD064BDB7A002B00D041E7044B53
:10297C0000229A723DE7C046987A0008640700204E
:10298C0090000020F007002040771B00FFFFFF00A5
:10299C00B47A0008BC7A0008F079000840420F00B5
:1029AC00C87A0008CC7A000801AC00239B46602250
:1029BC00002102A804F0FDFAFD4B1A6801929B88D5
:1029CC00A380FA25AD00FB4E2B0005222100300020
:1029DC0003F072F86022002102A804F0EAFAF64B28
:1029EC00220083CB83C21B7813702B000C22210096
:1029FC00300003F061F85B4601936022002102A8CD
:102A0C0004F0D7FA0B2000F0A3FFFA229200002367
:102A1C00FDF720FD02000B00E8498A46200004F077
:102A2C00D1FA82B22B002100300003F045F85B464E
:102A3C0001936022002102A804F0BBFA0B2000F0E5
:102A4C0087FFFA2292000023FDF704FDDC4989463A
:102A5C00200004F0B7FA2B000A222100300003F00A
:102A6C002BF86022002102A804F0A3FAD54B220017
:102A7C0083CB83C21B7813702B000C2221003000F7
:102A8C0003F01AF85B4601936022002102A804F0BF
:102A9C0090FA062000F05CFFFA2292000023FDF76A
:102AAC00D9FC02000B005146200004F08BFA82B2D4
:102ABC002B002100300002F0FFFF5B4601936022E7
:102ACC00002102A804F075FA062000F041FFFA225A
:102ADC0092000023FDF7BEFC4946200004F072FA78
:102AEC002B000A222100300002F0E6FF60220021B8
:102AFC0002A804F05EFAB44B220083CB83C21B788D
:102B0C0013702B000C222100300002F0D5FF5B4625
:102B1C0001936022002102A804F04BFA002000F07F
:102B2C0017FFFA2292000023FDF794FC02000B0021
:102B3C005146200004F046FA82B22B0021003000EE
:102B4C0002F0BAFF5B4601936022002102A804F058
:102B5C0030FA002000F0FCFEFA2292000023FDF770
:102B6C0079FC4946200004F02DFA2B000A222100A2
:102B7C00300002F0A1FF6022002102A804F019FA33
:102B8C00924B220083CB83C21B7813702B000C2238
:102B9C002100300002F090FF5B460193602200217F
:102BAC0002A804F006FA0E2000F0D2FEFA229200DF
:102BBC000023FDF74FFC02000B005146200004F0EF
:102BCC0001FA82B22B002100300002F075FF5B4647
:102BDC0001936022002102A804F0EBF90E2000F012
:102BEC00B7FEFA2292000023FDF734FC4946200080
:102BFC0004F0E8F92B000A222100300002F05CFFFF
:102C0C006022002102A804F0D4F9714B220083CB7E
:102C1C0083C21B7813702B000C222100300002F0B1
:102C2C004BFF5B4601936022002102A804F0C1F91E
:102C3C00022000F08DFEFA2292000023FDF70AFC20
:102C4C0002000B005146200004F0BCF982B22B00AC
:102C5C002100300002F030FF5B460193602200211E
:102C6C0002A804F0A6F9022000F072FEFA229200EB
:102C7C000023FDF7EFFB4946200004F0A3F92B00DD
:102C8C000A222100300002F017FF6022002102A866
:102C9C0004F08FF94F4B220083CB83C2196811606B
:102CAC001B7913712B0010222100300002F004FF5D
:102CBC005B4601936022002102A804F07AF90C20F3
:102CCC0000F080FEFA2292000023FDF79FFB020029
:102CDC000B0041498946200004F074F982B22B00A4
:102CEC002100300002F0E8FE5B46019360220021D7
:102CFC0002A804F05EF90C2000F064FEC317C018A3
:102D0C0058402900FDF77CFB0A00344B9A46190009
:102D1C00200004F057F92B0009222100300002F0AA
:102D2C00CBFE6022002102A804F043F92C4B2200B8
:102D3C0083CB83C2196811601B7913712B0010228D
:102D4C002100300002F0B8FE5B46019360220021A6
:102D5C0002A804F02EF9052000F034FEFA229200AD
:102D6C000023FDF753FB02000B004946200004F042
:102D7C0029F982B22B002100300002F09DFE5B4647
:102D8C0001936022002102A804F013F9052000F041
:102D9C0019FEC317C01858402900FDF731FB0A0073
:102DAC005146200004F00EF92B000922210019E0F5
:102DBC00D87A000864070020E07A0008F07A00084E
:102DCC00F87A0008087B0008187B0008287B0008AC
:102DDC00387B0008487B00085C7B0008647B00089B
:102DEC00707B0008300002F067FE6022002102A810
:102DFC0004F0DFF8FB4B220083CB83C2196811600F
:102E0C001B7913712B0010222100300002F054FEAC
:102E1C005B4601936022002102A804F0CAF801204D
:102E2C0000F0D0FDFA2292000023FDF7EFFA020029
:102E3C000B004946200004F0C5F882B22B0021009B
:102E4C00300002F039FE5B4601936022002102A89B
:102E5C0004F0AFF8012000F0B5FDC317C0185840BE
:102E6C002900FDF7CDFA0A005146200004F0AAF81B
:102E7C002B0009222100300002F01EFE60220021EE
:102E8C0002A804F096F8D84B220083CB83C21968B1
:102E9C0011601B7913712B0010222100300002F0FD
:102EAC000BFE5B4601936022002102A804F081F81E
:102EBC000D2000F087FDFA2292000023FDF7A6FA00
:102ECC0002000B004946200004F07CF882B22B0073
:102EDC002100300002F0F0FD5B46019360220021DE
:102EEC0002A804F066F80D2000F06CFDC317C018A2
:102EFC0058402900FDF784FA0A005146200004F0DE
:102F0C0061F82B0009222100300002F0D5FD60226F
:102F1C00002102A804F04DF8B44B220083CB83C2ED
:102F2C00196811601B7913712B00102221003000DD
:102F3C0002F0C2FD5B4601936022002102A804F05E
:102F4C0038F8032000F03EFDFA2292000023FDF732
:102F5C005DFA02000B004946200004F033F882B2FF
:102F6C002B002100300002F0A7FD5B46019360228C
:102F7C00002102A804F01DF8032000F023FDC31764
:102F8C00C01858402900FDF73BFA0A0051462000B2
:102F9C0004F018F82B0009222100300002F08CFDFF
:102FAC006022002102A804F004F8914B220083CB8C
:102FBC0083C21B8813802B000D222100300002F0ED
:102FCC007BFD5B4601936022002102A803F0F1FF18
:102FDC00042000F007FDFA2292000023FDF716FAF8
:102FEC0002000B004946200003F0ECFF82B22B00DC
:102FFC002100300002F060FD5B460193602200214D
:10300C0002A803F0D6FF042000F0ECFCC317C01894
:10301C0058402900FDF7F4F90A007649200003F026
:10302C00D1FF2B000A222100300002F045FD201DAB
:10303C006022002103F0BDFF01AC6F4B220023CBBB
:10304C0023C21B881380FA25AD006C4E2B000D2279
:10305C002100300002F030FD00230193602200219A
:10306C0002A803F0A6FF0A2000F0BCFCFA22920092
:10307C000023FDF7CBF902000B00614989462000C3
:10308C0003F0A0FF82B22B002100300002F014FDEF
:10309C005B4601936022002102A803F08AFF0A20FC
:1030AC0000F0A0FCC317C01858402900FDF7A8F980
:1030BC000A00504B98461900200003F083FF2B00A8
:1030CC000A222100300002F0F7FC6022002102A845
:1030DC0003F06FFF4B4B220083CB83C21B88138002
:1030EC002B000D222100300002F0E6FC5B46019320
:1030FC006022002102A803F05CFF092000F072FCA2
:10310C00FA2292000023FDF781F902000B004946D8
:10311C00200003F057FF82B22B002100300002F098
:10312C00CBFC5B4601936022002102A803F041FF17
:10313C00092000F057FCC317C01858402900FDF7B0
:10314C005FF90A004146200003F03CFF2B000A22E5
:10315C002100300002F0B0FC6022002102A803F034
:10316C0028FF294B220083CB83C21B8813802B00A2
:10317C000D222100300002F09FFC5B46019360227F
:10318C00002102A803F015FF0F2000F02BFCFA22FF
:10319C0092000023FDF73AF902000B00494620008B
:1031AC0003F010FF82B22B002100300002F084FCEF
:1031BC005B4601936022002102A803F0FAFE0F2067
:1031CC0000F010FCC317C01858402900FDF718F97F
:1031DC000A004146200003F0F5FE2B000A222100D4
:1031EC00300013E0847B0008987B0008AC7B00085F
:1031FC00C07B0008D07B0008DC7B00086407002043
:10320C005C7B0008EC7B0008FC7B000802F054FCA3
:10321C001F4BDB7A002B01D0FFF7EBFA1C4B002283
:10322C009A72FFF7E6FA1A4A00239372D37A59423C
:10323C004B41DBB2D372002B14D001AC60220021C5
:10324C0002A803F0B6FE134B220003CB03C21B787B
:10325C001370FA239B00082221000F4802F02CFC6B
:10326C00FFF7C7FA01AC6022002102A803F0A1FE0F
:10327C000A4B220003CB03C21B881380FA239B004A
:10328C0009222100044802F017FCFFF7B2FAC046ED
:10329C00900000200C7C000864070020187C0008BB
:1032AC00FB4BDB7A002B02D1F94B00229A7201AC5A
:1032BC00002701976022002102A803F07AFE0A235E
:1032CC002380FA26B600F34D33000122210028009A
:1032DC0002F0F2FB01976022002102A803F069FEC4
:1032EC00EB4A90469B22D200424410685168FA2265
:1032FC0092000023FDF7CEF802000B00E6492000F7
:10330C0003F060FE82B233002100280002F0D4FBEF
:10331C0001976022002102A803F04BFEDF4B4246CE
:10332C00D258DF49200003F04DFE82B23300210059
:10333C00280002F0C1FB01976022002102A803F0D3
:10334C0038FEAB22D200424453681268D5492000A3
:10335C0003F038FE82B233002100280002F0ACFBEF
:10336C006022002102A803F024FECF4B220083CB65
:10337C0083C21B78137033000C222100280002F04A
:10338C009BFB002701976022002102A803F011FE8D
:10339C00062000F0EFFAC54A0023FDF75BF80200A7
:1033AC000B00C3498946200003F00CFE82B23300A7
:1033BC002100280002F080FB01976022002102A866
:1033CC0003F0F7FD062000F0D5FAB84A0023FDF70C
:1033DC0041F8B8498B46200003F0F4FD33000D2270
:1033EC002100280002F068FB6022002102A803F0F3
:1033FC00E0FDB14B220083CB83C21B7813703300EA
:10340C000C222100280002F057FB002701976022B4
:10341C00002102A803F0CDFD002000F0ABFAA34A76
:10342C000023FDF717F802000B004946200003F0BB
:10343C00C9FD82B233002100280002F03DFB019748
:10344C006022002102A803F0B4FD002000F092FAE3
:10345C00964A0023FCF7FEFF9849200003F0B2FDCA
:10346C0082B233002100280002F026FB0197602273
:10347C00002102A803F09DFD9E22D2004244106858
:10348C005168FA2292000023FDF704F802000B00A9
:10349C008B49200003F096FD82B2330021002800F6
:1034AC0002F00AFB01976022002102A803F081FDC3
:1034BC00A123DB004246D2588249200003F082FD52
:1034CC0082B233002100280002F0F6FA0197602244
:1034DC00002102A803F06DFDA522D20042445368DE
:1034EC0012687949200003F06DFD82B2330021008F
:1034FC00280002F0E1FA6022002102A803F059FD35
:10350C00724B220083CB83C21B78137033000C22C6
:10351C002100280002F0D0FA002701976022002138
:10352C0002A803F046FD0E2000F024FA5F4A0023A7
:10353C00FCF790FF02000B004946200003F042FD0F
:10354C0082B233002100280002F0B6FA0197602203
:10355C00002102A803F02DFD0E2000F00BFA534AB7
:10356C000023FCF777FF5946200003F02BFD3300B6
:10357C000D222100280002F09FFA6022002102A8EF
:10358C0003F017FD524B220083CB83C21B781370C0
:10359C0033000C222100280002F08EFA002701973C
:1035AC006022002102A803F004FD022000F0E2F9E1
:1035BC003E4A0023FCF74EFF02000B004946200058
:1035CC0003F000FD82B233002100280002F074FAEF
:1035DC0001976022002102A803F0EBFC022000F00E
:1035EC00C9F9324A0023FCF735FF3A49200003F0B1
:1035FC00E9FC33000E222100280002F05DFA01974D
:10360C006022002102A803F0D4FC334A92464246C1
:10361C00514652583149200003F0D4FC82B2330099
:10362C002100280002F048FA01976022002102A82C
:10363C0003F0BFFC2A4B4246D2582A49200003F023
:10364C00C1FC82B233002100280002F035FA019748
:10365C006022002102A803F0ACFC234A91464246AA
:10366C00514652584146484609588A1A1F4920006B
:10367C0003F0A8FC82B233002100280002F01CFAEF
:10368C0001976022002102A803F093FC30E0C046B1
:10369C009000002064070020247C00083C050000FA
:1036AC003C7C0008547C0008087B000840420F005A
:1036BC00F07A0008687C0008187B0008787C000809
:1036CC00887C0008A07C0008B87C0008287B0008D7
:1036DC00387B0008CC7C00086C050000DC7C000802
:1036EC0074050000F87C0008B4040000147D000888
:1036FC004246494652584749200003F063FC82B2C7
:10370C0033002100280002F0D7F901976022002134
:10371C0002A803F04EFCAE22D2009246424651461D
:10372C0052583D49200003F04DFC82B23300210079
:10373C00280002F0C1F901976022002102A803F0D1
:10374C0038FC364B4246D2583549200003F03AFC3F
:10375C0082B233002100280002F0AEF901976022FA
:10376C00002102A803F025FC9722D2009146424684
:10377C00514652584146484609588A1A2949200050
:10378C0003F020FC82B233002100280002F094F9EF
:10379C0001976022002102A803F00BFC4246494627
:1037AC0052582149200003F00DFC82B23300210055
:1037BC00280002F081F901976022002102A803F091
:1037CC00F8FB0A232380330001222100280002F099
:1037DC0073F9FFF70EF8154B00229A728021A02086
:1037EC000132C901C005FDF733FC01AC6022002198
:1037FC0002A803F0DEFB0E4B220023CB23C203CB2B
:10380C0003C2FA239B00132221000A4802F054F948
:10381C00FEF7EFFF2C7D0008407D0008A40500009A
:10382C005C7D0008787D0008907D000890000020E9
:10383C00B07D00086407002030B593B02C4A4D23AE
:10384C000021D154402202A803F0B3FB0F2000E06A
:10385C000138002819DD00210F29F9DC431E244C06
:10386C001B015B1824339B00020152182432920076
:10387C001D5915518A0002AD555901951B59AC467D
:10388C00634402AC13510131E6E7002217E01849FA
:10389C00130014339B005B581000243080004350FD
:1038AC00900002AC04590194A446634402AC035149
:1038BC001B0910002530FF308000435001320F2AC5
:1038CC00E5DD0B499A22D2008B5C0133DBB28B54C1
:1038DC00102B05D8074BCB5C002B07D0012300E045
:1038EC0001230349034A8B5413B030BD0023F8E77E
:1038FC0090000020D104000010B52530FF3080006E
:10390C00054BC058054A00230021FCF7C3FD044AAF
:10391C000023FCF79FFD10BD9000002000D2496BE6
:10392C00FFFFFF0010B52530FF308000054BC0585D
:10393C00054A00230021FCF7ADFD044A0023FCF7E7
:10394C0089FD10BD9000002040771B00FFFFFF0099
:10395C0010B5FFF7D1FF054A0023121A8B41100056
:10396C001900034A0023FCF775FD10BD00D2496B0A
:10397C001027000010B5FFF7BFFF054A0023121AED
:10398C008B41100019000A220023FCF763FD10BDC7
:10399C0000D2496B10B50720FFF7C4FF074A00237C
:1039AC00FCF778FD842252000023FCF753FD044AF7
:1039BC0001235B428018594110BDC0465C44000095
:1039CC00889103FC10B5FFF7ADFF1E220023FCF716
:1039DC0041FD034A01235B428018594110BDC0468A
:1039EC00D08AFFFF10B5A0B0040080220B496846B6
:1039FC0003F0D6FA2000FFF795FFE4006C44226830
:103A0C006368801A994114220023FCF7FFFC044AD6
:103A1C0001235B428018594120B010BD407800084A
:103A2C001802FFFFF0B5DE4657464E464546E0B558
:103A3C00A1B007AC6022002108A803F0BAFA9B4B96
:103A4C00220023CB23C2196811609B889380FA2330
:103A5C009B0011222100964802F02EF8A020400372
:103A6C0002F058FC934802F055FC934BA022D20074
:103A7C009446634491480321186059600023994689
:103A8C0005939B4604939A4629E0012040429EE010
:103A9C0001239A46884B9846894B42465146D1544D
:103AAC00C117009A019BFCF7F5FC04000D0053466E
:103ABC00D91732003B005046FCF7ECFC24184D4162
:103ACC009E23DB0043441C605D60E023DB009C46CE
:103ADC00E1440596BB46009B019C0493A246794B9E
:103AEC00994500D982E0A0204003484402F012FC22
:103AFC006420FEF7E1FA704B984688234246D05872
:103B0C00714A00230021FCF7C5FC704A0023FCF726
:103B1C00A1FC6D4C002522002B00121A8B411000C9
:103B2C0019000A220023FCF795FC00900191220059
:103B3C002B004146886D0021FCF7ACFC634A002346
:103B4C00FCF788FC241A8D41200029000A2200234E
:103B5C00FCF780FC06000F005D4C002520002900BE
:103B6C00009A019B801A9941A41BBD4102000B00D5
:103B7C00FCF790FC0290039122002B0020002900FE
:103B8C00FCF788FC029B039C1B184C41180021007D
:103B9C00A023DB0043441A685B68A34202DC94D187
:103BAC00824292D9444B9F22D2004C469C50083200
:103BBC009446634418605960009B019C544505D899
:103BCC0000D062E7049A934200D85EE701203A4A9B
:103BDC00404BD0545F4500D95AE703D1059B9E4218
:103BEC0000D955E701235B429A4653E70027079714
:103BFC006022002108A803F0DCF92F4C9E23DB0087
:103C0C00E3181A685B68344907A803F0DBF9FA2655
:103C1C00B60082B2264D330007A9280001F04CFFF4
:103C2C0007976022002108A803F0C3F9294BE2563C
:103C3C002A4907A803F0C6F982B2330007A9280065
:103C4C0001F03AFF07976022002108A803F0B1F9B0
:103C5C001B4BE256224907A803F0B4F982B2330099
:103C6C0007A9280001F028FF07976022002108A867
:103C7C0003F09FF99F27FF00E2591A4907A803F0A8
:103C8C00A1F982B2330007A9280001F015FFE05911
:103C9C00A0235B039C46604402F03CFB21B03CBC7F
:103CAC0090469946A246AB46F0BDC046F87D00084A
:103CBC0064070020FF7F150090000020006298C56B
:103CCC00D5040000FEFF000040771B00FFFFFF0043
:103CDC00905F0100D40400000C7E0008287E0008D0
:103CEC00487E0008687E0008F0B5DE4657464E4612
:103CFC004546E0B5A1B007AC6022002108A803F04E
:103D0C0058F99A4B220023CB23C2196811609B8867
:103D1C009380FA239B0011222100954801F0CCFEE0
:103D2C00B020400302F0F6FA924802F0F3FA924BFC
:103D3C009D22D20094466344904803211860596038
:103D4C000023994605939B4604939A4629E001204B
:103D5C0040429DE001239A46874B9846884B424649
:103D6C005146D154C117009A019BFCF793FB0400F8
:103D7C000D005346D91732003B005046FCF78AFB26
:103D8C0024184D419B23DB0043441C605D60E02301
:103D9C00DB009C46E1440596BB46009B019C0493CA
:103DAC00A246784B994500D981E0B02040034844A5
:103DBC0002F0B0FA6420FEF77FF96F4B9846724A16
:103DCC0000234146886E0021FCF764FB6F4A0023F8
:103DDC00FCF740FB6C4C002522002B00121A8B4187
:103DEC00100019000A220023FCF734FB009001910B
:103DFC0022002B004146086D0021FCF74BFB634A67
:103E0C000023FCF727FB241A8D41200029000A22ED
:103E1C000023FCF71FFB06000F005D4C0025200063
:103E2C002900009A019B801A9941A41BBD410200F4
:103E3C000B00FCF72FFB0290039122002B002000BB
:103E4C002900FCF727FB029B039C1B184C41180014
:103E5C0021009D23DB0043441A685B68A34202DC0B
:103E6C0095D1824293D9444B9C22D2004C469C5013
:103E7C0008329446634418605960009B019C544579
:103E8C0005D800D063E7049A934200D85FE701207D
:103E9C00394A404BD0545F4500D95BE703D1059BB1
:103EAC009E4200D956E701235B429A4654E700270D
:103EBC0007976022002108A803F07BF82E4C9B2367
:103ECC00DB00E3181A685B68334907A803F07AF83B
:103EDC00FA26B60082B2264D330007A9280001F05D
:103EEC00EBFD07976022002108A803F062F8294B2C
:103EFC00E2562A4907A803F065F882B2330007A9F5
:103F0C00280001F0D9FD07976022002108A803F0D2
:103F1C0050F81B4BE256224907A803F053F882B223
:103F2C00330007A9280001F0C7FD07976022002184
:103F3C0008A803F03EF89C27FF00E259194907A88E
:103F4C0003F040F882B2330007A9280001F0B4FD59
:103F5C00E059B0235B039C46604402F0DBF921B0CE
:103F6C003CBC90469946A246AB46F0BDF87D000895
:103F7C0064070020FF7F170090000020006298C5A6
:103F8C00D3040000FEFF000040771B00FFFFFF0082
:103F9C00905F0100D2040000887E0008A47E000817
:103FAC00C47E0008E47E000870B59AB001AC6022B3
:103FBC00002102A802F0FDFF114B220003CB03C22B
:103FCC00FA26B6000F4D330007222100280001F01D
:103FDC0073FDFFF727FDFFF787FE6022002102A883
:103FEC0002F0E7FF084B1A6801921B79237133002A
:103FFC0004222100280001F05FFD1AB070BDC046FC
:10400C00047F0008640700200C7F0008F0B5304ED8
:10401C00304FA123DB00F7500833F3180120404246
:10402C00C11718605960A323DB00F318186059609E
:10403C00A423DB00F318284C00251C605D60A5232D
:10404C00DB009C46B444002200236446226063607B
:10405C00A624E400A446B4446446226063601F4C6A
:10406C0037510434A446B444644620606160A924EA
:10407C00E400A446B444644620606160AA21C900EF
:10408C007118154C00250C604D60AB21C9007118DE
:10409C000A604B60AC21C90071180A604B60104972
:1040AC0077501C3171180A604B60B321C90071182C
:1040BC000A604B600B497750243171180A604B60D1
:1040CC00BA21C9008C46664432607360F0BDC046AC
:1040DC0090000020FF7F000040420F003C050000D4
:1040EC0074050000A4050000F0B5DE4657464E46A8
:1040FC004546E0B59BB0974EA523DB00F7183B680F
:10410C0099467B689846944BF456E5170E20FFF7BA
:10411C0031FC02000B0020002900FCF7BBF9040065
:10412C000D008E4BF3569A46DB179B460220FFF789
:10413C0021FC02000B0050465946FCF7ABF9241841
:10414C004D419E23DB00F31818685968FA2292003F
:10415C000023FCF79FF9241A8D413C607D60A62357
:10416C00DB00F7183868796800196941103BF318BF
:10417C001A685B68FCF74AF9824638607960A127B7
:10418C00FF00F3599B46A223DB00F3181A685B6807
:10419C0020002900FCF77EF9FA2292000023FCF79C
:1041AC0035F903005B44A322D200B21810685246C2
:1041BC005043C018F0516A4B984201D96949F151EA
:1041CC00644CA123DB00E058A8235B039C466044AD
:1041DC0002F0A0F8A523DB009C46644422686368C7
:1041EC00002B10DC02D160498A420CD841460029D0
:1041FC0009DC02D15C49894505D85648A721C9007C
:10420C00415601292AD0002B10DC02D156498A4292
:10421C000CD84146002909DC02D15349894505D8FF
:10422C004C48A721C900415600291ED0002B0ADC9E
:10423C0002D14D4B9A4206D84346002B03DC08D1E1
:10424C00494B994505D9434AA723DB00D356012B8B
:10425C0044D0404AA723DB000021D1541BB03CBC06
:10426C0090469946A246AB46F0BDA723DB00013130
:10427C00C15401AC6022002102A802F09AFE3B4B13
:10428C00220003CB03C2FA26B600394D33000722B5
:10429C002100280001F010FC6022002102A802F08D
:1042AC0088FE344B220083CB83C283CB83C2330082
:1042BC0017222100280001F0FFFB6022002102A838
:1042CC0002F077FE2C4B1A6801921B792371330094
:1042DC0004222100280001F0EFFBBFE7A723DB003D
:1042EC000021D15401AC602202A802F062FE234BE3
:1042FC00220003CB03C2FA26B6001D4D3300072261
:10430C002100280001F0D8FB6022002102A802F055
:10431C0050FE1B4B220083CB83C283CB83C2196814
:10432C0011601B79137133001C222100280001F04D
:10433C00C3FB6022002102A802F03BFE0E4B1A6860
:10434C0001921B792371330004222100280001F013
:10435C00B3FB83E790000020D4040000D5040000D8
:10436C00FEFF0000FFFF00004FC30000147F000899
:10437C00640700201C7F00080C7F0008347F0008B5
:10438C003C7F0008F0B5DE4657464E464546E0B544
:10439C009BB0964EAB23DB00F7183B6899467B68C5
:1043AC009846934BF456E5170620FFF7E3FA020004
:1043BC000B0020002900FCF76DF804000D008D4B5C
:1043CC00F3569A46DB179B460020FFF7D3FA020000
:1043DC000B0050465946FCF75DF824184D419B23C1
:1043EC00DB00F31818685968FA2292000023FCF7D6
:1043FC0051F8241A8D413C607D60AC23DB00F7182A
:10440C003868796800196941103BF3181A685B68C1
:10441C00FBF7FCFF824638607960774FF3599B4677
:10442C00A823DB00F3181A685B6820002900FCF74E
:10443C0031F8FA2292000023FBF7E8FF03005B44FB
:10444C00A922D200B218106852465043C018F0513D
:10445C006A4B984201D96A49F151644C664BE05859
:10446C00B8235B039C46604401F054FFAB23DB0094
:10447C009C46644422686368002B10DC02D16149BD
:10448C008A420CD84146002909DC02D15D49894594
:10449C0005D85648AD21C900415601292AD0002B18
:1044AC0010DC02D157498A420CD84146002909DC5C
:1044BC0002D15449894505D84C48AD21C900415613
:1044CC0000291ED0002B0ADC02D14E4B9A4206D892
:1044DC004346002B03DC08D14A4B994505D9434A86
:1044EC00AD23DB00D356012B44D0404AAD23DB0077
:1044FC000021D1541BB03CBC90469946A246AB4619
:10450C00F0BDAD23DB000131C15401AC60220021B0
:10451C0002A802F04EFD3C4B220003CB03C2FA264C
:10452C00B6003A4D330007222100280001F0C4FAEE
:10453C006022002102A802F03CFD354B220083CB07
:10454C0083C283CB83C2330017222100280001F0E1
:10455C00B3FA6022002102A802F02BFD2D4B1A6841
:10456C0001921B792371330004222100280001F0F1
:10457C00A3FABFE7AD23DB000021D15401AC6022CC
:10458C0002A802F016FD244B220003CB03C2FA262C
:10459C00B6001E4D330007222100280001F08CFAD2
:1045AC006022002102A802F004FD1C4B220083CBE8
:1045BC0083C283CB83C2196811601B7913713300DA
:1045CC001C222100280001F077FA6022002102A8A9
:1045DC0002F0EFFC0F4B1A6801921B792371330028
:1045EC0004222100280001F067FA83E790000020E4
:1045FC00D2040000D30400003C050000FEFF0000C4
:10460C00FFFF00004FC30000147F00086407002068
:10461C005C7F00080C7F0008347F0008747F000862
:10462C0010B5FFF761FDFFF7ADFE10BD30B59BB0C7
:10463C00040001AD6022002102A802F0BAFC484B34
:10464C001A6801921B792B71FA239B000422290012
:10465C00444801F031FA44492000FBF74DFD002895
:10466C0004D1424B01229A721BB030BD404920004C
:10467C00FBF742FD002803D13C4B02229A72F3E770
:10468C003C492000FBF738FD002803D1374B0322AF
:10469C009A72E9E738492000FBF72EFD002803D178
:1046AC00324B04229A72DFE734492000FBF724FDD9
:1046BC00002809D032492000FBF71EFD002818D134
:1046CC002A4B07229A72CFE701AC00230193602298
:1046DC00002102A802F06DFC0A232380F0339B001A
:1046EC00012221001F4801F0E7F9204B06229A72A3
:1046FC00BAE724492000FBF7FFFC002803D11B4B31
:10470C0008229A72B0E720492000FBF7F5FC00283C
:10471C0003D1164B09229A72A6E71C492000FBF71D
:10472C00EBFC002803D1114B0A229A729CE7184922
:10473C002000FBF7E1FC002803D10C4B0B229A72F2
:10474C0092E714492000FBF7D7FC002803D1074B54
:10475C000C229A7288E7054BFF229A7284E7C046B6
:10476C00947F0008640700209C7F000890000020C4
:10477C00A47F0008AC7F0008B87F0008C47F000845
:10478C00D07F0008D87F0008E47F0008E87F00088D
:10479C00EC7F0008F47F000870B5041E4CD0362363
:1047AC00C35C002B3DD036230222E2542568EB6813
:1047BC006068012804D080221204A16A914201D1C0
:1047CC001E22934361691D4A914201D01C4A134039
:1047DC001C4A1A40A3680343266A3343666A334370
:1047EC00A66A33431343012803D080221204964255
:1047FC0003D1E268206902431343104A914204D06A
:10480C00A2691143E26911430B43EB6023680E4A22
:10481C0093420CD0E26A5A6236230122E254002001
:10482C0070BD35330022C254FDF77EFCBBE7E26A53
:10483C00216B0A435A62EFE70120F1E7FFFF00000A
:10484C003F1FFFFFF8F119FF007C004010B5362325
:10485C000222C2544368012B04D080231B04826AB9
:10486C009A4219D00268936810242343936002681B
:10487C0093680E3C2343936004682369012213431D
:10488C0023610368996101680B69042423430B615C
:10489C003623C254002010BD0268D368014C23405B
:1048AC00D360DFE7FFF1FFFF704770477047704739
:1048BC0070477047704710B5040003681A68D20738
:1048CC0002D59A68D2072AD423681A68920702D5AF
:1048DC009A68920728D423681A68520702D59A68F6
:1048EC00520727D423681A68120702D59A68120750
:1048FC0026D423681A68D20602D59A68D20625D423
:10490C0023681A68920602D59A68920624D4236802
:10491C001A68520602D59A68520623D410BD012299
:10492C005A60FFF7C1FFCFE702225A602000FFF761
:10493C00BCFFD0E704225A602000FFF7B7FFD1E795
:10494C0008225A602000FFF7B2FFD2E710225A600B
:10495C002000FFF7ADFFD3E720225A602000FFF7BD
:10496C00A8FFD4E740225A602000FFF7A3FFD5E749
:10497C0002681368C0218B43136002689368034973
:10498C000B40936080232022C2507047FFFF7FFFB3
:10499C000268136806490B40136002689368054966
:1049AC000B40936084232022C2500023C3667047BF
:1049BC00DFFEFFFFFEFFFFEF10B504008423C3589A
:1049CC00202B55D1002955D0002A55D080235B01CE
:1049DC008068984231D07C23E35C012B4ED07C2341
:1049EC000120E054A165203BE2522C330021E15020
:1049FC00043B2231E150A36F002B25D02049D96212
:104A0C00A36F20491963A36F1F495963A36F00213A
:104A1C009963216824311300A26DA06FFDF732F960
:104A2C00002811D088231022E2500C3B0022E254C3
:104A3C0004332032E25001201BE02369002BCAD141
:104A4C00CB07C8D5012014E07C230022E254226855
:104A5C00116884330B4313602268936801210B4364
:104A6C009360226893683F310B439360002000E011
:104A7C00022010BD0120FCE70120FAE70220F8E734
:104A8C004D4B0008934B00089F4B000870B5040079
:104A9C008023C0588422A558226891680B4201D00B
:104AAC00212807D023689A68520636D5222D1AD0B1
:104ABC00002033E0936880218B439360606F002863
:104ACC0003D0FDF72BF9002803D12000FFF750FF8E
:104ADC00E8E7606FFDF70AFA2028F6D18823102248
:104AEC00E2501D381AE09A6840218A439A60A06F00
:104AFC00002803D0FDF712F9002804D12000FFF79D
:104B0C0047FF00200AE0A06FFDF7F0F92028F5D14F
:104B1C0088231022E2501D3800E0002070BD704741
:104B2C0010B50268136840218B4313608023202248
:104B3C00C25000230367FFF7F2FF10BD704700005F
:104B4C0010B50300806A1B681B689B0615D45E2396
:104B5C000022C2520268136809490B4013600268B4
:104B6C0093680331FF318B439360026893683F3144
:104B7C008B43936084232022C250FFF7DFFF10BDCC
:104B8C00FFFEFFFF704710B5806AFFF7FBFF10BDFB
:104B9C00704770B5846A8023E1588422A558226836
:104BAC009268134201D021290ED023689B685B06C2
:104BBC0001D5222D0FD08822A35810210B43A350CE
:104BCC002000FFF7E5FF70BD2A3B0022E2522000D7
:104BDC00FFF7CEFEE9E75E230022E2522000FFF74A
:104BEC00D7FEE8E7F8B504000268D3691568906849
:104BFC000F210E001E40194205D1990603D5A906B6
:104C0C0029D4C10027D4002E08D05A4906000E40E2
:104C1C00084226D1902149000D4222D1D90202D559
:104C2C00410200D58BE01A0605D52A0600D58DE089
:104C3C00020200D58AE05A0602D56A0600D58CE03D
:104C4C001A0202D56A0000D58BE0DB0102D5002DDB
:104C5C0000DA8AE0F8BDE36E002BFBD02000984709
:104C6C00F8E7D90707D5E90505D50127176288218B
:104C7C0062583A4362509A0709D5C20707D5226891
:104C8C00022111628631625804273A4362505A0756
:104C9C0009D5C20707D522680421116284316258F4
:104CAC0002273A4362501A070AD5AA0601D4002EED
:104CBC0006D0226808261662882162583243625058
:104CCC008822A258002AC5D09B0608D5AB0601D471
:104CDC00C30004D5E36E002B01D020009847882335
:104CEC00E25823689B685B0601D4130720D520008B
:104CFC00FFF74EFE23689A68520615D59A68402134
:104D0C008A439A60A36F002B0AD01B4A9A63A06F48
:104D1C00FDF744F800289DD0A06F836B984799E766
:104D2C002000FFF735FF95E72000FFF731FF91E7F3
:104D3C002000FFF72DFF88230022E2508AE7802312
:104D4C005B031362200000F0E1FF83E7236F002B6D
:104D5C0000D17FE7200098477CE72000FFF7E0FEBA
:104D6C0078E7200000F0D4FF74E7200000F0CFFFBC
:104D7C0070E7C04601000010894D000810B5806A2C
:104D8C0000235E228352083A8352FFF701FF10BDC5
:104D9C0070B50400016883680269134342691343C8
:104DAC00C2691343426E1A430B68A948034013436C
:104DBC000B6022685368A7490B40E1680B435360B2
:104DCC00A1692268A44B9A4201D0236A19439368C3
:104DDC00A24803400B4393602268D36A0F218B4394
:104DEC00616A0B43D36223689D4A93420FD09D4A5C
:104DFC0093426CD09C4A934200D1A1E09B4A9342CF
:104E0C0000D19FE0944A934272D010260EE0984A4B
:104E1C00516D03220A40022A00D181E053D8002AA6
:104E2C0000D17FE0012A00D07EE004268A4A93421A
:104E3C0000D191E080231B02E2699A4200D136E353
:104E4C00042E01D100F019FD01D900F070FC002EE8
:104E5C0001D100F0A9FC022E01D000F065FC636AC0
:104E6C00002B01D100F0E7FC012B01D100F0F1FC8B
:104E7C00022B01D100F0EFFC032B01D100F0EDFC73
:104E8C00042B01D100F0EBFC052B01D100F0E9FC67
:104E9C00062B01D100F0E7FC072B01D100F0E5FC5B
:104EAC00082B01D100F0E3FC092B01D100F0E1FC4F
:104EBC000A2B01D100F0DFFC0B2B01D100F0B8FC68
:104ECC00012100F0B9FC032A30D10826AEE7684A6C
:104EDC00516D0C220A40082A2AD005D8002A29D064
:104EEC00042A29D10426A1E70C2A27D108269DE7FC
:104EFC005F4A526DC02109010A40802109018A4292
:104F0C0022D007D8002A21D08021C9008A421FD183
:104F1C0004268BE7C02109018A421BD1082685E7AC
:104F2C00022683E7002681E710267FE710267DE71F
:104F3C0002267BE7002679E7102677E7102675E72F
:104F4C00002673E7002671E702266FE700266DE75F
:104F5C0010266BE7102669E7042E00D100E12CD84F
:104F6C00002E55D0022E26D1636A002B00D1DEE034
:104F7C00012B00D1E0E0022B00D1DFE0032B00D1AC
:104F8C00DEE0042B00D1DDE0052B00D1DCE0062BAC
:104F9C0000D1DBE0072B00D1DAE0082B00D1D9E0FF
:104FAC00092B00D1D8E00A2B00D1D7E00B2B00D174
:104FBC00BAE00121BCE00126ECE3082E26D1636A9D
:104FCC00002B00D107E1012B00D10AE1022B00D10B
:104FDC0009E1032B00D108E1042B00D107E1052BDB
:104FEC0000D106E1062B00D105E1072B00D104E12D
:104FFC00082B00D103E1092B00D102E10A2B00D1CF
:10500C0001E10B2B00D1E3E00121E5E00126C1E336
:10501C00FCF7CCFB636A002B2CD0012B70D0022B3D
:10502C0070D0032B70D0042B70D0052B70D0062BB6
:10503C0070D0072B70D0082B70D0092B70D00A2B96
:10504C0070D00B2B01D0012115E08021490012E01A
:10505C00F369FFCFFFCFFFFF00800040FFF4FF118B
:10506C00003801400044004000480040004C004023
:10507C00001002400121FBF753F8002801D100F089
:10508C0063FC65686B005B19834201D900F05EFC20
:10509C002B03834201D200F05BFC042E00D175E19E
:1050AC0000D9B5E0002E00D1E7E0022E00D0ACE034
:1050BC00636A002B00D137E1012B00D148E1022BB0
:1050CC0000D148E1032B00D148E1042B00D148E189
:1050DC00052B00D148E1062B00D148E1072B00D16C
:1050EC0048E1082B00D148E1092B00D148E10A2BFB
:1050FC0000D148E10B2B00D112E10122002315E174
:10510C000221B8E70421B6E70621B4E70821B2E78B
:10511C000A21B0E70C21AEE71021ACE72021AAE769
:10512C004021A8E78021A6E78021490000E0012169
:10513C00A748FAF7F5FFA0E70221F9E70421F7E702
:10514C000621F5E70821F3E70A21F1E70C21EFE747
:10515C001021EDE72021EBE74021E9E78021E7E78B
:10516C00FCF7FCF9636A002B1AD0012B1CD0022B24
:10517C001CD0032B1CD0042B1CD0052B1CD0062BB5
:10518C001CD0072B1CD0082B1CD0092B1CD00A2B95
:10519C001CD00B2B01D0012103E08021490000E041
:1051AC000121FAF7BDFF68E70221FAE70421F8E7CD
:1051BC000621F6E70821F4E70A21F2E70C21F0E7D3
:1051CC001021EEE72021ECE74021EAE78021E8E717
:1051DC008021490000E0012180200002FAF7A0FFA5
:1051EC004BE70221F8E70421F6E70621F4E7082152
:1051FC00F2E70A21F0E70C21EEE71021ECE7202181
:10520C00EAE74021E8E78021E6E7012600202BE0D1
:10521C00082E27D1636A002B00D115E1012B00D198
:10522C0027E1022B00D127E1032B00D127E1042B2E
:10523C0000D127E1052B00D127E1062B00D127E176
:10524C00072B00D127E1082B00D127E1092B00D136
:10525C0027E10A2B00D127E10B2B00D1F0E0012232
:10526C000023F3E0012600205A4A5B4BC3189342FB
:10527C0000D96FE32368D8608CE2FCF797FA636A75
:10528C00002B1CD0012B2DD0022B2ED0032B2FD07A
:10529C00042B30D0052B31D0062B32D0072B33D03A
:1052AC00082B34D0092B35D00A2B36D00B2B02D03F
:1052BC000122002305E080225200002301E001229C
:1052CC0000230021FBF7C6F8050E0B022B4302024C
:1052DC00656868080021801859412A000023FBF7F3
:1052EC00B9F8C1E702220023EBE704220023E8E728
:1052FC0006220023E5E708220023E2E70A22002326
:10530C00DFE70C220023DCE710220023D9E7202260
:10531C000023D6E740220023D3E780220023D0E7E6
:10532C0080225200002301E00122002328480021A2
:10533C00FBF790F8060E0B023343020268080021BB
:10534C00801859412A000023FBF784F800268BE7CC
:10535C0002220023EAE704220023E7E706220023C7
:10536C00E4E708220023E1E70A220023DEE70C220F
:10537C000023DBE710220023D8E720220023D5E707
:10538C0040220023D2E780220023CFE7FCF7E6F887
:10539C00636A002B22D0012B34D0022B35D0032B87
:1053AC0036D0042B37D0052B38D0062B39D0072B11
:1053BC003AD0082B3BD0092B3CD00A2B3DD00B2BE1
:1053CC0002D0012200230BE080225200002307E0D0
:1053DC000024F400FFFC0F0000FDFFFF012200235E
:1053EC000021FBF737F8050E0B022B430202656810
:1053FC0068080021801859412A000023FBF72AF87D
:10540C00002631E702220023EAE704220023E7E723
:10541C0006220023E4E708220023E1E70A22002306
:10542C00DEE70C220023DBE710220023D8E7202242
:10543C000023D5E740220023D2E780220023CFE7C8
:10544C0080225200002301E0012200238020000270
:10545C000021FAF7FFFF060E0B0233430202680825
:10546C000021801859412A000023FAF7F3FF002687
:10547C00FAE602220023E9E704220023E6E70622EB
:10548C000023E3E708220023E0E70A220023DDE7FC
:10549C000C220023DAE710220023D7E72022002376
:1054AC00D4E740220023D1E780220023CEE7042E4C
:1054BC0000D1D0E02DD8002E66D0022E26D1636A02
:1054CC00002B00D1A4E0012B00D1B0E0022B00D1C5
:1054DC00AFE0032B00D1AEE0042B00D1ADE0052BE7
:1054EC0000D1ACE0062B00D1ABE0072B00D1AAE039
:1054FC00082B00D1A9E0092B00D1A8E00A2B00D180
:10550C00A7E00B2B00D180E0012182E001260020D6
:10551C002AE0082E26D1636A002B00D1E0E0012B93
:10552C0000D1EDE0022B00D1ECE0032B00D1EBE03D
:10553C00042B00D1EAE0052B00D1E9E0062B00D1C9
:10554C00E8E0072B00D1E7E0082B00D1E6E0092BBF
:10555C0000D1E5E00A2B00D1E4E00B2B00D1BCE03C
:10556C000121BEE001260020A84A0300103B934213
:10557C0000D9F1E10F2302009A434008083B184080
:10558C0010432368D86005E1FCF710F9636A002B1F
:10559C001AD0012B25D0022B25D0032B25D0042B80
:1055AC0025D0052B25D0062B25D0072B25D0082B55
:1055BC0025D0092B25D00A2B25D00B2B01D001216E
:1055CC0003E08021490000E00121FAF7A9FD400029
:1055DC0063685B08C0186168FAF7A2FD0004000C50
:1055EC00C2E70221F1E70421EFE70621EDE70821EC
:1055FC00EBE70A21E9E70C21E7E71021E5E7202199
:10560C00E3E74021E1E78021DFE78021490000E06A
:10561C0001217F48FAF784FD400063685B08C018DD
:10562C006168FAF77DFD0004000C00269CE702215E
:10563C00EFE70421EDE70621EBE70821E9E70A2172
:10564C00E7E70C21E5E71021E3E72021E1E7402122
:10565C00DFE78021DDE7FBF781FF636A002B1AD0BF
:10566C00012B26D0022B26D0032B26D0042B26D0A0
:10567C00052B26D0062B26D0072B26D0082B26D080
:10568C00092B26D00A2B26D00B2B01D0012103E0AD
:10569C008021490000E00121FAF742FD40006368D7
:1056AC005B08C0186168FAF73BFD0004000C00268B
:1056BC005AE70221F0E70421EEE70621ECE7082186
:1056CC00EAE70A21E8E70C21E6E71021E4E72021CC
:1056DC00E2E74021E0E78021DEE78021490000E09D
:1056EC00012180200002FAF71BFD400063685B0873
:1056FC00C0186168FAF714FD0004000C002633E7AB
:10570C000221EEE70421ECE70621EAE70821E8E7AD
:10571C000A21E6E70C21E4E71021E2E72021E0E78B
:10572C004021DEE78021DCE7012600202AE0082E5C
:10573C0026D1636A002B00D1E3E0012B00D1EFE00E
:10574C00022B00D1EEE0032B00D1EDE0042B00D1B5
:10575C00ECE0052B00D1EBE0062B00D1EAE0072BA7
:10576C0000D1E9E0082B00D1E8E0092B00D1E7E0FB
:10577C000A2B00D1E6E00B2B00D1BFE00121C1E0E8
:10578C0001260020214A0300103B934200D9E5E09A
:10579C002368D86001236A22A352023AA352002341
:1057AC00E3662367300070BDFCF700F8636A002BDA
:1057BC001AD0012B24D0022B24D0032B24D0042B61
:1057CC0028D0052B28D0062B28D0072B28D0082B27
:1057DC0028D0092B28D00A2B28D00B2B01D0012143
:1057EC0003E08021490000E00121FAF799FC63688D
:1057FC005B08C0186168FAF793FC0004000CC1E761
:10580C000221F2E70421F0E70621EEE7EFFF0000AA
:10581C000024F4000821E8E70A21E6E70C21E4E77C
:10582C001021E2E72021E0E74021DEE78021DCE7E0
:10583C008021490000E001214948FAF771FC6368B6
:10584C005B08C0186168FAF76BFC0004000C0026BA
:10585C0098E70221F0E70421EEE70621ECE70821A6
:10586C00EAE70A21E8E70C21E6E71021E4E720212A
:10587C00E2E74021E0E78021DEE7FBF76FFE636A99
:10588C00002B1AD0012B25D0022B25D0032B25D091
:10589C00042B25D0052B25D0062B25D0072B25D066
:1058AC00082B25D0092B25D00A2B25D00B2B01D06A
:1058BC00012103E08021490000E00121FAF730FCCE
:1058CC0063685B08C0186168FAF72AFC0004000CD6
:1058DC00002657E70221F1E70421EFE70621EDE767
:1058EC000821EBE70A21E9E70C21E7E71021E5E7BE
:1058FC002021E3E74021E1E78021DFE78021490017
:10590C0000E0012180200002FAF70AFC63685B08C2
:10591C00C0186168FAF704FC0004000C002631E79B
:10592C000221EFE70421EDE70621EBE70821E9E787
:10593C000A21E7E70C21E5E71021E3E72021E1E765
:10594C004021DFE78021DDE7002623E7012621E760
:10595C0001261FE701261DE701261BE7012619E793
:10596C000024F400836ADB0706D5026853682C49CF
:10597C000B40C16A0B435360836A9B0706D50268D0
:10598C00536828490B40016B0B435360836A5B07D8
:10599C0006D50268536824490B40416B0B43536096
:1059AC00836A1B0706D50268536820490B40816B3C
:1059BC000B435360836ADB0606D5026893681C4967
:1059CC000B40C16B0B439360836A9B0606D5026840
:1059DC00936818490B40016C0B439360836A5B0618
:1059EC000BD50268536814490B40416C0B43536050
:1059FC0080235B03426C9A420AD0836A1B0606D54D
:105A0C00026853680D490B40C16C0B4353607047DF
:105A1C00026853680A490B40816C0B435360ECE7F6
:105A2C00FFFFFDFFFFFFFEFFFFFFFBFFFF7FFFFF01
:105A3C00FFEFFFFFFFDFFFFFFFFFEFFFFFFFF7FFB2
:105A4C00FFFF9FFFF8B5CE46474680B506000D0018
:105A5C0017009946089B98463368DC692C40641BF8
:105A6C0063425C41BC4220D143460133F4D0FCF785
:105A7C001DFB4B46C01A404502D84346002BEBD1C8
:105A8C00326813680B490B40136032689368A3317A
:105A9C00FF318B43936020238022B3500432B350E8
:105AAC005C330022F254032000E000200CBC904632
:105ABC009946F8BD5FFEFFFFF0B5C64600B582B053
:105ACC0004000D0090461E008023C358202B6AD181
