:020000040800F2
:100000000090002079500008C1090008C3090008C9
:1000100000000000000000000000000000000000E0
:10002000000000000000000000000000C5090008FA
:100030000000000000000000C7090008C90900080E
:10004000C9500008C9500008C9500008D10900086B
:10005000D9090008C9500008C9500008DB09000888
:10006000C9500008E5090008C9500008C950000837
:10007000C9500008C9500008C9500008C9500008FC
:10008000C9500008F5090008C9500008C950000807
:10009000C9500008C9500008C9500008C9500008DC
:1000A000C9500008C9500008190A0008C9500008C2
:0C00B000290A0008C9500008C9500008C7
:1000BC0010B5064C2378002B07D1054B002B02D032
:1000CC00044800E000BF0123237010BD7000002025
:1000DC00000000008C590008044B10B5002B03D015
:1000EC000349044800E000BF10BDC04600000000FA
:1000FC00740000208C59000802780B78002A03D079
:10010C00013001319A42F7D0D01A704703B47146CE
:10011C00490840004900095E49008E4403BC704701
:10012C00002243088B4274D303098B425FD3030A2A
:10013C008B4244D3030B8B4228D3030C8B420DD33D
:10014C00FF22090212BA030C8B4202D312120902CB
:10015C0065D0030B8B4219D300E0090AC30B8B4209
:10016C0001D3CB03C01A5241830B8B4201D38B03B7
:10017C00C01A5241430B8B4201D34B03C01A52415C
:10018C00030B8B4201D30B03C01A5241C30A8B429F
:10019C0001D3CB02C01A5241830A8B4201D38B028A
:1001AC00C01A5241430A8B4201D34B02C01A52412E
:1001BC00030A8B4201D30B02C01A5241CDD2C309A0
:1001CC008B4201D3CB01C01A524183098B4201D31C
:1001DC008B01C01A524143098B4201D34B01C01A07
:1001EC00524103098B4201D30B01C01A5241C3087F
:1001FC008B4201D3CB00C01A524183088B4201D3EE
:10020C008B00C01A524143088B4201D34B00C01AD9
:10021C005241411A00D20146524110467047FFE745
:10022C0001B5002000F0F0F802BDC0460029F7D05F
:10023C0076E7704703460B437FD4002243088B427A
:10024C0074D303098B425FD3030A8B4244D3030B51
:10025C008B4228D3030C8B420DD3FF22090212BA16
:10026C00030C8B4202D31212090265D0030B8B4292
:10027C0019D300E0090AC30B8B4201D3CB03C01A7C
:10028C005241830B8B4201D38B03C01A5241430B57
:10029C008B4201D34B03C01A5241030B8B4201D347
:1002AC000B03C01A5241C30A8B4201D3CB02C01AB2
:1002BC005241830A8B4201D38B02C01A5241430A2A
:1002CC008B4201D34B02C01A5241030A8B4201D319
:1002DC000B02C01A5241CDD2C3098B4201D3CB01C0
:1002EC00C01A524183098B4201D38B01C01A52416F
:1002FC0043098B4201D34B01C01A524103098B4273
:10030C0001D30B01C01A5241C3088B4201D3CB005D
:10031C00C01A524183088B4201D38B00C01A524140
:10032C0043088B4201D34B00C01A5241411A00D2F0
:10033C0001465241104670475DE0CA0F00D0494259
:10034C00031000D34042534000229C4603098B42C9
:10035C002DD3030A8B4212D3FC22890112BA030A51
:10036C008B420CD3890192118B4208D389019211D3
:10037C008B4204D389013AD0921100E08909C30958
:10038C008B4201D3CB01C01A524183098B4201D35A
:10039C008B01C01A524143098B4201D34B01C01A45
:1003AC00524103098B4201D30B01C01A5241C308BD
:1003BC008B4201D3CB00C01A524183088B4201D32C
:1003CC008B00C01A5241D9D243088B4201D34B0047
:1003DC00C01A5241411A00D20146634652415B1089
:1003EC00104601D34042002B00D54942704763466A
:1003FC005B1000D3404201B5002000F005F802BDAF
:10040C000029F8D016E770477047C046002B11D171
:10041C00002A0FD1002900D1002802D00021C943A5
:10042C00081C07B4024802A14018029003BDC04644
:10043C00D9FFFFFF03B4684601B5029800F02EF80F
:10044C00019B9E4602B00CBC7047C046F0B515042B
:10045C002D0C0F0001002E00C64684460004140C1F
:10046C00000C090C46434D43604361434019340C66
:10047C00241800B5A54203D980204002804641448F
:10048C00250C6D18614659437A43300449192404EC
:10049C00000C2018891804BC9046F0BDF0B55746E6
:1004AC004E464546DE46E0B504000D0092469946A0
:1004BC0083B08B4230D82DD04946504600F0BAF864
:1004CC0029000600200000F0B5F8331A9846203BAE
:1004DC009B4633D45A465346934042461F005346DC
:1004EC0093401E00AF423AD8AF4200D178E05B4651
:1004FC00A41BBD41002B00DA75E000220023009202
:10050C00019301235A4693400193012342469340A1
:10051C00009328E08242CFD900220023009201935D
:10052C000C9B002B01D01C605D600098019903B0FE
:10053C003CBC90469946A246AB46F0BD42462023B1
:10054C009B1A5246DA40414613004A468A4017002D
:10055C0042461F43534693401E00AF42C4D900226B
:10056C000023009201934346002BD9D0FB0772085D
:10057C001A4346467B080EE0AB4201D1A2420CD88E
:10058C00A41A9D41012024196D410021013E24181B
:10059C004D41002E06D0AB42EED9013E24196D41DF
:1005AC00002EF8D1009801995B4600196941002B87
:1005BC0024DB2B005A464446D3402A00E2401C0060
:1005CC005B461500002B2ADB26009E4033002600DC
:1005DC004746BE403200801A9941009001919FE736
:1005EC00A342BCD883E74246202300219B1A002259
:1005FC00009101920122DA40019286E742462023C3
:10060C009B1A2A0046469A402300F3404446134363
:10061C002A00E2401C005B461500002BD4DA42464F
:10062C002F002023260097409B1ADE403B003343CB
:10063C00CDE7C04610B5002903D100F007F82030F3
:10064C0002E0081C00F002F810BDC0461C2101237A
:10065C001B04984201D3000C10391B0A984201D399
:10066C00000A08391B09984201D30009043902A277
:10067C00105C40187047C0460403020201010101DE
:10068C00000000000000000010B50024092C09DC5B
:10069C00A0200121C00500F04FFB642001F07AFB83
:1006AC000134F3E7A02000220121C00500F03EFB3D
:1006BC0010BD000000B5A1B03822002112A804F032
:1006CC0023FD102200210EA804F01EFD342200216F
:1006DC0001A804F019FD8020800001F077FA0A23AC
:1006EC001293F633159300231693402217923F3A38
:1006FC001892013219921A921B9308331C9380237F
:10070C009B021D9380239B041E9380239B051F93A8
:10071C0012A800F031FB00281AD107230E93053BD9
:10072C000F9300231093119302210EA800F0E0FD0B
:10073C00002810D10B4B0193002303938023DB0281
:10074C00079301A800F0B4FE002807D121B000BD2A
:10075C00FFF79AFFE1E7FFF797FFEBE7FFF794FF4F
:10076C00F4E7C0460202000030B59BB001F0ECFA91
:10077C00FFF7A0FF00F074F804F060FC01F024FB1C
:10078C0001F060FB03F0EAFB03F0BEFB2C4C2000F5
:10079C0001F038FBFA21200002F0E4F8294803F0BC
:1007AC0005FC294803F002FC01AC6022002102A8E0
:1007BC0004F0AAFC254B220023CB23C223CB23C25B
:1007CC001B881380FA23224D9B001922210028003C
:1007DC0003F0FEF903F0F4FD03F0C8FD40221D49BF
:1007EC00280002F075F903F029FE002001F080FAD0
:1007FC0000220121072001F013FA00220221092016
:10080C0001F00EFA00220221112001F009FA002257
:10081C0002211A2001F004FA002202211C2001F00E
:10082C00FFF90D4803F02AFE03F030FD01E001F062
:10083C0039FC0A4A4D23D35C002BFAD0F7E7C046AB
:10084C004401002064020020C8020020B0590008B6
:10085C00D8010020DA000020FFFF16008C000020D9
:10086C00F0B5DE4657464E464546E0B58BB01422F1
:10087C00002105A804F048FC474B5A6B0424224382
:10088C005A635A6B22400192019A596B20221143F0
:10089C005963596B0A400292029A5A6B01252A43FA
:1008AC005A635A6B2A400392039A5A6B0221884668
:1008BC000A435A635B6B0B400493049B374B9A4679
:1008CC00A026F60500221900300000F02FFA344F54
:1008DC0000220121380000F029FA324B99460022FF
:1008EC004021180000F022FA059403239B4606933E
:1008FC000024079405A92C4800F0CCF85346059326
:10090C0006950794089405A9300000F0C3F8274B0E
:10091C0005935B460693079405A9300000F0BAF8DE
:10092C0040239A4605930694079405A9300000F0DD
:10093C00B1F8059506950794089405A9380000F0C0
:10094C00A9F8434605935B460693079405A938001E
:10095C0000F0A0F85346059306950794089405A952
:10096C00484600F097F880231B010593104B069323
:10097C00079405A9300000F08DF800220221072011
:10098C0001F04EF9072001F07BF90BB03CBC90460E
:10099C009946A246AB46F0BD001002408380000091
:1009AC0000040050000800500014005030110000EA
:1009BC00000011107047FEE77047704710B501F04A
:1009CC00D7F910BD10B500F099FE10BD704710B5E9
:1009DC00402000F0B9F910BD10B5024801F08EF8B6
:1009EC0010BDC0467C01002010B5064A13680133C7
:1009FC001360A0200221C00500F09EF9024801F00E
:100A0C00E6FF10BD8C0000204401002010B5024808
:100A1C0004F078FA10BDC0466402002010B5044CF6
:100A2C00200002F06BF9200001F028FB10BDC0463D
:100A3C00D801002010B5402800D010BD03F026FCD2
:100A4C00FBE7000000B583B0114B196C0122114378
:100A5C001964196C0A400092009ADA6B80214905DE
:100A6C000A43DA63DB6B0B400193019B00220021EC
:100A7C00032001F0D5F8032001F002F90022002137
:100A8C00042001F0CDF8042001F0FAF803B000BD09
:100A9C0000100240F0B5D6464F464646C0B500237E
:100AAC003BE0032600E00026A64034003C435A4EAF
:100ABC001832920094518022B4584A46D2432600F0
:100ACC004D46AE434D68ED0302D54D462C432600F2
:100ADC00514C8027E6518426A459260016404D68B7
:100AEC00AD0302D54D462C4326004B4C8427E651D2
:100AFC002468260016404D68ED0202D54D462C4365
:100B0C002600454C2660646822404D68AD0201D534
:100B1C004A462243404C626001330C682200DA40A2
:100B2C0075D001229A4025001540A9461442F3D0F5
:100B3C004C68022C01D0122C0ED1DC080834A40015
:100B4C00275807261E40B6000F25B540AF430D6948
:100B5C00B5402E003E4326500468A4465E00032494
:100B6C00A2462700B740B846FF4365464446A54316
:100B7C00AC464C68554625402C00B44065462C4389
:100B8C0004604C68651E012D03D9112C01D0122C68
:100B9C0013D184683C40A446CC68B44065462C43D1
:100BAC0084604468944322004C682409A4460124C0
:100BBC0065462C409C4014434460C26817408A68C8
:100BCC00B2403A43C2604A68D200A5D59A081400D4
:100BDC001834A400104EA75903241C40E4000F261F
:100BEC00A640B743A026F605B04200D15BE70B4EFA
:100BFC00B04208D00A4EB04207D00A4EB04200D1E3
:100C0C004FE7052650E701264EE702264CE71CBCB1
:100C1C0090469946A246F0BD0018024000040050D0
:100C2C0000080050000C0050F0B5CE46474680B589
:100C3C008946002323E00321884601E000218846F1
:100C4C004146A140A94247D004685E000325B54047
:100C5C002C430460DC080834A400275807261E40E7
:100C6C00B6000F21B1408F4327508468AC43846099
:100C7C00446894434460C268AA43C26001334A4644
:100C8C00DA4046D001229A404C461440A4464946CC
:100C9C001142F3D09F083C001834A4001F4D655935
:100CAC0003241C40E4000F26A6403540A021C905B2
:100CBC008842C3D01A49884208D01A49884208D0C1
:100CCC0019498842B7D005218846B9E701218846E1
:100CDC00B6E702218846B3E7104D802188466C5850
:100CEC0061468C4341466C50043188466C586146D1
:100CFC008C4341466C502C6861468C432C606C686C
:100D0C008C436C603C001834A4006759B74367519E
:100D1C009AE70CBC90469946F0BDC04600180240BC
:100D2C000004005000080050000C0050002A01D0B4
:100D3C00816170478162FCE74369194201D081628D
:100D4C0070478161FCE7704710B50400094BDB6804
:100D5C00184204D1074B1B69234205D110BD054B2A
:100D6C00D860FFF7F0FFF5E7024B1C612000FFF79E
:100D7C0061FEF3E70018024070B582B0041E00D18A
:100D8C0034E20368DB0739D5C14A916838230B403C
:100D9C00D16803220A40102B26D0082B26D063687A
:100DAC008022520293427FD0A022D202934200D1E1
:100DBC0081E0B74B1A68B7490A401A601A68B649FD
:100DCC000A401A606368002B00D180E000F0DCFF61
:100DDC000500AF4B1B689B0310D400F0D5FF401BE4
:100DEC006428F6D9032002E2032AD6D1A84B1B684B
:100DFC009B0303D56368002B00D1FAE123689B07A2
:100E0C0031D5A34A936838210B40D16803220A409C
:100E1C00102B6AD0002B6BD19D4A1268520503D55A
:100E2C00E268002A00D1E6E1994842689B490A40F1
:100E3C00616909020A434260002B0DD1036898498D
:100E4C000B4021690B4303600368DB0A07221A403D
:100E5C00944BD340944A1360944B186800F048FFAD
:100E6C00002800D0C9E123681B0700D481E0884B1F
:100E7C009A6838231340182B73D0A369002B00D128
:100E8C00B4E0834A136E01210B43136600F07CFF20
:100E9C0005007F4B1B6E9B076BD400F075FF401B4E
:100EAC000228F6D90320A2E1794A116880235B025B
:100EBC000B43136086E7764B19688022D2020A43F3
:100ECC001A601968802252020A431A607AE700F00D
:100EDC005BFF05006E4B1B689B038FD500F054FF26
:100EEC00401B6428F6D9032081E1022A92D193E7B2
:100EFC00E368002B22D0664A136869490B402169CC
:100F0C000B431360116880235B000B43136000F0EC
:100F1C003BFF05005E4B1B685B0506D400F034FFFD
:100F2C00401B0228F6D9032061E159494B685B4A02
:100F3C0013406269120213434B6094E7544A1368DE
:100F4C005B490B40136000F01FFF0500504B1B6802
:100F5C005B0588D500F018FF401B0228F6D903204A
:100F6C0045E14B4B1B6E9B0703D5A369002B00D1AE
:100F7C0045E123685B0700D4A2E0454B9A6838230F
:100F8C001340202B45D0424BDB6BDB004AD4404A4C
:100F9C00D16B802040050143D163D36B0340019397
:100FAC00019B0125434B1B68DB053DD5A368012B39
:100FBC004ED0052B52D0364BDA6D01218A43DA65BF
:100FCC00DA6D03318A43DA65A368002B50D000F048
:100FDC00DBFE06002E4BDB6D9B076FD400F0D4FEBE
:100FEC00801B354B9842F5D9032000E1284A136E3B
:100FFC0001218B43136600F0C7FE0500244B1B6ECA
:10100C009B07B6D500F0C0FE401B0228F6D9032082
:10101C00EDE01F4BDB6D9B0752D5A368002B4FD126
:10102C000120E4E00025BDE7224A116880235B0023
:10103C000B43136000F0A8FE06001E4B1B68DB057B
:10104C00B4D400F0A1FE801B0228F6D90320CEE018
:10105C000F4AD36D01210B43D365B5E70C4BDA6D09
:10106C0004210A43DA65DA6D03390A43DA65ABE722
:10107C0000F08AFE0600064BDB6D9B071ED500F0C8
:10108C0083FE801B0C4B9842F5D90320AFE0C04681
:10109C0000100240FFFFFEFFFFFFFBFFFF80FFFF82
:1010AC00FFC7FFFF0024F40008000020040000200C
:1010BC00FFFEFFFF0070004010270000012D26D01E
:1010CC00E369002B00D19CE0564A916838220A4013
:1010DC00102A63D0022B20D0524B1A6852490A4076
:1010EC001A60DA6803218A43DA60DA684F490A40E9
:1010FC00DA6000F049FE04004A4B1B689B014BD59B
:10110C0000F042FE001B0228F6D903206FE0454A8E
:10111C00D36B47490B40D363D2E7424A1368424929
:10112C000B40136000F030FE05003E4B1B689B012A
:10113C0006D500F029FE401B0228F6D9032056E004
:10114C00384AD3683B491940236A606A0343A06A52
:10115C0000020343E06A0343206B0343606B0343C9
:10116C000B43D360116880235B040B431360D1687D
:10117C0080235B050B43D36000F006FE0400294B73
:10118C001B689B0106D400F0FFFD001B0228F6D95A
:10119C0003202CE000202AE0002028E0012B32D094
:1011AC00204BDA6803231340216A8B422DD1702324
:1011BC001340616A8B422AD1FE21C9011140A36AF6
:1011CC001B02994225D1F8239B031340E16A8B4201
:1011DC0021D1E0231B051340216B8B421DD1520FF3
:1011EC005207636B9A421AD1002000E0012002B032
:1011FC0070BD0120FBE70120F9E70120F7E7012092
:10120C00F5E70020F3E70120F1E70120EFE70120EB
:10121C00EDE70120EBE70120E9E70120E7E70120FA
:10122C00E5E7C04600100240FFFFFFFEFFFFFEEEA9
:10123C00FFFFFFEF8C80C11110B52A4B9B68382241
:10124C001A4207D1274B1A68D20A072313402648A3
:10125C00D84010BD234B9A6838231340082B3BD041
:10126C00204B9A6838231340102B0DD01D4B9A68D5
:10127C0038231340202B31D01A4B9A683823134053
:10128C00182B26D00020E4E7164AD1680D3B0B4002
:10129C00D2681209072111400131032B0FD01248DB
:1012AC00FEF73EFF0F4BDA68120A7F2313405843B8
:1012BC000C4BD968490F0131FEF732FFC9E70B48D7
:1012CC00FEF72EFF074BDA68120A7F2313405843B0
:1012DC00EEE7FA20C001BCE70448BAE78020000220
:1012EC00B7E7C046001002400024F40000127A0058
:1012FC0070B504000D00002800D1AAE0574B1A6805
:10130C00072313408B4221D323689A070ED55B0722
:10131C0005D5534A9168E023DB010B439360504A97
:10132C00936850490B40A1680B4393602368DB071B
:10133C0054D56368012B20D0022B3BD0002B3FD11E
:10134C00474A126852051CD401206AE0434A1368CC
:10135C0007218B432B43136000F016FD06003F4B17
:10136C001A6807231340AB42CED000F00DFD801B52
:10137C003D4A9042F3D9032053E0394A1268920354
:10138C0069D537498A680720824313438B6000F084
:10139C00FBFC0600324B9B6838221A406368DB006A
:1013AC009A421BD000F0F0FC801B2F4B9842F1D9D5
:1013BC00032036E02A4A12689201E2D4012030E080
:1013CC00032B05D0264AD26D9207DAD4012028E0EF
:1013DC00234A126E9207D4D4012022E01F4B1A68C4
:1013EC0007231340AB421DD823685B0706D51C4A64
:1013FC0093681E490B40E1680B439360FFF71CFF99
:10140C00174B9A68120A0F2313409B00184A9A58DC
:10141C001F231340D840174B1860174B186800F067
:10142C0067FC70BD0D4A136807218B432B43136077
:10143C0000F0AAFC0600094B1A6807231340AB42C4
:10144C00D2D000F0A1FC801B074B9842F3D90320AB
:10145C00E7E70120E5E70120E3E7C0460020024072
:10146C0000100240FFF0FFFF88130000FF8FFFFF0A
:10147C00CC5900080800002004000020014B18681B
:10148C007047C0460800002010B5FFF7F7FF064B69
:10149C009A68120B072313409B00044A9A581F2387
:1014AC001340D84010BDC046001002400C5A000832
:1014BC00F0B583B0040003689B0362D5814BDB6BF2
:1014CC00DB001ED47F4AD16B802040050143D163E1
:1014DC00D36B03400193019B01267B4A1168802347
:1014EC005B000B43136000F04FFC0500764B1B6850
:1014FC00DB0508D400F048FC401B0228F6D9032574
:10150C0002E00026E9E70025002D23D16D4BD96DB3
:10151C00C02292000B001340114210D0226B9A4251
:10152C000DD0684AD36D69490B40D06D80214902BA
:10153C000143D165D16D66480140D165D365DB07A8
:10154C0010D4002D06D15F4AD36D60490B40216B3E
:10155C000B43D365012E15D15A4AD36B5D490B4011
:10156C00D3630FE000F010FC0700564BDB6D9B07BC
:10157C00E7D400F009FCC01B574B9842F5D9032562
:10158C00DFE700252368DB0706D54E4A536D0321A0
:10159C008B4361680B43536523689B0706D5494A07
:1015AC00536D0C218B43A1680B43536523689B0639
:1015BC0006D5444A536D49490B40E1680B435365CA
:1015CC0023689B0506D53F4A536D45490B40A169DD
:1015DC000B43536523685B0506D53A4A536D414965
:1015EC000B40E1690B43536523685B0606D5354A0E
:1015FC00536D3D490B4021690B43536523685B04D4
:10160C000BD5304A536D9B009B08216A0B435365E5
:10161C008023DB05226A9A4239D023681B0306D546
:10162C00284A536D40218B43616A0B4353652368F1
:10163C009B020BD5234A536D2C490B40A16A0B43DB
:10164C0053658023DB03A26A9A4227D023685B028E
:10165C000BD51C4A536D26490B40E16A0B4353656D
:10166C0080235B04E26A9A421FD023681B050BD5CA
:10167C00144A536D1F490B4061690B4353656269F2
:10168C008023DB019A4215D0280003B0F0BD0D4A2F
:10169C00D16880235B020B43D360BEE7094AD16853
:1016AC0080235B040B43D360D0E7064AD1680B431D
:1016BC00D360DAE7034AD16880235B020B43D36023
:1016CC00E2E7C0460010024000700040FFFCFFFF44
:1016DC00FFFFFEFFFFFFFFEF10270000FFF3FFFFF0
:1016EC00FFFFF3FFFFFFCFFFFFCFFFFFFFFFBFFFAA
:1016FC00FFFFFFFEFF3FFFFF7047704710B5344AF6
:10170C0013693449194093698020C00503400B4389
:10171C0051693148806881435161304A10423DD053
:10172C002D4AD468002B17D02B494A681A434A60BB
:10173C009A0F9107002A03D0254A906901439161C1
:10174C009B009A08002B01D0214B1A61224B0022DE
:10175C009A602000FFF7D1FF1D4B1B69DB070CD5EE
:10176C001B4B01221A611C4B9B68022B1FD01A4B7E
:10177C0000229A602000FFF7BFFF174B9B68002BDD
:10178C000BD1134B9A6916490A409A615A6915494B
:10179C000A405A61104B00221A7010BD06220242F8
:1017AC0002D00D4A1469BDE701246442BAE70A4A23
:1017BC005369013B5361002B03D1074B00229A6004
:1017CC00D8E713001269501C186100F00DF8D1E72E
:1017DC0000200240FAC300001C010020010004009C
:1017EC00FFFFFFFEFFFFFFFC044A536904490B4057
:1017FC00C0001843034B184350617047002002404F
:10180C0007FEFFFF02000100F0B5846CC56C65603B
:10181C00046D002C02D0446D856D65600B4F7C68A7
:10182C001C26056C2E400125B5402C437C600468B9
:10183C0063608368102B04D0036899600368DA60D6
:10184C00F0BD03689A600368D960F9E700000240B4
:10185C0010B50400FF202368184008381421FEF747
:10186C005FFC236C9B08064A944663449B006364AC
:10187C00044BA3641C2318401B3B8340E36410BD42
:10188C000082001080080240FF2342681340064A81
:10189C009A1892000265054A4265013B03221A40E0
:1018AC0001239340836570473F820010400902403A
:1018BC0070B5041E4DD00568274BE8181421FEF7AF
:1018CC002FFC8000206425230222E2542B68234A3B
:1018DC0013402B6021680A68A368E0680343206901
:1018EC00034360690343A0690343E0690343206A2F
:1018FC00034313430B602000FFF7AAFF8023DB0197
:10190C00A2689A4218D0626CFF2361680B40136086
:10191C00A36CE26C5A606368013B032B0FD9002364
:10192C0023656365A3650023E36325220121A1548C
:10193C00013AA354002070BD00236360E3E720004C
:10194C00FFF7A2FF236D00221A60636DA26D5A602F
:10195C00E9E70120EFE7C046F8FFFDBF0F80FFFF6E
:10196C0070B504002420205C012843D024200125DC
:10197C0025540130205C012804D0022024230022AD
:10198C00E25470BD2430013525540020E0632568F5
:10199C0028680126B04328602000FFF735FF236B31
:1019AC00002B1CD0226813680E210B431360636C50
:1019BC001A68D20304D51968802252000A431A60AF
:1019CC00236D002B04D01968802252000A431A6040
:1019DC002268136801210B4313600020CEE72268B4
:1019EC00136804218B4313602268136806310B4380
:1019FC001360DCE70220C4E730B5002836D025237D
:101A0C00C35C022B06D00423C36320330022C254D0
:101A1C00012030BD026813680E218B431360426CA9
:101A2C00136813490B40136001680A6801239A4339
:101A3C000A60104C62681C21056C29408B401343D2
:101A4C006360836CC26C5A60036D002B06D01A68FD
:101A5C0007490A401A60436D826D5A6025230122A2
:101A6C00C254013B0022C2540020D2E70120D0E72F
:101A7C00FFFEFFFF0000024070B524230122C25478
:101A8C000133C35C022B03D00423C363012070BD5C
:101A9C00026813680E218B43136001680A680123E6
:101AAC009A430A60416C0A68124C22400A60124C3C
:101ABC0062681C21056C29408B4013436360836C66
:101ACC00C26C5A60036D002B06D01A6809490A4093
:101ADC001A60436D826D5A6025230122C254013B6A
:101AEC000022C254836B002B02D098470020CEE713
:101AFC000020CCE7FFFEFFFF0000024070B5314B29
:101B0C001968046825681C23026C134004229A404F
:101B1C00114216D06A0714D523689B0603D4236898
:101B2C00042293432360274C63681C21026C1140F0
:101B3C0004228A4013436360036B002B00D0984748
:101B4C0070BD02229A4011421CD0AA071AD52368F4
:101B5C009B0606D423680A22934323602523093A63
:101B6C00C254184C63681C21026C114002228A403A
:101B7C001343636024230022C254C36A002BDFD0BA
:101B8C009847DDE708229A401142D9D02B07D7D5C8
:101B9C0023680E22934323600A4C62681C21036C59
:101BAC00194001231D008D402A436260C363252226
:101BBC00835423330022C254436B002BC0D098476C
:101BCC00BEE7C04600000240C06B704710B5104A1B
:101BDC00136810490B400343136080239B00984209
:101BEC0001D0002010BD0C4B1B685800C0184000E1
:101BFC000A49FEF795FA0130054B5B695B0503D585
:101C0C00002803D00138F7E70020EBE70320E9E7D1
:101C1C0000700040FFF9FFFF0800002040420F0059
:101C2C0070B5002811DB8308134EC0339B009D59FF
:101C3C0003242040C000FF2214008440A5438901E6
:101C4C000A4082402A439A5170BD0F230340083B3F
:101C5C009B0806339B00094A944663445C68032244
:101C6C001040C000FC3215008540AC4389010A408D
:101C7C00824022435A60E7E700E100E000ED00E01B
:101C8C00002805DB1F2318401E3B8340014A1360CC
:101C9C007047C04600E100E000280ADB1F23184013
:101CAC001E3B8340034980228B50BFF34F8FBFF301
:101CBC006F8F704700E100E0013880235B0498428D
:101CCC000FD2094A50600948036A1B021B0AC02143
:101CDC0009060B4303620023936007331360002053
:101CEC0070470120FCE7C04610E000E000ED00E08A
:101CFC0010B50400114B1968002901D1012010BD49
:101D0C00FA208000FEF70CFA01000D4B1868FEF764
:101D1C0007FAFFF7D1FF00280DD1032C01D90120C0
:101D2C00EDE70130002221004042FFF779FF054B1F
:101D3C001C600020E3E70120E1E7C0460000002022
:101D4C00080000200400002010B5084A1168802308
:101D5C005B000B4313600320FFF7CAFF041E02D085
:101D6C000124200010BDFEF76DFEFAE700200240B2
:101D7C00034A1368034909685B1813607047C0462F
:101D8C004001002000000020014B18687047C0463D
:101D9C004001002070B50400FFF7F6FF0500631C3E
:101DAC0002D0044B1B68E418FFF7EEFF401BA04267
:101DBC00FAD370BD00000020024B802212059A60FD
:101DCC007047C04600ED00E010B50B480B4B0360AC
:101DDC0000234360E02212018260094A42610362DF
:101DEC0043628362C362036300F062FD002800D18A
:101DFC0010BDFEF749FCFBE744010020007C0040CD
:101E0C00FFFF000000B583B002680C4B9A4201D072
:101E1C0003B000BD0A4BD96B802212060A43DA6369
:101E2C00DB6BDB0FDB070193019B002200211120F0
:101E3C00FFF7F6FE1120FFF723FFE9E7007C0040D7
:101E4C000010024010B51948194B0360E1235B02E6
:101E5C00436000238360C36003610C224261836191
:101E6C00C36103624362836201F070FF002811D1E9
:101E7C0000210E4801F0FAFF00280ED100210B487A
:101E8C0002F01AF800280BD1084801F0CFFF002807
:101E9C0009D110BDFEF7F8FBEAE7FEF7F5FBEDE71D
:101EAC00FEF7F2FBF0E7FEF7EFFBF2E7D8010020BC
:101EBC000044004030B589B004001422002103A86E
:101ECC0003F022F9254B22689A4201D009B030BDAB
:101EDC00234BD96B802080020143D963DA6B02401B
:101EEC000192019A596B0122114359635B6B1340A8
:101EFC000293029B0C2303930A3B04930025059544
:101F0C0006950792A02003A9C005FEF7C3FD15484E
:101F1C00154B0360342343608560C5604C3303610B
:101F2C0045618561603BC3610562FFF7C1FC002818
:101F3C0011D10C4BA3679C62002200211C20FFF7DF
:101F4C006FFE1C20FFF79CFE084B1A6813681021CB
:101F5C000B431360BAE7FEF797FBEAE70044004037
:101F6C00001002407C01002008000240D801002033
:101F7C0070B59AB000241AE03B4803194E33002286
:101F8C001A704E3000F0FAFB384800F00BFE002CB3
:101F9C0006DB354B1B194E3300221A70013CF6E759
:101FAC0040223349314800F093FD5AE001343F2C74
:101FBC0021DC2D4B1B194E331B780D2BDCD0082B41
:101FCC00F4D1294B1B194E3300221A70002C05DD5D
:101FDC00621E254B9B184E3300221A70234D28008D
:101FEC0000F0E0FD611E4022121B92B2204BC9187A
:101FFC00280000F06DFD002601966022002102A849
:10200C0003F082F81B221B4901A803F085F8FA257E
:10201C00AD00164C2B00062201A9200001F0D8FDC2
:10202C0001966022002102A803F06EF81B221249CF
:10203C0001A803F071F82B00042201A9200001F083
:10204C00C7FD01966022002102A803F05DF8084943
:10205C0001A803F061F882B22B0001A9200001F065
:10206C00B7FD1AB070BDC0468C000020D80100200E
:10207C00DA0000202C5A0008345A000810B5074B1F
:10208C001B68074A934200D010BDDA69D206FBD513
:10209C0010221A62FFF76CFFF6E7C046D801002049
:1020AC0000440040F0B5DE4657464E464546E0B586
:1020BC009BB0A0200121C005FEF73EFEDC4A4D235B
:1020CC00D35C092B07D8002B56D0092B54D89B0076
:1020DC00D84AD3589F46FF2B4ED1D54A4D230021C9
:1020EC00D15401AC602202A803F00EF8D24B2200AE
:1020FC0003CB03C2198811809B789370FA239B0041
:10210C000A222100CD4801F063FD35E0C84A4D2379
:10211C000021D154602202A802F0F6FFC84B0193B3
:10212C00FA239B00032201A9C44801F051FD0024AD
:10213C00092C21DCA0200121C005FEF7FDFD642047
:10214C00FFF728FE0134F3E70024019460220021FC
:10215C0002A802F0D9FF02F073F80200B94901A8F5
:10216C0002F0DAFFFA239B00092201A9B34801F01F
:10217C002FFDAF4A4D23D4541BB03CBC904699461E
:10218C00A246AB46F0BD0421402002F051F80024D9
:10219C0001946022002102A802F0B6FF02F016F8AA
:1021AC000200A84901A802F0B7FFFA2382B29B00F3
:1021BC0001A9A24801F00CFD9D4A4D23D454DBE744
:1021CC0001AC6022002102A802F09EFF9E4B22006F
:1021DC0003CB03C2198811809B789370FA239B0060
:1021EC000A222100954801F0F3FC02F0E9F80021E5
:1021FC008F4A4D23D154BFE701AC00276022002148
:10220C0002A802F081FF914B220023CB23C21B7842
:10221C001370FA26B600894D33000C2221002800D9
:10222C0001F0D6FC0021402002F002F80197602258
:10223C00002102A802F068FF01F0E4FF02008449CB
:10224C00200002F069FF330017222100280001F062
:10225C00BFFC0121402001F0EBFF0197602200211F
:10226C0002A802F051FF01F09DFF02007949200005
:10227C0002F052FF330017222100280001F0A8FCC5
:10228C000221402001F0D4FF01976022002102A816
:10229C0002F03AFF01F086FF02006F49200002F0C5
:1022AC003BFF33001B222100280001F091FC03218D
:1022BC00402001F0BDFF01976022002102A802F02E
:1022CC0023FF01F083FF02006449200002F024FF89
:1022DC0082B233002100280001F07AFC0421402056
:1022EC0001F0A6FF01976022002102A802F00CFF6A
:1022FC0001F06CFF02005A49200002F00DFF82B27F
:10230C0033002100280001F063FC0621402001F07D
:10231C008FFF01976022002102A802F0F5FE01F068
:10232C0041FF02004F49200002F0F6FE3300172255
:10233C002100280001F04CFC0721402001F078FF1F
:10234C0001976022002102A802F0DEFE01F02AFFB4
:10235C0002004549200002F0DFFE33001522210067
:10236C00280001F035FC00241CE021001031C9B21A
:10237C00402001F05DFF002301936022002102A8A0
:10238C0002F0C2FE01F00EFF03002200374901A843
:10239C0002F0C2FEFA2382B29B0001A9274801F089
:1023AC0017FC01340E2CE0DD00241CE02100203150
:1023BC00C9B2402001F03CFF0023019360220021B0
:1023CC0002A802F0A1FE01F0EDFE03002200284954
:1023DC0001A802F0A1FEFA239B001B2201A91748B9
:1023EC0001F0F6FB0134062CE0DD00241CE021009A
:1023FC002831C9B2402001F01BFF00230193602259
:10240C00002102A802F080FE01F0CCFE03002200A5
:10241C00184901A802F080FEFA239B001A2201A998
:10242C00064801F0D5FB0134062CE0DD002440E029
:10243C008C000020FC5B0008F05B0008D801002039
:10244C006F6B0A00D45A00083C5A0008485A00081E
:10245C00585A0008745A00088C5A0008A85A0008E8
:10246C00C45A0008DC5A0008F45A00080C5B000837
:10247C00245B0008445B000821003031C9B24020C5
:10248C0001F0D6FE002301936022002102A802F085
:10249C003BFE01F09BFE03002200A94901A802F0BB
:1024AC003BFEFA2382B29B0001A9A64801F090FBE7
:1024BC000134062CE0DD00241CE021003831C9B2C7
:1024CC00402001F0B5FE002301936022002102A8F8
:1024DC0002F01AFE01F07AFE030022009A4901A8CC
:1024EC0002F01AFEFA2382B29B0001A9954801F072
:1024FC006FFB0134062CE0DD944A4D230021D154AE
:10250C003AE600240F2C4DDCA51CAD008F4B5D1959
:10251C00002398468E4A002368680021FDF796FF39
:10252C008C4A0023FDF772FF82468946434601938D
:10253C006022002102A802F0E7FD2200864901A8D2
:10254C0002F0EAFDFA27BF0082B27E4E3B0001A9E1
:10255C00300001F03DFB434601936022002102A8AC
:10256C0002F0D2FD52464B467C4901A802F0D4FD44
:10257C003B000F2201A9300001F02AFB43460193D6
:10258C006022002102A802F0BFFD6A68744901A80C
:10259C0002F0C2FD82B23B0001A9300001F018FB31
:1025AC000134AFE7694A4D230021D154E4E50026FC
:1025BC0001966022002102A802F0A6FD634D694934
:1025CC006868FDF737FE0200674901A802F0A4FD18
:1025DC00FA24A40082B25B4F230001A9380001F059
:1025EC00F7FA01966022002102A802F08DFD21006D
:1025FC006868FDF71FFE2100FDF702FF0A005B492A
:10260C0001A802F089FD82B2230001A9380001F073
:10261C00DFFA4D23EE54AFE501AD002401946022A6
:10262C00002102A802F070FD0A232B80F0339B00DE
:10263C0001222900434801F0CBFA01F047FF434A3D
:10264C004D23D45498E501AC00270197602200215A
:10265C0002A802F059FD0A232380FA26B600394D50
:10266C00330001222100280001F0B2FA374B9846C2
:10267C004D234246D754364A00234146C8680021B0
:10268C00FDF7E4FE334A0023FDF7C0FE834689467E
:10269C006022002102A802F037FD354B220083CBCB
:1026AC0083C203CB03C2330013222100280001F0A4
:1026BC008FFA002701976022002102A802F024FD66
:1026CC002C4B9A465A464B465146200002F024FDAC
:1026DC00330010222100280001F07AFA43461869D1
:1026EC001B4A00230021FDF7B1FE1A4A0023FDF717
:1026FC008DFE814688466022002102A802F004FD6E
:10270C001D4B220083CB83C203CB03C233001322A5
:10271C002100280001F05CFA0027019760220021BB
:10272C0002A802F0F1FC4A4643465146200002F052
:10273C00F3FC330010222100280001F049FA1BE5BC
:10274C00605B0008D80100207C5B00088C00002036
:10275C0040771B00FFFFFF00985B0008A05B0008A0
:10276C00D45A000840420F00AC5B0008B05B000874
:10277C00BC5B0008D05B0008DC5B000830B59BB08C
:10278C00040001AD6022002102A802F0BDFC3D4B0B
:10279C001A6801921B792B71FA239B0004222900E1
:1027AC00394801F015FA39492000FDF7A5FC00283D
:1027BC0005D1374A4D230121D1541BB030BD3549C9
:1027CC002000FDF799FC002804D1314A4D23022149
:1027DC00D154F2E730492000FDF78EFC002804D1DB
:1027EC002B4A4D230321D154E7E72C492000FDF758
:1027FC0083FC002804D1264A4D230421D154DCE764
:10280C0027492000FDF778FC00280AD02549200034
:10281C00FDF772FC00281AD11D4A4D230721D15413
:10282C00CBE701AC002301936022002102A802F047
:10283C006BFC0A232380F0339B00012221001248F9
:10284C0001F0C6F9124A4D230621D154B5E71649B9
:10285C002000FDF751FC002804D10D4A4D2308211E
:10286C00D154AAE711492000FDF746FC002804D1F9
:10287C00074A4D230921D1549FE7054A4D23FF21D7
:10288C00D1549AE7245C0008D80100202C5C000885
:10289C008C000020345C00083C5C0008485C00089C
:1028AC00545C0008605C0008685C0008745C0008FC
:1028BC0070B5041E4CD03623C35C002B3DD03623A0
:1028CC000222E2542568EB686068012804D080225B
:1028DC001204A16A914201D11E22934361691D4ADF
:1028EC00914201D01C4A13401C4A1A40A36803436E
:1028FC00266A3343666A3343A66A3343134301287B
:10290C0003D080221204964203D1E268206902436C
:10291C001343104A914204D0A2691143E269114356
:10292C000B43EB6023680E4A93420CD0E26A5A6266
:10293C0036230122E254002070BD35330022C254EC
:10294C00FFF760FABBE7E26A216B0A435A62EFE7D2
:10295C000120F1E7FFFF00003F1FFFFFF8F119FF17
:10296C00007C004010B536230222C2544368012B70
:10297C0004D080231B04826A9A4219D0026893689F
:10298C00102423439360026893680E3C23439360A6
:10299C000468236901221343236103689961016868
:1029AC000B69042423430B613623C254002010BD51
:1029BC000268D368014C2340D360DFE7FFF1FFFFCF
:1029CC00704770477047704770477047704710B535
:1029DC00040003681A68D20702D59A68D2072AD471
:1029EC0023681A68920702D59A68920728D423683C
:1029FC001A68520702D59A68520727D423681A68B6
:102A0C00120702D59A68120726D423681A68D206D0
:102A1C0002D59A68D20625D423681A68920602D584
:102A2C009A68920624D423681A68520602D59A68CA
:102A3C00520623D410BD01225A60FFF7C1FFCFE725
:102A4C0002225A602000FFF7BCFFD0E704225A6034
:102A5C002000FFF7B7FFD1E708225A602000FFF7EC
:102A6C00B2FFD2E710225A602000FFF7ADFFD3E788
:102A7C0020225A602000FFF7A8FFD4E740225A60BA
:102A8C002000FFF7A3FFD5E702681368C0218B4332
:102A9C0013600268936803490B40936080232022E3
:102AAC00C2507047FFFF7FFF0268136806490B4056
:102ABC0013600268936805490B40936084232022BD
:102ACC00C2500023C3667047DFFEFFFFFEFFFFEF1F
:102ADC0010B504008423C358202B55D1002955D0A0
:102AEC00002A55D080235B018068984231D07C232A
:102AFC00E35C012B4ED07C230120E054A165203BEC
:102B0C00E2522C330021E150043B2231E150A36FFF
:102B1C00002B25D02049D962A36F20491963A36FDC
:102B2C001F495963A36F0021996321682431130055
:102B3C00A26DA06FFEF714FF002811D0882310227D
:102B4C00E2500C3B0022E25404332032E2500120CC
:102B5C001BE02369002BCAD1CB07C8D5012014E098
:102B6C007C230022E2542268116884330B431360E7
:102B7C002268936801210B439360226893683F316C
:102B8C000B439360002000E0022010BD0120FCE705
:102B9C000120FAE70220F8E7652C0008AB2C0008AE
:102BAC00B72C000870B504008023C0588422A558A7
:102BBC00226891680B4201D0212807D023689A68BB
:102BCC00520636D5222D1AD0002033E0936880218E
:102BDC008B439360606F002803D0FEF70DFF002835
:102BEC0003D12000FFF750FFE8E7606FFEF7ECFF22
:102BFC002028F6D188231022E2501D381AE09A685A
:102C0C0040218A439A60A06F002803D0FEF7F4FE9F
:102C1C00002804D12000FFF747FF00200AE0A06F36
:102C2C00FEF7D2FF2028F5D188231022E2501D3860
:102C3C0000E0002070BD704710B502681368402199
:102C4C008B43136080232022C25000230367FFF7BD
:102C5C00F2FF10BD7047000010B50300806A1B68BE
:102C6C001B689B0615D45E230022C25202681368AF
:102C7C0009490B401360026893680331FF318B43A1
:102C8C009360026893683F318B43936084232022C6
:102C9C00C250FFF7DFFF10BDFFFEFFFF704710B5FE
:102CAC00806AFFF7FBFF10BD704770B5846A802304
:102CBC00E1588422A55822689268134201D0212938
:102CCC000ED023689B685B0601D5222D0FD088227D
:102CDC00A35810210B43A3502000FFF7E5FF70BD54
:102CEC002A3B0022E2522000FFF7CEFEE9E75E23EA
:102CFC000022E2522000FFF7D7FEE8E7F8B5040007
:102D0C000268D369156890680F210E001E401942A5
:102D1C0005D1990603D5A90629D4C10027D4002EC4
:102D2C0008D05A4906000E40084226D1902149008D
:102D3C000D4222D1D90202D5410200D58BE01A06F0
:102D4C0005D52A0600D58DE0020200D58AE05A0688
:102D5C0002D56A0600D58CE01A0202D56A0000D5AD
:102D6C008BE0DB0102D5002D00DA8AE0F8BDE36EC2
:102D7C00002BFBD020009847F8E7D90707D5E905C9
:102D8C0005D501271762882162583A4362509A0789
:102D9C0009D5C20707D52268022111628631625813
:102DAC0004273A4362505A0709D5C20707D522684F
:102DBC00042111628431625802273A4362501A0787
:102DCC000AD5AA0601D4002E06D02268082616625F
:102DDC0088216258324362508822A258002AC5D0FA
:102DEC009B0608D5AB0601D4C30004D5E36E002BBB
:102DFC0001D0200098478823E25823689B685B0623
:102E0C0001D4130720D52000FFF74EFE23689A68E3
:102E1C00520615D59A6840218A439A60A36F002BFD
:102E2C000AD01B4A9A63A06FFEF726FE00289DD09D
:102E3C00A06F836B984799E72000FFF735FF95E764
:102E4C002000FFF731FF91E72000FFF72DFF8823CB
:102E5C000022E2508AE780235B031362200000F01B
:102E6C00E1FF83E7236F002B00D17FE72000984719
:102E7C007CE72000FFF7E0FE78E7200000F0D4FFAD
:102E8C0074E7200000F0CFFF70E7C046010000108F
:102E9C00A12E000810B5806A00235E228352083AE6
:102EAC008352FFF701FF10BD70B504000168836801
:102EBC000269134342691343C2691343426E1A43B6
:102ECC000B68A948034013430B6022685368A74959
:102EDC000B40E1680B435360A1692268A44B9A42F2
:102EEC0001D0236A19439368A24803400B439360B3
:102EFC002268D36A0F218B43616A0B43D362236828
:102F0C009D4A93420FD09D4A93426CD09C4A934267
:102F1C0000D1A1E09B4A934200D19FE0944A934296
:102F2C0072D010260EE0984A516D03220A40022AF4
:102F3C0000D181E053D8002A00D17FE0012A00D0D3
:102F4C007EE004268A4A934200D191E080231B0242
:102F5C00E2699A4200D136E3042E01D100F019FD4A
:102F6C0001D900F070FC002E01D100F0A9FC022E5A
:102F7C0001D000F065FC636A002B01D100F0E7FC86
:102F8C00012B01D100F0F1FC022B01D100F0EFFC80
:102F9C00032B01D100F0EDFC042B01D100F0EBFC74
:102FAC00052B01D100F0E9FC062B01D100F0E7FC68
:102FBC00072B01D100F0E5FC082B01D100F0E3FC5C
:102FCC00092B01D100F0E1FC0A2B01D100F0DFFC50
:102FDC000B2B01D100F0B8FC012100F0B9FC032A45
:102FEC0030D10826AEE7684A516D0C220A40082AF7
:102FFC002AD005D8002A29D0042A29D10426A1E7F1
:10300C000C2A27D108269DE75F4A526DC021090181
:10301C000A40802109018A4222D007D8002A21D0F7
:10302C008021C9008A421FD104268BE7C0210901E7
:10303C008A421BD1082685E7022683E7002681E712
:10304C0010267FE710267DE702267BE7002679E72E
:10305C00102677E7102675E7002673E7002671E740
:10306C0002266FE700266DE710266BE7102669E74E
:10307C00042E00D100E12CD8002E55D0022E26D1E2
:10308C00636A002B00D1DEE0012B00D1E0E0022BC3
:10309C0000D1DFE0032B00D1DEE0042B00D1DDE01A
:1030AC00052B00D1DCE0062B00D1DBE0072B00D197
:1030BC00DAE0082B00D1D9E0092B00D1D8E00A2B9B
:1030CC0000D1D7E00B2B00D1BAE00121BCE00126E6
:1030DC00ECE3082E26D1636A002B00D107E1012B0B
:1030EC0000D10AE1022B00D109E1032B00D108E148
:1030FC00042B00D107E1052B00D106E1062B00D1F2
:10310C0005E1072B00D104E1082B00D103E1092BC9
:10311C0000D102E10A2B00D101E10B2B00D1E3E03D
:10312C000121E5E00126C1E3FEF7AEF9636A002B4D
:10313C002CD0012B70D0022B70D0032B70D0042B11
:10314C0070D0052B70D0062B70D0072B70D0082BAD
:10315C0070D0092B70D00A2B70D00B2B01D0012111
:10316C0015E08021490012E0F369FFCFFFCFFFFF8C
:10317C0000800040FFF4FF11003801400044004083
:10318C0000480040004C0040001002400121FCF7B8
:10319C00C7FF002801D100F063FC65686B005B1968
:1031AC00834201D900F05EFC2B03834201D200F074
:1031BC005BFC042E00D175E100D9B5E0002E00D1E6
:1031CC00E7E0022E00D0ACE0636A002B00D137E1BF
:1031DC00012B00D148E1022B00D148E1032B00D197
:1031EC0048E1042B00D148E1052B00D148E1062B26
:1031FC0000D148E1072B00D148E1082B00D148E170
:10320C00092B00D148E10A2B00D148E10B2B00D14E
:10321C0012E10122002315E10221B8E70421B6E7EF
:10322C000621B4E70821B2E70A21B0E70C21AEE78A
:10323C001021ACE72021AAE74021A8E78021A6E7CE
:10324C008021490000E00121A748FCF769FFA0E7B5
:10325C000221F9E70421F7E70621F5E70821F3E756
:10326C000A21F1E70C21EFE71021EDE72021EBE734
:10327C004021E9E78021E7E7FDF7DEFF636A002BD9
:10328C001AD0012B1CD0022B1CD0032B1CD0042BCE
:10329C001CD0052B1CD0062B1CD0072B1CD0082BAC
:1032AC001CD0092B1CD00A2B1CD00B2B01D00121BC
:1032BC0003E08021490000E00121FCF731FF68E7C1
:1032CC000221FAE70421F8E70621F6E70821F4E7E2
:1032DC000A21F2E70C21F0E71021EEE72021ECE7C0
:1032EC004021EAE78021E8E78021490000E0012144
:1032FC0080200002FCF714FF4BE70221F8E70421C1
:10330C00F6E70621F4E70821F2E70A21F0E70C21A1
:10331C00EEE71021ECE72021EAE74021E8E78021E5
:10332C00E6E7012600202BE0082E27D1636A002B4C
:10333C0000D115E1012B00D127E1022B00D127E1AF
:10334C00032B00D127E1042B00D127E1052B00D161
:10335C0027E1062B00D127E1072B00D127E1082B11
:10336C0000D127E1092B00D127E10A2B00D127E15D
:10337C000B2B00D1F0E001220023F3E0012600200A
:10338C005A4A5B4BC318934200D96FE32368D86049
:10339C008CE2FEF779F8636A002B1CD0012B2DD040
:1033AC00022B2ED0032B2FD0042B30D0052B31D059
:1033BC00062B32D0072B33D0082B34D0092B35D029
:1033CC000A2B36D00B2B02D00122002305E08022E1
:1033DC005200002301E0012200230021FDF716F822
:1033EC00050E0B022B430202656868080021801849
:1033FC0059412A000023FDF709F8C1E702220023F6
:10340C00EBE704220023E8E706220023E5E7082285
:10341C000023E2E70A220023DFE70C220023DCE78B
:10342C0010220023D9E720220023D6E740220023D4
:10343C00D3E780220023D0E780225200002301E052
:10344C000122002328480021FCF7E0FF060E0B02A6
:10345C003343020268080021801859412A000023D6
:10346C00FCF7D4FF00268BE702220023EAE70422B4
:10347C000023E7E706220023E4E708220023E1E724
:10348C000A220023DEE70C220023DBE710220023B4
:10349C00D8E720220023D5E740220023D2E7802260
:1034AC000023CFE7FDF7C8FE636A002B22D0012B67
:1034BC0034D0022B35D0032B36D0042B37D0052B30
:1034CC0038D0062B39D0072B3AD0082B3BD0092B00
:1034DC003CD00A2B3DD00B2B02D0012200230BE059
:1034EC0080225200002307E00024F400FFFC0F00B0
:1034FC0000FDFFFF012200230021FCF787FF050ED2
:10350C000B022B43020265686808002180185941A0
:10351C002A000023FCF77AFF002631E70222002361
:10352C00EAE704220023E7E706220023E4E7082267
:10353C000023E1E70A220023DEE70C220023DBE76D
:10354C0010220023D8E720220023D5E740220023B5
:10355C00D2E780220023CFE780225200002301E033
:10356C0001220023802000020021FCF74FFF060EF1
:10357C000B023343020268080021801859412A00CB
:10358C000023FCF743FF0026FAE602220023E9E7BA
:10359C0004220023E6E706220023E3E708220023A7
:1035AC00E0E70A220023DDE70C220023DAE71022F1
:1035BC000023D7E720220023D4E740220023D1E7C1
:1035CC0080220023CEE7042E00D1D0E02DD8002E8F
:1035DC0066D0022E26D1636A002B00D1A4E0012B09
:1035EC0000D1B0E0022B00D1AFE0032B00D1AEE054
:1035FC00042B00D1ADE0052B00D1ACE0062B00D1A3
:10360C00ABE0072B00D1AAE0082B00D1A9E0092BD5
:10361C0000D1A8E00A2B00D1A7E00B2B00D180E051
:10362C00012182E0012600202AE0082E26D1636ABF
:10363C00002B00D1E0E0012B00D1EDE0022B00D1FA
:10364C00ECE0032B00D1EBE0042B00D1EAE0052BDE
:10365C0000D1E9E0062B00D1E8E0072B00D1E7E030
:10366C00082B00D1E6E0092B00D1E5E00A2B00D1B4
:10367C00E4E00B2B00D1BCE00121BEE001260020D0
:10368C00A84A0300103B934200D9F1E10F2302003A
:10369C009A434008083B184010432368D86005E162
:1036AC00FDF7F2FE636A002B1AD0012B25D0022BFA
:1036BC0025D0032B25D0042B25D0052B25D0062B6C
:1036CC0025D0072B25D0082B25D0092B25D00A2B4C
:1036DC0025D00B2B01D0012103E08021490000E013
:1036EC000121FCF71DFD400063685B08C018616890
:1036FC00FCF716FD0004000CC2E70221F1E70421DF
:10370C00EFE70621EDE70821EBE70A21E9E70C21B9
:10371C00E7E71021E5E72021E3E74021E1E78021FD
:10372C00DFE78021490000E001217F48FCF7F8FC2D
:10373C00400063685B08C0186168FCF7F1FC00048A
:10374C00000C00269CE70221EFE70421EDE706219F
:10375C00EBE70821E9E70A21E7E70C21E5E710216F
:10376C00E3E72021E1E74021DFE78021DDE7FDF7FA
:10377C0063FD636A002B1AD0012B26D0022B26D0B6
:10378C00032B26D0042B26D0052B26D0062B26D097
:10379C00072B26D0082B26D0092B26D00A2B26D077
:1037AC000B2B01D0012103E08021490000E0012115
:1037BC00FCF7B6FC400063685B08C0186168FCF756
:1037CC00AFFC0004000C00265AE70221F0E70421AC
:1037DC00EEE70621ECE70821EAE70A21E8E70C21ED
:1037EC00E6E71021E4E72021E2E74021E0E7802131
:1037FC00DEE78021490000E0012180200002FCF777
:10380C008FFC400063685B08C0186168FCF788FC9B
:10381C000004000C002633E70221EEE70421ECE75C
:10382C000621EAE70821E8E70A21E6E70C21E4E7AC
:10383C001021E2E72021E0E74021DEE78021DCE7F0
:10384C00012600202AE0082E26D1636A002B00D125
:10385C00E3E0012B00D1EFE0022B00D1EEE0032BD3
:10386C0000D1EDE0042B00D1ECE0052B00D1EBE016
:10387C00062B00D1EAE0072B00D1E9E0082B00D1A0
:10388C00E8E0092B00D1E7E00A2B00D1E6E00B2B96
:10389C0000D1BFE00121C1E001260020214A030034
:1038AC00103B934200D9E5E02368D86001236A22DB
:1038BC00A352023AA3520023E3662367300070BD83
:1038CC00FDF7E2FD636A002B1AD0012B24D0022BEA
:1038DC0024D0032B24D0042B28D0052B28D0062B46
:1038EC0028D0072B28D0082B28D0092B28D00A2B1E
:1038FC0028D00B2B01D0012103E08021490000E0EE
:10390C000121FCF70DFC63685B08C0186168FCF7CB
:10391C0007FC0004000CC1E70221F2E70421F0E7E8
:10392C000621EEE7EFFF00000024F4000821E8E791
:10393C000A21E6E70C21E4E71021E2E72021E0E789
:10394C004021DEE78021DCE78021490000E00121F5
:10395C004948FCF7E5FB63685B08C0186168FCF735
:10396C00DFFB0004000C002698E70221F0E704219D
:10397C00EEE70621ECE70821EAE70A21E8E70C214B
:10398C00E6E71021E4E72021E2E74021E0E780218F
:10399C00DEE7FDF751FC636A002B1AD0012B25D012
:1039AC00022B25D0032B25D0042B25D0052B25D07D
:1039BC00062B25D0072B25D0082B25D0092B25D05D
:1039CC000A2B25D00B2B01D0012103E080214900CB
:1039DC0000E00121FCF7A4FB63685B08C018616878
:1039EC00FCF79EFB0004000C002657E70221F1E7D0
:1039FC000421EFE70621EDE70821EBE70A21E9E7CF
:103A0C000C21E7E71021E5E72021E3E74021E1E77E
:103A1C008021DFE78021490000E0012180200002A5
:103A2C00FCF77EFB63685B08C0186168FCF778FBE9
:103A3C000004000C002631E70221EFE70421EDE73A
:103A4C000621EBE70821E9E70A21E7E70C21E5E786
:103A5C001021E3E72021E1E74021DFE78021DDE7CA
:103A6C00002623E7012621E701261FE701261DE793
:103A7C0001261BE7012619E70024F400836ADB0703
:103A8C0006D5026853682C490B40C16A0B4353603E
:103A9C00836A9B0706D50268536828490B40016B63
:103AAC000B435360836A5B0706D50268536824494D
:103ABC000B40416B0B435360836A1B0706D50268AE
:103ACC00536820490B40816B0B435360836ADB06C0
:103ADC0006D5026893681C490B40C16B0B4393607D
:103AEC00836A9B0606D50268936818490B40016CE3
:103AFC000B439360836A5B060BD5026853681449C9
:103B0C000B40416C0B43536080235B03426C9A4225
:103B1C000AD0836A1B0606D5026853680D490B4010
:103B2C00C16C0B4353607047026853680A490B40E1
:103B3C00816C0B435360ECE7FFFFFDFFFFFFFEFFC3
:103B4C00FFFFFBFFFF7FFFFFFFEFFFFFFFDFFFFF2D
:103B5C00FFFFEFFFFFFFF7FFFFFF9FFFF8B5CE461C
:103B6C00474680B506000D0017009946089B9846FD
:103B7C003368DC692C40641B63425C41BC4220D13D
:103B8C0043460133F4D0FEF7FFF84B46C01A4045CC
:103B9C0002D84346002BEBD1326813680B490B401B
:103BAC00136032689368A331FF318B4393602023F9
:103BBC008022B3500432B3505C330022F254032001
:103BCC0000E000200CBC90469946F8BD5FFEFFFF5C
:103BDC00F0B5C64600B582B004000D0090461E003C
:103BEC008023C358202B6AD1002900D16CE0002A15
:103BFC0000D16BE080235B0182689A421CD07C234D
:103C0C00E35C012B64D07C230122E2540C330022B0
:103C1C00E250083B2132E250FEF7B6F8070054237D
:103C2C004246E2520233E25280235B01A2689A427E
:103C3C0009D0002398461AE00369002BDFD1CB078B
:103C4C00DDD501203CE02369002B25D000239846CC
:103C5C000DE043461B882268DB05DB0D93620223D3
:103C6C009C46E0445623E25A013A92B2E252562361
:103C7C00E35A9BB2002B12D000963B00002280210D
:103C8C002000FFF76BFF002824D1002DE1D02A780B
:103C9C0023689A620135E5E7A8460025E7E7009618
:103CAC003B00002240212000FFF758FF002813D1D1
:103CBC0080232022E250043B0022E25400E0022048
:103CCC0002B004BC9046F0BD0120F9E70120F7E7F3
:103CDC000220F5E70320F3E70320F1E730B583B0CA
:103CEC00040088230022C250FEF74EF8050023681A
:103CFC001B681B070ED423681B685B0717D4202393
:103D0C008022A3500432A3505C330022E2540020E2
:103D1C0003B030BD80210C4B0093030000228903BB
:103D2C002000FFF71BFF0028E5D00320F0E78021DF
:103D3C00054B00932B000022C9032000FFF70EFF58
:103D4C000028DCD00320E3E7FFFFFF0110B5041EC1
:103D5C0030D08023C358002B22D080232422E25061
:103D6C002268136801218B4313602000FFF79CF835
:103D7C00012814D0A36A002B18D1226853680E496D
:103D8C000B405360226893682A218B43936022680E
:103D9C00136829390B4313602000FFF79FFF10BDF8
:103DAC007C330022C254FEF785F8D6E72000FFF7DB
:103DBC0065FEE2E70120F2E7FFB7FFFF70B584B0C4
:103DCC00040002AA154B03CB03C26A46144B03CB67
:103DDC0003C2636E002B06D101336A22A352023A4E
:103DEC00A35204B070BD226895686D0E07231D4068
:103DFC009268520F134002AEF05CC0006A46D15C70
:103E0C00FCF718FA6A23E052705DC0006B46595DEE
:103E1C00FCF710FA6823E052E3E7C046A459000807
:103E2C00785C0008704770477047000070B57C23C1
:103E3C00C35C012B15D07C24012606558025242338
:103E4C004351026813681168B1431160064A13406C
:103E5C000022426601680B6020234351025500206A
:103E6C0070BD0220FCE7C046FFFFFFDFF8B5040081
:103E7C000B007C22825C012A1BD07C250120605522
:103E8C0080262422A2512268176811688143116090
:103E9C0022689168C900C908194391602000FFF796
:103EAC008DFF23681F602023A3510023635500203E
:103EBC00F8BD0220FCE70000F8B504000B007C22E2
:103ECC00825C012A1BD07C2501206055802624228F
:103EDC00A2512268176811688143116022689168A9
:103EEC0008480140194391602000FFF767FF2368E1
:103EFC001F602023A351002363550020F8BD02202E
:103F0C00FCE7C046FFFFFFF110B51248124B0360EF
:103F1C0082235B00436000238360E022D200C260F6
:103F2C00022202614361FF32FF328261D13AFF3AD1
:103F3C00C261036243628362293AC262036308333B
:103F4C00436300F047FC002800D110BDFCF79CFB3C
:103F5C00FBE7C046C80200200030014010B51148F4
:103F6C00114B036082235B00436000238360E022DB
:103F7C00D200C26003614361802292008261D13A17
:103F8C00FF3AC261036243628362293AC2620363ED
:103F9C000833436300F01EFC002800D110BDFCF771
:103FAC0073FBFBE7640200200038004070B58AB058
:103FBC0004001422002105A801F0A6F823682D4A5C
:103FCC00934204D02C4A93421FD00AB070BD2B4BA5
:103FDC00196C80204001014319641A6C0240019253
:103FEC00019A596B0222114359635B6B1340029384
:103FFC00029B382305930692002307930893099399
:10400C0005A91F48FCF746FDDFE71C4BD96B802048
:10401C00C0010143D963DA6B02400392039A5A6BD5
:10402C0002252A435A635B6B2B400493049B402369
:10403C00059306950024079408943C3B0993104E75
:10404C0005A93000FCF726FDC0235B0005930695FF
:10405C0007940894803BFF3B099305A93000FCF7BB
:10406C0019FD002200211A20FDF7DAFD1A20FDF7B8
:10407C0007FEAAE700300140003800400010024063
:10408C000004005010B503680F4A934203D00F4A46
:10409C0093420AD010BD0E4A136C0E490B401364A8
:1040AC0038210D48FCF7C0FDF4E7094AD36B0B49E6
:1040BC000B40D363E02149000748FCF7B5FD1A20FB
:1040CC00FDF7EAFDE6E7C04600300140003800404D
:1040DC0000100240FFEFFFFF00040050FFBFFFFF86
:1040EC0000B587B0002205920E49486B0223184395
:1040FC004863496B0B400093009B402301930A4B90
:10410C0002930392049201A90848FCF7C3FC052210
:10411C0005210720FDF784FD0720FDF7B1FD07B051
:10412C0000BDC046001002400000211000040050E9
:10413C0010B540210348FCF777FD0720FDF7ACFDD7
:10414C0010BDC0460004005000B585B003A908702E
:10415C00074B1B786A46137201235B4200930233B0
:10416C0002AA044800F092FC6B46187A05B000BD18
:10417C00805C00086402002000B585B0030A6A4622
:10418C001373507300231381013B0093033302AA72
:10419C0003A9034800F07AFC6B46187A05B000BD01
:1041AC006402002010B582B001AC002323800133DF
:1041BC005B4202222100044800F0D0FD23781B0250
:1041CC006078184302B010BD6402002010B582B0B4
:1041DC0001AC0A4B1B8823800023A37001335B4284
:1041EC0003222100064800F0B9FD20780004637812
:1041FC001B021843A378184302B010BDAC59000839
:10420C006402002000B583B0074B1B786A4613711B
:10421C0001235B42012201A9044800F09FFD6B467B
:10422C00187903B000BDC046805C00086402002011
:10423C0010B508430400FFF787FF200010BD0000F5
:10424C0070B5FFF775FF0120FDF7A4FD0E4D28009A
:10425C00FFF7ACFE0120FDF79DFD07214020FFF785
:10426C00E7FFFFF79FFF04000120FDF793FD2800F7
:10427C00FFF708FF0120FDF78DFDFFF731FF01204F
:10428C00FDF788FD200070BD6402002070B5FFF7BB
:10429C004FFF0120FDF77EFD2E48FFF787FE012022
:1042AC00FDF778FD2C4B1B7A102B26D000214020DB
:1042BC00FFF7BEFFFFF7A6FF0F230340264D2B721F
:1042CC0004214020FFF7B4FF2C7AFFF77FFF023464
:1042DC00A4002C1960602B7A072B21D00120FDF74C
:1042EC0059FD1C48FFF7CEFE0120FDF753FDFFF7EB
:1042FC00F7FE0120FDF74EFD70BDA024E405002261
:10430C0080212000FCF712FD0120FDF743FD012266
:10431C0080212000FCF70AFD0F4B00221A72DDE70A
:10432C000D4C0E4A0023A06A0021FCF78FF80C4AB2
:10433C000023FCF76BF80B4A0023FCF787F8842268
:10434C0052000023FCF762F8074B9C466044606007
:10435C00C4E7C046640200208C00002040771B009C
:10436C00FFFFFF005C440000889103FC10B50024A3
:10437C000F2C0EDC21001031C9B20020FFF758FFC2
:10438C0060010D4B9C46604480B2FFF7F5FE013492
:10439C00EEE720210020FFF74BFFF0200001FFF794
:1043AC00EBFE28210020FFF743FF1220FFF7E4FE6D
:1043BC00024B10221A7210BD168000008C000020D7
:1043CC0010B586B000230593C02252000192803AAA
:1043DC00FF3A0292039304930D4C01A92000FCF7C1
:1043EC0059FB012280212000FCF7A0FC0024C72CE3
:1043FC0009DC802149000648FCF79EFC0120FDF7F2
:10440C00C9FC0134F3E70348FFF7D0FD06B010BD3B
:10441C00000400506402002000B583B0030C01A915
:10442C000B70030A4B70887001235B420322024815
:10443C0000F036FA03B000BDC802002010B5802190
:10444C00A02001220902C005FCF770FC0122012109
:10445C000848FCF76BFC084C002240212000FCF7BC
:10446C0065FC0A20FDF796FC012240212000FCF798
:10447C005DFC10BD000400500008005070B5040035
:10448C0080263602A025ED05002231002800FCF71D
:10449C004DFC2000FFF7C0FF012231002800FCF783
:1044AC0045FC0120FDF776FC074C00220121200081
:1044BC00FCF73CFC0120FDF76DFC012201212000E2
:1044CC00FCF734FC70BDC0460004005030B59BB006
:1044DC00002480235B029C4242DA80235B03E018B9
:1044EC00FFF7CCFF88235B03E018FFF7C7FF90238F
:1044FC005B03E018FFF7C2FF98235B03E018FFF79C
:10450C00BDFFA0235B03E018FFF7B8FFA8235B03F4
:10451C00E018FFF7B3FFB0235B03E018FFF7AEFF23
:10452C00B8235B03E018FFF7A9FF00230193602277
:10453C00002102A800F0E8FD22000A4901A800F0C1
:10454C00EBFDFA25AD002B00072201A90648FFF769
:10455C003FFB2800FDF71EFC044B9C466444B8E767
:10456C001BB030BD845A0008D80100203333000042
:10457C00F0B5C64600B507000D0090461E003B681E
:10458C009C682C40641B63425C4144453BD0731CCB
:10459C00F5D0FDF7F9FB069BC01AB04201D2002EF4
:1045AC00EDD13A685368E0218B43536082235B0062
:1045BC007A689A420CD080239B01BA6A9A4216D030
:1045CC005D230122FA54013B0022FA5403201BE024
:1045DC00BB6880221202934203D08022D200934205
:1045EC00E9D13A68136840218B431360E3E73A68DA
:1045FC00136807490B4013603A68116880239B01CC
:10460C000B431360DCE7002004BC9046F0BDC046B1
:10461C00FFDFFFFFF8B5CE46474680B581460E005A
:10462C001700984602E0434601330DD14B461D68F6
:10463C00AC683440BC424AD0C021C9008E42F2D191
:10464C00002FF0D12B7BEEE7FDF79EFB089BC01AE9
:10465C00404502D24346002BE8D14B461A685368BA
:10466C00E0218B43536082235B004A4652689A4296
:10467C000ED080239B014A46926A9A4219D05D2340
:10468C0001224946CA54013B0022CA5403201FE0B0
:10469C004B469B6880221202934203D08022D200A8
:1046AC009342E6D14B461A68136840218B43136042
:1046BC00DFE74B461A68136807490B4013604B46FB
:1046CC001A68116880239B010B431360D7E7002005
:1046DC000CBC90469946F8BDFFDFFFFF70B582B069
:1046EC0004000D001600C02100922B00002249018D
:1046FC00FFF790FF002818D100962B000022802194
:10470C002000FFF735FF002816D1C02100962B00A2
:10471C000022C9002000FFF77DFF00280AD0236E7D
:10472C00202213432366032004E0236E202213432C
:10473C002366032002B070BD236E20221343236630
:10474C000320F7E770B582B004000D001600822339
:10475C005B0042689A420FD000962B000022802109
:10476C002000FFF705FF002815D182235B0062684B
:10477C009A4216D002B070BD836880221202934216
:10478C0003D08022D2009342E6D1226813684021E4
:10479C008B431360E0E7236E202213432366032030
:1047AC00E8E7A36880221202934203D08022D20051
:1047BC009342DFD1C02100962B000022C9002000BB
:1047CC00FFF728FF0028D5D0236E20221343236641
:1047DC000320CFE710B5041E5ED0002383625D3347
:1047EC00C35C002B4CD05D230222E2542268136878
:1047FC0040218B431360E368E022D200934245D9F9
:10480C000022F02109018B4205D0E021C9008B4226
:10481C0001D00021A162216B002905D1E021C90042
:10482C008B4236D9022323636368A1680B43216949
:10483C000B4361690B4380218900A06901400B4344
:10484C00E1690B43216A0B432168A06A03430B60A7
:10485C00618B04230B40616A0B43616B0B43E16872
:10486C000B43216813434B602268D3690B490B40FF
:10487C00D361002323665D330122E254002010BD76
:10488C005C330022C254FFF791FBACE7802252014B
:10489C00B7E701232363C7E70120F0E7FFF7FFFF2A
:1048AC00F0B5CE4600B584B00400019191461D00D0
:1048BC005C23C35C012B00D1E5E05C230122C254D4
:1048CC00FDF762FA06005D23E35CDFB2012B00D03A
:1048DC00C5E00199002900D1C2E04B46002B00D164
:1048EC00BEE05D230322E25400232366A1634A4603
:1048FC00A287E28723644422A3520232A352236587
:10490C00E36480231B02A2689A421ED023681A68B3
:10491C00520603D41A6840210A431A60E023DB00D4
:10492C00E2689A4236D96368002B02D04B46012BC1
:10493C001DD12368A26B1288DA60A36B0233A363C8
:10494C00E38F013B9BB2E38711E02268116880235F
:10495C00DB010B431360D9E7FDF716FA801BA84265
:10496C0002D36B1C00D086E0002D00D185E0E28FD5
:10497C0092B2002A5BD023689A689207ECD5A26B9E
:10498C001288DA60A36B0233A363E38F013B9BB203
:10499C00E387ECE76368002B02D04B46012B2FD149
:1049AC00E38F9BB2012B0BD92368A26B1288DA60C0
:1049BC00A36B0233A363E38F023B9BB2E3871FE03D
:1049CC00A36B1B7822681373A36B0133A363E38F70
:1049DC00013B9BB2E38713E0A36B1B781373A36BB0
:1049EC000133A363E38F013B9BB2E38708E0FDF740
:1049FC00CBF9801BA84201D36B1C40D1002D40D0B9
:104A0C00E28F92B2002A12D0226893689B07EED5EF
:104A1C00E38F9BB2012BDFD9A36B1B88D360A36BF5
:104A2C000233A363E38F023B9BB2E387E8E73200D8
:104A3C0029002000FFF752FE002801D02023236616
:104A4C00A368002B06D103932368DA6803929B6852
:104A5C000393039B236E002B02D1002700E0022757
:104A6C005D230122E254013B0022E254380004B0E1
:104A7C0004BC9146F0BD0327F2E70327F0E70327B8
:104A8C00EEE70327ECE70227F0E70000F0B583B070
:104A9C000400009101921E00089D5C23C35C012B55
:104AAC0000D157E15C230122C254FDF76DF90700D8
:104ABC005D23E35CD9B26268012B0BD082235B00CF
:104ACC009A4200D02DE1A368002B00D032E10429DA
:104ADC0000D031E1009B002B00D12FE1019B002B7A
:104AEC0000D12DE1002E00D12CE15D23E35C042BE1
:104AFC0002D05D230522E25400232366019A22642E
:104B0C004622A652023AA652009AA263E687A687CC
:104B1C00E3642365E023DB00E2689A4201D8012EAE
:104B2C0023D9226853688C490B40536023681A6858
:104B3C00520603D41A6840210A431A60E023DB00B2
:104B4C00E2689A4255D96368002B01D0012E0AD134
:104B5C002368A26B1288DA60A36B0233A363E38F22
:104B6C00013B9BB2E387012623E022685168802336
:104B7C005B010B435360D9E723689A68D20710D5C1
:104B8C004622A25A92B2002A0BD0DB68226C138008
:104B9C00236C023323644622A35A013B9BB2A352DB
:104BAC000126FDF7F1F8C01BA84202D36B1C00D004
:104BBC00CAE0E38F9BB2002B05D14633E35A9BB27C
:104BCC00002B00D1A2E023689A689207D4D5E28F1B
:104BDC0092B2002AD0D0012ECED1A26B1288DA600C
:104BEC00A36B0233A363E38F013B9BB2E3870026E5
:104BFC00C2E76368002B01D0012E0ED1E38F9BB26C
:104C0C00012B0CD92368A26B1288DA60A36B0233D8
:104C1C00A363E38F023B9BB2E387012644E0A36BC3
:104C2C001B7822681373A36B0133A363E38F013BDF
:104C3C009BB2E387F1E7E28F92B2012A0BD9A26B08
:104C4C001288DA60A36B0233A363E38F023B9BB23F
:104C5C00E38700263BE0A26B12781A73A36B013337
:104C6C00A363E38F013B9BB2E38700262FE022680E
:104C7C00516880235B010B43536001260BE01B7BC7
:104C8C00226C1370236C013323644622A35A013B1C
:104C9C009BB2A3520126FDF777F8C01BA84201D3A3
:104CAC006B1C53D1002D53D0E38F9BB2002B04D13E
:104CBC004633E35A9BB2002B28D023689A6892079C
:104CCC0005D5E28F92B2002A01D0012EB3D0236811
:104CDC009A68D207DFD54622A25A92B2002ADAD0BD
:104CEC004622A25A92B2012AC9D9DB68226C1380DF
:104CFC00236C023323644622A35A023B9BB2A35279
:104D0C00A35A9BB2012BB2D90126C4E73A00290061
:104D1C002000FFF7E3FC002804D0202323660120A9
:104D2C0000E002205D230122E254013B0022E25408
:104D3C0003B0F0BD0220F5E70220F3E70120F1E714
:104D4C000120EFE70120EDE70320EBE70320E9E783
:104D5C000320E7E70220EBE7FFEFFFFFF0B5CE46BD
:104D6C0000B584B00400039191461D0082235B00C2
:104D7C0042689A4245D05C23E35C012B00D1B8E039
:104D8C005C230122E254FCF7FFFF07005D23E35C88
:104D9C00DEB2012B00D098E00399002900D195E0F8
:104DAC004B46002B00D191E05D230422E2540023FA
:104DBC002366216440324946A1520232A152A363B8
:104DCC00A387E387E3642365E023DB00E2689A4270
:104DDC0024D92268536848490B40536080231B0236
:104DEC00A2689A4221D023681A68520603D41A6822
:104DFC0040210A431A60E023DB00E2689A4223D97F
:104E0C0040E08368002BB6D15D330422C254009578
:104E1C004B460A00FFF73AFE06005DE02268516837
:104E2C0080235B010B435360D8E722681368334936
:104E3C000B401360D7E7FCF7A7FFC01BA84201D3B8
:104E4C006B1C4ED1002D4ED04623E25A92B2002A52
:104E5C002DD023689A68D207EDD51B7B226C13707A
:104E6C00236C013323644622A35A013B9BB2A35209
:104E7C00EAE7FCF789FFC01BA84201D36B1C34D1B5
:104E8C00002D34D04623E25A92B2002A0FD0236868
:104E9C009A68D207EDD5DB68226C1380236C023341
:104EAC0023644622A35A013B9BB2A352EAE73A0081
:104EBC0029002000FFF746FC002801D020232366A0
:104ECC00236E002B02D1002600E002265D23012276
:104EDC00E254013B0022E254300004B004BC914681
:104EEC00F0BD0326F2E70326F0E70326EEE70326E0
:104EFC00ECE70226F0E7C046FFEFFFFFFFBFFFFF26
:104F0C0070470000F0B585B00400026855689368DE
:104F1C009909012006000E40084203D1D90701D59A
:104F2C0069066AD4990701D529066AD45909012062
:104F3C0007000F40084203D1002E01D1D90563D5DB
:104F4C00A90661D5002E0ED05D21615C03295DD0D0
:104F5C00216E04200143216600210091D16800914B
:104F6C00916800910099002F0CD0216E0120014313
:104F7C002166002102919168029111683F308143B2
:104F8C001160029ADB0509D5236E082213432366B0
:104F9C000023039323689B680393039B236E002BCE
:104FAC0032D022685368E0218B4353605D23012289
:104FBC00E254AB0732D022685368DD398B4353601F
:104FCC00A36D002B0AD0174A9A63A06DFCF754FD11
:104FDC00002803D0236E402213432366636D002BFD
:104FEC0012D0104A9A63606DFCF746FD00280BD076
:104FFC00236E40221343236606E0E36C200098479F
:10500C0002E0236D2000984705B0F0BD002301930A
:10501C00D368019393680193019BF5E72000FFF798
:10502C006FFFF1E73550000810B5806A0023462267
:10503C008352C387FFF764FF10BD000000B583B037
:10504C00094A916B012319439163926B13400193AD
:10505C00019B002200210920FCF7E2FD0920FCF74E
:10506C000FFE03B000BDC046001002400D4885463F
:10507C00002103E00C4B5B58435004310B480C4BA4
:10508C0042189A42F6D30B4A02E000231360043212
:10509C00094B9A42F9D3FCF78FFE00F011F8FBF79D
:1050AC0063FBFEE700900020C45C000800000020B9
:1050BC0070000020700000203C030020FEE7000080
:1050CC0070B500260C4D0D4C641BA410A64209D1E2
:1050DC00002600F055FC0A4D0A4C641BA410A64295
:1050EC0005D170BDB300EB5898470136EEE7B3001D
:1050FC00EB5898470136F2E7BC5C0008BC5C000832
:10510C00BC5C0008C05C000803008218934200D10C
:10511C00704719700133F9E70EB400B50B499CB018
:10512C001DAB02900690079104910948094904CBE4
:10513C000591006802A9019300F070F80023029A0F
:10514C0013701CB008BC03B01847C046FFFFFF7FAC
:10515C000C0000200802FFFFF0B58E6885B0070038
:10516C000C00039201939E423CD890238A89DB0069
:10517C001A4234D00325096923685B1A02936369C8
:10518C0002985D43EB0F5D19019B6D1001331B18E9
:10519C00AB4200D91D00530532D52900380000F070
:1051AC0031FB061E09D10C233B6040230120A28950
:1051BC0040421343A38105B0F0BD029A216900F06F
:1051CC00BAFAA389144A1A4080231343A381029B81
:1051DC002661F61826606561019EED1AA560019B9B
:1051EC009E4200D9019E32000399206800F0ACFA6F
:1051FC00A36800209B1BA36023689E192660DAE736
:10520C002A00380000F05CFB061EE0D13800216952
:10521C0000F0AEFAC7E7C0467FFBFFFFF0B5A1B0C8
:10522C0003901D008B890F0016001B0611D50B690E
:10523C00002B0ED1402100F0E5FA386038610028CF
:10524C0005D10C23039A0138136021B0F0BD402323
:10525C007B61002308AC6361203363761033A37643
:10526C00079535002B78002B01D0252B47D1AB1B94
:10527C000593B5420CD0320039000398FFF76CFF50
:10528C00431C00D1AEE06269059B944663446361A4
:10529C002B78002B00D1A5E0012200235242626042
:1052AC0004A9543252186E1C2360E360A36013707F
:1052BC00A36505223178544800F032FA751C002899
:1052CC001FD12268D30604D5532304A95B182021CF
:1052DC001970130704D5532304A95B182B211970DB
:1052EC0033782A2B16D0350000210A20E3682A785F
:1052FC006E1C303A092A4ED9002911D117E001351C
:10530C00B0E7414B2268C01A0123834013432E009F
:10531C002360CEE7079B191D1B680791002B01DB4F
:10532C000B9304E05B42E3600223134323602B786E
:10533C002E2B0AD16B782A2B35D1079B02351A1DDF
:10534C001B680792002B2BDB0993304E0322300095
:10535C00297800F0E5F9002806D04023801B834013
:10536C0022680135134323602978062228486E1CD5
:10537C00217600F0D5F900283CD0264B002B25D106
:10538C000722079B07339343083307936369049AF7
:10539C009B18636165E74343350001219B18A6E721
:1053AC0001235B42D0E700230A201A000135636019
:1053BC0029786E1C3039092903D9002BC5D00992E4
:1053CC00C3E74243350001235218F1E707AB0093C2
:1053DC003A002100104B039800E000BF0490049B9E
:1053EC000133D3D1BB890D985B0600D42DE7012086
:1053FC0040422AE707AB00933A002100064B039882
:10540C0000F07CF8EAE7C046815C0008875C000885
:10541C008B5C00080000000065510008F7B5150012
:10542C0001938A680B690C000090934200DA130018
:10543C0022002B6043321278002A01D001332B60FA
:10544C0023689B0602D52B6802332B602268062347
:10545C0017001F401A4227D0230043331B785A1ED3
:10546C0093412268920630D4220001990098089E3C
:10547C004332B047431C25D0062320682A68E168D4
:10548C0000250340042B03D18D1AEB43DB171D4081
:10549C00A3682269934201DD9B1AED180027BD42D7
:1054AC0020D1002010E00137E3682A689B1ABB4228
:1054BC00D2DD2200012301990098089E1932B047D1
:1054CC00431CF0D101204042FEBD3020E118433195
:1054DC00087021005A1C45310978A2184332023356
:1054EC001170C1E72200012301990098089E1A321D
:1054FC00B047431CE6D00137D1E70000F0B58BB0C4
:10550C0006920A0043320793059004920A7E0C001F
:10551C00109B782A06D8622A08D8002A00D1C0E04D
:10552C00582A52D026004236327022E010006338DE
:10553C001528F7D8FAF7EAFD16001F00F6FFF6FF5C
:10554C00F6FFF6FF1F00F6FFF6FFF6FFF6FFA800CA
:10555C0036009A00F6FFF6FFB900F6FF3600F6FFAC
:10556C00F6FF9E0026001A684236111D196013685A
:10557C0033700123A7E0086819680A1D05060BD5CE
:10558C000D681A60002D03DA2D23049A6D421370F6
:10559C00614B0A27039332E00D681A604106F1D57E
:1055AC002DB2EFE70D681968081D18602E0601D59D
:1055BC000D6803E06D06FBD50D68ADB2564B0A279E
:1055CC0003936F2A17D1082715E045310A70524A08
:1055DC0003921A68216820CA1A60080650D5CB07B6
:1055EC0002D52023194321601027002D03D120233D
:1055FC0022689A4322602300002243331A706368A6
:10560C00A360002B03DB0422216891432160002D51
:10561C0002D1049E002B0CD0049E28003900FAF70E
:10562C0005FE039B013E5B5C33702B0005009F4223
:10563C00F3D9082F09D12368DB0706D563682269E3
:10564C00934202DC3023013E3370049B9B1B23618D
:10565C00079B210000930598069B09AAFFF7DEFE25
:10566C00431C35D1012040420BB0F0BD202209680B
:10567C000A4322602200782145321170274AA7E79D
:10568C004806ACD5ADB2AAE71A680D68101D496979
:10569C00186013682E0601D5196002E06D06FBD563
:1056AC0019800023049E2361D2E71A68111D19602A
:1056BC00166800213000626800F032F8002801D032
:1056CC00801B6060636823610023049A1370BFE73A
:1056DC002369320006990598079DA847431CC1D041
:1056EC0023689B0715D4099BE0689842BCDA180024
:1056FC00BAE72200012306990598079E1932B04794
:10570C00431CAFD00135E368099A9B1AAB42F0DC1D
:10571C00E9E70025F7E7C046925C0008A35C0008A7
:10572C00C9B28218904201D10020704703788B4295
:10573C00FBD00130F6E7002310B59A4200D110BD22
:10574C00CC5CC4540133F8E710B5884202D98B18ED
:10575C00984203D3002307E08B5C8354013AFBD2BD
:10576C0010BDCC5CC45401339A42FAD1F8E7000066
:10577C0070B50500002910D00C1F2368002B00DA2F
:10578C00E418280000F0D4F81D4A1368002B05D14A
:10579C0063601460280000F0D3F870BDA34208D9F0
:1057AC00216860188342F3D118685B684118216046
:1057BC00EEE71A005B68002B01D0A342F9D91168FF
:1057CC005018A0420BD12068091850181160834260
:1057DC00E0D118685B68411811605360DAE7A042A9
:1057EC0002D90C232B60D5E721686018834203D1C2
:1057FC0018685B684118216063605460CAE7C04652
:10580C0034010020F8B50323CD1C9D430835060058
:10581C000C2D1FD20C25A9421ED8300000F088F8A0
:10582C0025490A681400002C1AD1244F3B68002B20
:10583C0004D12100300000F069F8386029003000F4
:10584C0000F064F8431C2BD10C233000336000F0C3
:10585C0077F803E0002DDEDA0C2333600020F8BD6E
:10586C0023685B1B19D40B2B03D92360E418256028
:10587C0003E06368A2420ED10B60300000F060F8C8
:10588C00200007220B30231D9043C21A9842E6D009
:10589C001B1AA350E3E75360EFE722006468C2E7EA
:1058AC000323C41C9C43A042E1D0211A300000F019
:1058BC002DF8431CDBD1C7E7340100203801002050
:1058CC00F8B507000D001600002905D11100FFF7EF
:1058DC0099FF04002000F8BD002A03D1FFF748FF10
:1058EC003400F7E700F034F82C00B042F2D231006B
:1058FC003800FFF787FF041EECD029003200FFF7B9
:10590C001AFF29003800FFF733FFE3E7002370B5D7
:10591C00064D040008002B6000F024F8431C03D152
:10592C002B68002B00D0236070BDC0462C030020D8
:10593C0010B5024800F014F810BDC0463403002026
:10594C0010B5024800F00DF810BDC046340300201D
:10595C000B1F1B68181F002B01DA0B58C01870475F
:10596C0070477047044A03001068002802D0C3181F
:10597C00136070470148FAE73C0100204003002007
:10598C00F8B5C046F8BC08BC9E467047F8B5C04692
:08599C00F8BC08BC9E467047F0
:1059A4000101010307010000000000000D3C3C3C24
:1059B4003C3C3C3C3C3C3C52455345543E3E3E3EC4
:1059C4003E3E3E3E0A0000000000000000000000D1
:1059D40000000000000000000000000000000000C3
:1059E40000000000000000000100000002000000B0
:1059F400030000000400000006000000070000008F
:105A04000800000009000000000000000000000081
:105A1400000000000000000001000000020000007F
:105A2400030000000400000025635B3130304400B3
:105A340025635B324B0000004144432052455345EB
:105A4400540A00004144432044454255473A0A0A57
:105A540000000000094144435F5354415455535FCF
:105A64005245473A09093078253032780A00000057
:105A7400094144435F4D4F44455F5245473A090944
:105A84003078253034780A00094144435F494E5444
:105A94004552464143455F5245473A0930782530DF
:105AA40034780A00094144435F434845434B5F52FD
:105AB40045473A09093078253036780A0000000055
:105AC400094144435F444154415F5245473A0909FF
