:020000040800F2
:1000000000900020A5720008AD0C0008AF0C00089D
:1000100000000000000000000000000000000000E0
:10002000000000000000000000000000B10C00080B
:100030000000000000000000B30C0008B50C000830
:10004000F5720008F5720008F5720008BD0C000892
:10005000C50C0008F5720008F5720008F57200087A
:10006000F5720008C90C0008F5720008F572000866
:10007000F5720008F5720008F5720008F5720008C4
:10008000F5720008D90C0008F5720008F572000836
:10009000F5720008F5720008F5720008F5720008A4
:1000A000F5720008F5720008490D0008F5720008A5
:0C00B000590D0008F5720008F5720008F8
:1000BC0010B5064C2378002B07D1054B002B02D032
:1000CC00044800E000BF0123237010BD7000002025
:1000DC0000000000B87B0008044B10B5002B03D0C7
:1000EC000349044800E000BF10BDC04600000000FA
:1000FC0074000020B87B000802780B78002A03D02B
:10010C00013001319A42F7D0D01A704703B47146CE
:10011C00490840004900095E49008E4403BC704701
:10012C00002243088B4274D303098B425FD3030A2A
:10013C008B4244D3030B8B4228D3030C8B420DD33D
:10014C00FF22090212BA030C8B4202D312120902CB
:10015C0065D0030B8B4219D300E0090AC30B8B4209
:10016C0001D3CB03C01A5241830B8B4201D38B03B7
:10017C00C01A5241430B8B4201D34B03C01A52415C
:10018C00030B8B4201D30B03C01A5241C30A8B429F
:10019C0001D3CB02C01A5241830A8B4201D38B028A
:1001AC00C01A5241430A8B4201D34B02C01A52412E
:1001BC00030A8B4201D30B02C01A5241CDD2C309A0
:1001CC008B4201D3CB01C01A524183098B4201D31C
:1001DC008B01C01A524143098B4201D34B01C01A07
:1001EC00524103098B4201D30B01C01A5241C3087F
:1001FC008B4201D3CB00C01A524183088B4201D3EE
:10020C008B00C01A524143088B4201D34B00C01AD9
:10021C005241411A00D20146524110467047FFE745
:10022C0001B5002000F0F0F802BDC0460029F7D05F
:10023C0076E7704703460B437FD4002243088B427A
:10024C0074D303098B425FD3030A8B4244D3030B51
:10025C008B4228D3030C8B420DD3FF22090212BA16
:10026C00030C8B4202D31212090265D0030B8B4292
:10027C0019D300E0090AC30B8B4201D3CB03C01A7C
:10028C005241830B8B4201D38B03C01A5241430B57
:10029C008B4201D34B03C01A5241030B8B4201D347
:1002AC000B03C01A5241C30A8B4201D3CB02C01AB2
:1002BC005241830A8B4201D38B02C01A5241430A2A
:1002CC008B4201D34B02C01A5241030A8B4201D319
:1002DC000B02C01A5241CDD2C3098B4201D3CB01C0
:1002EC00C01A524183098B4201D38B01C01A52416F
:1002FC0043098B4201D34B01C01A524103098B4273
:10030C0001D30B01C01A5241C3088B4201D3CB005D
:10031C00C01A524183088B4201D38B00C01A524140
:10032C0043088B4201D34B00C01A5241411A00D2F0
:10033C0001465241104670475DE0CA0F00D0494259
:10034C00031000D34042534000229C4603098B42C9
:10035C002DD3030A8B4212D3FC22890112BA030A51
:10036C008B420CD3890192118B4208D389019211D3
:10037C008B4204D389013AD0921100E08909C30958
:10038C008B4201D3CB01C01A524183098B4201D35A
:10039C008B01C01A524143098B4201D34B01C01A45
:1003AC00524103098B4201D30B01C01A5241C308BD
:1003BC008B4201D3CB00C01A524183088B4201D32C
:1003CC008B00C01A5241D9D243088B4201D34B0047
:1003DC00C01A5241411A00D20146634652415B1089
:1003EC00104601D34042002B00D54942704763466A
:1003FC005B1000D3404201B5002000F005F802BDAF
:10040C000029F8D016E770477047C046002B15D16D
:10041C00002A13D1002906DB01DC002806D00020BD
:10042C00C043410802E080210906002007B40248BD
:10043C0001A14018029003BDD1FFFFFF03B4684631
:10044C0001B5029800F01AF9019B9E4602B00CBC53
:10045C007047C046002B11D1002A0FD1002900D1C2
:10046C00002802D00021C943081C07B4024802A18D
:10047C004018029003BDC04691FFFFFF03B46846CD
:10048C0001B5029800F02EF8019B9E4602B00CBC00
:10049C007047C046F0B515042D0C0F0001002E005E
:1004AC00C64684460004140C000C090C46434D430C
:1004BC00604361434019340C241800B5A54203D99C
:1004CC008020400280464144250C6D1861465943FA
:1004DC007A43300449192404000C2018891804BCF0
:1004EC009046F0BDF0B557464E464546DE46E0B563
:1004FC0004000D009246994683B08B4230D82DD023
:10050C004946504600F0D8F829000600200000F0BB
:10051C00D3F8331A9846203B9B4633D45A4653465D
:10052C00934042461F00534693401E00AF423AD8B8
:10053C00AF4200D178E05B46A41BBD41002B00DA32
:10054C0075E0002200230092019301235A46934048
:10055C000193012342469340009328E08242CFD975
:10056C0000220023009201930C9B002B01D01C60F5
:10057C005D600098019903B03CBC90469946A24638
:10058C00AB46F0BD424620239B1A5246DA40414608
:10059C0013004A468A40170042461F435346934075
:1005AC001E00AF42C4D9002200230092019343469F
:1005BC00002BD9D0FB0772081A4346467B080EE085
:1005CC00AB4201D1A2420CD8A41A9D41012024199E
:1005DC006D410021013E24184D41002E06D0AB4246
:1005EC00EED9013E24196D41002EF8D100980199E5
:1005FC005B4600196941002B24DB2B005A4644460C
:10060C00D3402A00E2401C005B461500002B2ADB7D
:10061C0026009E40330026004746BE403200801A1A
:10062C009941009001919FE7A342BCD883E74246D1
:10063C00202300219B1A0022009101920122DA4012
:10064C00019286E7424620239B1A2A0046469A408E
:10065C002300F340444613432A00E2401C005B464F
:10066C001500002BD4DA42462F0020232600974099
:10067C009B1ADE403B003343CDE7C046F8B5CE466F
:10068C00474680B59146984604000D0000F020F8CE
:10069C0007000E0002000B0048464146FFF7FAFE29
:1006AC00241A8D41089B380031001C605D600CBC25
:1006BC0090469946F8BDC04610B5002903D100F00C
:1006CC00EDF8203002E0081C00F0E8F810BDC04640
:1006DC00F0B557464E464546DE46E0B50F001900CC
:1006EC00002306009846100083B0002F07DA330071
:1006FC003C0000275E42A74101235B42984600293B
:10070C0007DA4346DB430C009846030000215842AD
:10071C00A14134003D0082468946B9426AD867D06F
:10072C0049465046FFF7C8FF834639003000FFF7B3
:10073C00C3FF5B461B1A9C46203B9B466BD458461A
:10074C005146814060460B00514681400A00BB4235
:10075C0000D972E0BB4200D179E034003D0059462B
:10076C00A41A9D41002900DA74E000210020012622
:10077C000090019159468E400196614601268E40AB
:10078C006146009600295FD0D90756080E435F08D2
:10079C006146012200230CE0AF4201D1A6420AD8E7
:1007AC00A41BBD4124196D410139A4185D410029D8
:1007BC0006D0AF42F0D9013924196D410029F8D186
:1007CC00009801995B4600196941002B4DDB2E0006
:1007DC002C00DE406346DC405B46002B55DB3400CE
:1007EC009C4023006446A6403200801A994103E0E5
:1007FC00B04295D9002000214346002B04D00300C1
:10080C000C0000215842A14103B03CBC90469946D3
:10081C00A246AB46F0BD6246484620235146904066
:10082C009B1AD94003000091009960460B43514636
:10083C0081400A00BB4200D88CE7002100200090C8
:10084C000191614600299FD100980199D4E7B142EA
:10085C00F3D882E7614620260127761A0020002172
:10086C00F74000900191019787E7624620239B1A7D
:10087C002A009A40260013006246D6402C001E43E4
:10088C006346DC405B46002BA9DA62462023350028
:10089C0094409B1ADD4023002B43A3E71C2101232A
:1008AC001B04984201D3000C10391B0A984201D347
:1008BC00000A08391B09984201D30009043902A225
:1008CC00105C40187047C04604030202010101018C
:1008DC00000000000000000010B50024092C09DC09
:1008EC00A0200121C00500F0B7FB642002F002F843
:1008FC000134F3E7A02000220121C00500F0A6FB83
:10090C0010BD000000B5A1B03822002112A806F0DD
:10091C001AFD102200210EA806F015FD342200212C
:10092C0001A806F010FD8020800001F0F1FE0A23E2
:10093C001293F633159300231693402217923F3AE5
:10094C001892013219921A921B9308331C9380232C
:10095C009B021D9380239B041E9380239B051F9356
:10096C0012A800F0ABFF00281BD107230E93053B08
:10097C000F9300231093119302210EA801F05AFA41
:10098C00002811D10B4B0193002303938022D20238
:10099C0007920B9301A801F02DFB002807D121B081
:1009AC0000BDFFF799FFE0E7FFF796FFEAE7FFF7D7
:1009BC0093FFF4E702022000F0B59BB001F074FF46
:1009CC00FFF7A0FF00F0E2F806F08CFB01F0ACFFA3
:1009DC0001F0E8FF05F03EFB05F012FB06F0DAFB38
:1009EC005C4C200001F0BEFFFA21200004F036F828
:1009FC00594805F057FB594805F054FB01AC6022EF
:100A0C00002102A806F09FFC554B220003CB03C229
:100A1C00198811809B789370FA26B600514D3300DB
:100A2C000A222100280005F04FF96022002102A8BB
:100A3C0006F089FC4C4B220083CB83C283CB83C250
:100A4C001B881380330019222100280005F03CF983
:100A5C00464C200006F05EFB0021200000F066FEF4
:100A6C0005F002FD0D2005F0C7FC414C4022210091
:100A7C00280004F0A9F805F035FD002001F0E8FE8F
:100A8C0000220121072001F06DFE00220221092025
:100A9C0001F068FE00220221112001F063FE002209
:100AAC0002211A2001F05EFE002202211C2001F01E
:100ABC0059FE304805F036FD2F4805F033FD2F4820
:100ACC0005F030FD2E4805F02DFD05F04DFC03F032
:100ADC0093FD0C3C0A23A372093BE37200241EE035
:100AEC00284B00221A7201AD6032002102A806F0D8
:100AFC002AFC1B4B2A0003CB03C2198811809B785C
:100B0C009370FA239B000A222900164805F0DCF8A2
:100B1C0002F074F81B4A4D23D35C002B0CD1194BFB
:100B2C009B7A002BF6D0174B1B7A002BD8D1154B88
:100B3C00DB7A002BEED1D3E7013403F069FC2307F9
:100B4C00EDD1104A104BD35C002BE8D003F070FDB4
:100B5C00E5E7C04608060020280700208C07002087
:100B6C005C7C00089C060020687C0008F0070020D4
:100B7C009C000020FFFF1200FFFF1300FFFF11007D
:100B8C00FFFF100090000020D1040000F0B5D64605
:100B9C004F464646C0B58AB01422002105A806F07F
:100BAC00D2FB394B5A6B042422435A635A6B2240B2
:100BBC000192019A596B202211435963596B0A40D7
:100BCC000292029A5A6B01252A435A635A6B2A40A5
:100BDC000392039A596B0222114359635B6B1A40BF
:100BEC000492049B294B9946A026F6050022190075
:100BFC00300000F02BFA264B9A46002203211800F5
:100C0C0000F024FA234B984600224021180000F0F3
:100C1C001DFA0594032706970024079405A91E487E
:100C2C0000F0C8F84B46059306950794089405A95F
:100C3C00300000F0BFF8194B05930697079405A9EF
:100C4C00300000F0B7F840239946059306940794BA
:100C5C0005A9300000F0AEF80597069507940894A6
:100C6C0005A9504600F0A6F84B4605930695079447
:100C7C00089405A9404600F09DF80AB01CBC9046AB
:100C8C009946A246F0BDC04600100240A380000069
:100C9C000004005000080050001400501018000010
:100CAC007047FEE77047704710B501F011FE10BD9C
:100CBC0010B501F0C5FA10BD7047000010B5024820
:100CCC0001F0BEFC10BDC0464006002070B5194BAB
:100CDC00012000211C685D68001969411860596089
:100CEC0001221A72A922D2009B58002B15D0A020E9
:100CFC0001220221C00500F0A9F90E4AA923DB004C
:100D0C00D358002B0FD0A02001222021C00500F0C9
:100D1C009DF9094803F0D7FE70BDA0200221C00543
:100D2C0000F09AF9E9E7A0202021C00500F094F921
:100D3C00EFE7C046900000200806002010B50248DE
:100D4C0006F034F910BDC0462807002010B5044C3D
:100D5C00200004F04FF8200001F03CFF10BDC0460D
:100D6C009C06002000B583B0114B196C0122114375
:100D7C001964196C0A400092009ADA6B80214905BB
:100D8C000A43DA63DB6B0B400193019B00220021C9
:100D9C00032001F0E7FC032001F014FD00220021E8
:100DAC00042001F0DFFC042001F00CFD03B000BDB9
:100DBC0000100240F0B5D6464F464646C0B500235B
:100DCC003BE0032600E00026A64034003C435A4E8C
:100DDC001832920094518022B4584A46D2432600CD
:100DEC004D46AE434D68ED0302D54D462C432600CF
:100DFC00514C8027E6518426A459260016404D6894
:100E0C00AD0302D54D462C4326004B4C8427E651AE
:100E1C002468260016404D68ED0202D54D462C4341
:100E2C002600454C2660646822404D68AD0201D511
:100E3C004A462243404C626001330C682200DA407F
:100E4C0075D001229A4025001540A9461442F3D0D2
:100E5C004C68022C01D0122C0ED1DC080834A400F2
:100E6C00275807261E40B6000F25B540AF430D6925
:100E7C00B5402E003E4326500468A4465E00032471
:100E8C00A2462700B740B846FF4365464446A543F3
:100E9C00AC464C68554625402C00B44065462C4366
:100EAC0004604C68651E012D03D9112C01D0122C45
:100EBC0013D184683C40A446CC68B44065462C43AE
:100ECC0084604468944322004C682409A44601249D
:100EDC0065462C409C4014434460C26817408A68A5
:100EEC00B2403A43C2604A68D200A5D59A081400B1
:100EFC001834A400104EA75903241C40E4000F26FC
:100F0C00A640B743A026F605B04200D15BE70B4ED6
:100F1C00B04208D00A4EB04207D00A4EB04200D1BF
:100F2C004FE7052650E701264EE702264CE71CBC8E
:100F3C0090469946A246F0BD0018024000040050AD
:100F4C0000080050000C0050F0B5CE46474680B566
:100F5C008946002323E00321884601E000218846CE
:100F6C004146A140A94247D004685E000325B54024
:100F7C002C430460DC080834A400275807261E40C4
:100F8C00B6000F21B1408F4327508468AC43846076
:100F9C00446894434460C268AA43C26001334A4621
:100FAC00DA4046D001229A404C461440A4464946A9
:100FBC001142F3D09F083C001834A4001F4D655912
:100FCC0003241C40E4000F26A6403540A021C9058F
:100FDC008842C3D01A49884208D01A49884208D09E
:100FEC0019498842B7D005218846B9E701218846BE
:100FFC00B6E702218846B3E7104D802188466C582D
:10100C0061468C4341466C50043188466C586146AD
:10101C008C4341466C502C6861468C432C606C6848
:10102C008C436C603C001834A4006759B74367517B
:10103C009AE70CBC90469946F0BDC0460018024099
:10104C000004005000080050000C0050002A01D091
:10105C00816170478162FCE74369194201D081626A
:10106C0070478161FCE7000030B5036A01229343AD
:10107C000362036A42688469184D2C400D682C4346
:10108C000225AB438D682B43154DA84208D0154D56
:10109C00A84205D0144DA84202D0144DA84205D147
:1010AC000825AB43CD682B430425AB430C4DA8421C
:1010BC0008D00C4DA84205D00B4DA84202D00B4DC8
:1010CC00A84205D10A4D2A404D692A438D692A430D
:1010DC00426084614A684263036230BD8CFFFEFF4C
:1010EC00002C0140004001400044014000480140F8
:1010FC00FFFCFFFF70B5036A194A13400362036AD1
:10110C004268C469174D2C400E682643164C234088
:10111C008C6824022343154CA04219D0134CA042D6
:10112C0008D0134CA04205D0124CA04202D0124C55
:10113C00A04207D1114C14404A69120122438C6918
:10114C0025012A434260C6614A68C263036270BDCE
:10115C000B4C1C40CB681B0223430A4C2340DDE79D
:10116C00FFFEFFFF8CFFFEFFFFFDFFFF002C014089
:10117C00004001400044014000480140FFCFFFFF08
:10118C00FFF7FFFFFFFBFFFF30B5036A134A134065
:10119C000362026A4368C469114D2C400D682D022C
:1011AC002C43104D15408A6812032A430E4DA84259
:1011BC0008D00E4DA84205D00D4DA84202D00D4DC1
:1011CC00A84204D10C4D2B404D69AD012B4343601B
:1011DC00C4614B680364026230BDC046FFEFFFFF81
:1011EC00FF8CFFFEFFDFFFFF002C014000400140A1
:1011FC000044014000480140FFBFFFFF30B5036AC7
:10120C00124A13400362026A4368446D104D2C402D
:10121C000D682C430F4D15408A6812042A430E4D5D
:10122C00A84208D00D4DA84205D00D4DA84202D0C1
:10123C000C4DA84204D1054D2B404D692D022B437A
:10124C00436044654B688365026230BDFFFFFEFF5F
:10125C008FFFFEFFFFFFFDFF002C0140004001400F
:10126C00004401400048014030B5036A134A134062
:10127C000362026A4368446D114D2C400D682D02C7
:10128C002C43104D15408A6812052A430E4DA84276
:10129C0008D00E4DA84205D00D4DA84202D00D4DE0
:1012AC00A84204D10C4D2B404D69AD022B43436039
:1012BC0044654B68C365026230BDC046FFFFEFFF5B
:1012CC00FF8FFFFEFFFFDFFF002C014000400140BD
:1012DC000044014000480140FFFFFBFF30B5036AAA
:1012EC00046A0125AC4304628469EF35AC431201F6
:1012FC0022430A24A3430B438261036230BD0000E6
:10130C0030B5036A1024A34303628469036A054D54
:10131C002C4012032243A024A343090119438261E8
:10132C00016230BDFF0FFFFF8368034A13400B437C
:10133C0007210B43836070478FFFCFFF704700007E
:10134C000368214A904206D08022D205904202D0F6
:10135C001E4A904203D1702293434A6813431A4A9F
:10136C00904212D08022D20590420ED0174A904261
:10137C000BD0174A904208D0164A904205D0164A14
:10138C00904202D0154A904203D1154A1340CA68C4
:10139C001343802293434A69134303608B68C362EF
:1013AC000B688362084B984208D00A4B984205D0D0
:1013BC00094B984202D0094B984201D10B69036347
:1013CC00012343617047C046002C014000040040DB
:1013DC000020004000400140004401400048014012
:1013EC00FFFCFFFF70B5041E14D03D23C35C002B23
:1013FC000AD03D2502236355210001C9FFF7A0FF48
:10140C0001236355002070BD3C330022C25405F00B
:10141C0081FEEEE70120F6E770B5041E14D03D23E3
:10142C00C35C002B0AD03D2502236355210001C962
:10143C00FFF786FF01236355002070BD3C3300226B
:10144C00C254FFF77BFFEEE70120F6E770B5036AA5
:10145C00102293430362036A42688469174D2C403F
:10146C000D682D0225432024A3438C6824012343BB
:10147C00134CA04219D0124CA04208D0114CA042DF
:10148C0005D0114CA04202D0104CA04207D1104CF8
:10149C0014404A69920022438C69A6003243426090
:1014AC0085614A688263036270BD8024A3431C007B
:1014BC00CB681B0123434024A343DCE7FF8CFFFED6
:1014CC00002C014000400140004401400048014014
:1014DC00FFF3FFFF70B504000D003C23C35C012B30
:1014EC0000D190E03C230121C15401330131C1549E
:1014FC00142A16D89200454B9B589F462900006829
:10150C00FFF7B2FD2268936908210B4393612268AF
:10151C00936904398B4393612268936929690B435E
:10152C0093613D230122E254013B0022E25400204E
:10153C0070BD29000068FFF789FF2268916980233C
:10154C001B010B4393612268936931490B409361F2
:10155C0021688B692A69120213438B61E1E7290028
:10156C000068FFF7C7FD2268D36908210B43D361DC
:10157C002268D36904398B43D3612268D369296902
:10158C000B43D361CDE729000068FFF7FDFD22680E
:10159C00D16980231B010B43D3612268D3691C4999
:1015AC000B40D3612168CB692A6912021343CB61CA
:1015BC00B7E729000068FFF721FE2268536D082168
:1015CC000B4353652268536D04398B435365226872
:1015DC00536D29690B435365A3E729000068FFF796
:1015EC0043FE2268516D80231B010B435365226817
:1015FC00536D07490B40536521684B6D2A691202E4
:10160C0013434B658DE7022092E7C046847C0008AB
:10161C00FFFBFFFF30B58468034D2C401B021343C6
:10162C000B432343836030BDFF00FFFF10B5040064
:10163C003C23C35C012B66D03C230122C2540133F2
:10164C000132C254026893683048034093600B68BF
:10165C00602B44D024D8402B4BD00BD9502B0ED11F
:10166C00CA6849682068FFF739FE50212068FFF7E7
:10167C005BFE04E0202B0ED009D9302B0BD03D2380
:10168C000122E254013B0022E254002010BD002B49
:10169C0001D0102BF3D119002068FFF745FEEEE7BF
:1016AC00702B10D0802292019342E8D1CB684A680B
:1016BC0089682068FFF7AEFF226891688023DB0100
:1016CC000B439360DBE7CB684A6889682068FFF7B7
:1016DC00A1FF2268936877210B439360CFE7CA6818
:1016EC0049682068FFF70CFE60212068FFF71CFE9C
:1016FC00C5E7CA6849682068FFF7F0FD40212068FB
:10170C00FFF712FEBBE70220C0E7C0468800CEFF01
:10171C0010B51F23194001248C40036AA3430362B4
:10172C00036A8A401343036210BD000010B5040025
:10173C0001220068FFF7ECFF2368104A934208D09F
:10174C000F4A934205D00F4A934202D00E4A93425D
:10175C0004D1596C802212020A435A64226893689D
:10176C000A490B40062B06D007398B4203D013686D
:10177C0001210B431360002010BDC046002C01401A
:10178C0000400140004401400048014007000100B6
:10179C0030B53C23C35C012B23D03C230122C25423
:1017AC0001330132C2540268536894680E4DAA4248
:1017BC0012D07025AB430D682B438025AC43896850
:1017CC0021435360036899603D230122C254013BBD
:1017DC000022C254002030BD044D2B404D682B43D9
:1017EC00E7E70220F7E7C046002C0140FFFF0FFFA0
:1017FC0010B53C23C35C012B44D03C230122C254C2
:10180C00214BCA6813408A681343204A13404A6824
:10181C0013431F4A13400A6813431E4A13400A69B4
:10182C0013431D4A13404A6913431C4A13400A6B65
:10183C0013431B4A13408A69120413430268194C60
:10184C00A24208D0174CA2420AD053643C23002277
:10185C00C254002010BD144C2340CC692343F1E743
:10186C00124C23408C6A24052343114C23400C6AF0
:10187C002343104C23404C6A23430F4C2340C96A2A
:10188C000B43E2E70220E5E7FFFCFFFFFFFBFFFF56
:10189C00FFF7FFFFFFEFFFFFFFDFFFFFFFBFFFFFC4
:1018AC00FFFFF0FF002C0140FFFFFFEFFFFF0FFFDA
:1018BC00FFFFFFFEFFFFFFFDFFFFFFDF70B582B0F4
:1018CC00041E00D134E20368DB0739D5C14A9168A4
:1018DC0038230B40D16803220A40102B26D0082B4A
:1018EC0026D063688022520293427FD0A022D2027B
:1018FC00934200D181E0B74B1A68B7490A401A608D
:10190C001A68B6490A401A606368002B00D180E05F
:10191C0000F0EAFF0500AF4B1B689B0310D400F0EE
:10192C00E3FF401B6428F6D9032002E2032AD6D138
:10193C00A84B1B689B0303D56368002B00D1FAE10D
:10194C0023689B0731D5A34A936838210B40D16893
:10195C0003220A40102B6AD0002B6BD19D4A1268CF
:10196C00520503D5E268002A00D1E6E199484268A5
:10197C009B490A40616909020A434260002B0DD160
:10198C00036898490B4021690B4303600368DB0A29
:10199C0007221A40944BD340944A1360944B186816
:1019AC0000F056FF002800D0C9E123681B0700D4C3
:1019BC0081E0884B9A6838231340182B73D0A369A5
:1019CC00002B00D1B4E0834A136E01210B43136644
:1019DC0000F08AFF05007F4B1B6E9B076BD400F059
:1019EC0083FF401B0228F6D90320A2E1794A116833
:1019FC0080235B020B43136086E7764B19688022C9
:101A0C00D2020A431A601968802252020A431A60F1
:101A1C007AE700F069FF05006E4B1B689B038FD5BE
:101A2C0000F062FF401B6428F6D9032081E1022AF2
:101A3C0092D193E7E368002B22D0664A1368694978
:101A4C000B4021690B431360116880235B000B432F
:101A5C00136000F049FF05005E4B1B685B0506D464
:101A6C0000F042FF401B0228F6D9032061E15949DE
:101A7C004B685B4A13406269120213434B6094E754
:101A8C00544A13685B490B40136000F02DFF0500AE
:101A9C00504B1B685B0588D500F026FF401B0228C5
:101AAC00F6D9032045E14B4B1B6E9B0703D5A3696D
:101ABC00002B00D145E123685B0700D4A2E0454B25
:101ACC009A6838231340202B45D0424BDB6BDB004C
:101ADC004AD4404AD16B802040050143D163D36B7B
:101AEC0003400193019B0125434B1B68DB053DD54E
:101AFC00A368012B4ED0052B52D0364BDA6D012149
:101B0C008A43DA65DA6D03318A43DA65A368002B00
:101B1C0050D000F0E9FE06002E4BDB6D9B076FD416
:101B2C0000F0E2FE801B354B9842F5D9032000E112
:101B3C00284A136E01218B43136600F0D5FE050075
:101B4C00244B1B6E9B07B6D500F0CEFE401B022823
:101B5C00F6D90320EDE01F4BDB6D9B0752D5A36834
:101B6C00002B4FD10120E4E00025BDE7224A11688B
:101B7C0080235B000B43136000F0B6FE06001E4B87
:101B8C001B68DB05B4D400F0AFFE801B0228F6D92D
:101B9C000320CEE00F4AD36D01210B43D365B5E78B
:101BAC000C4BDA6D04210A43DA65DA6D03390A430A
:101BBC00DA65ABE700F098FE0600064BDB6D9B0781
:101BCC001ED500F091FE801B0C4B9842F5D90320DA
:101BDC00AFE0C04600100240FFFFFEFFFFFFFBFF1F
:101BEC00FF80FFFFFFC7FFFF0024F4000800002068
:101BFC0004000020FFFEFFFF0070004010270000D3
:101C0C00012D26D0E369002B00D19CE0564A916847
:101C1C0038220A40102A63D0022B20D0524B1A686B
:101C2C0052490A401A60DA6803218A43DA60DA689A
:101C3C004F490A40DA6000F057FE04004A4B1B681B
:101C4C009B014BD500F050FE001B0228F6D9032057
:101C5C006FE0454AD36B47490B40D363D2E7424A06
:101C6C00136842490B40136000F03EFE05003E4BEA
:101C7C001B689B0106D500F037FE401B0228F6D9E5
:101C8C00032056E0384AD3683B491940236A606AFE
:101C9C000343A06A00020343E06A0343206B03433F
:101CAC00606B03430B43D360116880235B040B43CD
:101CBC001360D16880235B050B43D36000F014FEE6
:101CCC000400294B1B689B0106D400F00DFE001B81
:101CDC000228F6D903202CE000202AE0002028E07E
:101CEC00012B32D0204BDA6803231340216A8B423C
:101CFC002DD170231340616A8B422AD1FE21C90178
:101D0C001140A36A1B02994225D1F8239B0313406F
:101D1C00E16A8B4221D1E0231B051340216B8B42DE
:101D2C001DD1520F5207636B9A421AD1002000E06A
:101D3C00012002B070BD0120FBE70120F9E7012072
:101D4C00F7E70120F5E70020F3E70120F1E7012098
:101D5C00EFE70120EDE70120EBE70120E9E70120A7
:101D6C00E7E70120E5E7C04600100240FFFFFFFE59
:101D7C00FFFFFEEEFFFFFFEF8C80C11110B52A4B69
:101D8C009B6838221A4207D1274B1A68D20A0723BC
:101D9C0013402648D84010BD234B9A683823134073
:101DAC00082B3BD0204B9A6838231340102B0DD0B6
:101DBC001D4B9A6838231340202B31D01A4B9A684C
:101DCC0038231340182B26D00020E4E7164AD1689C
:101DDC000D3B0B40D2681209072111400131032B36
:101DEC000FD01248FEF79CF90F4BDA68120A7F23CA
:101DFC00134058430C4BD968490F0131FEF790F949
:101E0C00C9E70B48FEF78CF9074BDA68120A7F23F7
:101E1C0013405843EEE7FA20C001BCE70448BAE788
:101E2C0080200002B7E7C046001002400024F400F6
:101E3C0000127A0070B504000D00002800D1AAE051
:101E4C00574B1A68072313408B4221D323689A07F8
:101E5C000ED55B0705D5534A9168E023DB010B4394
:101E6C009360504A936850490B40A1680B439360B0
:101E7C002368DB0754D56368012B20D0022B3BD0A1
:101E8C00002B3FD1474A126852051CD401206AE04E
:101E9C00434A136807218B432B43136000F024FD46
:101EAC0006003F4B1A6807231340AB42CED000F01C
:101EBC001BFD801B3D4A9042F3D9032053E0394A65
:101ECC001268920369D537498A6807208243134305
:101EDC008B6000F009FD0600324B9B6838221A40DB
:101EEC006368DB009A421BD000F0FEFC801B2F4B7A
:101EFC009842F1D9032036E02A4A12689201E2D4C2
:101F0C00012030E0032B05D0264AD26D9207DAD49B
:101F1C00012028E0234A126E9207D4D4012022E03B
:101F2C001F4B1A6807231340AB421DD823685B076D
:101F3C0006D51C4A93681E490B40E1680B4393601D
:101F4C00FFF71CFF174B9A68120A0F2313409B00D4
:101F5C00184A9A581F231340D840174B1860174B38
:101F6C00186800F075FC70BD0D4A136807218B438F
:101F7C002B43136000F0B8FC0600094B1A680723CA
:101F8C001340AB42D2D000F0AFFC801B074B984201
:101F9C00F3D90320E7E70120E5E70120E3E7C0469A
:101FAC000020024000100240FFF0FFFF88130000E9
:101FBC00FF8FFFFFD87C00080800002004000020E1
:101FCC00014B18687047C0460800002010B5FFF799
:101FDC00F7FF064B9A68120B072313409B00044A29
:101FEC009A581F231340D84010BDC0460010024021
:101FFC00187D0008F0B583B0040003689B0362D51C
:10200C00814BDB6BDB001ED47F4AD16B80204005FB
:10201C000143D163D36B03400193019B01267B4A9F
:10202C00116880235B000B43136000F05DFC05001E
:10203C00764B1B68DB0508D400F056FC401B0228CD
:10204C00F6D9032502E00026E9E70025002D23D16F
:10205C006D4BD96DC02292000B001340114210D071
:10206C00226B9A420DD0684AD36D69490B40D06DF2
:10207C00802149020143D165D16D66480140D1658B
:10208C00D365DB0710D4002D06D15F4AD36D6049B0
:10209C000B40216B0B43D365012E15D15A4AD36BE0
:1020AC005D490B40D3630FE000F01EFC0700564B5C
:1020BC00DB6D9B07E7D400F017FCC01B574B984215
:1020CC00F5D90325DFE700252368DB0706D54E4A43
:1020DC00536D03218B4361680B43536523689B0746
:1020EC0006D5494A536D0C218B43A1680B435365AC
:1020FC0023689B0606D5444A536D49490B40E16859
:10210C000B43536523689B0506D53F4A536D4549E0
:10211C000B40A1690B43536523685B0506D53A4A0E
:10212C00536D41490B40E1690B43536523685B06D2
:10213C0006D5354A536D3D490B4021690B43536518
:10214C0023685B040BD5304A536D9B009B08216AB6
:10215C000B4353658023DB05226A9A4239D02368EE
:10216C001B0306D5284A536D40218B43616A0B43F0
:10217C00536523689B020BD5234A536D2C490B40A6
:10218C00A16A0B4353658023DB03A26A9A4227D0D2
:10219C0023685B020BD51C4A536D26490B40E16A40
:1021AC000B43536580235B04E26A9A421FD0236879
:1021BC001B050BD5144A536D1F490B4061690B432A
:1021CC00536562698023DB019A4215D0280003B065
:1021DC00F0BD0D4AD16880235B020B43D360BEE790
:1021EC00094AD16880235B040B43D360D0E7064ACD
:1021FC00D1680B43D360DAE7034AD16880235B02D2
:10220C000B43D360E2E7C046001002400070004070
:10221C00FFFCFFFFFFFFFEFFFFFFFFEF102700009B
:10222C00FFF3FFFFFFFFF3FFFFFFCFFFFFCFFFFF2A
:10223C00FFFFBFFFFFFFFFFEFF3FFFFF7047704731
:10224C0010B5344A13693449194093698020C0058C
:10225C0003400B4351693148806881435161304AD6
:10226C0010423DD02D4AD468002B17D02B494A6818
:10227C001A434A609A0F9107002A03D0254A9069A5
:10228C00014391619B009A08002B01D0214B1A61EC
:10229C00224B00229A602000FFF7D1FF1D4B1B69D7
:1022AC00DB070CD51B4B01221A611C4B9B68022BC4
:1022BC001FD01A4B00229A602000FFF7BFFF174B6C
:1022CC009B68002B0BD1134B9A6916490A409A61F3
:1022DC005A6915490A405A61104B00221A7010BDF8
:1022EC000622024202D00D4A1469BDE70124644261
:1022FC00BAE70A4A5369013B5361002B03D1074BE0
:10230C0000229A60D8E713001269501C186100F083
:10231C000DF8D1E700200240FAC30000E0050020D0
:10232C0001000400FFFFFFFEFFFFFFFC044A53699E
:10233C0004490B40C0001843034B184350617047CD
:10234C000020024007FEFFFF02000100F0B5846C84
:10235C00C56C6560046D002C02D0446D856D6560A4
:10236C000B4F7C681C26056C2E400125B5402C4378
:10237C007C60046863608368102B04D003689960E8
:10238C000368DA60F0BD03689A600368D960F9E706
:10239C000000024010B50400FF20236818400838E4
:1023AC001421FDF7BDFE236C9B08064A944663443A
:1023BC009B006364044BA3641C2318401B3B8340A9
:1023CC00E36410BD0082001080080240FF234268C5
:1023DC001340064A9A1892000265054A4265013B71
:1023EC0003221A4001239340836570473F820010FB
:1023FC004009024070B5041E4DD00568274BE81803
:10240C001421FDF78DFE8000206425230222E25466
:10241C002B68234A13402B6021680A68A368E06884
:10242C0003432069034360690343A0690343E069E4
:10243C000343206A034313430B602000FFF7AAFFFA
:10244C008023DB01A2689A4218D0626CFF2361687A
:10245C000B401360A36CE26C5A606368013B032B66
:10246C000FD9002323656365A3650023E36325224D
:10247C000121A154013AA354002070BD00236360D4
:10248C00E3E72000FFF7A2FF236D00221A60636DC3
:10249C00A26D5A60E9E70120EFE7C046F8FFFDBFE7
:1024AC000F80FFFF70B504002420205C012843D06E
:1024BC002420012525540130205C012804D0022061
:1024CC0024230022E25470BD243001352554002011
:1024DC00E063256828680126B04328602000FFF7D8
:1024EC0035FF236B002B1CD0226813680E210B4385
:1024FC001360636C1A68D20304D5196880225200E9
:10250C000A431A60236D002B04D0196880225200F4
:10251C000A431A602268136801210B4313600020E0
:10252C00CEE72268136804218B431360226813687A
:10253C0006310B431360DCE70220C4E730B50028FA
:10254C0036D02523C35C022B06D00423C36320336F
:10255C000022C254012030BD026813680E218B4347
:10256C001360426C136813490B40136001680A68CE
:10257C0001239A430A60104C62681C21056C2940A7
:10258C008B4013436360836CC26C5A60036D002BE9
:10259C0006D01A6807490A401A60436D826D5A606A
:1025AC0025230122C254013B0022C2540020D2E751
:1025BC000120D0E7FFFEFFFF0000024070B524238E
:1025CC000122C2540133C35C022B03D00423C36326
:1025DC00012070BD026813680E218B4313600168E3
:1025EC000A6801239A430A60416C0A68124C224023
:1025FC000A60124C62681C21056C29408B40134305
:10260C006360836CC26C5A60036D002B06D01A6831
:10261C0009490A401A60436D826D5A6025230122D4
:10262C00C254013B0022C254836B002B02D098474A
:10263C000020CEE70020CCE7FFFEFFFF00000240A9
:10264C0070B5314B1968046825681C23026C134063
:10265C0004229A40114216D06A0714D523689B06AF
:10266C0003D42368042293432360274C63681C2102
:10267C00026C114004228A4013436360036B002BED
:10268C0000D0984770BD02229A4011421CD0AA0774
:10269C001AD523689B0606D423680A229343236029
:1026AC002523093AC254184C63681C21026C114052
:1026BC0002228A401343636024230022C254C36A5B
:1026CC00002BDFD09847DDE708229A401142D9D081
:1026DC002B07D7D523680E22934323600A4C6268DC
:1026EC001C21036C194001231D008D402A4362609C
:1026FC00C3632522835423330022C254436B002B23
:10270C00C0D09847BEE7C04600000240C06B70477F
:10271C0010B5104A136810490B4003431360802313
:10272C009B00984201D0002010BD0C4B1B68580038
:10273C00C01840000A49FDF7F3FC0130054B5B69FA
:10274C005B0503D5002803D00138F7E70020EBE741
:10275C000320E9E700700040FFF9FFFF08000020AC
:10276C0040420F0070B5002811DB8308134EC033B4
:10277C009B009D5903242040C000FF22140084407C
:10278C00A54389010A4082402A439A5170BD0F2308
:10279C000340083B9B0806339B00094A944663445C
:1027AC005C6803221040C000FC3215008540AC432D
:1027BC0089010A40824022435A60E7E700E100E0C9
:1027CC0000ED00E0002805DB1F2318401E3B834072
:1027DC00014A13607047C04600E100E000280ADBA4
:1027EC001F2318401E3B8340034980228B50BFF3AC
:1027FC004F8FBFF36F8F704700E100E0BFF34F8F37
:10280C00034B044ADA60BFF34F8FC046FDE7C04666
:10281C0000ED00E00400FA05013880235B049842C7
:10282C000FD2094A50600948036A1B021B0AC021D7
:10283C0009060B43036200239360073313600020E7
:10284C0070470120FCE7C04610E000E000ED00E01E
:10285C0010B50400114B1968002901D1012010BDDD
:10286C00FA208000FDF75CFC01000D4B1868FDF7A9
:10287C0057FCFFF7D1FF00280DD1032C01D9012003
:10288C00EDE70130002221004042FFF76BFF054BC2
:10289C001C600020E3E70120E1E7C04600000020B7
:1028AC00080000200400002010B5084A116880239D
:1028BC005B000B4313600020FFF7CAFF041E02D01D
:1028CC000124200010BDFEF74DFAFAE7002002406B
:1028DC00034A1368034909685B1813607047C046C4
:1028EC000406002000000020014B18687047C04609
:1028FC000406002070B50400FFF7F6FF0500631C0A
:10290C0002D0044B1B68E418FFF7EEFF401BA042FB
:10291C00FAD370BD00000020024B802212059A6091
:10292C007047C04600ED00E010B50B480B4B036040
:10293C0000234360E02212018260094A4261036273
:10294C0043628362C362036302F02EF8002800D155
:10295C0010BDFDF7C1FFFBE708060020007C00401E
:10296C00FFFF000000B583B002680C4B9A4201D007
:10297C0003B000BD0A4BD96B802212060A43DA63FE
:10298C00DB6BDB0FDB070193019B00220021112085
:10299C00FFF7E8FE1120FFF715FFE9E7007C004088
:1029AC000010024010B51948194B0360E1235B027B
:1029BC00436000238360C36003610C224261836126
:1029CC00C36103624362836203F03CFA002811D1B5
:1029DC0000210E4803F0C6FA00280ED100210B4846
:1029EC0003F0E6FA00280BD1084803F09BFA002804
:1029FC0009D110BDFDF770FFEAE7FDF76DFFEDE7BC
:102A0C00FDF76AFFF0E7FDF767FFF2E79C06002091
:102A1C000044004030B589B004001422002103A802
:102A2C0004F091FC254B22689A4201D009B030BDCC
:102A3C00234BD96B802080020143D963DA6B0240AF
:102A4C000192019A596B0122114359635B6B13403C
:102A5C000293029B0C2303930A3B049300250595D8
:102A6C0006950792A02003A9C005FEF7A3F9154807
:102A7C00154B0360342343608560C5604C330361A0
:102A8C0045618561603BC3610562FFF7B3FC0028BB
:102A9C0011D10C4BA3679C62002200211C20FFF774
:102AAC0061FE1C20FFF78EFE084B1A68136810217C
:102ABC000B431360BAE7FDF70FFFEAE70044004051
:102ACC000010024040060020080002409C06002036
:102ADC0070B59AB0002418E03948031900221A7313
:102AEC000C3001F09FFE374802F0D8F804E0344B6C
:102AFC001B1900221A73013C002CF8DA40223249CF
:102B0C00304802F061F859E001343F2C20DC2C4BAA
:102B1C001B191B7B0D2BDFD0082B01D07F2BF3D186
:102B2C00274B1B1900221A73002C04DD621E244B48
:102B3C009B1800221A73234D280002F0AFF8611E77
:102B4C004022121B92B2204BC918280002F03CF80C
:102B5C00002601966022002102A804F0F4FB1B223F
:102B6C001A4901A804F0F8FBFA25AD00154C2B000E
:102B7C00062201A9200003F0A7F80196602200218B
:102B8C0002A804F0E0FB1B22114901A804F0E4FBAD
:102B9C002B00042201A9200003F096F80196602274
:102BAC00002102A804F0CFFB074901A804F0D4FBD4
:102BBC0082B22B0001A9200003F086F81AB070BD78
:102BCC00900000209C0600209C000020387D00080E
:102BDC00407D000810B5074B1B68074A934200D094
:102BEC0010BDDA69D206FBD510221A62FFF770FF0E
:102BFC00F6E7C0469C06002000440040F0B5DE46D7
:102C0C0057464E464546E0B59BB0A0200121C00575
:102C1C00FEF722FADC4B9B7A0D2B09D8002B00D146
:102C2C0005E20D2B00D902E29B00D84AD3589F46EF
:102C3C00FF2B00D0FBE1D44B00229A7201AC603226
:102C4C00002102A804F07FFBD14B220003CB03C26E
:102C5C00198811809B789370FA239B000A2221001B
:102C6C00CC4803F031F8E2E1C74BDB7A002B02D100
:102C7C00C54B00229A726022002102A804F063FB6B
:102C8C00C54B0193FA239B00032201A9C14803F011
:102C9C001BF80024092C00DDC9E1A0200121C0058E
:102CAC00FEF7DAF96420FFF725FE0134F2E7002382
:102CBC0001936022002102A804F045FB03F03CFBC9
:102CCC000200B64901A804F047FBFA239B00092235
:102CDC0001A9B04802F0F8FFAB4BDB7A002B00D017
:102CEC00A5E1A94B00229A72A1E103F09DFAAC4830
:102CFC0003F0D8F901AC00276022002102A804F0EF
:102D0C0022FBA84B220023CB23C21B781370FA267C
:102D1C00B600A04D33000C222100280002F0D4FF95
:102D2C000021402003F000FB01976022002102A843
:102D3C0004F009FB03F0E2FA02009B49200004F0C6
:102D4C000BFB330017222100280002F0BDFF0121EC
:102D5C00402003F0E9FA01976022002102A804F058
:102D6C00F2FA03F09BFA02009049200004F0F4FA06
:102D7C00330017222100280002F0A6FF0221402078
:102D8C0003F0D2FA01976022002102A804F0DBFACA
:102D9C0003F084FA02008649200004F0DDFA3300C7
:102DAC001B222100280002F08FFF0321402003F09A
:102DBC00BBFA01976022002102A804F0C4FA03F0C8
:102DCC0081FA02007B49200004F0C6FA82B233007B
:102DDC002100280002F078FF0421402003F0A4FA1F
:102DEC0001976022002102A804F0ADFA03F06AFA00
:102DFC0002007149200004F0AFFA82B233002100C6
:102E0C00280002F061FF0621402003F08DFA0197A3
:102E1C006022002102A804F096FA03F03FFA0200A7
:102E2C006649200004F098FA33001722210028008C
:102E3C0002F04AFF0721402003F076FA0197602246
:102E4C00002102A804F07FFA03F028FA02005C4982
:102E5C00200004F081FA330015222100280002F032
:102E6C0033FF00241CE021001031C9B2402003F0D4
:102E7C005BFA002301936022002102A804F063FA9C
:102E8C0003F00CFA030022004E4901A804F064FA86
:102E9C00FA2382B29B0001A93E4802F015FF0134CF
:102EAC000E2CE0DD00241EE0072C20D82100203160
:102EBC00C9B2402003F038FA0023019360220021AC
:102ECC0002A804F040FA03F0E9F9030022003E499D
:102EDC0001A804F041FAFA239B001B2201A92D48FA
:102EEC0002F0F2FE0134062CDEDD002420E000218D
:102EFC00DFE7072C20D821002831C9B2402003F08D
:102F0C0013FA002301936022002102A804F01BFA9B
:102F1C0003F0C4F9030022002C4901A804F01CFAA8
:102F2C00FA239B001A2201A91A4802F0CDFE0134A3
:102F3C00062CDEDD002420E00021DFE7072C20D862
:102F4C0021003031C9B2402003F0EEF90023019387
:102F5C006022002102A804F0F6F903F0B3F9030093
:102F6C0022001B4901A804F0F7F9FA2382B29B0056
:102F7C0001A9084802F0A8FE0134062CDEDD00246D
:102F8C0047E00021DFE7C046900000206082000887
:102F9C00AC8100089C0600206F6B0A00D47D0008F1
:102FAC0028070020487D0008587D0008747D000823
:102FBC008C7D0008A87D0008C47D0008DC7D00081D
:102FCC00F47D00080C7E0008247E0008447E000876
:102FDC00607E0008072C31D821003831C9B240205E
:102FEC0003F0A2F9002301936022002102A804F04F
:102FFC00AAF903F067F9030022006B4901A804F059
:10300C00ABF9FA2382B29B0001A9684802F05CFE7E
:10301C000134062CDEDD664BDB7A002B02D1644BCF
:10302C0000229A72634803F0A9F803F0D5F81BB09C
:10303C003CBC90469946A246AB46F0BD0021CEE77B
:10304C0000240F2C50DC5A4B9B4625001435AD0048
:10305C0000239846584A0023594668580021FDF72A
:10306C0019FA564A0023FDF7F5F98246894643467C
:10307C0001936022002102A804F065F92200504956
:10308C0001A804F069F9FA27BF0082B2474E3B0051
:10309C0001A9300002F018FE434601936022002182
:1030AC0002A804F050F952464B46464901A804F0D8
:1030BC0053F93B000F2201A9300002F005FE4346F4
:1030CC0001936022002102A804F03DF95B46EA5806
:1030DC003D4901A804F040F982B23B0001A930003F
:1030EC0002F0F2FD0134ACE7314BDB7A002B9ED1C0
:1030FC002F4B00229A729AE700260196602200213B
:10310C0002A804F020F901F031FA3049FDF792F8E9
:10311C0002002F4901A804F01FF9FA24A40082B27E
:10312C00224D230001A9280002F0CEFD0196602259
:10313C00002102A804F007F901F018FA2100FDF7AC
:10314C0079F82100FDF75CF90A00224901A804F086
:10315C0003F982B2230001A9280002F0B5FD144B3B
:10316C00DB7A002B00D062E7114B00229A725EE7EB
:10317C0001AC002301936022002102A804F0E3F8C3
:10318C000A232380F0339B0001222100074802F020
:10319C009BFD03F0EFF9064BDB7A002B00D046E7E2
:1031AC00034B00229A7242E77C7E00089C060020AA
:1031BC00900000202807002040771B00FFFFFF0035
:1031CC00987E0008A07E0008D47D000840420F00C5
:1031DC00AC7E0008B07E000801AC00239B46602248
:1031EC00002102A804F0AFF8FD4B1A6801929B88ED
:1031FC00A380FA25AD00FB4E2B00052221003000E8
:10320C0002F062FD6022002102A804F09CF8F64B4B
:10321C00220083CB83C21B7813702B000C2221005D
:10322C00300002F051FD5B4601936022002102A8A0
:10323C0004F089F80B2001F077F9FA2292000023B0
:10324C00FDF708F902000B00E8498A46200004F05B
:10325C0083F882B22B002100300002F035FD5B4672
:10326C0001936022002102A804F06DF80B2001F0FC
:10327C005BF9FA2292000023FDF7ECF8DC49894651
:10328C00200004F069F82B000A222100300002F023
:10329C001BFD6022002102A804F055F8D54B22003A
:1032AC0083CB83C21B7813702B000C2221003000BF
:1032BC0002F00AFD5B4601936022002102A804F093
:1032CC0042F8062001F030F9FA2292000023FDF7B3
:1032DC00C1F802000B005146200004F03DF882B208
:1032EC002B002100300002F0EFFC5B4601936022C2
:1032FC00002102A804F027F8062001F015F9FA22A3
:10330C0092000023FDF7A6F84946200004F024F8AB
:10331C002B000A222100300002F0D6FC6022002192
:10332C0002A804F010F8B44B220083CB83C21B78A4
:10333C0013702B000C222100300002F0C5FC5B4600
:10334C0001936022002102A803F0FDFF002001F090
:10335C00EBF8FA2292000023FDF77CF802000B0038
:10336C005146200003F0F8FF82B22B002100300000
:10337C0002F0AAFC5B4601936022002102A803F034
:10338C00E2FF002001F0D0F8FA2292000023FDF7B2
:10339C0061F84946200003F0DFFF2B000A222100D0
:1033AC00300002F091FC6022002102A803F0CBFF58
:1033BC00924B220083CB83C21B7813702B000C2200
:1033CC002100300002F080FC5B460193602200215A
:1033DC0002A803F0B8FF0E2001F0A6F8FA22920022
:1033EC000023FDF737F802000B005146200003F0D4
:1033FC00B3FF82B22B002100300002F065FC5B466B
:10340C0001936022002102A803F09DFF0E2001F021
:10341C008BF8FA2292000023FDF71CF84946200095
:10342C0003F09AFF2B000A222100300002F04CFC22
:10343C006022002102A803F086FF714B220083CB8F
:10344C0083C21B7813702B000C222100300002F079
:10345C003BFC5B4601936022002102A803F073FF42
:10346C00022001F061F8FA2292000023FCF7F2FF2F
:10347C0002000B005146200003F06EFF82B22B00BD
:10348C002100300002F020FC5B46019360220021F9
:10349C0002A803F058FF022001F046F8FA2292002D
:1034AC000023FCF7D7FF4946200003F055FF2B0003
:1034BC000A222100300002F007FC6022002102A841
:1034CC0003F041FF4F4B220083CB83C2196811607C
:1034DC001B7913712B0010222100300002F0F4FB39
:1034EC005B4601936022002102A803F02CFF0C2004
:1034FC0001F052F8FA2292000023FCF787FF020039
:10350C000B0041498946200003F026FF82B22B00B4
:10351C002100300002F0D8FB5B46019360220021B1
:10352C0002A803F010FF0C2001F036F8C317C018E6
:10353C0058402900FCF764FF0A00344B9A461900E6
:10354C00200003F009FF2B0009222100300002F0BB
:10355C00BBFB6022002102A803F0F5FE2C4B2200DD
:10356C0083CB83C2196811601B7913712B00102255
:10357C002100300002F0A8FB5B4601936022002181
:10358C0002A803F0E0FE052001F006F8FA229200F2
:10359C000023FCF73BFF02000B004946200003F020
:1035AC00DBFE82B22B002100300002F08DFB5B466B
:1035BC0001936022002102A803F0C5FE052000F053
:1035CC00EBFFC317C01858402900FCF719FF0A007D
:1035DC005146200003F0C0FE2B000922210019E007
:1035EC00BC7E00089C060020C47E0008D47E000827
:1035FC00DC7E0008EC7E0008FC7E00080C7F0008D6
:10360C001C7F00082C7F0008407F0008487F0008C2
:10361C00547F0008300002F057FB6022002102A802
:10362C0003F091FEFB4B220083CB83C2196811601F
:10363C001B7913712B0010222100300002F044FB87
:10364C005B4601936022002102A803F07CFE01205E
:10365C0000F0A2FFFA2292000023FCF7D7FE020032
:10366C000B004946200003F077FE82B22B002100AC
:10367C00300002F029FB5B4601936022002102A876
:10368C0003F061FE012000F087FFC317C0185840FB
:10369C002900FCF7B5FE0A005146200003F05CFE41
:1036AC002B0009222100300002F00EFB60220021C9
:1036BC0002A803F048FED84B220083CB83C21968C2
:1036CC0011601B7913712B0010222100300002F0C5
:1036DC00FBFA5B4601936022002102A803F033FE43
:1036EC000D2000F059FFFA2292000023FCF78EFE09
:1036FC0002000B004946200003F02EFE82B22B0084
:10370C002100300002F0E0FA5B46019360220021B8
:10371C0002A803F018FE0D2000F03EFFC317C018DE
:10372C0058402900FCF76CFE0A005146200003F0BB
:10373C0013FE2B0009222100300002F0C5FA602292
:10374C00002102A803F0FFFDB44B220083CB83C2FF
:10375C00196811601B7913712B00102221003000A5
:10376C0002F0B2FA5B4601936022002102A803F03A
:10377C00EAFD032000F010FFFA2292000023FCF770
:10378C0045FE02000B004946200003F0E5FD82B225
:10379C002B002100300002F097FA5B460193602267
:1037AC00002102A803F0CFFD032000F0F5FEC317A3
:1037BC00C01858402900FCF723FE0A00514620008F
:1037CC0003F0CAFD2B0009222100300002F07CFA24
:1037DC006022002102A803F0B6FD914B220083CB9E
:1037EC0083C21B8813802B000D222100300002F0B5
:1037FC006BFA5B4601936022002102A803F0A3FD43
:10380C00042000F0D9FEFA2292000023FCF7FEFD02
:10381C0002000B004946200003F09EFD82B22B00F3
:10382C002100300002F050FA5B4601936022002127
:10383C0002A803F088FD042000F0BEFEC317C018D8
:10384C0058402900FCF7DCFD0A007649200003F003
:10385C0083FD2B000A222100300002F035FA201DD6
:10386C006022002103F06FFD01AC6F4B220023CBD3
:10387C0023C21B881380FA25AD006C4E2B000D2241
:10388C002100300002F020FA002301936022002175
:10389C0002A803F058FD0A2000F08EFEFA229200D6
:1038AC000023FCF7B3FD02000B00614989462000A0
:1038BC0003F052FD82B22B002100300002F004FA1A
:1038CC005B4601936022002102A803F03CFD0A2014
:1038DC0000F072FEC317C01858402900FCF790FD89
:1038EC000A00504B98461900200003F035FD2B00C0
:1038FC000A222100300002F0E7F96022002102A820
:10390C0003F021FD4B4B220083CB83C21B88138019
:10391C002B000D222100300002F0D6F95B460193FA
:10392C006022002102A803F00EFD092000F044FEE5
:10393C00FA2292000023FCF769FD02000B004946B5
:10394C00200003F009FD82B22B002100300002F0B0
:10395C00BBF95B4601936022002102A803F0F3FC43
:10396C00092000F029FEC317C01858402900FCF7A5
:10397C0047FD0A004146200003F0EEFC2B000A2212
:10398C002100300002F0A0F96022002102A803F00F
:10399C00DAFC294B220083CB83C21B8813802B00BB
:1039AC000D222100300002F08FF95B46019360225A
:1039BC00002102A803F0C7FC0F2000F0FDFDFA2245
:1039CC0092000023FCF722FD02000B004946200068
:1039DC0003F0C2FC82B22B002100300002F074F91B
:1039EC005B4601936022002102A803F0ACFC0F207F
:1039FC0000F0E2FDC317C01858402900FCF700FD89
:103A0C000A004146200003F0A7FC2B000A222100EB
:103A1C00300013E0687F00087C7F0008907F00086E
:103A2C00A47F0008B47F0008C07F00089C0600201B
:103A3C00407F0008D07F0008E07F000802F044F9C6
:103A4C001F4BDB7A002B01D0FFF7F1FA1C4B002245
:103A5C009A72FFF7ECFA1A4A00239372D37A5942FE
:103A6C004B41DBB2D372002B14D001AC602200218D
:103A7C0002A803F068FC134B220003CB03C21B7893
:103A8C001370FA239B00082221000F4802F01CF946
:103A9C00FFF7CDFA01AC6022002102A803F053FC21
:103AAC000A4B220003CB03C21B881380FA239B0012
:103ABC0009222100044802F007F9FFF7B8FAC046C2
:103ACC0090000020F07F00089C060020FC7F00087E
:103ADC00FD4BDB7A002B02D1FB4B00229A7201AC1E
:103AEC00002701976022002102A803F02CFC0A2376
:103AFC002380FA26B600F54D330001222100280060
:103B0C0002F0E2F801976022002102A803F01BFCEE
:103B1C00ED4A9046EE4BD258EE49200003F01CFCC7
:103B2C0082B233002100280002F0CEF80197602207
:103B3C00002102A803F007FC9B23DB004246D2586D
:103B4C00E549200003F008FC82B233002100280074
:103B5C0002F0BAF801976022002102A803F0F3FBEF
:103B6C009D23DB004246D258DC49200003F0F4FBD5
:103B7C0082B233002100280002F0A6F801976022DF
:103B8C00002102A803F0DFFBD54B4246D258D549A1
:103B9C00200003F0E1FB82B233002100280002F088
:103BAC0093F801976022002102A803F0CCFBA42318
:103BBC00DB004246D258CC49200003F0CDFB82B248
:103BCC0033002100280002F07FF8019760220021C9
:103BDC0002A803F0B8FBC54B4246D258C44920009A
:103BEC0003F0BAFB82B233002100280002F06CF81B
:103BFC0001976022002102A803F0A5FBBD4B4246B1
:103C0C00D258BD49200003F0A7FB82B2330021003B
:103C1C00280002F059F801976022002102A803F055
:103C2C0092FBA523DB004246D258B449200003F096
:103C3C0093FB82B233002100280002F045F8602289
:103C4C00002102A803F07FFBAD4B220083CB83C283
:103C5C0033000B222100280002F036F800270197D0
:103C6C006022002102A803F06EFB062000F06EFC1F
:103C7C00A44A0023FCF7EEFB02000B00A249894684
:103C8C00200003F069FB82B233002100280002F00F
:103C9C001BF801976022002102A803F054FB0620B8
:103CAC0000F054FC974A0023FCF7D4FB97498B4651
:103CBC00200003F051FB33000B222100280002F0FE
:103CCC0003F86022002102A803F03DFB904B220078
:103CDC0083CB83C233000B222100280001F0F4FFB8
:103CEC00002701976022002102A803F02CFB002082
:103CFC0000F02CFC834A0023FCF7ACFB02000B0009
:103D0C004946200003F028FB82B233002100280032
:103D1C0001F0DAFF01976022002102A803F013FBE7
:103D2C00002000F013FC774A0023FCF793FB794941
:103D3C008A46200003F010FB82B2330021002800D9
:103D4C0001F0C2FF01976022002102A803F0FBFAE8
:103D5C00714B4246D2587149200003F0FDFA82B2F1
:103D6C0033002100280001F0AFFF019760220021F1
:103D7C0002A803F0E8FA9C23DB004246D2586849BB
:103D8C00200003F0E9FA82B233002100280001F090
:103D9C009BFF01976022002102A803F0D4FA614B2B
:103DAC004246D2586049200003F0D6FA82B2330062
:103DBC002100280001F088FF01976022002102A851
:103DCC0003F0C1FA9F23DB004246D258574920002A
:103DDC0003F0C2FA82B233002100280001F074FF14
:103DEC0001976022002102A803F0ADFA504B424625
:103DFC00D2585049200003F0AFFA82B233002100B0
:103E0C00280001F061FF01976022002102A803F055
:103E1C009AFAA123DB004246D2584749200003F00E
:103E2C009BFA82B233002100280001F04DFF01976C
:103E3C006022002102A803F086FAA223DB0042468E
:103E4C00D2583E49200003F087FA82B23300210099
:103E5C00280001F039FF01976022002102A803F02D
:103E6C0072FA374B4246D2583649200003F074FAA6
:103E7C0082B233002100280001F026FF60220021CD
:103E8C0002A803F060FA304B220083CB83C23300CC
:103E9C000B222100280001F017FF00270197602258
:103EAC00002102A803F04FFA0E2000F04FFB154A38
:103EBC000023FCF7CFFA02000B004946200003F068
:103ECC004BFA82B242E0C046900000209C060020D3
:103EDC00D40400000880000818800008288000081E
:103EEC00E40400003C800008548000081C0500001D
:103EFC0070800008240500008C800008A080000859
:103F0C00B480000840420F00D47E0008C080000836
:103F1C00CC800008D8800008DC040000E880000891
:103F2C00F8800008FC040000088100081C810008CF
:103F3C000C05000034810008508100086C810008D9
:103F4C0014050000808100089481000833002100D2
:103F5C00280001F0B9FE01976022002102A803F0AD
:103F6C00F2F90E2000F0F2FAF54A0023FCF772FA8F
:103F7C005946200003F0F0F933000B2221002800F1
:103F8C0001F0A2FE6022002102A803F0DCF9ED4B47
:103F9C00220083CB83C233000B222100280001F0C6
:103FAC0093FE002701976022002102A803F0CBF9B1
:103FBC00022000F0CBFAE24A0023FCF74BFA020095
:103FCC000B004946200003F0C7F982B233002100F0
:103FDC00280001F079FE01976022002102A803F06D
:103FEC00B2F9022000F0B2FAD54A0023FCF732FAFB
:103FFC005146200003F0B0F982B2330021002800B2
:10400C0001F062FE01976022002102A803F09BF9E7
:10401C000A232380330001222100280001F054FEE2
:10402C00FFF705F8C84B00229A7201AC60320021F0
:10403C0002A803F088F9C54B220023CB23C223CB63
:10404C0023C203CB03C21B881380FA239B002122BB
:10405C002100BF4801F038FEFEF7D0FBFEF7E7FF6A
:10406C0001AC6022002102A803F06DF9B94B1A686B
:10407C0001929A88A2809B79A371FA25AD00B44E67
:10408C002B0006222100300001F01EFE00270197B4
:10409C006022002102A803F056F9AB4B9846AE4BB8
:1040AC004246D258AD4B99461900200003F054F902
:1040BC0082B22B002100300001F006FE60220021AC
:1040CC0002A803F040F9A64B1A6801929A88A280C4
:1040DC009B79A3712B0006222100300001F0F4FD26
:1040EC0001976022002102A803F02DF9A823DB0020
:1040FC004246D2584946200003F02EF982B22B00DA
:10410C002100300001F0E0FD6022002102A803F044
:10411C001AF9944B220003CB03C293462B000722BF
:10412C002100300001F0D0FD01976022002102A88F
:10413C0003F009F900F01AFA8149FCF77BF8020048
:10414C008949200003F008F982B22B0021003000CD
:10415C0001F0BAFD01976022002102A803F0F3F8E8
:10416C0000F004FA2900FCF765F8C317C018584092
:10417C002900FCF745F90A007C49200003F0ECF813
:10418C002B0007222100300001F09EFD602200214F
:10419C0002A803F0D8F8764B220083CB83C22B0005
:1041AC000B222100300001F08FFD002701976022C7
:1041BC00002102A803F0C7F86E4B9A4660494346AB
:1041CC0052469858FCF736F802006749200003F075
:1041DC00C3F882B22B002100300001F075FD01976D
:1041EC006022002102A803F0AEF8434652469858CC
:1041FC002900FCF71FF8C317C01858402900FCF71A
:10420C00FFF80A005949200003F0A6F82B000722FA
:10421C002100300001F058FD6022002102A803F0BB
:10422C0092F8554B220003CB03C21A8859460A80D8
:10423C009B788B702B000A222100300001F044FD8A
:10424C0001976022002102A803F07DF8A723DB0070
:10425C004246D2584946200003F07EF882B22B0029
:10426C002100300001F030FD6022002102A803F093
:10427C006AF8424B220003CB03C21A8859460A80C3
:10428C009B788B702B000A222100300001F01CFD62
:10429C0001976022002102A803F055F8384B4246E2
:1042AC00D2584946200003F057F882B22B00210067
:1042BC00300001F009FDA923DB004246D358002B46
:1042CC0066D001AC6022002102A803F03CF82D4B13
:1042DC00220003CB03C22E001D4D33000722210008
:1042EC00280001F0F1FC6022002102A803F02BF859
:1042FC00254B220083CB83C203CB03C23300132292
:10430C002100280001F0E0FC6022002102A803F04B
:10431C001AF81E4B1A6801921B7923713300042280
:10432C002100280001F0D0FC074BDB7A002B01D0D8
:10433C00FEF77DFE044B00229A72FEF778FEC04613
:10434C0040420F00A081000890000020B8810008B6
:10435C009C060020DC8100084405000090810008C8
:10436C00E4810008EC810008F4810008B07E0008AC
:10437C00F88100083405000004820008108200084F
:10438C003C0500001C8200082482000838820008CA
:10439C0001AC6022002102A802F0D5FF184B2200CC
:1043AC0003CB03C2FA26B600164D330007222100B8
:1043BC00280001F089FC6022002102A802F0C3FF52
:1043CC00114B220083CB83C203CB03C21B88138007
:1043DC00330015222100280001F076FC6022002118
:1043EC0002A802F0B0FF094B1A6801921B792371E5
:1043FC00330004222100280001F066FC94E7C0463B
:10440C00408200089C060020488200083882000880
:10441C0030B593B02C4A4D230021D154402202A830
:10442C0002F091FF0F2000E00138002819DD002177
:10443C000F29F9DC431E244C1B015B1824339B0011
:10444C0002015218243292001D5915518A0002ADF6
:10445C00555901951B59AC46634402AC13510131BB
:10446C00E6E7002217E01849130014339B005B5851
:10447C001000243080004350900002AC0459019489
:10448C00A446634402AC03511B0910002530FF30D5
:10449C008000435001320F2AE5DD0B499A22D200ED
:1044AC008B5C0133DBB28B54102B05D8074BCB5CE8
:1044BC00002B07D0012300E001230349034A8B544E
:1044CC0013B030BD0023F8E790000020D1040000A9
:1044DC0010B52530FF308000054BC058054A00232D
:1044EC000021FBF7D7FF044A0023FBF7B3FF10BDF5
:1044FC009000002000D2496BFFFFFF0010B5253063
:10450C00FF308000054BC058054A00230021FBF703
:10451C00C1FF044A0023FBF79DFF10BD9000002053
:10452C0040771B00FFFFFF0010B5FFF7D1FF054AD6
:10453C000023121A8B4110001900034A0023FBF7C9
:10454C0089FF10BD00D2496B1027000010B5FFF792
:10455C00BFFF054A0023121A8B41100019000A22D2
:10456C000023FBF777FF10BD00D2496B10B5072075
:10457C00FFF7C4FF064A0023FBF78CFF842252008E
:10458C000023FBF767FF034B9C46604410BDC046FD
:10459C005C440000889103FC10B5FFF7AFFF1E22AE
:1045AC000023FBF757FF034A01235B428018594154
:1045BC0010BDC046D08AFFFF10B5A0B00400802209
:1045CC000B49684602F0B6FE2000FFF797FFE400A7
:1045DC006C4422686368801A994114220023FBF70B
:1045EC0015FF044A01235B428018594120B010BDCD
:1045FC00D07B00081802FFFF084B0022A621C9003F
:10460C005A5010315A500649012058500C395A5002
:10461C0004495A50044A05499950704790000020AB
:10462C00440500003C05000034050000C00E1602D5
:10463C00F0B59BB0FFF79AFF6B4AA623DB00D05076
:10464C006A4B984245DC684D694BEB58C01AFA210D
:10465C008900FBF7EFFD0600A723DB00E850654B54
:10466C00EA588018E8506449FBF7E4FD0400322155
:10467C0049423000FBF7DEFD2018C3171B1ADB0F75
:10468C005E4AAB50C317C0185840642800DD642044
:10469C00554CA823DB00E050594B5863574BE25C58
:1046AC0002215848FCF7D2FCA723DB00E358C733A0
:1046BC00C7225200934252D84B4A534BD358092B22
:1046CC000CDC013350495350A923DB000021D1509D
:1046DC0002E04B4B00225A631BB0F0BD424AA923A7
:1046EC00DB00D358002B05D03F4AA923DB00012166
:1046FC00D150F1E701AC6022002102A802F023FEA8
:10470C00424B220003CB03C2FA26B600404D3300C5
:10471C0007222100280001F0D7FA6022002102A80C
:10472C0002F011FE3B4B220083CB83C203CB03C2AE
:10473C00330013222100280001F0C6FA6022002168
:10474C0002A802F000FE344B1A6801921B79237107
:10475C00330004222100280001F0B6FAC4E7224BF2
:10476C00294A00219950043A9B58012B05D01E4A26
:10477C00A923DB000021D150AEE701AC602202A8D6
:10478C0002F0E1FD254B220003CB03C2FA26B60052
:10479C001F4D330007222100280001F095FA6022FA
:1047AC00002102A802F0CFFD1D4B220083CB83C257
:1047BC0003CB03C21B881380330015222100280071
:1047CC0001F082FA6022002102A802F0BCFD124B1B
:1047DC001A6801921B7923713300042221002800EE
:1047EC0001F072FAC3E7C04690000020005A620242
:1047FC00340500003C05000070FEFFFF440500007E
:10480C00002C0140000400504C0500001C820008E4
:10481C009C06002024820008388200084082000890
:10482C004882000830B59BB0040001AD6022002125
:10483C0002A802F088FD4D4B1A6801921B792B716E
:10484C00FA239B0004222900494801F03DFA49490A
:10485C002000FBF751FC002804D1474B01229A722F
:10486C001BB030BD45492000FBF746FC002803D1A6
:10487C00414B02229A72F3E741492000FBF73CFCC2
:10488C00002803D13C4B03229A72E9E73D492000F2
:10489C00FBF732FC002803D1374B04229A72DFE776
:1048AC0039492000FBF728FC002809D037492000A3
:1048BC00FBF722FC002818D12F4B07229A72CFE766
:1048CC0001AC002301936022002102A802F03BFD01
:1048DC000A232380F0339B0001222100244801F09D
:1048EC00F3F9254B06229A72BAE729492000FBF707
:1048FC0003FC002803D1204B08229A72B0E725490B
:10490C002000FBF7F9FB002803D11B4B09229A72FC
:10491C00A6E721492000FBF7EFFB002803D1164B3B
:10492C000A229A729CE71D492000FBF7E5FB002840
:10493C0003D1114B0B229A7292E719492000FBF715
:10494C00DBFB002803D10C4B0C229A7288E715492B
:10495C002000FBF7D1FB002803D1074B0D229A72E4
:10496C007EE7054BFF229A727AE7C04698820008D0
:10497C009C060020A082000890000020A88200085D
:10498C00B0820008BC820008C8820008D4820008EB
:10499C00DC820008E8820008EC820008F082000843
:1049AC00F88200080083000870B5041E4CD0362332
:1049BC00C35C002B3DD036230222E2542568EB6801
:1049CC006068012804D080221204A16A914201D1AE
:1049DC001E22934361691D4A914201D01C4A134027
:1049EC001C4A1A40A3680343266A3343666A33435E
:1049FC00A66A33431343012803D080221204964243
:104A0C0003D1E268206902431343104A914204D057
:104A1C00A2691143E26911430B43EB6023680E4A10
:104A2C0093420CD0E26A5A6236230122E2540020EF
:104A3C0070BD35330022C254FDF794FFBBE7E26A28
:104A4C00216B0A435A62EFE70120F1E7FFFF0000F8
:104A5C003F1FFFFFF8F119FF007C004010B5362313
:104A6C000222C2544368012B04D080231B04826AA7
:104A7C009A4219D002689368102423439360026809
:104A8C0093680E3C2343936004682369012213430B
:104A9C0023610368996101680B69042423430B614A
:104AAC003623C254002010BD0268D368014C234049
:104ABC00D360DFE7FFF1FFFF704770477047704727
:104ACC0070477047704710B5040003681A68D20726
:104ADC0002D59A68D2072AD423681A68920702D59D
:104AEC009A68920728D423681A68520702D59A68E4
:104AFC00520727D423681A68120702D59A6812073E
:104B0C0026D423681A68D20602D59A68D20625D410
:104B1C0023681A68920602D59A68920624D42368F0
:104B2C001A68520602D59A68520623D410BD012287
:104B3C005A60FFF7C1FFCFE702225A602000FFF74F
:104B4C00BCFFD0E704225A602000FFF7B7FFD1E783
:104B5C0008225A602000FFF7B2FFD2E710225A60F9
:104B6C002000FFF7ADFFD3E720225A602000FFF7AB
:104B7C00A8FFD4E740225A602000FFF7A3FFD5E737
:104B8C0002681368C0218B43136002689368034961
:104B9C000B40936080232022C2507047FFFF7FFFA1
:104BAC000268136806490B40136002689368054954
:104BBC000B40936084232022C2500023C3667047AD
:104BCC00DFFEFFFFFEFFFFEF10B504008423C35888
:104BDC00202B55D1002955D0002A55D080235B01BC
:104BEC008068984231D07C23E35C012B4ED07C232F
:104BFC000120E054A165203BE2522C330021E1500E
:104C0C00043B2231E150A36F002B25D02049D962FF
:104C1C00A36F20491963A36F1F495963A36F002128
:104C2C009963216824311300A26DA06FFDF73AFC43
:104C3C00002811D088231022E2500C3B0022E254B1
:104C4C0004332032E25001201BE02369002BCAD12F
:104C5C00CB07C8D5012014E07C230022E254226843
:104C6C00116884330B4313602268936801210B4352
:104C7C009360226893683F310B439360002000E0FF
:104C8C00022010BD0120FCE70120FAE70220F8E722
:104C9C005D4D0008A34D0008AF4D000870B5040031
:104CAC008023C0588422A558226891680B4201D0F9
:104CBC00212807D023689A68520636D5222D1AD09F
:104CCC00002033E0936880218B439360606F002851
:104CDC0003D0FDF733FC002803D12000FFF750FF71
:104CEC00E8E7606FFDF712FD2028F6D1882310222B
:104CFC00E2501D381AE09A6840218A439A60A06FEE
:104D0C00002803D0FDF71AFC002804D12000FFF77F
:104D1C0047FF00200AE0A06FFDF7F8FC2028F5D132
:104D2C0088231022E2501D3800E0002070BD70472F
:104D3C0010B50268136840218B4313608023202236
:104D4C00C25000230367FFF7F2FF10BD704700004D
:104D5C0010B50300806A1B681B689B0615D45E2384
:104D6C000022C2520268136809490B4013600268A2
:104D7C0093680331FF318B439360026893683F3132
:104D8C008B43936084232022C250FFF7DFFF10BDBA
:104D9C00FFFEFFFF704710B5806AFFF7FBFF10BDE9
:104DAC00704770B5846A8023E1588422A558226824
:104DBC009268134201D021290ED023689B685B06B0
:104DCC0001D5222D0FD08822A35810210B43A350BC
:104DDC002000FFF7E5FF70BD2A3B0022E2522000C5
:104DEC00FFF7CEFEE9E75E230022E2522000FFF738
:104DFC00D7FEE8E7F8B504000268D3691568906837
:104E0C000F210E001E40194205D1990603D5A906A3
:104E1C0029D4C10027D4002E08D05A4906000E40D0
:104E2C00084226D1902149000D4222D1D90202D547
:104E3C00410200D58BE01A0605D52A0600D58DE077
:104E4C00020200D58AE05A0602D56A0600D58CE02B
:104E5C001A0202D56A0000D58BE0DB0102D5002DC9
:104E6C0000DA8AE0F8BDE36E002BFBD020009847F7
:104E7C00F8E7D90707D5E90505D501271762882179
:104E8C0062583A4362509A0709D5C20707D522687F
:104E9C00022111628631625804273A4362505A0744
:104EAC0009D5C20707D522680421116284316258E2
:104EBC0002273A4362501A070AD5AA0601D4002EDB
:104ECC0006D0226808261662882162583243625046
:104EDC008822A258002AC5D09B0608D5AB0601D45F
:104EEC00C30004D5E36E002B01D020009847882323
:104EFC00E25823689B685B0601D4130720D5200079
:104F0C00FFF74EFE23689A68520615D59A68402121
:104F1C008A439A60A36F002B0AD01B4A9A63A06F36
:104F2C00FDF74CFB00289DD0A06F836B984799E749
:104F3C002000FFF735FF95E72000FFF731FF91E7E1
:104F4C002000FFF72DFF88230022E2508AE7802300
:104F5C005B031362200000F0E1FF83E7236F002B5B
:104F6C0000D17FE7200098477CE72000FFF7E0FEA8
:104F7C0078E7200000F0D4FF74E7200000F0CFFFAA
:104F8C0070E7C04601000010994F000810B5806A08
:104F9C0000235E228352083A8352FFF701FF10BDB3
:104FAC0070B50400016883680269134342691343B6
:104FBC00C2691343426E1A430B68A948034013435A
:104FCC000B6022685368A7490B40E1680B435360A0
:104FDC00A1692268A44B9A4201D0236A19439368B1
:104FEC00A24803400B4393602268D36A0F218B4382
:104FFC00616A0B43D36223689D4A93420FD09D4A4A
:10500C0093426CD09C4A934200D1A1E09B4A9342BC
:10501C0000D19FE0944A934272D010260EE0984A39
:10502C00516D03220A40022A00D181E053D8002A94
:10503C0000D17FE0012A00D07EE004268A4A934208
:10504C0000D191E080231B02E2699A4200D136E341
:10505C00042E01D100F019FD01D900F070FC002ED6
:10506C0001D100F0A9FC022E01D000F065FC636AAE
:10507C00002B01D100F0E7FC012B01D100F0F1FC79
:10508C00022B01D100F0EFFC032B01D100F0EDFC61
:10509C00042B01D100F0EBFC052B01D100F0E9FC55
:1050AC00062B01D100F0E7FC072B01D100F0E5FC49
:1050BC00082B01D100F0E3FC092B01D100F0E1FC3D
:1050CC000A2B01D100F0DFFC0B2B01D100F0B8FC56
:1050DC00012100F0B9FC032A30D10826AEE7684A5A
:1050EC00516D0C220A40082A2AD005D8002A29D052
:1050FC00042A29D10426A1E70C2A27D108269DE7EA
:10510C005F4A526DC02109010A40802109018A427F
:10511C0022D007D8002A21D08021C9008A421FD171
:10512C0004268BE7C02109018A421BD1082685E79A
:10513C00022683E7002681E710267FE710267DE70D
:10514C0002267BE7002679E7102677E7102675E71D
:10515C00002673E7002671E702266FE700266DE74D
:10516C0010266BE7102669E7042E00D100E12CD83D
:10517C00002E55D0022E26D1636A002B00D1DEE022
:10518C00012B00D1E0E0022B00D1DFE0032B00D19A
:10519C00DEE0042B00D1DDE0052B00D1DCE0062B9A
:1051AC0000D1DBE0072B00D1DAE0082B00D1D9E0ED
:1051BC00092B00D1D8E00A2B00D1D7E00B2B00D162
:1051CC00BAE00121BCE00126ECE3082E26D1636A8B
:1051DC00002B00D107E1012B00D10AE1022B00D1F9
:1051EC0009E1032B00D108E1042B00D107E1052BC9
:1051FC0000D106E1062B00D105E1072B00D104E11B
:10520C00082B00D103E1092B00D102E10A2B00D1BC
:10521C0001E10B2B00D1E3E00121E5E00126C1E324
:10522C00FCF7D4FE636A002B2CD0012B70D0022B20
:10523C0070D0032B70D0042B70D0052B70D0062BA4
:10524C0070D0072B70D0082B70D0092B70D00A2B84
:10525C0070D00B2B01D0012115E08021490012E008
:10526C00F369FFCFFFCFFFFF00800040FFF4FF1179
:10527C00003801400044004000480040004C004011
:10528C00001002400121FAF74BFF002801D100F079
:10529C0063FC65686B005B19834201D900F05EFC0E
:1052AC002B03834201D200F05BFC042E00D175E18C
:1052BC0000D9B5E0002E00D1E7E0022E00D0ACE022
:1052CC00636A002B00D137E1012B00D148E1022B9E
:1052DC0000D148E1032B00D148E1042B00D148E177
:1052EC00052B00D148E1062B00D148E1072B00D15A
:1052FC0048E1082B00D148E1092B00D148E10A2BE9
:10530C0000D148E10B2B00D112E10122002315E161
:10531C000221B8E70421B6E70621B4E70821B2E779
:10532C000A21B0E70C21AEE71021ACE72021AAE757
:10533C004021A8E78021A6E78021490000E0012157
:10534C00A748FAF7EDFEA0E70221F9E70421F7E7F9
:10535C000621F5E70821F3E70A21F1E70C21EFE735
:10536C001021EDE72021EBE74021E9E78021E7E779
:10537C00FCF704FD636A002B1AD0012B1CD0022B06
:10538C001CD0032B1CD0042B1CD0052B1CD0062BA3
:10539C001CD0072B1CD0082B1CD0092B1CD00A2B83
:1053AC001CD00B2B01D0012103E08021490000E02F
:1053BC000121FAF7B5FE68E70221FAE70421F8E7C4
:1053CC000621F6E70821F4E70A21F2E70C21F0E7C1
:1053DC001021EEE72021ECE74021EAE78021E8E705
:1053EC008021490000E0012180200002FAF798FE9C
:1053FC004BE70221F8E70421F6E70621F4E7082140
:10540C00F2E70A21F0E70C21EEE71021ECE720216E
:10541C00EAE74021E8E78021E6E7012600202BE0BF
:10542C00082E27D1636A002B00D115E1012B00D186
:10543C0027E1022B00D127E1032B00D127E1042B1C
:10544C0000D127E1052B00D127E1062B00D127E164
:10545C00072B00D127E1082B00D127E1092B00D124
:10546C0027E10A2B00D127E10B2B00D1F0E0012220
:10547C000023F3E0012600205A4A5B4BC3189342E9
:10548C0000D96FE32368D8608CE2FCF79FFD636A58
:10549C00002B1CD0012B2DD0022B2ED0032B2FD068
:1054AC00042B30D0052B31D0062B32D0072B33D028
:1054BC00082B34D0092B35D00A2B36D00B2B02D02D
:1054CC000122002305E080225200002301E001228A
:1054DC0000230021FAF7BEFF050E0B022B4302023C
:1054EC00656868080021801859412A000023FAF7E2
:1054FC00B1FFC1E702220023EBE704220023E8E717
:10550C0006220023E5E708220023E2E70A22002313
:10551C00DFE70C220023DCE710220023D9E720224E
:10552C000023D6E740220023D3E780220023D0E7D4
:10553C0080225200002301E0012200232848002190
:10554C00FAF788FF060E0B023343020268080021AB
:10555C00801859412A000023FAF77CFF00268BE7BC
:10556C0002220023EAE704220023E7E706220023B5
:10557C00E4E708220023E1E70A220023DEE70C22FD
:10558C000023DBE710220023D8E720220023D5E7F5
:10559C0040220023D2E780220023CFE7FCF7EEFB6A
:1055AC00636A002B22D0012B34D0022B35D0032B75
:1055BC0036D0042B37D0052B38D0062B39D0072BFF
:1055CC003AD0082B3BD0092B3CD00A2B3DD00B2BCF
:1055DC0002D0012200230BE080225200002307E0BE
:1055EC000024F400FFFC0F0000FDFFFF012200234C
:1055FC000021FAF72FFF050E0B022B430202656800
:10560C0068080021801859412A000023FAF722FF6C
:10561C00002631E702220023EAE704220023E7E711
:10562C0006220023E4E708220023E1E70A220023F4
:10563C00DEE70C220023DBE710220023D8E7202230
:10564C000023D5E740220023D2E780220023CFE7B6
:10565C0080225200002301E001220023802000025E
:10566C000021FAF7F7FE060E0B023343020268081C
:10567C000021801859412A000023FAF7EBFE00267E
:10568C00FAE602220023E9E704220023E6E70622D9
:10569C000023E3E708220023E0E70A220023DDE7EA
:1056AC000C220023DAE710220023D7E72022002364
:1056BC00D4E740220023D1E780220023CEE7042E3A
:1056CC0000D1D0E02DD8002E66D0022E26D1636AF0
:1056DC00002B00D1A4E0012B00D1B0E0022B00D1B3
:1056EC00AFE0032B00D1AEE0042B00D1ADE0052BD5
:1056FC0000D1ACE0062B00D1ABE0072B00D1AAE027
:10570C00082B00D1A9E0092B00D1A8E00A2B00D16D
:10571C00A7E00B2B00D180E0012182E001260020C4
:10572C002AE0082E26D1636A002B00D1E0E0012B81
:10573C0000D1EDE0022B00D1ECE0032B00D1EBE02B
:10574C00042B00D1EAE0052B00D1E9E0062B00D1B7
:10575C00E8E0072B00D1E7E0082B00D1E6E0092BAD
:10576C0000D1E5E00A2B00D1E4E00B2B00D1BCE02A
:10577C000121BEE001260020A84A0300103B934201
:10578C0000D9F1E10F2302009A434008083B18406E
:10579C0010432368D86005E1FCF718FC636A002B02
:1057AC001AD0012B25D0022B25D0032B25D0042B6E
:1057BC0025D0052B25D0062B25D0072B25D0082B43
:1057CC0025D0092B25D00A2B25D00B2B01D001215C
:1057DC0003E08021490000E00121FAF7A1FC400020
:1057EC0063685B08C0186168FAF79AFC0004000C47
:1057FC00C2E70221F1E70421EFE70621EDE70821DA
:10580C00EBE70A21E9E70C21E7E71021E5E7202186
:10581C00E3E74021E1E78021DFE78021490000E058
:10582C0001217F48FAF77CFC400063685B08C018D4
:10583C006168FAF775FC0004000C00269CE7022155
:10584C00EFE70421EDE70621EBE70821E9E70A2160
:10585C00E7E70C21E5E71021E3E72021E1E7402110
:10586C00DFE78021DDE7FCF789FA636A002B1AD0A9
:10587C00012B26D0022B26D0032B26D0042B26D08E
:10588C00052B26D0062B26D0072B26D0082B26D06E
:10589C00092B26D00A2B26D00B2B01D0012103E09B
:1058AC008021490000E00121FAF73AFC40006368CE
:1058BC005B08C0186168FAF733FC0004000C002682
:1058CC005AE70221F0E70421EEE70621ECE7082174
:1058DC00EAE70A21E8E70C21E6E71021E4E72021BA
:1058EC00E2E74021E0E78021DEE78021490000E08B
:1058FC00012180200002FAF713FC400063685B086A
:10590C00C0186168FAF70CFC0004000C002633E7A1
:10591C000221EEE70421ECE70621EAE70821E8E79B
:10592C000A21E6E70C21E4E71021E2E72021E0E779
:10593C004021DEE78021DCE7012600202AE0082E4A
:10594C0026D1636A002B00D1E3E0012B00D1EFE0FC
:10595C00022B00D1EEE0032B00D1EDE0042B00D1A3
:10596C00ECE0052B00D1EBE0062B00D1EAE0072B95
:10597C0000D1E9E0082B00D1E8E0092B00D1E7E0E9
:10598C000A2B00D1E6E00B2B00D1BFE00121C1E0D6
:10599C0001260020214A0300103B934200D9E5E088
:1059AC002368D86001236A22A352023AA35200232F
:1059BC00E3662367300070BDFCF708FB636A002BBD
:1059CC001AD0012B24D0022B24D0032B24D0042B4F
:1059DC0028D0052B28D0062B28D0072B28D0082B15
:1059EC0028D0092B28D00A2B28D00B2B01D0012131
:1059FC0003E08021490000E00121FAF791FB636884
:105A0C005B08C0186168FAF78BFB0004000CC1E757
:105A1C000221F2E70421F0E70621EEE7EFFF000098
:105A2C000024F4000821E8E70A21E6E70C21E4E76A
:105A3C001021E2E72021E0E74021DEE78021DCE7CE
:105A4C008021490000E001214948FAF769FB6368AD
:105A5C005B08C0186168FAF763FB0004000C0026B1
:105A6C0098E70221F0E70421EEE70621ECE7082194
:105A7C00EAE70A21E8E70C21E6E71021E4E7202118
:105A8C00E2E74021E0E78021DEE7FCF777F9636A83
:105A9C00002B1AD0012B25D0022B25D0032B25D07F
:105AAC00042B25D0052B25D0062B25D0072B25D054
:105ABC00082B25D0092B25D00A2B25D00B2B01D058
:105ACC00012103E08021490000E00121FAF728FBC5
