:020000040800F2
:1000000000900020396C0008A10C0008A30C000827
:1000100000000000000000000000000000000000E0
:10002000000000000000000000000000A50C000817
:100030000000000000000000A70C0008A90C000848
:10004000896C0008896C0008896C0008B10C0008F4
:10005000B90C0008896C0008896C0008BB0C00080A
:10006000896C0008C50C0008896C0008896C0008C0
:10007000896C0008896C0008896C0008896C00088C
:10008000896C0008D50C0008896C0008896C000890
:10009000896C0008896C0008896C0008896C00086C
:1000A000896C0008896C0008090D0008896C00083B
:0C00B000190D0008896C0008896C00081C
:1000BC0010B5064C2378002B07D1054B002B02D032
:1000CC00044800E000BF0123237010BD7000002025
:1000DC00000000004C750008044B10B5002B03D039
:1000EC000349044800E000BF10BDC04600000000FA
:1000FC00740000204C75000802780B78002A03D09D
:10010C00013001319A42F7D0D01A704703B47146CE
:10011C00490840004900095E49008E4403BC704701
:10012C00002243088B4274D303098B425FD3030A2A
:10013C008B4244D3030B8B4228D3030C8B420DD33D
:10014C00FF22090212BA030C8B4202D312120902CB
:10015C0065D0030B8B4219D300E0090AC30B8B4209
:10016C0001D3CB03C01A5241830B8B4201D38B03B7
:10017C00C01A5241430B8B4201D34B03C01A52415C
:10018C00030B8B4201D30B03C01A5241C30A8B429F
:10019C0001D3CB02C01A5241830A8B4201D38B028A
:1001AC00C01A5241430A8B4201D34B02C01A52412E
:1001BC00030A8B4201D30B02C01A5241CDD2C309A0
:1001CC008B4201D3CB01C01A524183098B4201D31C
:1001DC008B01C01A524143098B4201D34B01C01A07
:1001EC00524103098B4201D30B01C01A5241C3087F
:1001FC008B4201D3CB00C01A524183088B4201D3EE
:10020C008B00C01A524143088B4201D34B00C01AD9
:10021C005241411A00D20146524110467047FFE745
:10022C0001B5002000F0F0F802BDC0460029F7D05F
:10023C0076E7704703460B437FD4002243088B427A
:10024C0074D303098B425FD3030A8B4244D3030B51
:10025C008B4228D3030C8B420DD3FF22090212BA16
:10026C00030C8B4202D31212090265D0030B8B4292
:10027C0019D300E0090AC30B8B4201D3CB03C01A7C
:10028C005241830B8B4201D38B03C01A5241430B57
:10029C008B4201D34B03C01A5241030B8B4201D347
:1002AC000B03C01A5241C30A8B4201D3CB02C01AB2
:1002BC005241830A8B4201D38B02C01A5241430A2A
:1002CC008B4201D34B02C01A5241030A8B4201D319
:1002DC000B02C01A5241CDD2C3098B4201D3CB01C0
:1002EC00C01A524183098B4201D38B01C01A52416F
:1002FC0043098B4201D34B01C01A524103098B4273
:10030C0001D30B01C01A5241C3088B4201D3CB005D
:10031C00C01A524183088B4201D38B00C01A524140
:10032C0043088B4201D34B00C01A5241411A00D2F0
:10033C0001465241104670475DE0CA0F00D0494259
:10034C00031000D34042534000229C4603098B42C9
:10035C002DD3030A8B4212D3FC22890112BA030A51
:10036C008B420CD3890192118B4208D389019211D3
:10037C008B4204D389013AD0921100E08909C30958
:10038C008B4201D3CB01C01A524183098B4201D35A
:10039C008B01C01A524143098B4201D34B01C01A45
:1003AC00524103098B4201D30B01C01A5241C308BD
:1003BC008B4201D3CB00C01A524183088B4201D32C
:1003CC008B00C01A5241D9D243088B4201D34B0047
:1003DC00C01A5241411A00D20146634652415B1089
:1003EC00104601D34042002B00D54942704763466A
:1003FC005B1000D3404201B5002000F005F802BDAF
:10040C000029F8D016E770477047C046002B15D16D
:10041C00002A13D1002906DB01DC002806D00020BD
:10042C00C043410802E080210906002007B40248BD
:10043C0001A14018029003BDD1FFFFFF03B4684631
:10044C0001B5029800F01AF9019B9E4602B00CBC53
:10045C007047C046002B11D1002A0FD1002900D1C2
:10046C00002802D00021C943081C07B4024802A18D
:10047C004018029003BDC04691FFFFFF03B46846CD
:10048C0001B5029800F02EF8019B9E4602B00CBC00
:10049C007047C046F0B515042D0C0F0001002E005E
:1004AC00C64684460004140C000C090C46434D430C
:1004BC00604361434019340C241800B5A54203D99C
:1004CC008020400280464144250C6D1861465943FA
:1004DC007A43300449192404000C2018891804BCF0
:1004EC009046F0BDF0B557464E464546DE46E0B563
:1004FC0004000D009246994683B08B4230D82DD023
:10050C004946504600F0D8F829000600200000F0BB
:10051C00D3F8331A9846203B9B4633D45A4653465D
:10052C00934042461F00534693401E00AF423AD8B8
:10053C00AF4200D178E05B46A41BBD41002B00DA32
:10054C0075E0002200230092019301235A46934048
:10055C000193012342469340009328E08242CFD975
:10056C0000220023009201930C9B002B01D01C60F5
:10057C005D600098019903B03CBC90469946A24638
:10058C00AB46F0BD424620239B1A5246DA40414608
:10059C0013004A468A40170042461F435346934075
:1005AC001E00AF42C4D9002200230092019343469F
:1005BC00002BD9D0FB0772081A4346467B080EE085
:1005CC00AB4201D1A2420CD8A41A9D41012024199E
:1005DC006D410021013E24184D41002E06D0AB4246
:1005EC00EED9013E24196D41002EF8D100980199E5
:1005FC005B4600196941002B24DB2B005A4644460C
:10060C00D3402A00E2401C005B461500002B2ADB7D
:10061C0026009E40330026004746BE403200801A1A
:10062C009941009001919FE7A342BCD883E74246D1
:10063C00202300219B1A0022009101920122DA4012
:10064C00019286E7424620239B1A2A0046469A408E
:10065C002300F340444613432A00E2401C005B464F
:10066C001500002BD4DA42462F0020232600974099
:10067C009B1ADE403B003343CDE7C046F8B5CE466F
:10068C00474680B59146984604000D0000F020F8CE
:10069C0007000E0002000B0048464146FFF7FAFE29
:1006AC00241A8D41089B380031001C605D600CBC25
:1006BC0090469946F8BDC04610B5002903D100F00C
:1006CC00EDF8203002E0081C00F0E8F810BDC04640
:1006DC00F0B557464E464546DE46E0B50F001900CC
:1006EC00002306009846100083B0002F07DA330071
:1006FC003C0000275E42A74101235B42984600293B
:10070C0007DA4346DB430C009846030000215842AD
:10071C00A14134003D0082468946B9426AD867D06F
:10072C0049465046FFF7C8FF834639003000FFF7B3
:10073C00C3FF5B461B1A9C46203B9B466BD458461A
:10074C005146814060460B00514681400A00BB4235
:10075C0000D972E0BB4200D179E034003D0059462B
:10076C00A41A9D41002900DA74E000210020012622
:10077C000090019159468E400196614601268E40AB
:10078C006146009600295FD0D90756080E435F08D2
:10079C006146012200230CE0AF4201D1A6420AD8E7
:1007AC00A41BBD4124196D410139A4185D410029D8
:1007BC0006D0AF42F0D9013924196D410029F8D186
:1007CC00009801995B4600196941002B4DDB2E0006
:1007DC002C00DE406346DC405B46002B55DB3400CE
:1007EC009C4023006446A6403200801A994103E0E5
:1007FC00B04295D9002000214346002B04D00300C1
:10080C000C0000215842A14103B03CBC90469946D3
:10081C00A246AB46F0BD6246484620235146904066
:10082C009B1AD94003000091009960460B43514636
:10083C0081400A00BB4200D88CE7002100200090C8
:10084C000191614600299FD100980199D4E7B142EA
:10085C00F3D882E7614620260127761A0020002172
:10086C00F74000900191019787E7624620239B1A7D
:10087C002A009A40260013006246D6402C001E43E4
:10088C006346DC405B46002BA9DA62462023350028
:10089C0094409B1ADD4023002B43A3E71C2101232A
:1008AC001B04984201D3000C10391B0A984201D347
:1008BC00000A08391B09984201D30009043902A225
:1008CC00105C40187047C04604030202010101018C
:1008DC00000000000000000010B50024092C09DC09
:1008EC00A0200121C00500F087FB642001F0B2FBC1
:1008FC000134F3E7A02000220121C00500F076FBB3
:10090C0010BD000000B5A1B03822002112A806F0DD
:10091C00E4F9102200210EA806F0DFF934220021A0
:10092C0001A806F0DAF98020800001F0ADFA0A2364
:10093C001293F633159300231693402217923F3AE5
:10094C001892013219921A921B9308331C9380232C
:10095C009B021D9380239B041E9380239B051F9356
:10096C0012A800F069FB00281AD107230E93053B4F
:10097C000F9300231093119302210EA800F01AFE7E
:10098C00002810D10B4B0193002303938023DB022F
:10099C00079301A800F0EEFE002807D121B000BD9E
:1009AC00FFF79AFFE1E7FFF797FFEBE7FFF794FFFD
:1009BC00F4E7C0460202000030B59BB001F024FB06
:1009CC00FFF7A0FF00F0BCF806F018F901F05CFB93
:1009DC0001F098FB05F0ECF805F0C0F84C4C200049
:1009EC0001F070FBFA21200003F0D4FD494805F01A
:1009FC0007F9494805F004F901AC6022002102A86E
:100A0C0006F06BF9454B220023CB23C223CB23C228
:100A1C001B881380FA23424D9B00192221002800C9
:100A2C0004F012FF05F0CEFA0D2005F093FA4022E7
:100A3C003C49280003F064FE05F002FB002001F0A5
:100A4C00B7FA00220121072001F048FA0022022106
:100A5C00092001F043FA00220221112001F03EFA94
:100A6C00002202211A2001F039FA002202211C2056
:100A7C0001F034FA2C4805F003FB2C4805F000FB80
:100A8C002B4805F0FDFA2B4805F0FAFA05F01AFA96
:100A9C0003F08CF902F0AAFE00240CE0264B002295
:100AAC001A72DB7A002B13D101F058FC224A4D2329
:100ABC00D35C002B1ED1204B9B7A002BF6D01E4B07
:100ACC001B7A002BEAD11C4BDB7A002BEED1E5E72D
:100ADC0001AD002301936032002102A806F0FDF85D
:100AEC000A232B80F0339B00012229000C4804F0D0
:100AFC00ABFED9E7013402F083FD2307DBD10E4AAC
:100B0C000E4BD35C002BD6D003F03AFCD3E7C04697
:100B1C002806002048070020AC070020FC750008C0
:100B2C00BC0600209C000020FFFF1200FFFF1300FA
:100B3C00FFFF1100FFFF100090000020D104000007
:100B4C00F0B5DE4657464E464546E0B58BB014220E
:100B5C00002105A806F0C1F8474B5A6B0424224328
:100B6C005A635A6B22400192019A596B202211430D
:100B7C005963596B0A400292029A5A6B01252A4317
:100B8C005A635A6B2A400392039A5A6B0221884685
:100B9C000A435A635B6B0B400493049B374B9A4696
:100BAC00A026F60500221900300000F01FFA344F81
:100BBC0000220121380000F019FA324B994600222C
:100BCC004021180000F012FA059403239B4606936B
:100BDC000024079405A92C4800F0D4F8534605933B
:100BEC0006950794089405A9300000F0CBF8274B24
:100BFC0005935B460693079405A9300000F0C2F8F4
:100C0C0040239A4605930694079405A9300000F0FA
:100C1C00B9F8059506950794089405A9380000F0D5
:100C2C00B1F8434605935B460693079405A9380033
:100C3C0000F0A8F85346059306950794089405A967
:100C4C00484600F09FF880231B010593104B069338
:100C5C00079405A9300000F095F800220221072026
:100C6C0001F03CF9072001F06BF90BB03CBC90464D
:100C7C009946A246AB46F0BD0010024083800000AE
:100C8C000004005000080050001400503011000007
:100C9C00000011107047FEE77047704710B501F067
:100CAC00C7F910BD10B500F089FE10BD704710B526
:100CBC00402000F0A9F910BD10B5024801F07CF8F5
:100CCC0010BDC0466006002070B50A4B0120002103
:100CDC001C685D68001969411860596001221A721C
:100CEC00A0200221C00500F087F9034803F087FC1F
:100CFC0070BDC046900000202806002010B50248A8
:100D0C0005F0E4FE10BDC0464807002010B5044CA9
:100D1C00200003F00BFE200001F00CFB10BDC046C0
:100D2C00BC06002010B5402800D010BD05F0CAF854
:100D3C00FBE7000000B583B0114B196C0122114385
:100D4C001964196C0A400092009ADA6B80214905EB
:100D5C000A43DA63DB6B0B400193019B00220021F9
:100D6C00032001F0BBF8032001F0EAF80022002177
:100D7C00042001F0B3F8042001F0E2F803B000BD48
:100D8C0000100240F0B5C64600B500233BE0032638
:100D9C0000E00026AE4035003D43534E1834A4000D
:100DAC00A551802435594246D4432E0026404A682A
:100DBC00D20302D5424615432E004B4D8027EE51EF
:100DCC008426AD592E0026404A68920302D542462D
:100DDC0015432E00444D8427EE512D682E002640DD
:100DEC004A68D20202D5424615432E003E4D2E6073
:100DFC006D682C404A68920202D542462A43140080
:100E0C00394A546001330A681400DC4069D001256A
:100E1C009D402A409046F5D04C68022C01D0122CF3
:100E2C000ED1DC080834A400275807261E40B60053
:100E3C000F22B24097430A69B24016003E43265037
:100E4C0002685F0003242600BE40F64332409446FD
:100E5C004A681440BC406246144304604C68621EED
:100E6C00012A03D9112C01D0122C10D184683440E2
:100E7C00A446CC68BC406246144384604468AC43CE
:100E8C004A681209012515409D4025434560C468F8
:100E9C0026408C68BC403443C4604A68D200B1D54B
:100EAC009C0825001835AD000F4EAF5903251D4089
:100EBC00ED000F26AE40B743A026F605B04200D198
:100ECC0067E70A4EB04208D0094EB04207D0094E2F
:100EDC00B04200D15BE705265CE701265AE7022603
:100EEC0058E704BC9046F0BD0018024000040050C6
:100EFC0000080050000C0050F0B5CE46474680B5B7
:100F0C008946002324E00321884601E0002188461D
:100F1C004146A140A94246D006685F000325BD406A
:100F2C002E430660DC080834A400275807261E4010
:100F3C00B6000F21B1408F4327508668EC43264002
:100F4C008660456895434560C2681440C4600133AF
:100F5C004A46DA403ED001229A404E461640F6D020
:100F6C0099088C460C001834A4001C4D65590324B8
:100F7C001C40E4000F27A7403D40A021C905884232
:100F8C00C4D01749884208D01649884208D016495F
:100F9C008842B8D005218846BAE701218846B7E7D0
:100FAC0002218846B4E70D4D80216C58F64334403D
:100FBC006C5004316C5834406C502C6834402C60AC
:100FCC006C6826406E6064461834A4006659BE43B3
:100FDC006651A1E70CBC90469946F0BD0018024042
:100FEC000004005000080050000C0050002A01D1F1
:100FFC00816270478161FCE74369194201D18161CB
:10100C0070478162FCE7704710B50400094BDB6840
:10101C00184204D1074B1B69234205D110BD054B67
:10102C00D860FFF7F0FFF5E7024B1C612000FFF7DB
:10103C0079FEF3E70018024070B582B0041E00D1AF
:10104C003EE20368DB0739D5C14A916838230B406F
:10105C00D16803220A40102B26D0082B26D06368B7
:10106C008022520293427FD0A022D202934200D11E
:10107C0081E0B74B1A68B7490A401A601A68B6493A
:10108C000A401A606368002B00D180E000F0DCFF9E
:10109C000500AF4B1B689B0310D400F0D5FF401B21
:1010AC006428F6D903200CE2032AD6D1A84B1B687E
:1010BC009B0303D56368002B00D104E223689B07D4
:1010CC0031D5A34A936838210B40D16803220A40DA
:1010DC00102B6AD0002B6BD19D4A1268520503D598
:1010EC00E268002A00D1F0E1994842689B490A4025
:1010FC00616909020A434260002B0DD103689849CB
:10110C000B4021690B4303600368DB0A07221A407A
:10111C00944BD340944A1360944B186800F048FFEA
:10112C00002800D0D3E123681B0700D481E0884B52
:10113C009A6838231340182B73D0A369002B00D165
:10114C0091E0834A136E01210B43136600F07CFF80
:10115C0005007F4B1B6E9B076BD400F075FF401B8B
:10116C000228F6D90320ACE1794A116880235B028E
:10117C000B43136086E7764B19688022D2020A4330
:10118C001A601968802252020A431A607AE700F04A
:10119C005BFF05006E4B1B689B038FD500F054FF63
:1011AC00401B6428F6D903208BE1022A92D193E7E5
:1011BC00E368002B22D0664A136869490B40216909
:1011CC000B431360116880235B000B43136000F02A
:1011DC003BFF05005E4B1B685B0506D400F034FF3B
:1011EC00401B0228F6D903206BE159494B685B4A36
:1011FC0013406269120213434B6094E7544A13681C
:10120C005B490B40136000F01FFF0500504B1B683F
:10121C005B0588D500F018FF401B0228F6D9032087
:10122C004FE14B4B1B6E9B0703D5A369002B00D1E1
:10123C004FE123685B0700D4A2E0454B9A68382342
:10124C001340202B22D0424BDB6BDB0027D4404ACF
:10125C00D16B802040050143D163D36B03400193D4
:10126C00019B01251CE03A4A136E01218B43136646
:10127C0000F0EAFE0500364B1B6E9B07D9D500F03B
:10128C00E3FE401B0228F6D903201AE1304BDB6D3C
:10129C009B0775D5A368002B72D1012011E10025A5
:1012AC00344B1B68DB051FD5A368012B30D0052BF5
:1012BC0034D0274BDA6D01218A43DA65DA6D0331BC
:1012CC008A43DA65A368002B32D000F0BDFE06001D
:1012DC001F4BDB6D9B0751D400F0B6FE801B264BD9
:1012EC009842F5D90320ECE0224A116880235B0078
:1012FC000B43136000F0A8FE06001E4B1B68DB05B9
:10130C00D2D400F0A1FE801B0228F6D90320D8E02D
:10131C000F4AD36D01210B43D365D3E70C4BDA6D28
:10132C0004210A43DA65DA6D03390A43DA65C9E741
:10133C0000F08AFE0600064BDB6D9B071ED500F005
:10134C0083FE801B0C4B9842F5D90320B9E0C046B4
:10135C0000100240FFFFFEFFFFFFFBFFFF80FFFFBF
:10136C00FFC7FFFF0024F400080000200400002049
:10137C00FFFEFFFF0070004010270000012D26D05B
:10138C00E369002B00D1A6E0564A916838220A4046
:10139C00102A63D0022B20D0524B1A6852490A40B3
:1013AC001A60DA6803218A43DA60DA684F490A4026
:1013BC00DA6000F049FE04004A4B1B689B014BD5D8
:1013CC0000F042FE001B0228F6D9032079E0454AC2
:1013DC00D36B47490B40D363D2E7424A1368424967
:1013EC000B40136000F030FE05003E4B1B689B0168
:1013FC0006D500F029FE401B0228F6D9032060E038
:10140C00384AD3683B491940236A606A0343A06A8F
:10141C0000020343E06A0343206B0343606B034306
:10142C000B43D360116880235B040B431360D168BA
:10143C0080235B050B43D36000F006FE0400294BB0
:10144C001B689B0106D400F0FFFD001B0228F6D997
:10145C00032036E0002034E0002032E0012B3CD0A9
:10146C00204BDA6803231340216A8B4201D0012000
:10147C0027E070231340616A8B4201D0012020E0E9
:10148C00FE21C9011140A36A1B02994201D001201F
:10149C0017E0F8239B031340E16A8B4201D0012033
:1014AC000FE0E0231B051340216B8B4201D0012080
:1014BC0007E0520F5207636B9A4210D0012000E0F4
:1014CC00012002B070BD0120FBE70120F9E70120EB
:1014DC00F7E70120F5E70020F3E70120F1E7002012
:1014EC00EFE7C04600100240FFFFFFFEFFFFFEEEDD
:1014FC00FFFFFFEF8C80C11110B52B4B9B6838227E
:10150C001A4219D0284B9A6838231340082B46D01E
:10151C00254B9A6838231340102B18D0224B9A680D
:10152C0038231340202B3CD01F4B9A683823134090
:10153C00182B31D0002009E01B4B1A68D20A072364
:10154C001340012199401948FEF7EAFD10BD164AD7
:10155C00D1680D3B0B40D2681209072111400131B3
:10156C00032B0FD11248FEF7DBFD0F4BDA68120A82
:10157C007F23134058430C4BD968490F0131FEF7B8
:10158C00CFFDE3E70948FEF7CBFD074BDA68120AFB
:10159C007F2313405843EEE7FA20C001D6E70448F6
:1015AC00D4E780200002D1E7001002400024F400B0
:1015BC0000127A0070B504000D00002800D1AAE0DA
:1015CC00574B1A68072313408B4221D323689A0781
:1015DC000ED55B0705D5534A9168E023DB010B431D
:1015EC009360504A936850490B40A1680B43936039
:1015FC002368DB0754D56368012B20D0022B3BD02A
:10160C00002B3FD1474A126852051CD401206AE0D6
:10161C00434A136807218B432B43136000F014FDDE
:10162C0006003F4B1A6807231340AB42CED000F0A4
:10163C000BFD801B3D4B9842F3D9032053E0394AF4
:10164C001268920369D537498A680720824313438D
:10165C008B6000F0F9FC0600324B9B6838221A4074
:10166C006368DB009A421BD000F0EEFC801B2F4B12
:10167C009842F1D9032036E02A4A12689201E2D44A
:10168C00012030E0032B05D0264AD26D9207DAD424
:10169C00012028E0234A126E9207D4D4012022E0C4
:1016AC001F4B1A6807231340AB421DD823685B07F6
:1016BC0006D51C4A93681E490B40E1680B439360A6
:1016CC00FFF71AFF174B9A68120A0F2313409B005F
:1016DC00184A9A581F231340D840174B1860174BC1
:1016EC00186800F065FC70BD0D4A136807218B4328
:1016FC002B43136000F0A8FC0600094B1A68072363
:10170C001340AB42D2D000F09FFC801B074B984299
:10171C00F3D90320E7E70120E5E70120E3E7C04622
:10172C000020024000100240FFF0FFFF8813000071
:10173C00FF8FFFFF1876000808000020040000202F
:10174C00014B18687047C0460800002010B5FFF721
:10175C00F7FF064B9A68120B072313409B00044AB1
:10176C009A581F231340D84010BDC04600100240A9
:10177C0058760008F0B583B0040003689B0360D56D
:10178C00804BDB6BDB001ED47E4AD16B8020400586
:10179C000143D163D36B03400193019B01267A4A29
:1017AC00116880235B000B43136000F04DFC0500B7
:1017BC00754B1B68DB0508D400F046FC401B022867
:1017CC00F6D9032502E00026E9E70025002D21D1FA
:1017DC006C4BDB6DC0229200134010D0226B9A42EE
:1017EC000DD0684AD36D69490B40D06D80214902F8
:1017FC000143D165D16D66480140D165D365DB07E6
:10180C0010D4002D06D15F4AD36D60490B40216B7B
:10181C000B43D365012E15D15A4AD36B5D490B404E
:10182C00D3630FE000F010FC0700564BDB6D9B07F9
:10183C00E7D400F009FCC01B574B9842F5D903259F
:10184C00DFE700252368DB0706D54E4A536D0321DD
:10185C008B4361680B43536523689B0706D5494A44
:10186C00536D0C218B43A1680B43536523689B0676
:10187C0006D5444A536D49490B40E1680B43536507
:10188C0023689B0506D53F4A536D45490B40A1691A
:10189C000B43536523685B0506D53A4A536D4149A2
:1018AC000B40E1690B43536523685B0606D5354A4B
:1018BC00536D3D490B4021690B43536523685B0411
:1018CC000BD5304A536D9B009B08216A0B43536523
:1018DC008023DB05226A9A4239D023681B0306D584
:1018EC00284A536D40218B43616A0B43536523682F
:1018FC009B020BD5234A536D2C490B40A16A0B4319
:10190C0053658023DB03A26A9A4227D023685B02CB
:10191C000BD51C4A536D26490B40E16A0B435365AA
:10192C0080235B04E26A9A421FD023681B050BD507
:10193C00144A536D1F490B4061690B43536562692F
:10194C008023DB019A4215D0280003B0F0BD0D4A6C
:10195C00D16880235B020B43D360BEE7094AD16890
:10196C0080235B040B43D360D0E7064AD1680B435A
:10197C00D360DAE7034AD16880235B020B43D36060
:10198C00E2E7C0460010024000700040FFFCFFFF81
:10199C00FFFFFEFFFFFFFFEF10270000FFF3FFFF2D
:1019AC00FFFFF3FFFFFFCFFFFFCFFFFFFFFFBFFFE7
:1019BC00FFFFFFFEFF3FFFFF7047704710B5334A34
:1019CC0013693349194093698020C00503400B43C8
:1019DC00516930488068814351612F4A10423BD095
:1019EC002C4AD468002B15D02A494A681A434A60FD
:1019FC009A0F920703D02549886902438A619B009C
:101A0C009B0801D0214A1361224B00229A602000CE
:101A1C00FFF7D3FF1D4B1B69DB070CD51B4B0122BA
:101A2C001A611C4B9B68022B1FD01A4B00229A6028
:101A3C002000FFF7C1FF174B9B68002B0BD1134BFA
:101A4C009A6916490A409A615A6915490A405A61BD
:101A5C00104B00221A7010BD0622024202D00D4A11
:101A6C001469BFE701246442BCE70A4A5369013B8D
:101A7C005361002B03D1074B00229A60D8E7130067
:101A8C001269501C186100F00DF8D1E700200240DB
:101A9C00FAC300000006002001000400FFFFFFFE57
:101AAC00FFFFFFFC044A536904490B40C000184374
:101ABC00034B1843506170470020024007FEFFFFA4
:101ACC0002000100F0B5846CC56C6560046D002CDF
:101ADC0002D0446D856D65600B4F7C681C26056CCF
:101AEC002E400125B5402C437C60046863608368FC
:101AFC00102B04D0036899600368DA60F0BD0368AA
:101B0C009A600368D960F9E70000024010B5040040
:101B1C00FF202368184008381421FEF701FB236CC2
:101B2C009B08064A944663449B006364044BA3647D
:101B3C001C2318401B3B8340E36410BD0082001043
:101B4C0080080240FF2342681340064A9A1892000C
:101B5C000265054A4265013B03221A40012393406A
:101B6C00836570473F8200104009024070B5041E27
:101B7C004DD00568274BE8181421FEF7D1FA8000E8
:101B8C00206425230222E2542B68234A13402B6045
:101B9C0021680A68A368E06803432069034360690D
:101BAC000343A0690343E0690343206A03431343DF
:101BBC000B602000FFF7AAFF8023DB01A2689A428A
:101BCC0018D0626CFF2361680B401360A36CE26C4D
:101BDC005A606368013B032B0FD9002323656365AF
:101BEC00A3650023E36325220121A154013AA354E8
:101BFC00002070BD00236360E3E72000FFF7A2FF25
:101C0C00236D00221A60636DA26D5A60E9E7012012
:101C1C00EFE7C046F8FFFDBF0F80FFFF70B5040073
:101C2C002420205C012843D0242001252554013098
:101C3C00205C012804D0022024230022E25470BD31
:101C4C002430013525540020E063256828680126DE
:101C5C00B04328602000FFF735FF236B002B1CD00E
:101C6C00226813680E210B431360636C1A68D2034D
:101C7C0004D51968802252000A431A60236D002B88
:101C8C0004D01968802252000A431A602268136833
:101C9C0001210B4313600020CEE722681368042156
:101CAC008B4313602268136806310B431360DCE727
:101CBC000220C4E730B5002836D02523C35C022BA4
:101CCC0006D00423C36320330022C254012030BD4C
:101CDC00026813680E218B431360426C136813491E
:101CEC000B40136001680A6801239A430A60104C88
:101CFC0062681C21056C29408B4013436360836C24
:101D0C00C26C5A60036D002B06D01A6807490A4052
:101D1C001A60436D826D5A6025230122C254013B27
:101D2C000022C2540020D2E70120D0E7FFFEFFFFC3
:101D3C000000024070B524230122C2540133C35C5D
:101D4C00022B03D00423C363012070BD0268136807
:101D5C000E218B43136001680A6801239A430A60C1
:101D6C00416C0A68124C22400A60124C62681C21B9
:101D7C00056C29408B4013436360836CC26C5A60C2
:101D8C00036D002B06D01A6809490A401A60436D8E
:101D9C00826D5A6025230122C254013B0022C25499
:101DAC00836B002B02D098470020CEE70020CCE7B5
:101DBC00FFFEFFFF0000024070B5314B196804684C
:101DCC0025681C23026C134004229A40114216D041
:101DDC006A0714D523689B0603D423680422934313
:101DEC002360274C63681C21026C114004228A403A
:101DFC0013436360036B002B00D0984770BD022225
:101E0C009A4011421CD0AA071AD523689B0606D407
:101E1C0023680A22934323602523093AC254184CA1
:101E2C0063681C21026C114002228A4013436360D8
:101E3C0024230022C254C36A002BDFD09847DDE76D
:101E4C0008229A401142D9D02B07D7D523680E22ED
:101E5C00934323600A4C62681C21036C19400123D4
:101E6C001D008D402A436260C363252283542333B3
:101E7C000022C254436B002BC0D09847BEE7C0462B
:101E8C0000000240C06B704710B5104A136810492F
:101E9C000B400343136080239B00984201D0002029
:101EAC0010BD0C4B1A6853009B1858000A49FEF7DA
:101EBC0037F90130054B5B695B0503D5002803D06E
:101ECC000138F7E70020EBE70320E9E7007000405A
:101EDC00FFF9FFFF0800002040420F0070B50028FA
:101EEC0011DB8308144DC0339B005C590322104056
:101EFC00C000FC3216008640B44389010A4082407F
:101F0C0022435A5170BDC0B20F230340083B9B08BB
:101F1C0006339B00094A944663445D6803242040C1
:101F2C00C000FF2214008440A54389011140814068
:101F3C0029435960E6E7C04600E100E000ED00E00F
:101F4C00002805DB1F2318401E3B8340014A136009
:101F5C007047C04600E100E000280ADB1F23184050
:101F6C001E3B8340034980228B50BFF34F8FBFF33E
:101F7C006F8F704700E100E001380A4B98420FD890
:101F8C00094A50600948036A1B021B0AC021090652
:101F9C000B430362002393600733136000207047E8
:101FAC000120FCE7FFFFFF0010E000E000ED00E087
:101FBC0010B50400114B1968002901D1012010BD86
:101FCC00FA208000FEF7ACF801000D4B1868FEF704
:101FDC00A7F8FFF7D1FF00280DD1032C01D9012060
:101FEC00EDE70130002221004042FFF777FF054B5F
:101FFC001C600020E3E70120E1E7C0460000002060
:10200C00080000200400002010B5084A1168802345
:10201C005B000B4313600320FFF7CAFF041E02D0C2
:10202C000124200010BDFEF785FEFAE700200240D7
:10203C00034A1368034909685B1813607047C0466C
:10204C002406002000000020014B18687047C04691
:10205C002406002070B50400FFF7F6FF0500631C92
:10206C0002D0044B1B68E418FFF7EEFF401BA042A4
:10207C00FAD370BD00000020024B802212059A603A
:10208C007047C04600ED00E010B50B480B4B0360E9
:10209C0000234360E02212018260094A426103621C
:1020AC0043628362C362036302F01AFA002800D110
:1020BC0010BDFEF711FCFBE728060020007C004059
:1020CC00FFFF000000B583B002680C4B9A4201D0B0
:1020DC0003B000BD0A4BD96B802212060A43DA63A7
:1020EC00DB6BDB0FDB070193019B0022002111202E
:1020FC00FFF7F4FE1120FFF723FFE9E7007C004017
:10210C000010024010B51948194B0360E1235B0223
:10211C00436000238360C36003610C2242618361CE
:10212C00C36103624362836203F040FC002811D157
:10213C0000210E4803F0C8FC00280ED100210B48EA
:10214C0003F0E6FC00280BD1084803F09DFC0028A6
:10215C0009D110BDFEF7C0FBEAE7FEF7BDFBEDE7CA
:10216C00FEF7BAFBF0E7FEF7B7FBF2E7BC06002080
:10217C000044004030B589B004001422002103A8AB
:10218C0004F0ABFD254B22689A4201D009B030BD5A
:10219C00234BD96B802080020143D963DA6B024058
:1021AC000192019A596B0122114359635B6B1340E5
:1021BC000293029B0C2303930A3B04930025059581
:1021CC0006950792A02003A9C005FEF7DBFD154874
:1021DC00154B0360342343608560C5604C33036149
:1021EC0045618561603BC3610562FFF7BFFC002858
:1021FC0011D10C4BA3679C62002200211C20FFF71D
:10220C006DFE1C20FFF79CFE084B1A68136810210A
:10221C000B431360BAE7FEF75FFBEAE700440040AC
:10222C00001002406006002008000240BC0600209E
:10223C0070B59AB0002418E03948031900221A73BB
:10224C000C3002F0A3F8374802F0C4FA04E0344B27
:10225C001B1900221A73013C002CF8DA4022324977
:10226C00304802F04DFA59E001343F2C20DC2C4B65
:10227C001B191B7B0D2BDFD0082B01D07F2BF3D12F
:10228C00274B1B1900221A73002C04DD621E244BF1
:10229C009B1800221A73234D280002F09BFA611E32
:1022AC004022121B92B2204BC918280002F028FAC7
:1022BC00002601966022002102A804F00EFD1B22CC
:1022CC001A4901A804F012FDFA25AD00154C2B009B
:1022DC00062201A9200003F0B7FA01966022002122
:1022EC0002A804F0FAFC1B22114901A804F0FEFC20
:1022FC002B00042201A9200003F0A6FA019660220B
:10230C00002102A804F0E9FC074901A804F0EEFC46
:10231C0082B22B0001A9200003F096FA1AB070BD0E
:10232C0090000020BC0600209C000020787600085D
:10233C008076000810B5074B1B68074A934200D003
:10234C0010BDDA69D206FBD510221A62FFF770FFB6
:10235C00F6E7C046BC06002000440040F0B5DE465F
:10236C0057464E464546E0B59BB0A0200121C0051E
:10237C00FEF742FEDC4B9B7A0B2B09D8002B00D1CD
:10238C0005E20B2B00D902E29B00D84AD3589F469A
:10239C00FF2B00D0FBE1D44B00229A7201AC6032CF
:1023AC00002102A804F099FCD14B220003CB03C2FC
:1023BC00198811809B789370FA239B000A222100C4
:1023CC00CC4803F041FAE2E1C74BDB7A002B02D197
:1023DC00C54B00229A726022002102A804F07DFCF9
:1023EC00C54B0193FA239B00032201A9C14803F0BA
:1023FC002BFA0024092C00DDC9E1A0200121C00525
:10240C00FEF7FAFD6420FFF725FE0134F2E7002306
:10241C0001936022002102A804F05FFC03F03AFD56
:10242C000200B64901A804F061FCFA239B000922C2
:10243C0001A9B04803F008FAAB4BDB7A002B00D0B3
:10244C00A5E1A94B00229A72A1E103F09BFCAC48D8
:10245C0003F0D6FB01AC00276022002102A804F097
:10246C003CFCA84B220023CB23C21B781370FA260A
:10247C00B600A04D33000C222100280003F0E4F933
:10248C000021402003F0FEFC01976022002102A8ED
:10249C0004F023FC03F0E0FC02009B49200004F054
:1024AC0025FC330017222100280003F0CDF901216F
:1024BC00402003F0E7FC01976022002102A804F001
:1024CC000CFC03F099FC02009049200004F00EFC77
:1024DC00330017222100280003F0B6F90221402016
:1024EC0003F0D0FC01976022002102A804F0F5FB58
:1024FC0003F082FC02008649200004F0F7FB330055
:10250C001B222100280003F09FF90321402003F037
:10251C00B9FC01976022002102A804F0DEFB03F055
:10252C007FFC02007B49200004F0E0FB82B2330008
:10253C002100280003F088F90421402003F0A2FCBC
:10254C0001976022002102A804F0C7FB03F068FC8D
:10255C0002007149200004F0C9FB82B23300210053
:10256C00280003F071F90621402003F08BFC019741
:10257C006022002102A804F0B0FB03F03DFC020035
:10258C006649200004F0B2FB33001722210028001A
:10259C0003F05AF90721402003F074FC01976022E4
:1025AC00002102A804F099FB03F026FC02005C4910
:1025BC00200004F09BFB330015222100280003F0BF
:1025CC0043F900241CE021001031C9B2402003F073
:1025DC0059FC002301936022002102A804F07DFB2A
:1025EC0003F00AFC030022004E4901A804F07EFB14
:1025FC00FA2382B29B0001A93E4803F025F901346D
:10260C000E2CE0DD00241EE0072C20D82100203108
:10261C00C9B2402003F036FC002301936022002154
:10262C0002A804F05AFB03F0E7FB030022003E492A
:10263C0001A804F05BFBFA239B001B2201A92D4887
:10264C0003F002F90134062CDEDD002420E0002129
:10265C00DFE7072C20D821002831C9B2402003F035
:10266C0011FC002301936022002102A804F035FB29
:10267C0003F0C2FB030022002C4901A804F036FB36
:10268C00FA239B001A2201A91A4803F0DDF8013441
:10269C00062CDEDD002420E00021DFE7072C20D80B
:1026AC0021003031C9B2402003F0ECFB0023019330
:1026BC006022002102A804F010FB03F0B1FB030020
:1026CC0022001B4901A804F011FBFA2382B29B00E3
:1026DC0001A9084803F0B8F80134062CDEDD00240B
:1026EC0047E00021DFE7C04690000020FC7900089D
:1026FC00F0790008BC0600206F6B0A001477000804
:10270C00480700208876000898760008B476000800
:10271C00CC760008E8760008047700081C770008DF
:10272C00347700084C770008647700088477000839
:10273C00A0770008072C31D821003831C9B24020CD
:10274C0003F0A0FB002301936022002102A804F0F7
:10275C00C4FA03F065FB030022006E4901A804F0E3
:10276C00C5FAFA2382B29B0001A96B4803F06CF8FE
:10277C000134062CDEDD694BDB7A002B02D1674B72
:10278C0000229A72664803F0A7FA03F0D3FA1BB042
:10279C003CBC90469946A246AB46F0BD0021CEE724
:1027AC0000240F2C50DC5D4B9B4625001435AD00EE
:1027BC00002398465B4A0023594668580021FDF7D0
:1027CC0069FE594A0023FDF745FE82468946434679
:1027DC0001936022002102A804F07FFA22005349E1
:1027EC0001A804F083FAFA27BF0082B24A4E3B00DC
:1027FC0001A9300003F028F8434601936022002120
:10280C0002A804F06AFA52464B46494901A804F062
:10281C006DFA3B000F2201A9300003F015F8434676
:10282C0001936022002102A804F057FA5B46EA5893
:10283C00404901A804F05AFA82B23B0001A93000C9
:10284C0003F002F80134ACE7344BDB7A002B9ED159
:10285C00324B00229A729AE70026019660220021E0
:10286C0002A804F03AFA00F079FF334A0023FDF78E
:10287C00CDFD02000B00314901A804F037FAFA250E
:10288C00AD0082B2244C2B0001A9200002F0DCFF29
:10289C0001966022002102A804F01FFA00F05EFFEE
:1028AC00FA2292000023FDF7B1FDFA2292000023D8
:1028BC00FDF7ACFD224901A804F018FA82B22B00F6
:1028CC0001A9200002F0C0FF144BDB7A002B00D0D2
:1028DC005DE7124B00229A7259E701AC0023019379
:1028EC006022002102A804F0F8F90A232380F033B7
:1028FC009B0001222100084802F0A6FF03F0E8FB30
:10290C00064BDB7A002B00D041E7044B00229A7275
:10291C003DE7C046BC770008BC06002090000020B4
:10292C004807002040771B00FFFFFF00D877000806
:10293C00E07700081477000840420F00EC7700089D
:10294C00F077000801AC00239B466022002102A80E
:10295C0004F0C3F9FD4B1A6801929B88A380FA25F9
:10296C00AD00FB4E2B0005222100300002F06CFF65
:10297C006022002102A804F0B0F9F64B220083CBB0
:10298C0083C21B7813702B000C222100300002F044
:10299C005BFF5B4601936022002102A804F09DF9C5
:1029AC000B2000F0B9FEFA2292000023FDF752FD35
:1029BC0002000B00E8498A46200004F097F982B225
:1029CC002B002100300002F03FFF5B460193602298
:1029DC00002102A804F081F90B2000F09DFEFA22E0
:1029EC0092000023FDF736FDDC498946200004F0F7
:1029FC007DF92B000A222100300002F025FF602215
:102A0C00002102A804F069F9D54B220083CB83C2C4
:102A1C001B7813702B000C222100300002F014FFE5
:102A2C005B4601936022002102A804F056F90620AF
:102A3C0000F072FEFA2292000023FDF70BFD02005B
:102A4C000B005146200004F051F982B22B002100FA
:102A5C00300002F0F9FE5B4601936022002102A8CF
:102A6C0004F03BF9062000F057FEFA2292000023F6
:102A7C00FDF7F0FC4946200004F038F92B000A223F
:102A8C002100300002F0E0FE6022002102A804F0D8
:102A9C0024F9B44B220083CB83C21B7813702B0018
:102AAC000C222100300002F0CFFE5B460193602225
:102ABC00002102A804F011F9002000F02DFEFA22EA
:102ACC0092000023FDF7C6FC02000B0051462000CB
:102ADC0004F00CF982B22B002100300002F0B4FE9D
:102AEC005B4601936022002102A804F0F6F8002056
:102AFC0000F012FEFA2292000023FDF7ABFC4946CF
:102B0C00200004F0F3F82B000A222100300002F020
:102B1C009BFE6022002102A804F0DFF8924B2200F9
:102B2C0083CB83C21B7813702B000C222100300046
:102B3C0002F08AFE5B4601936022002102A804F099
:102B4C00CCF80E2000F0E8FDFA2292000023FDF7ED
:102B5C0081FC02000B005146200004F0C7F882B241
:102B6C002B002100300002F06FFE5B4601936022C7
:102B7C00002102A804F0B1F80E2000F0CDFDFA22DD
:102B8C0092000023FDF766FC4946200004F0AEF8E5
:102B9C002B000A222100300002F056FE6022002198
:102BAC0002A804F09AF8714B220083CB83C21B78E5
:102BBC0013702B000C222100300002F045FE5B4606
:102BCC0001936022002102A804F087F8022000F093
:102BDC00A3FDFA2292000023FDF73CFC02000B003F
:102BEC005146200004F082F882B22B002100300004
:102BFC0002F02AFE5B4601936022002102A804F039
:102C0C006CF8022000F088FDFA2292000023FDF7F8
:102C1C0021FC4946200004F069F82B000A2221000F
:102C2C00300002F011FE6022002102A804F055F8D9
:102C3C004F4B220083CB83C2196811601B7913712F
:102C4C002B0010222100300002F0FEFD5B460193A8
:102C5C006022002102A804F040F80C2000F096FD40
:102C6C00FA2292000023FDF7D1FB02000B00414930
:102C7C008946200004F03AF882B22B002100300083
:102C8C0002F0E2FD5B4601936022002102A804F0F1
:102C9C0024F80C2000F07AFDC317C0185840290006
:102CAC00FDF7AEFB0A00344B9A461900200004F0E5
:102CBC001DF82B0009222100300002F0C5FD602216
:102CCC00002102A804F009F82C4B220083CB83C20C
:102CDC00196811601B7913712B0010222100300030
:102CEC0002F0B2FD5B4601936022002102A803F0C2
:102CFC00F4FF052000F04AFDFA2292000023FDF7B4
:102D0C0085FB02000B004946200003F0EFFF82B266
:102D1C002B002100300002F097FD5B4601936022EE
:102D2C00002102A803F0D9FF052000F02FFDC317E6
:102D3C00C01858402900FDF763FB0A0051462000DB
:102D4C0003F0D4FF2B000922210019E0FC770008C6
:102D5C00BC06002004780008147800081C780008D1
:102D6C002C7800083C7800084C7800085C78000847
:102D7C006C7800088078000888780008947800083F
:102D8C00300002F061FD6022002102A803F0A5FFD3
:102D9C00FB4B220083CB83C2196811601B79137122
:102DAC002B0010222100300002F04EFD5B460193F7
:102DBC006022002102A803F090FF012000F0E6FC45
:102DCC00FA2292000023FDF721FB02000B0049467A
:102DDC00200003F08BFF82B22B002100300002F0A8
:102DEC0033FD5B4601936022002102A803F075FFBE
:102DFC00012000F0CBFCC317C01858402900FDF788
:102E0C00FFFA0A005146200003F070FF2B00092244
:102E1C002100300002F018FD6022002102A803F00E
:102E2C005CFFD84B220083CB83C2196811601B79DD
:102E3C0013712B0010222100300002F005FD5B46BF
:102E4C0001936022002102A803F047FF0D2000F03F
:102E5C009DFCFA2292000023FDF7D8FA02000B0029
:102E6C004946200003F042FF82B22B0021003000C3
:102E7C0002F0EAFC5B4601936022002102A803F0F9
:102E8C002CFF0D2000F082FCC317C01858402900FD
:102E9C00FDF7B6FA0A005146200003F027FF2B007D
:102EAC0009222100300002F0CFFC6022002102A890
:102EBC0003F013FFB44B220083CB83C2196811605B
:102ECC001B7913712B0010222100300002F0BCFC86
:102EDC005B4601936022002102A803F0FEFE032052
:102EEC0000F054FCFA2292000023FDF78FFA020046
:102EFC000B004946200003F0F9FE82B22B002100A2
:102F0C00300002F0A1FC5B4601936022002102A874
:102F1C0003F0E3FE032000F039FCC317C01858403F
:102F2C002900FDF76DFA0A005146200003F0DEFE81
:102F3C002B0009222100300002F086FC60220021C7
:102F4C0002A803F0CAFE914B220083CB83C21B88DC
:102F5C0013802B000D222100300002F075FC5B4623
:102F6C0001936022002102A803F0B7FE042000F0B8
:102F7C001DFCFA2292000023FDF748FA02000B0018
:102F8C004946200003F0B2FE82B22B002100300033
:102F9C0002F05AFC5B4601936022002102A803F068
:102FAC009CFE042000F002FCC317C01858402900F6
:102FBC00FDF726FA0A007649200003F097FE2B0055
:102FCC000A222100300002F03FFC201D602200216B
:102FDC0003F083FE01AC6F4B220023CB23C21B8872
:102FEC001380FA25AD006C4E2B000D222100300011
:102FFC0002F02AFC002301936022002102A803F0B6
:10300C006CFE0A2000F0D2FBFA2292000023FDF79E
:10301C00FDF902000B0061498946200003F066FEB1
:10302C0082B22B002100300002F00EFC5B460193B3
:10303C006022002102A803F050FE0A2000F0B6FB2B
:10304C00C317C01858402900FDF7DAF90A00504B95
:10305C0098461900200003F049FE2B000A2221009B
:10306C00300002F0F1FB6022002102A803F035FED3
:10307C004B4B220083CB83C21B8813802B000D2269
:10308C002100300002F0E0FB5B460193602200213E
:10309C0002A803F022FE092000F088FBFA2292001D
:1030AC000023FDF7B3F902000B004946200003F0A2
:1030BC001DFE82B22B002100300002F0C5FB5B46E6
:1030CC0001936022002102A803F007FE092000F002
:1030DC006DFBC317C01858402900FDF791F90A0081
:1030EC004146200003F002FE2B000A222100300092
:1030FC0002F0AAFB6022002102A803F0EEFD294B8E
:10310C00220083CB83C21B8813802B000D2221004D
:10311C00300002F099FB5B4601936022002102A86B
:10312C0003F0DBFD0F2000F041FBFA22920000239C
:10313C00FDF76CF902000B004946200003F0D6FDA8
:10314C0082B22B002100300002F07EFB5B46019323
:10315C006022002102A803F0C0FD0F2000F026FB26
:10316C00C317C01858402900FDF74AF90A00414618
:10317C00200003F0BBFD2B000A222100300013E0DD
:10318C00A8780008BC780008D0780008E47800081B
:10319C00F478000800790008BC060020807800084C
:1031AC00107900082079000802F04EFB1F4BDB7AE7
:1031BC00002B01D0FFF7EBFA1C4B00229A72FFF7A1
:1031CC00E6FA1A4A00239372D37A59424B41DBB286
:1031DC00D372002B14D001AC6022002102A803F0A2
:1031EC007CFD134B220003CB03C21B781370FA2314
:1031FC009B00082221000F4802F026FBFFF7C7FABC
:10320C0001AC6022002102A803F067FD0A4B2200EA
:10321C0003CB03C21B881380FA239B0009222100D5
:10322C00044802F011FBFFF7B2FAC04690000020F0
:10323C0030790008BC0600203C790008DF4BDB7AB3
:10324C00002B02D1DD4B00229A7201AC00270197B2
:10325C006022002102A803F040FD0A232380FA26F5
:10326C00B600D74D330001222100280002F0ECFA01
:10327C0001976022002102A803F02FFDCF4A90464F
:10328C009B22D200424410685168FA22920000231B
:10329C00FDF700F902000B00CA49200003F026FDDF
:1032AC0082B233002100280002F0CEFA019760228E
:1032BC00002102A803F011FDC34B4246D258C3496A
:1032CC00200003F013FD82B233002100280002F02D
:1032DC00BBFA01976022002102A803F0FEFCAB228E
:1032EC00D200424453681268B949200003F0FEFC36
:1032FC0082B233002100280002F0A6FA60220021DD
:10330C0002A803F0EAFCB34B220083CB83C21B78E8
:10331C00137033000C222100280002F095FA0027CC
:10332C0001976022002102A803F0D7FC062000F0D0
:10333C0005FAA94A0023FDF78DF802000B00A749F6
:10334C008946200003F0D2FC82B233002100280011
:10335C0002F07AFA01976022002102A803F0BDFC6A
:10336C00062000F0EBF99C4A0023FDF773F89C490A
:10337C008B46200003F0BAFC33000D2221002800FC
:10338C0002F062FA6022002102A803F0A6FC954B21
:10339C00220083CB83C21B78137033000C222100D4
:1033AC00280002F051FA002701976022002102A8A0
:1033BC0003F093FC002000F0C1F9874A0023FDF7CD
:1033CC0049F802000B004946200003F08FFC82B242
:1033DC0033002100280002F037FA01976022002107
:1033EC0002A803F07AFC002000F0A8F97A4A002326
:1033FC00FDF730F87C49200003F078FC82B23300F2
:10340C002100280002F020FA01976022002102A876
:10341C0003F063FC9E22D200424410685168FA22E9
:10342C0092000023FDF736F802000B006F492000D4
:10343C0003F05CFC82B233002100280002F004FA95
:10344C0001976022002102A803F047FCA123DB00B6
:10345C004246D2586649200003F048FC82B2330041
:10346C002100280002F0F0F901976022002102A847
:10347C0003F033FCA522D2004244536812685D4924
:10348C00200003F033FC82B233002100280002F04C
:10349C00DBF96022002102A803F01FFC564B22002E
:1034AC0083CB83C21B78137033000C2221002800BD
:1034BC0002F0CAF9002701976022002102A803F04C
:1034CC000CFC0E2000F03AF9434A0023FCF7C2FF33
:1034DC0002000B004946200003F008FC82B23300C6
:1034EC002100280002F0B0F901976022002102A807
:1034FC0003F0F3FB0E2000F021F9374A0023FCF710
:10350C00A9FF5946200003F0F1FB33000D222100E6
:10351C00280002F099F96022002102A803F0DDFBDB
:10352C00364B220083CB83C21B78137033000C22E2
:10353C002100280002F088F9002701976022002161
:10354C0002A803F0CAFB022000F0F8F8224A00237C
:10355C00FCF780FF02000B004946200003F0C6FB7D
:10356C0082B233002100280002F06EF9019760222C
:10357C00002102A803F0B1FB022000F0DFF8164A8C
:10358C000023FCF767FF5946200003F0AFFB330024
:10359C000D222100280002F057F90197602200212A
:1035AC0002A803F09AFB0A23238033000122210096
:1035BC00280002F049F9FFF7EAF8C0469000002015
:1035CC00BC060020487900083C0500006079000822
:1035DC00787900082C78000840420F001478000815
:1035EC008C7900083C7800089C790008AC790008BC
:1035FC00C4790008DC7900084C7800085C78000875
:10360C0030B593B02C4A4D230021D154402202A84E
:10361C0003F063FB0F2000E00138002819DD0021C6
:10362C000F29F9DC431E244C1B015B1824339B002F
:10363C0002015218243292001D5915518A0002AD14
:10364C00555901951B59AC46634402AC13510131D9
:10365C00E6E7002217E01849130014339B005B586F
:10366C001000243080004350900002AC04590194A7
:10367C00A446634402AC03511B0910002530FF30F3
:10368C008000435001320F2AE5DD0B499A22D2000B
:10369C008B5C0133DBB28B54102B05D8074BCB5C06
:1036AC00002B07D0012300E001230349034A8B546C
:1036BC0013B030BD0023F8E790000020D1040000C7
:1036CC0010B52530FF308000054BC058054A00234B
:1036DC000021FCF7DFFE044A0023FCF7BBFE10BD03
:1036EC009000002000D2496BFFFFFF0010B5253081
:1036FC00FF308000054BC058054A00230021FCF721
:10370C00C9FE044A0023FCF7A5FE10BD9000002062
:10371C0040771B00FFFFFF0010B5FFF7D1FF054AF4
:10372C000023121A8B4110001900034A0023FCF7E6
:10373C0091FE10BD00D2496B1027000010B5FFF7A9
:10374C00BFFF054A0023121A8B41100019000A22F0
:10375C000023FCF77FFE10BD00D2496B10B507208B
:10376C00FFF7C4FF074A0023FCF794FE84225200A3
:10377C000023FCF76FFE044A01235B428018594179
:10378C0010BDC0465C440000889103FC10B5FFF7E7
:10379C00ADFF1E220023FCF75DFE034A01235B42B2
:1037AC008018594110BDC046D08AFFFF10B5A0B09B
:1037BC00040080220B49684603F086FA2000FFF7CC
:1037CC0095FFE4006C4422686368801A99411422C6
:1037DC000023FCF71BFE044A01235B42801859416D
:1037EC0020B010BD687500081802FFFFF0B5DE466A
:1037FC0057464E464546E0B5A1B007AC60220021C5
:10380C0008A803F06AFAB94B220003CB03C2FA26CC
:10381C00B600B74D330007222100280002F014F83F
:10382C006022002108A803F058FAB24B220083CB87
:10383C0083C2196811609B88938033001122210088
:10384C00280002F001F8B020400302F019FCAA484D
:10385C0002F016FCA94B9D22D20094466344A84862
:10386C000321186059600023994605939B460493E5
:10387C009A4629E0012040429DE001239A469F4B45
:10388C009846A04B42465146D154C117009A019B11
:10389C00FCF700FE04000D005346D91732003B0024
:1038AC005046FCF7F7FD24184D419B23DB004344A5
:1038BC001C605D60E023DB009C46E1440596BB4642
:1038CC00009B019C0493A2468F4B994500D981E043
:1038DC00B0204003484402F0D3FB6420FEF7BAFB4F
:1038EC00864B9846894A00234146886E0021FCF796
:1038FC00D1FD874A0023FCF7ADFD844C0025220046
:10390C002B00121A8B41100019000A220023FCF71D
:10391C00A1FD0090019122002B004146086D002171
:10392C00FCF7B8FD7A4A0023FCF794FD241A8D416C
:10393C00200029000A220023FCF78CFD06000F0052
:10394C00744C002520002900009A019B801A994193
:10395C00A41BBD4102000B00FCF79CFD02900391DF
:10396C0022002B0020002900FCF794FD029B039CF5
:10397C001B184C41180021009D23DB0043441A689E
:10398C005B68A34202DC95D1824293D95B4B9C22AB
:10399C00D2004C469C5008329446634418605960DF
:1039AC00009B019C544505D800D063E7049A9342D0
:1039BC0000D85FE70120514A574BD0545F4500D9DE
:1039CC005BE703D1059B9E4200D956E701235B427E
:1039DC009A4654E707AC00239846079360220021CF
:1039EC0008A803F07AF9454D9B23DB00EB181A6805
:1039FC005B684A49200003F079F9FA27BF0082B2CC
:103A0C003B4B99463B002100484601F01DFF4346C5
:103A1C0007936022002108A803F05FF93E4BEA5699
:103A2C003F49200003F062F982B23B002100484676
:103A3C0001F00AFF434607936022002108A803F017
:103A4C004CF9304BEA563749200003F04FF982B25B
:103A5C003B002100484601F0F7FE434607936022E5
:103A6C00002108A803F039F99C23DB009846EA589A
:103A7C002D49200003F03AF982B23B002100484660
:103A8C0001F0E2FE4346E858B0235B039C466044D9
:103A9C0002F0F6FA6022002108A803F01EF9154B7B
:103AAC00220043CB43C2196811609B8893803B0072
:103ABC0011222100484601F0C7FEA020400302F06D
:103ACC00DFFA1A4802F0DCFAA023DB009C466544BE
:103ADC000B4A03232A606B600023994605939B468F
:103AEC0004939A464BE001204042C0E02C7A000837
:103AFC00BC060020347A0008FF7F170090000020DD
:103B0C00006298C5D3040000FEFF000040771B0044
:103B1C00FFFFFF00905F0100D2040000487A00080C
:103B2C00647A0008847A0008A47A0008FF7F1500E4
:103B3C0001239A46904B9846904B42465146D1549D
:103B4C00C117009A019BFCF7A5FC04000D0053461D
:103B5C00D91732003B005046FCF79CFC24184D4111
:103B6C009E23DB0043441C605D60E023DB009C462D
:103B7C00E1440596BB46009B019C0493A246804BF6
:103B8C00994500D982E0A0204003484402F078FA1D
:103B9C006420FEF75FFA784B984688234246D0584B
:103BAC00784A00230021FCF775FC774A0023FCF7C8
:103BBC0051FC744C002522002B00121A8B41100072
:103BCC0019000A220023FCF745FC00900191220009
:103BDC002B004146886D0021FCF75CFC6A4A0023EF
:103BEC00FCF738FC241A8D41200029000A220023FE
:103BFC00FCF730FC06000F00644C00252000290067
:103C0C00009A019B801A9941A41BBD4102000B0034
:103C1C00FCF740FC0290039122002B0020002900AD
:103C2C00FCF738FC029B039C1B184C41180021002C
:103C3C00A023DB0043441A685B68A34202DC94D1E6
:103C4C00824292D94C4B9F22D2004C469C50083257
:103C5C009446634418605960009B019C544505D8F8
:103C6C0000D040E7049A934200D83CE70120424A36
:103C7C00474BD0545F4500D95AE703D1059B9E4270
:103C8C0000D955E701235B429A4653E707AC002362
:103C9C00984607936022002108A803F01EF8364DC1
:103CAC009E23DB00EB181A685B683A49200003F08E
:103CBC001DF8FA27BF0082B2374E3B0021003000BE
:103CCC0001F0C2FD434607936022002108A803F0CF
:103CDC0004F82F4BEA563149200003F007F882B262
:103CEC003B002100300001F0AFFD434607936022FA
:103CFC00002108A802F0F1FF204BEA5628492000C9
:103D0C0002F0F4FF82B23B002100300001F09CFD78
:103D1C00434607936022002108A802F0DEFF9F2390
:103D2C00DB009846EA581F49200002F0DFFF82B200
:103D3C003B002100300001F087FD6022002108A823
:103D4C0002F0CBFF184B1A6807921B7923713B00CA
:103D5C0004222100300001F077FD4346E858A023EF
:103D6C005B039C46604402F08BF921B03CBC90464E
:103D7C009946A246AB46F0BD90000020D504000049
:103D8C00FEFF000040771B00FFFFFF00905F01006B
:103D9C00D4040000C47A0008BC060020E07A0008B5
:103DAC00007B0008207B0008407B0008F0B5224E09
:103DBC00224FA123DB00F7500833F31801204042B7
:103DCC00C11718605960A323DB00F3181860596001
:103DDC00A423DB00F3181A4C00251C605D60A5239E
:103DEC00DB009C46B44400220023644622606360DE
:103DFC00A624E400A446B444644622606360114CDB
:103E0C003751043437193860796008343719386001
:103E1C007960AA21C9007118094C00250C604D600D
:103E2C00AB21C90071180A604B60AC21C9008C46EB
:103E3C00664432607360F0BD90000020FF7F00008C
:103E4C0040420F003C050000F0B5DE4657464E469A
:103E5C004546E0B59BB0974EA523DB00F7183B68B1
:103E6C0099467B689846944BF456E5170E20FFF75D
:103E7C0065FC02000B0020002900FCF70BFB040082
:103E8C000D008E4BF3569A46DB179B460220FFF72C
:103E9C0055FC02000B0050465946FCF7FBFA24185F
:103EAC004D419E23DB00F31818685968FA229200E2
:103EBC000023FCF7EFFA241A8D413C607D60A623A9
:103ECC00DB00F7183868796800196941103BF31862
:103EDC001A685B68FCF79AFA824638607960A12709
:103EEC00FF00F3599B46A223DB00F3181A685B68AA
:103EFC0020002900FCF7CEFAFA2292000023FCF7EE
:103F0C0085FA03005B44A322D200B2181068524613
:103F1C005043C018F0516A4B984201D96949F1518C
:103F2C00644CA123DB00E058A8235B039C4660444F
:103F3C0002F0A6F8A523DB009C4664442268636863
:103F4C00002B10DC02D160498A420CD84146002972
:103F5C0009DC02D15C49894505D85648A721C9001E
:103F6C00415601292AD0002B10DC02D156498A4235
:103F7C000CD84146002909DC02D15349894505D8A2
:103F8C004C48A721C900415600291ED0002B0ADC41
:103F9C0002D14D4B9A4206D84346002B03DC08D184
:103FAC00494B994505D9434AA723DB00D356012B2E
:103FBC0044D0404AA723DB000021D1541BB03CBCA9
:103FCC0090469946A246AB46F0BDA723DB000131D3
:103FDC00C15401AC6022002102A802F07EFE3B4BD2
:103FEC00220003CB03C2FA26B600394D3300072258
:103FFC002100280001F028FC6022002102A802F018
:10400C006CFE344B220083CB83C283CB83C2330040
:10401C0017222100280001F017FC6022002102A8C1
:10402C0002F05BFE2C4B1A6801921B792371330052
:10403C0004222100280001F007FCBFE7A723DB00C6
:10404C000021D15401AC602202A802F046FE234BA1
:10405C00220003CB03C2FA26B6001D4D3300072203
:10406C002100280001F0F0FB6022002102A802F0E0
:10407C0034FE1B4B220083CB83C283CB83C21968D3
:10408C0011601B79137133001C222100280001F0F0
:10409C00DBFB6022002102A802F01FFE0E4B1A6807
:1040AC0001921B792371330004222100280001F0B6
:1040BC00CBFB83E790000020D4040000D504000063
:1040CC00FEFF0000FFFF00004FC30000487B00080C
:1040DC00BC060020507B0008407B0008687B000871
:1040EC00707B0008F0B5DE4657464E464546E0B5B7
:1040FC009BB0964EAB23DB00F7183B6899467B6868
:10410C009846934BF456E5170620FFF717FB020071
:10411C000B0020002900FCF7BDF904000D008D4BAD
:10412C00F3569A46DB179B460020FFF707FB02006D
:10413C000B0050465946FCF7ADF924184D419B2312
:10414C00DB00F31818685968FA2292000023FCF778
:10415C00A1F9241A8D413C607D60AC23DB00F7187B
:10416C003868796800196941103BF3181A685B6864
:10417C00FCF74CF9824638607960774FF3599B46CF
:10418C00A823DB00F3181A685B6820002900FCF7F1
:10419C0081F9FA2292000023FCF738F903005B4402
:1041AC00A922D200B218106852465043C018F051E0
:1041BC006A4B984201D96A49F151644C664BE058FC
:1041CC00B8235B039C46604401F05AFFAB23DB0031
:1041DC009C46644422686368002B10DC02D1614960
:1041EC008A420CD84146002909DC02D15D49894537
:1041FC0005D85648AD21C900415601292AD0002BBB
:10420C0010DC02D157498A420CD84146002909DCFE
:10421C0002D15449894505D84C48AD21C9004156B5
:10422C0000291ED0002B0ADC02D14E4B9A4206D834
:10423C004346002B03DC08D14A4B994505D9434A28
:10424C00AD23DB00D356012B44D0404AAD23DB0019
:10425C000021D1541BB03CBC90469946A246AB46BB
:10426C00F0BDAD23DB000131C15401AC6022002153
:10427C0002A802F032FD3C4B220003CB03C2FA260B
:10428C00B6003A4D330007222100280001F0DCFA79
:10429C006022002102A802F020FD354B220083CBC6
:1042AC0083C283CB83C2330017222100280001F084
:1042BC00CBFA6022002102A802F00FFD2D4B1A68E8
:1042CC0001921B792371330004222100280001F094
:1042DC00BBFABFE7AD23DB000021D15401AC602257
:1042EC0002A802F0FAFC244B220003CB03C2FA26EC
:1042FC00B6001E4D330007222100280001F0A4FA5D
:10430C006022002102A802F0E8FC1C4B220083CBA7
:10431C0083C283CB83C2196811601B79137133007C
:10432C001C222100280001F08FFA6022002102A833
:10433C0002F0D3FC0F4B1A6801921B7923713300E6
:10434C0004222100280001F07FFA83E7900000206E
:10435C00D2040000D30400003C050000FEFF000066
:10436C00FFFF00004FC30000487B0008BC06002084
:10437C00907B0008407B0008687B0008A87B000845
:10438C0010B5FFF761FDFFF7ADFE10BD30B59BB06A
:10439C00040001AD6022002102A802F09EFC434BF8
:1043AC001A6801921B792B71FA239B0004222900B5
:1043BC003F4801F049FA3F492000FBF79DFE0028D9
:1043CC0004D13D4B01229A721BB030BD3B492000F9
:1043DC00FBF792FE002803D1374B02229A72F3E7C7
:1043EC0037492000FBF788FE002803D1324B03220B
:1043FC009A72E9E733492000FBF77EFE002803D1CF
:10440C002D4B04229A72DFE72F492000FBF774FE34
:10441C00002809D02D492000FBF76EFE002818D18A
:10442C00254B07229A72CFE701AC0023019360223F
:10443C00002102A802F051FC0A232380F0339B00D8
:10444C00012221001A4801F0FFF91B4B06229A7237
:10445C00BAE71F492000FBF74FFE002803D1164B8B
:10446C0008229A72B0E71B492000FBF745FE002892
:10447C0003D1114B09229A72A6E717492000FBF7CA
:10448C003BFE002803D10C4B0A229A729CE713497D
:10449C002000FBF731FE002803D1074B0B229A7248
:1044AC0092E7054BFF229A728EE7C046C87B000844
:1044BC00BC060020D07B000890000020D87B0008B0
:1044CC00E07B0008EC7B0008F87B0008047C00080B
:1044DC000C7C0008187C00081C7C0008207C000860
:1044EC0070B5041E4CD03623C35C002B3DD0362354
:1044FC000222E2542568EB686068012804D080220F
:10450C001204A16A914201D11E22934361691D4A92
:10451C00914201D01C4A13401C4A1A40A368034321
:10452C00266A3343666A3343A66A3343134301282E
:10453C0003D080221204964203D1E2682069024320
:10454C001343104A914204D0A2691143E26911430A
:10455C000B43EB6023680E4A93420CD0E26A5A621A
:10456C0036230122E254002070BD35330022C254A0
:10457C00FDF7A8FDBBE7E26A216B0A435A62EFE73D
:10458C000120F1E7FFFF00003F1FFFFFF8F119FFCB
:10459C00007C004010B536230222C2544368012B24
:1045AC0004D080231B04826A9A4219D00268936853
:1045BC00102423439360026893680E3C234393605A
:1045CC00046823690122134323610368996101681C
:1045DC000B69042423430B613623C254002010BD05
:1045EC000268D368014C2340D360DFE7FFF1FFFF83
:1045FC00704770477047704770477047704710B5E9
:10460C00040003681A68D20702D59A68D2072AD424
:10461C0023681A68920702D59A68920728D42368EF
:10462C001A68520702D59A68520727D423681A6869
:10463C00120702D59A68120726D423681A68D20684
:10464C0002D59A68D20625D423681A68920602D538
:10465C009A68920624D423681A68520602D59A687E
:10466C00520623D410BD01225A60FFF7C1FFCFE7D9
:10467C0002225A602000FFF7BCFFD0E704225A60E8
:10468C002000FFF7B7FFD1E708225A602000FFF7A0
:10469C00B2FFD2E710225A602000FFF7ADFFD3E73C
:1046AC0020225A602000FFF7A8FFD4E740225A606E
:1046BC002000FFF7A3FFD5E702681368C0218B43E6
:1046CC0013600268936803490B4093608023202297
:1046DC00C2507047FFFF7FFF0268136806490B400A
:1046EC0013600268936805490B4093608423202271
:1046FC00C2500023C3667047DFFEFFFFFEFFFFEFD3
:10470C0010B5040084202058202855D1002955D0FC
:10471C00002A55D080235B01A06898423AD07C23B4
:10472C00E35C012B4ED07C230120E054A165203B9F
:10473C00E2522C330021E150043B2231E150A36FB3
:10474C00002B13D02049D962A36F20491963A36FA2
:10475C001F495963A36F0021996321682431130009
:10476C00A26DA06FFDF75AFA00281AD17C23002203
:10477C00E2542268116884330B43136022689368F7
:10478C0001210B439360226893683F310B43936084
:10479C00002012E02369002BC1D1CB07BFD501202B
:1047AC000BE088231022E2500C3B0022E25404332D
:1047BC002032E250012000E0022010BD0120FCE775
:1047CC000120FAE70220F8E795480008DB480008CA
:1047DC00E748000870B504008023C0588422A5580F
:1047EC00226891680B4201D0212807D023689A686F
:1047FC00520636D5222D1AD0002033E09368802142
:10480C008B439360606F002803D0FDF753FA0028A8
:10481C0003D12000FFF750FFE8E7606FFDF732FB94
:10482C002028F6D188231022E2501D381AE09A680D
:10483C0040218A439A60A06F002803D0FDF73AFA12
:10484C00002804D12000FFF747FF00200AE0A06FEA
:10485C00FDF718FB2028F5D188231022E2501D38D3
:10486C0000E0002070BD704710B50268136840214D
:10487C008B43136080232022C25000230367FFF771
:10488C00F2FF10BD7047000010B5836A0268126811
:10489C00920615D45E220021995219680A680A48BA
:1048AC0002400A6019688A680330FF3082438A60CC
:1048BC0019688A683F3082438A608422202199508B
:1048CC001800FFF7DFFF10BDFFFEFFFF704710B5AC
:1048DC00806AFFF7FBFF10BD704770B5846A8023B8
:1048EC00E1588422A55822689268134201D02129EC
:1048FC000ED023689B685B0601D5222D0FD0882231
:10490C00A35810210B43A3502000FFF7E5FF70BD07
:10491C002A3B0022E2522000FFF7CEFEE9E75E239D
:10492C000022E2522000FFF7D7FEE8E7F8B50400BA
:10493C000168CB6908688D680F221A400BD19E065E
:10494C0009D5860601D4EE0005D5E36E002B01D007
:10495C0020009847F8BD002A74D0534A2A4003D14E
:10496C009026760030426DD0DE0707D5C60505D5FA
:10497C0001270F628826A1593943A151990709D5FE
:10498C00E90707D5216802260E628636A15904274D
:10499C003943A151590709D5E90707D521680426E0
:1049AC000E628436A15902273943A15119070AD541
:1049BC00810601D4002A06D02268082616628821B6
:1049CC006258324362508822A258002AC2D09B06F9
:1049DC0008D5830601D4EB0004D5E36E002B01D07F
:1049EC00200098478823E25823689B685B0601D413
:1049FC00130720D52000FFF76FFE23689A68520634
:104A0C0015D59A6840218A439A60A36F002B0AD06F
:104A1C00264A9A63A06FFDF78DF900289AD0A06FF3
:104A2C00836B984796E72000FFF756FF92E720002C
:104A3C00FFF752FF8EE72000FFF74EFF882300227E
:104A4C00E25087E7DA0201D56A020CD41A0611D5B6
:104A5C00020601D42A020DD5236F002B00D179E771
:104A6C002000984776E780235B030B62200001F05F
:104A7C0007F86FE75A0601D542060DD41A0201D584
:104A8C0042000DD4DB0100D464E7002800DB61E7B1
:104A9C00200000F0F6FF5DE72000FFF7E5FE59E788
:104AAC00200000F0EFFF55E701000010BD4A0008A0
:104ABC0010B5806A00235E228352083A8352FFF7B6
:104ACC000BFF10BDF8B5040001688368026913433D
:104ADC0042691343C2691343426E1A430B68BD48C3
:104AEC00034013430B6022685368BB490B40E168D9
:104AFC000B435360A1692268B84B9A4201D0236AD8
:104B0C0019439368B64803400B4393602268D36AF9
:104B1C000F218B43616A0B43D3622368B14A9342E2
:104B2C005CD0B14A93426DD0B04A934200D19EE022
:104B3C00AF4A934200D19CE0A84A934277D010250B
:104B4C00A64A934200D198E080231B02E2699A4264
:104B5C0000D151E3022D01D100F0F8FC01D800F096
:104B6C00A1FC042D01D100F02DFD082D01D000F089
:104B7C0093FD636A002B01D100F067FD012B01D17D
:104B8C0000F06FFD022B01D100F06EFD032B01D163
:104B9C0000F06DFD042B01D100F06BFD052B01D154
:104BAC0000F06AFD062B01D100F068FD072B01D146
:104BBC0000F066FD082B01D100F065FD092B01D139
:104BCC0000F064FD0A2B01D100F063FD0B2B01D129
:104BDC0000F039FD80231B0200F039FD854A516D30
:104BEC0003220A40012A09D0002A05D0022A3AD011
:104BFC00032A05D01025A3E70025A1E704259FE78C
:104C0C0008259DE77B4A516D0C220A40042A0AD0E4
:104C1C0005D9082A29D00C2A07D1082590E7002AA3
:104C2C0003D100258CE704258AE7102588E7714A13
:104C3C00526DC02109010A408021C9008A420ED060
:104C4C0009D9802109018A4215D0C02109018A4263
:104C5C0007D1082574E7002A03D1002570E7042545
:104C6C006EE710256CE702256AE7022568E7002548
:104C7C0066E7002564E7022562E7022D00D1C1E05A
:104C8C002ED9042D00D1DAE0082D01D000F007FD5B
:104C9C00636A002B00D122E1012B00D122E1022B0F
:104CAC0000D122E1032B00D122E1042B00D121E120
:104CBC00052B00D121E1062B00D120E1072B00D1DF
:104CCC001FE1082B00D11FE1092B00D11FE10A2B9A
:104CDC0000D11FE10B2B00D1E9E08020000226E07F
:104CEC00002D01D000F0DBFCFCF730FD636A002BDB
:104CFC001AD0012B5FD0022B5FD0032B5FD0042B7B
:104D0C005FD0052B5FD0062B5FD0072B5FD0082B15
:104D1C0072D0092B72D00A2B72D00B2B01D001212F
:104D2C0003E08021490000E00121FBF7F9F900289C
:104D3C0001D100F0B6FC626853009B18834201D984
:104D4C0000F0B1FC1303834201D200F0AEFC022D43
:104D5C0000D142E100D8E0E0042D00D186E1082D1D
:104D6C0000D046E2636A002B00D110E2012B00D187
:104D7C001AE2022B00D11BE2032B00D11CE2042B04
:104D8C0000D11CE2052B00D11DE2062B00D11DE247
:104D9C00072B00D11DE2082B00D11EE2092B00D1FC
:104DAC001FE20A2B00D120E20B2B00D1EBE1802675
:104DBC0036040027EEE10221B7E70421B5E706210E
:104DCC00B3E70821B1E70A21AFE70C21ADE71021C9
:104DDC00ABE7C046F369FFCFFFCFFFFF0080004079
:104DEC00FFF4FF110038014000440040004800402F
:104DFC00004C004000100240202196E7402194E72F
:104E0C00802192E7636A002B53D0012B53D0022BE5
:104E1C0053D0032B53D0042B53D0052B53D0062B3C
:104E2C0053D0072B53D0082B53D0092B53D00A2B1C
:104E3C0053D00B2B01D0AA4879E7AA4877E7FCF7A7
:104E4C005BFB636A002B1AD0012B1CD0022B1CD0ED
:104E5C00032B1CD0042B1CD0052B1CD0062B1CD0D8
:104E6C00072B1CD0082B1CD0092B1CD00A2B1CD0B8
:104E7C000B2B01D0012103E08021490000E001212E
:104E8C00FBF74EF953E70221FAE70421F8E7062174
:104E9C00F6E70821F4E70A21F2E70C21F0E71021EC
:104EAC00EEE72021ECE74021EAE78021E8E78020CB
:104EBC003DE78B483BE78C4839E78C4837E78C4813
:104ECC0035E78C4833E78C4831E78C482FE78C4822
:104EDC002DE78C482BE78C4829E78C4827E7802066
:104EEC00000224E78020C00121E7802080011EE71A
:104EFC0087481CE78020400119E7864817E7864859
:104F0C0015E78020000112E78020C0000FE7802009
:104F1C0080000CE78020400009E7002D00D068E1FC
:104F2C00FCF714FC636A002B1CD0012B37D0022B2E
:104F3C0038D0032B39D0042B3AD0052B3BD0062B81
:104F4C003CD0072B3DD0082B3ED0092B3FD00A2B51
:104F5C0040D00B2B02D00122002305E0802252000E
:104F6C00002301E0012200230021FBF773FA050E58
:104F7C000B022B4302026568680800218018594116
:104F8C002A000023FBF766FA020000206349644BF9
:104F9C00D3188B4200D98AE32368DA60B9E2022283
:104FAC000023E1E704220023DEE706220023DBE7EF
:104FBC0008220023D8E70A220023D5E70C2200237D
:104FCC00D2E710220023CFE720220023CCE7402297
:104FDC000023C9E780220023C6E7636A002B1BD09D
:104FEC00012B25D0022B26D0032B27D0042B28D025
:104FFC00052B29D0062B2AD0072B2BD0082B2CD0F5
:10500C00092B2DD00A2B2ED00B2B02D0454E00276E
:10501C0004E0334E002701E0424E002750080021E7
:10502C00801979410023FBF715FA02000020ADE747
:10503C003D4E0027F2E73D4E0027EFE73C4E0027A0
:10504C00ECE73C4E0027E9E73B4E0027E6E73B4EFA
:10505C000027E3E73A4E0027E0E73A4E0027DDE76A
:10506C00394E0027DAE7394E0027D7E7FCF744FA28
:10507C00636A002B1CD0012B2FD0022B68D0032B82
:10508C0069D0042B6AD0052B6BD0062B6CD0072B68
:10509C006DD0082B6ED0092B6FD00A2B70D00B2B38
:1050AC0002D00122002305E080225200002301E0FF
:1050BC00012200230021FBF7CDF9050E0B022B4337
:1050CC000202656868080021801859412A000023F3
:1050DC00FBF7C0F90200002058E702220023E9E7A1
:1050EC000024F40024F4000000127A0000093D00B2
:1050FC00AAB0280080841E00006A180055581400BD
:10510C0040420F0020A1070090D0030048E80100A6
:10511C0055150000CC0C0000AA0A0000FFFC0F0083
:10512C0000FDFFFF000024F40000127A0000093D8E
:10513C0000AAB0280080841E00006A18005558147C
:10514C000040420F0020A1070090D0030048E80166
:10515C0004220023AEE706220023ABE7082200233B
:10516C00A8E70A220023A5E70C220023A2E71022BD
:10517C0000239FE7202200239CE74022002399E78D
:10518C008022002396E780263602002702E0802644
:10519C003604002750080021801979410023FBF7C1
:1051AC0059F902000020F1E68026F6030027F1E70A
:1051BC008026B6030027EDE7A74E0027EAE78026F6
:1051CC0076030027E6E7A54E0027E3E7A44E002769
:1051DC00E0E7802636030027DCE78026F60200276E
:1051EC00D8E78026B6020027D4E78026760200276F
:1051FC00D0E701200022C9E6022D00D182E02DD992
:10520C00042D00D1BAE0082D00D022E1636A002BF6
:10521C0000D1F7E0012B00D100E1022B00D100E11D
:10522C00032B00D100E1042B00D1FFE0052B00D1B2
:10523C00FFE0062B00D1FEE0072B00D1FDE0082B90
:10524C0000D1FDE0092B00D1FDE00A2B00D1FDE0DF
:10525C000B2B00D1D4E080235B02D5E0002D00D0D5
:10526C00F7E0FCF773FA636A002B1AD0012B35D0E8
:10527C00022B35D0032B35D0042B35D0052B35D054
:10528C00062B35D0072B35D0082B35D0092B35D034
:10529C000A2B35D00B2B01D0012103E080214900D2
:1052AC0000E00121FAF73CFF400063685B08C0187E
:1052BC006168FAF735FF03041B0C002069491A00DA
:1052CC00103A8A4200D9F4E10F22190091435B088D
:1052DC00083A13400B432268D3601AE10221E1E73C
:1052EC000421DFE70621DDE70821DBE70A21D9E706
:1052FC000C21D7E71021D5E72021D3E74021D1E7B6
:10530C008021CFE7636A002B19D0012B22D0022B0E
:10531C0022D0032B22D0042B22D0052B22D0062BFB
:10532C0022D0072B22D0082B22D0092B22D00A2BDB
:10533C0022D00B2B01D04C4B02E04C4B00E04A4BE3
:10534C0062685008C0181100FAF7EAFE03041B0C3F
:10535C000020B3E7464BF3E7464BF1E7464BEFE74C
:10536C00464BEDE7464BEBE7464BE9E7464BE7E7A9
:10537C00464BE5E7464BE3E7464BE1E7FCF7BCF869
:10538C00636A002B1AD0012B26D0022B26D0032BBC
:10539C0026D0042B26D0052B26D0062B26D0072B67
:1053AC0026D0082B26D0092B26D00A2B26D00B2B47
:1053BC0001D0012103E08021490000E00121FAF72E
:1053CC00AFFE400063685B08C0186168FAF7A8FE7E
:1053DC0003041B0C002071E70221F0E70421EEE727
:1053EC000621ECE70821EAE70A21E8E70C21E6E7C9
:1053FC001021E4E72021E2E74021E0E78021DEE70D
:10540C00F53301E080235B0262685008C01811007C
:10541C00FAF786FE03041B0C00204FE780231B02C7
:10542C00F2E78023DB01EFE71B4BEDE780239B01C9
:10543C00EAE71A4BE8E71A4BE6E780235B01E3E760
:10544C0080231B01E0E78023DB00DDE780239B004A
:10545C00DAE70120002331E70055150000CC0C00E1
:10546C0000AA0A00EFFF00000048E80148E801002C
:10547C000024F40000127A005461510000093D0030
:10548C0000D43000AAB0280080841E0040420F00D7
:10549C0020A1070090D00300AA2A00009819000050
:1054AC0054150000002D00D0F6E0FCF74FF9636AAC
:1054BC00002B1AD0012B35D0022B35D0032B35D035
:1054CC00042B35D0052B35D0062B35D0072B35D0FA
:1054DC00082B35D0092B35D00A2B35D00B2B01D00E
:1054EC00012103E08021490000E00121FAF718FEB8
:1054FC0063685B08C0186168FAF712FE03041B0CA2
:10550C0000206E491A00103A8A4200D9D3E0226872
:10551C00D36001236A22A352023AA3520023E3660A
:10552C002367F8BD0221E1E70421DFE70621DDE76F
:10553C000821DBE70A21D9E70C21D7E71021D5E7B1
:10554C002021D3E74021D1E78021CFE7636A002BEC
:10555C0019D0012B22D0022B22D0032B22D0042BCA
:10556C0022D0052B22D0062B22D0072B22D0082BA1
:10557C0022D0092B22D00A2B22D00B2B01D0504B3E
:10558C0002E0504B00E04E4B62685008C01811000E
:10559C00FAF7C6FD03041B0C0020B2E74A4BF3E7F5
:1055AC004A4BF1E74A4BEFE74A4BEDE74A4BEBE747
:1055BC004A4BE9E74A4BE7E74A4BE5E74A4BE3E757
:1055CC004A4BE1E7FBF798FF636A002B1AD0012BDB
:1055DC0025D0022B25D0032B25D0042B25D0052B31
:1055EC0025D0062B25D0072B25D0082B25D0092B11
:1055FC0025D00A2B25D00B2B01D0012103E08021D3
:10560C00490000E00121FAF78BFD63685B08C018C4
:10561C006168FAF785FD03041B0C002071E7022179
:10562C00F1E70421EFE70621EDE70821EBE70A217A
:10563C00E9E70C21E7E71021E5E72021E3E740212A
:10564C00E1E78021DFE7753301E080231B0262680C
:10565C005008C0181100FAF763FD03041B0C00205E
:10566C004FE78023DB01F2E780239B01EFE7204B20
:10567C00EDE780235B01EAE71E4BE8E71E4BE6E70C
:10568C0080231B01E3E78023DB00E0E780239B0002
:10569C00DDE780235B00DAE70120002331E70120FE
:1056AC0037E7002035E7012033E7012031E70120FF
:1056BC002FE701202DE701202BE7C046EFFF00006C
:1056CC000024F40024F4000000127A0000093D00CC
:1056DC00AAB0280080841E00006A180055581400D7
:1056EC0040420F0020A1070090D0030048E80100C1
:1056FC0055150000CC0C0000AA0A0000836ADB07D9
:10570C0006D5026853682C490B40C16A0B435360A1
:10571C00836A9B0706D50268536828490B40016BC6
:10572C000B435360836A5B0706D5026853682449B0
:10573C000B40416B0B435360836A1B0706D5026811
:10574C00536820490B40816B0B435360836ADB0623
:10575C0006D5026893681C490B40C16B0B439360E0
:10576C00836A9B0606D50268936818490B40016C46
:10577C000B439360836A5B060BD50268536814492C
:10578C000B40416C0B43536080235B03426C9A4289
:10579C000AD0836A1B0606D5026853680D490B4074
:1057AC00C16C0B4353607047026853680A490B4045
:1057BC00816C0B435360ECE7FFFFFDFFFFFFFEFF27
:1057CC00FFFFFBFFFF7FFFFFFFEFFFFFFFDFFFFF91
:1057DC00FFFFEFFFFFFFF7FFFFFF9FFFF0B5C64690
:1057EC0000B506000C0017009846069D3368DB696F
:1057FC0023401B1B5A425341BB421ED16B1CF5D09C
:10580C00FCF722FC4346C01AA84201D8002DEDD16A
:10581C00326813680B490B40136032689368A331EC
:10582C00FF318B43936020238022B3500432B3505A
:10583C005C330022F254032000E0002004BC9046AC
:10584C00F0BDC0465FFEFFFFF0B585B004000E0052
:10585C0017001D008023C358202B62D1002963D070
:10586C00002A63D080235B0182689A421AD07C2381
:10587C00E35C012B5CD07C230122E2540C3300222C
:10588C00E250083B2132E250FCF7DEFB039054233C
:10589C00E7520233E75280235B01A2689A4208D098
:1058AC00002716E00369002BE1D1CB07DFD50120DF
:1058BC0038E02369002B21D000270AE03B882268BE
:1058CC00DB05DB0D936202375622A35A013B9BB2D8
:1058DC00A3525623E35A9BB2002B12D00095039B84
:1058EC00002280212000FFF779FF002822D1002E12
:1058FC00E4D0327823689A620136E5E73700002657
:10590C00E7E70095039B002240212000FFF766FF8C
:10591C00002811D180232022E250043B0022E254C3
:10592C0000E0022005B0F0BD0120FBE70120F9E703
:10593C000220F7E70320F5E70320F3E730B583B047
:10594C00040088230022C250FCF77EFB050023686C
:10595C001B681B070ED423681B685B0717D4202316
:10596C008022A3500432A3505C330022E254002066
:10597C0003B030BD80210C4B00930300002289033F
:10598C002000FFF72BFF0028E5D00320F0E7802153
:10599C00054B00932B000022C9032000FFF71EFFCC
:1059AC000028DCD00320E3E7FFFFFF0110B5041E45
:1059BC0030D08023C358002B22D080232422E250E5
:1059CC002268136801218B4313602000FFF77AF8DB
:1059DC00012814D0A36A002B18D1226853680E49F1
:1059EC000B405360226893682A218B439360226892
:1059FC00136829390B4313602000FFF79FFF10BD7C
:105A0C007C330022C254FCF7B5FBD6E72000FFF72D
:105A1C0075FEE2E70120F2E7FFB7FFFF70B584B037
:105A2C00040002A9154A130005CB05C16A4603CB35
:105A3C0003C2636E002B1AD0226895686D0E072383
:105A4C001D409268520F134002AEF05CC0006A46D3
:105A5C00D15CFAF7EFFB6A23E052705DC0006B4635
:105A6C00595DFAF7E7FB6823E05204B070BD0133CF
:105A7C006A22A352023AA352F7E7C046E87500081F
:105A8C00704770477047000070B57C23C35C012BD6
:105A9C0015D07C2401260655802524234351026809
:105AAC0013681168B1431160064A13400022426624
:105ABC0001680B60202343510255002070BD022069
:105ACC00FCE7C046FFFFFFDFF8B504007C23C35C96
