:020000040800F2
:100000000090002099680008490C00084B0C00087B
:1000100000000000000000000000000000000000E0
:100020000000000000000000000000004D0C00086F
:1000300000000000000000004F0C0008510C0008F8
:10004000E9680008E9680008E9680008590C000838
:10005000610C0008E9680008E9680008630C000802
:10006000E96800086D0C0008E9680008E968000804
:10007000E9680008E9680008E9680008E96800081C
:10008000E96800087D0C0008E9680008E9680008D4
:10009000E9680008E9680008E9680008E9680008FC
:1000A000E9680008E9680008A10C0008E968000890
:0C00B000B10C0008E9680008E9680008CD
:1000BC0010B5064C2378002B07D1054B002B02D032
:1000CC00044800E000BF0123237010BD7000002025
:1000DC0000000000AC710008044B10B5002B03D0DD
:1000EC000349044800E000BF10BDC04600000000FA
:1000FC0074000020AC71000802780B78002A03D041
:10010C00013001319A42F7D0D01A704703B47146CE
:10011C00490840004900095E49008E4403BC704701
:10012C00002243088B4274D303098B425FD3030A2A
:10013C008B4244D3030B8B4228D3030C8B420DD33D
:10014C00FF22090212BA030C8B4202D312120902CB
:10015C0065D0030B8B4219D300E0090AC30B8B4209
:10016C0001D3CB03C01A5241830B8B4201D38B03B7
:10017C00C01A5241430B8B4201D34B03C01A52415C
:10018C00030B8B4201D30B03C01A5241C30A8B429F
:10019C0001D3CB02C01A5241830A8B4201D38B028A
:1001AC00C01A5241430A8B4201D34B02C01A52412E
:1001BC00030A8B4201D30B02C01A5241CDD2C309A0
:1001CC008B4201D3CB01C01A524183098B4201D31C
:1001DC008B01C01A524143098B4201D34B01C01A07
:1001EC00524103098B4201D30B01C01A5241C3087F
:1001FC008B4201D3CB00C01A524183088B4201D3EE
:10020C008B00C01A524143088B4201D34B00C01AD9
:10021C005241411A00D20146524110467047FFE745
:10022C0001B5002000F0F0F802BDC0460029F7D05F
:10023C0076E7704703460B437FD4002243088B427A
:10024C0074D303098B425FD3030A8B4244D3030B51
:10025C008B4228D3030C8B420DD3FF22090212BA16
:10026C00030C8B4202D31212090265D0030B8B4292
:10027C0019D300E0090AC30B8B4201D3CB03C01A7C
:10028C005241830B8B4201D38B03C01A5241430B57
:10029C008B4201D34B03C01A5241030B8B4201D347
:1002AC000B03C01A5241C30A8B4201D3CB02C01AB2
:1002BC005241830A8B4201D38B02C01A5241430A2A
:1002CC008B4201D34B02C01A5241030A8B4201D319
:1002DC000B02C01A5241CDD2C3098B4201D3CB01C0
:1002EC00C01A524183098B4201D38B01C01A52416F
:1002FC0043098B4201D34B01C01A524103098B4273
:10030C0001D30B01C01A5241C3088B4201D3CB005D
:10031C00C01A524183088B4201D38B00C01A524140
:10032C0043088B4201D34B00C01A5241411A00D2F0
:10033C0001465241104670475DE0CA0F00D0494259
:10034C00031000D34042534000229C4603098B42C9
:10035C002DD3030A8B4212D3FC22890112BA030A51
:10036C008B420CD3890192118B4208D389019211D3
:10037C008B4204D389013AD0921100E08909C30958
:10038C008B4201D3CB01C01A524183098B4201D35A
:10039C008B01C01A524143098B4201D34B01C01A45
:1003AC00524103098B4201D30B01C01A5241C308BD
:1003BC008B4201D3CB00C01A524183088B4201D32C
:1003CC008B00C01A5241D9D243088B4201D34B0047
:1003DC00C01A5241411A00D20146634652415B1089
:1003EC00104601D34042002B00D54942704763466A
:1003FC005B1000D3404201B5002000F005F802BDAF
:10040C000029F8D016E770477047C046002B15D16D
:10041C00002A13D1002906DB01DC002806D00020BD
:10042C00C043410802E080210906002007B40248BD
:10043C0001A14018029003BDD1FFFFFF03B4684631
:10044C0001B5029800F01AF9019B9E4602B00CBC53
:10045C007047C046002B11D1002A0FD1002900D1C2
:10046C00002802D00021C943081C07B4024802A18D
:10047C004018029003BDC04691FFFFFF03B46846CD
:10048C0001B5029800F02EF8019B9E4602B00CBC00
:10049C007047C046F0B515042D0C0F0001002E005E
:1004AC00C64684460004140C000C090C46434D430C
:1004BC00604361434019340C241800B5A54203D99C
:1004CC008020400280464144250C6D1861465943FA
:1004DC007A43300449192404000C2018891804BCF0
:1004EC009046F0BDF0B557464E464546DE46E0B563
:1004FC0004000D009246994683B08B4230D82DD023
:10050C004946504600F0D8F829000600200000F0BB
:10051C00D3F8331A9846203B9B4633D45A4653465D
:10052C00934042461F00534693401E00AF423AD8B8
:10053C00AF4200D178E05B46A41BBD41002B00DA32
:10054C0075E0002200230092019301235A46934048
:10055C000193012342469340009328E08242CFD975
:10056C0000220023009201930C9B002B01D01C60F5
:10057C005D600098019903B03CBC90469946A24638
:10058C00AB46F0BD424620239B1A5246DA40414608
:10059C0013004A468A40170042461F435346934075
:1005AC001E00AF42C4D9002200230092019343469F
:1005BC00002BD9D0FB0772081A4346467B080EE085
:1005CC00AB4201D1A2420CD8A41A9D41012024199E
:1005DC006D410021013E24184D41002E06D0AB4246
:1005EC00EED9013E24196D41002EF8D100980199E5
:1005FC005B4600196941002B24DB2B005A4644460C
:10060C00D3402A00E2401C005B461500002B2ADB7D
:10061C0026009E40330026004746BE403200801A1A
:10062C009941009001919FE7A342BCD883E74246D1
:10063C00202300219B1A0022009101920122DA4012
:10064C00019286E7424620239B1A2A0046469A408E
:10065C002300F340444613432A00E2401C005B464F
:10066C001500002BD4DA42462F0020232600974099
:10067C009B1ADE403B003343CDE7C046F8B5CE466F
:10068C00474680B59146984604000D0000F020F8CE
:10069C0007000E0002000B0048464146FFF7FAFE29
:1006AC00241A8D41089B380031001C605D600CBC25
:1006BC0090469946F8BDC04610B5002903D100F00C
:1006CC00EDF8203002E0081C00F0E8F810BDC04640
:1006DC00F0B557464E464546DE46E0B50F001900CC
:1006EC00002306009846100083B0002F07DA330071
:1006FC003C0000275E42A74101235B42984600293B
:10070C0007DA4346DB430C009846030000215842AD
:10071C00A14134003D0082468946B9426AD867D06F
:10072C0049465046FFF7C8FF834639003000FFF7B3
:10073C00C3FF5B461B1A9C46203B9B466BD458461A
:10074C005146814060460B00514681400A00BB4235
:10075C0000D972E0BB4200D179E034003D0059462B
:10076C00A41A9D41002900DA74E000210020012622
:10077C000090019159468E400196614601268E40AB
:10078C006146009600295FD0D90756080E435F08D2
:10079C006146012200230CE0AF4201D1A6420AD8E7
:1007AC00A41BBD4124196D410139A4185D410029D8
:1007BC0006D0AF42F0D9013924196D410029F8D186
:1007CC00009801995B4600196941002B4DDB2E0006
:1007DC002C00DE406346DC405B46002B55DB3400CE
:1007EC009C4023006446A6403200801A994103E0E5
:1007FC00B04295D9002000214346002B04D00300C1
:10080C000C0000215842A14103B03CBC90469946D3
:10081C00A246AB46F0BD6246484620235146904066
:10082C009B1AD94003000091009960460B43514636
:10083C0081400A00BB4200D88CE7002100200090C8
:10084C000191614600299FD100980199D4E7B142EA
:10085C00F3D882E7614620260127761A0020002172
:10086C00F74000900191019787E7624620239B1A7D
:10087C002A009A40260013006246D6402C001E43E4
:10088C006346DC405B46002BA9DA62462023350028
:10089C0094409B1ADD4023002B43A3E71C2101232A
:1008AC001B04984201D3000C10391B0A984201D347
:1008BC00000A08391B09984201D30009043902A225
:1008CC00105C40187047C04604030202010101018C
:1008DC00000000000000000010B50024092C09DC09
:1008EC00A0200121C00500F053FB642001F07EFB29
:1008FC000134F3E7A02000220121C00500F042FBE7
:10090C0010BD000000B5A1B03822002112A806F0DD
:10091C0014F8102200210EA806F00FF83422002142
:10092C0001A806F00AF88020800001F079FA0A2369
:10093C001293F633159300231693402217923F3AE5
:10094C001892013219921A921B9308331C9380232C
:10095C009B021D9380239B041E9380239B051F9356
:10096C0012A800F035FB00281AD107230E93053B83
:10097C000F9300231093119302210EA800F0E6FDB3
:10098C00002810D10B4B0193002303938023DB022F
:10099C00079301A800F0BAFE002807D121B000BDD2
:1009AC00FFF79AFFE1E7FFF797FFEBE7FFF794FFFD
:1009BC00F4E7C0460202000030B59BB001F0F0FA3B
:1009CC00FFF7A0FF00F09CF805F048FF01F028FBB2
:1009DC0001F064FB04F01CFF04F0F0FE3C4C200022
:1009EC0001F03CFBFA21200003F004FC394804F030
:1009FC0037FF394804F034FF01AC6022002102A813
:100A0C0005F09BFF354B220023CB23C223CB23C203
:100A1C001B881380FA23324D9B00192221002800D9
:100A2C0004F042FD05F0FEF80D2005F0C3F840225D
:100A3C002C49280003F094FC05F032F9002001F059
:100A4C0083FA00220121072001F014FA002202216E
:100A5C00092001F00FFA00220221112001F00AFAFC
:100A6C00002202211A2001F005FA002202211C208A
:100A7C0001F000FA1C4805F033F91C4805F030F978
:100A8C001B4805F02DF91B4805F02AF905F04AF82A
:100A9C0002F09CFF02F030FC002406E001F028FC80
:100AAC00154A4723D35C002B04D1134B5B79002BE5
:100ABC00F6D0F3E7013402F029FB2307F5D10E4AF7
:100ACC000E4BD35C002BF0D003F0C6F8EDE7C0461C
:100ADC0018060020380700209C0700205C720008D4
:100AEC00AC06002096000020FFFF1200FFFF130051
:100AFC00FFFF1100FFFF100090000020C904000050
:100B0C00F0B5CE4600B58AB01422002105A805F038
:100B1C0014FF434B5A6B042422435A635A6B2240F2
:100B2C000192019A596B202211435963596B0A4067
:100B3C000292029A5A6B01273A435A635A6B3A4013
:100B4C000392039A5A6B022189460A435A635B6BE0
:100B5C000B400493049B334E00223100A020C005AF
:100B6C0000F010FA002201212F4800F00BFA0022AD
:100B7C0040212E4800F006FA059403250695002422
:100B8C00079405A92A4800F0C9F80596069707941A
:100B9C00089405A9A020C00500F0C0F8254B0593CA
:100BAC000695079405A9A020C00500F0B7F84026CB
:100BBC0005960694079405A9A020C00500F0AEF890
:100BCC00059706970794089405A9174800F0A6F80E
:100BDC004B4605930695079405A9134800F09EF81B
:100BEC00059606970794089405A9104800F096F806
:100BFC0080231B010593104B0693079405A9A02095
:100C0C00C00500F08BF800220221072001F032F918
:100C1C00072001F061F90AB004BC9146F0BDC04652
:100C2C0000100240838000000004005000080050B7
:100C3C000014005030110000000011107047FEE746
:100C4C007047704710B501F0BFF910BD10B500F03A
:100C5C0081FE10BD704710B5402000F0A1F910BD09
:100C6C0010B5024801F074F810BDC04650060020C3
:100C7C0010B5064A136801331360A0200221C00589
:100C8C0000F086F9024803F0EAFA10BD900000204B
:100C9C001806002010B5024805F048FD10BDC046EE
:100CAC003807002010B5044C200003F06FFC200026
:100CBC0001F00AFB10BDC046AC06002010B5402860
:100CCC0000D010BD04F02EFFFBE7000000B583B090
:100CDC00114B196C012211431964196C0A400092D2
:100CEC00009ADA6B802149050A43DA63DB6B0B400F
:100CFC000193019B00220021032001F0BBF803208B
:100D0C0001F0EAF800220021042001F0B3F80420DD
:100D1C0001F0E2F803B000BD00100240F0B5C64689
:100D2C0000B500233BE0032600E00026AE40350072
:100D3C003D43534E1834A400A551802435594246E6
:100D4C00D4432E0026404A68D20302D542461543AE
:100D5C002E004B4D8027EE518426AD592E00264097
:100D6C004A68920302D5424615432E00444D84270F
:100D7C00EE512D682E0026404A68D20202D542461A
:100D8C0015432E003E4D2E606D682C404A68920231
:100D9C0002D542462A431400394A546001330A688A
:100DAC001400DC4069D001259D402A409046F5D0C6
:100DBC004C68022C01D0122C0ED1DC080834A40093
:100DCC00275807261E40B6000F22B24097430A69E7
:100DDC00B24016003E43265002685F0003242600F2
:100DEC00BE40F643324094464A681440BC406246CA
:100DFC00144304604C68621E012A03D9112C01D0E3
:100E0C00122C10D184683440A446CC68BC40624695
:100E1C00144384604468AC434A68120901251540A8
:100E2C009D4025434560C46826408C68BC403443D3
:100E3C00C4604A68D200B1D59C0825001835AD00B5
:100E4C000F4EAF5903251D40ED000F26AE40B743A2
:100E5C00A026F605B04200D167E70A4EB04208D092
:100E6C00094EB04207D0094EB04200D15BE70526CF
:100E7C005CE701265AE7022658E704BC9046F0BD11
:100E8C00001802400004005000080050000C0050F4
:100E9C00F0B5CE46474680B58946002324E00321B1
:100EAC00884601E0002188464146A140A94246D02F
:100EBC0006685F000325BD402E430660DC0808343D
:100ECC00A400275807261E40B6000F21B1408F43BF
:100EDC0027508668EC4326408660456895434560FC
:100EEC00C2681440C46001334A46DA403ED0012245
:100EFC009A404E461640F6D099088C460C00183491
:100F0C00A4001C4D655903241C40E4000F27A74086
:100F1C003D40A021C9058842C4D01749884208D059
:100F2C001649884208D016498842B8D0052188460F
:100F3C00BAE701218846B7E702218846B4E70D4D90
:100F4C0080216C58F64334406C5004316C5834405A
:100F5C006C502C6834402C606C6826406E60644683
:100F6C001834A4006659BE436651A1E70CBC9046E8
:100F7C009946F0BD001802400004005000080050D3
:100F8C00000C0050002A01D1816270478161FCE79E
:100F9C004369194201D1816170478162FCE7704756
:100FAC0010B50400094BDB68184204D1074B1B69D0
:100FBC00234205D110BD054BD860FFF7F0FFF5E7D4
:100FCC00024B1C612000FFF779FEF3E7001802408A
:100FDC0070B582B0041E00D13EE20368DB0739D540
:100FEC00C14A916838230B40D16803220A40102B68
:100FFC0026D0082B26D063688022520293427FD0E1
:10100C00A022D202934200D181E0B74B1A68B749B3
:10101C000A401A601A68B6490A401A606368002BC5
:10102C0000D180E000F0DCFF0500AF4B1B689B0398
:10103C0010D400F0D5FF401B6428F6D903200CE235
:10104C00032AD6D1A84B1B689B0303D56368002BDE
:10105C0000D104E223689B0731D5A34A9368382159
:10106C000B40D16803220A40102B6AD0002B6BD1A5
:10107C009D4A1268520503D5E268002A00D1F0E1BE
:10108C00994842689B490A40616909020A434260D7
:10109C00002B0DD1036898490B4021690B43036069
:1010AC000368DB0A07221A40944BD340944A13601E
:1010BC00944B186800F048FF002800D0D3E1236857
:1010CC001B0700D481E0884B9A6838231340182BF7
:1010DC0073D0A369002B00D191E0834A136E0121D8
:1010EC000B43136600F07CFF05007F4B1B6E9B07C8
:1010FC006BD400F075FF401B0228F6D90320ACE13D
:10110C00794A116880235B020B43136086E7764BA8
:10111C0019688022D2020A431A601968802252028E
:10112C000A431A607AE700F05BFF05006E4B1B6800
:10113C009B038FD500F054FF401B6428F6D9032085
:10114C008BE1022A92D193E7E368002B22D0664A06
:10115C00136869490B4021690B43136011688023A4
:10116C005B000B43136000F03BFF05005E4B1B68FC
:10117C005B0506D400F034FF401B0228F6D903208F
:10118C006BE159494B685B4A134062691202134385
:10119C004B6094E7544A13685B490B40136000F0B2
:1011AC001FFF0500504B1B685B0588D500F018FF2E
:1011BC00401B0228F6D903204FE14B4B1B6E9B07BB
:1011CC0003D5A369002B00D14FE123685B0700D442
:1011DC00A2E0454B9A6838231340202B22D0424B77
:1011EC00DB6BDB0027D4404AD16B802040050143E8
:1011FC00D163D36B03400193019B01251CE03A4A58
:10120C00136E01218B43136600F0EAFE0500364B8A
:10121C001B6E9B07D9D500F0E3FE401B0228F6D9C4
:10122C0003201AE1304BDB6D9B0775D5A368002BAF
:10123C0072D1012011E10025344B1B68DB051FD551
:10124C00A368012B30D0052B34D0274BDA6D01214C
:10125C008A43DA65DA6D03318A43DA65A368002BB9
:10126C0032D000F0BDFE06001F4BDB6D9B0751D446
:10127C0000F0B6FE801B264B9842F5D90320ECE01B
:10128C00224A116880235B000B43136000F0A8FE18
:10129C0006001E4B1B68DB05D2D400F0A1FE801BA0
:1012AC000228F6D90320D8E00F4AD36D01210B4355
:1012BC00D365D3E70C4BDA6D04210A43DA65DA6D9A
:1012CC0003390A43DA65C9E700F08AFE0600064BCB
:1012DC00DB6D9B071ED500F083FE801B0C4B9842E8
:1012EC00F5D90320B9E0C04600100240FFFFFEFF15
:1012FC00FFFFFBFFFF80FFFFFFC7FFFF0024F40091
:10130C000800002004000020FFFEFFFF00700040DA
:10131C0010270000012D26D0E369002B00D1A6E098
:10132C00564A916838220A40102A63D0022B20D0EA
:10133C00524B1A6852490A401A60DA6803218A43F0
:10134C00DA60DA684F490A40DA6000F049FE0400BE
:10135C004A4B1B689B014BD500F042FE001B022838
:10136C00F6D9032079E0454AD36B47490B40D36348
:10137C00D2E7424A136842490B40136000F030FE3A
:10138C0005003E4B1B689B0106D500F029FE401B57
:10139C000228F6D9032060E0384AD3683B4919404B
:1013AC00236A606A0343A06A00020343E06A0343B2
:1013BC00206B0343606B03430B43D36011688023A2
:1013CC005B040B431360D16880235B050B43D36034
:1013DC0000F006FE0400294B1B689B0106D400F0AC
:1013EC00FFFD001B0228F6D9032036E0002034E074
:1013FC00002032E0012B3CD0204BDA680323134051
:10140C00216A8B4201D0012027E070231340616ACE
:10141C008B4201D0012020E0FE21C9011140A36ABA
:10142C001B02994201D0012017E0F8239B031340C3
:10143C00E16A8B4201D001200FE0E0231B05134031
:10144C00216B8B4201D0012007E0520F5207636BD6
:10145C009A4210D0012000E0012002B070BD0120A2
:10146C00FBE70120F9E70120F7E70120F5E7002071
:10147C00F3E70120F1E70020EFE7C046001002403F
:10148C00FFFFFFFEFFFFFEEEFFFFFFEF8C80C111A1
:10149C0010B52B4B9B6838221A4219D0284B9A68EE
:1014AC0038231340082B46D0254B9A683823134019
:1014BC00102B18D0224B9A6838231340202B3CD089
:1014CC001F4B9A6838231340182B31D0002009E0A9
:1014DC001B4B1A68D20A0723134001219940194863
:1014EC00FEF71EFE10BD164AD1680D3B0B40D268AC
:1014FC001209072111400131032B0FD11248FEF7BD
:10150C000FFE0F4BDA68120A7F23134058430C4B23
:10151C00D968490F0131FEF703FEE3E70948FEF7EE
:10152C00FFFD074BDA68120A7F2313405843EEE79E
:10153C00FA20C001D6E70448D4E780200002D1E7A6
:10154C00001002400024F40000127A0070B5040070
:10155C000D00002800D1AAE0574B1A68072313404E
:10156C008B4221D323689A070ED55B0705D5534AC6
:10157C009168E023DB010B439360504A9368504918
:10158C000B40A1680B4393602368DB0754D5636859
:10159C00012B20D0022B3BD0002B3FD1474A1268A5
:1015AC0052051CD401206AE0434A136807218B437F
:1015BC002B43136000F014FD06003F4B1A68072301
:1015CC001340AB42CED000F00BFD801B3D4B98423C
:1015DC00F3D9032053E0394A1268920369D537498D
:1015EC008A680720824313438B6000F0F9FC0600E5
:1015FC00324B9B6838221A406368DB009A421BD03E
:10160C0000F0EEFC801B2F4B9842F1D9032036E002
:10161C002A4A12689201E2D4012030E0032B05D053
:10162C00264AD26D9207DAD4012028E0234A126EA2
:10163C009207D4D4012022E01F4B1A6807231340D1
:10164C00AB421DD823685B0706D51C4A93681E491C
:10165C000B40E1680B439360FFF71AFF174B9A6836
:10166C00120A0F2313409B00184A9A581F23134049
:10167C00D840174B1860174B186800F065FC70BD0C
:10168C000D4A136807218B432B43136000F0A8FC11
:10169C000600094B1A6807231340AB42D2D000F066
:1016AC009FFC801B074B9842F3D90320E7E70120EE
:1016BC00E5E70120E3E7C0460020024000100240AD
:1016CC00FFF0FFFF88130000FF8FFFFF7872000808
:1016DC000800002004000020014B18687047C04629
:1016EC000800002010B5FFF7F7FF064B9A68120BA5
:1016FC00072313409B00044A9A581F231340D840D9
:10170C0010BDC04600100240B8720008F0B583B09E
:10171C00040003689B0360D5804BDB6BDB001ED49D
:10172C007E4AD16B802040050143D163D36B0340CB
:10173C000193019B01267A4A116880235B000B43BD
:10174C00136000F04DFC0500754B1B68DB0508D4DD
:10175C0000F046FC401B0228F6D9032502E00026C7
:10176C00E9E70025002D21D16C4BDB6DC0229200E6
:10177C00134010D0226B9A420DD0684AD36D694940
:10178C000B40D06D802149020143D165D16D664873
:10179C000140D165D365DB0710D4002D06D15F4A1B
:1017AC00D36D60490B40216B0B43D365012E15D1D2
:1017BC005A4AD36B5D490B40D3630FE000F010FC29
:1017CC000700564BDB6D9B07E7D400F009FCC01BF0
:1017DC00574B9842F5D90325DFE700252368DB0733
:1017EC0006D54E4A536D03218B4361680B435365F9
:1017FC0023689B0706D5494A536D0C218B43A1687E
:10180C000B43536523689B0606D5444A536D4949DF
:10181C000B40E1680B43536523689B0506D53F4A93
:10182C00536D45490B40A1690B43536523685B0518
:10183C0006D53A4A536D41490B40E1690B43536558
:10184C0023685B0606D5354A536D3D490B4021692B
:10185C000B43536523685B040BD5304A536D9B00D7
:10186C009B08216A0B4353658023DB05226A9A424D
:10187C0039D023681B0306D5284A536D40218B436E
:10188C00616A0B43536523689B020BD5234A536D46
:10189C002C490B40A16A0B4353658023DB03A26ADE
:1018AC009A4227D023685B020BD51C4A536D2649FC
:1018BC000B40E16A0B43536580235B04E26A9A4256
:1018CC001FD023681B050BD5144A536D1F490B40C1
:1018DC0061690B43536562698023DB019A4215D021
:1018EC00280003B0F0BD0D4AD16880235B020B4386
:1018FC00D360BEE7094AD16880235B040B43D360F5
:10190C00D0E7064AD1680B43D360DAE7034AD168C3
:10191C0080235B020B43D360E2E7C0460010024019
:10192C0000700040FFFCFFFFFFFFFEFFFFFFFFEF1B
:10193C0010270000FFF3FFFFFFFFF3FFFFFFCFFFB8
:10194C00FFCFFFFFFFFFBFFFFFFFFFFEFF3FFFFFCC
:10195C007047704710B5334A13693349194093697E
:10196C008020C00503400B43516930488068814397
:10197C0051612F4A10423BD02C4AD468002B15D011
:10198C002A494A681A434A609A0F920703D025499C
:10199C00886902438A619B009B0801D0214A13612C
:1019AC00224B00229A602000FFF7D3FF1D4B1B69CE
:1019BC00DB070CD51B4B01221A611C4B9B68022BBD
:1019CC001FD01A4B00229A602000FFF7C1FF174B63
:1019DC009B68002B0BD1134B9A6916490A409A61EC
:1019EC005A6915490A405A61104B00221A7010BDF1
:1019FC000622024202D00D4A1469BFE70124644258
:101A0C00BCE70A4A5369013B5361002B03D1074BD6
:101A1C0000229A60D8E713001269501C186100F07C
:101A2C000DF8D1E700200240FAC30000F0050020B9
:101A3C0001000400FFFFFFFEFFFFFFFC044A536997
:101A4C0004490B40C0001843034B184350617047C6
:101A5C000020024007FEFFFF02000100F0B5846C7D
:101A6C00C56C6560046D002C02D0446D856D65609D
:101A7C000B4F7C681C26056C2E400125B5402C4371
:101A8C007C60046863608368102B04D003689960E1
:101A9C000368DA60F0BD03689A600368D960F9E7FF
:101AAC000000024010B50400FF20236818400838DD
:101ABC001421FEF735FB236C9B08064A94466344BD
:101ACC009B006364044BA3641C2318401B3B8340A2
:101ADC00E36410BD0082001080080240FF234268BE
:101AEC001340064A9A1892000265054A4265013B6A
:101AFC0003221A4001239340836570473F820010F4
:101B0C004009024070B5041E4DD00568274BE818FB
:101B1C001421FEF705FB8000206425230222E254E9
:101B2C002B68234A13402B6021680A68A368E0687D
:101B3C0003432069034360690343A0690343E069DD
:101B4C000343206A034313430B602000FFF7AAFFF3
:101B5C008023DB01A2689A4218D0626CFF23616873
:101B6C000B401360A36CE26C5A606368013B032B5F
:101B7C000FD9002323656365A3650023E363252246
:101B8C000121A154013AA354002070BD00236360CD
:101B9C00E3E72000FFF7A2FF236D00221A60636DBC
:101BAC00A26D5A60E9E70120EFE7C046F8FFFDBFE0
:101BBC000F80FFFF70B504002420205C012843D067
:101BCC002420012525540130205C012804D002205A
:101BDC0024230022E25470BD24300135255400200A
:101BEC00E063256828680126B04328602000FFF7D1
:101BFC0035FF236B002B1CD0226813680E210B437E
:101C0C001360636C1A68D20304D5196880225200E1
:101C1C000A431A60236D002B04D0196880225200ED
:101C2C000A431A602268136801210B4313600020D9
:101C3C00CEE72268136804218B4313602268136873
:101C4C0006310B431360DCE70220C4E730B50028F3
:101C5C0036D02523C35C022B06D00423C363203368
:101C6C000022C254012030BD026813680E218B4340
:101C7C001360426C136813490B40136001680A68C7
:101C8C0001239A430A60104C62681C21056C2940A0
:101C9C008B4013436360836CC26C5A60036D002BE2
:101CAC0006D01A6807490A401A60436D826D5A6063
:101CBC0025230122C254013B0022C2540020D2E74A
:101CCC000120D0E7FFFEFFFF0000024070B5242387
:101CDC000122C2540133C35C022B03D00423C3631F
:101CEC00012070BD026813680E218B4313600168DC
:101CFC000A6801239A430A60416C0A68124C22401C
:101D0C000A60124C62681C21056C29408B401343FD
:101D1C006360836CC26C5A60036D002B06D01A682A
:101D2C0009490A401A60436D826D5A6025230122CD
:101D3C00C254013B0022C254836B002B02D0984743
:101D4C000020CEE70020CCE7FFFEFFFF00000240A2
:101D5C0070B5314B1968046825681C23026C13405C
:101D6C0004229A40114216D06A0714D523689B06A8
:101D7C0003D42368042293432360274C63681C21FB
:101D8C00026C114004228A4013436360036B002BE6
:101D9C0000D0984770BD02229A4011421CD0AA076D
:101DAC001AD523689B0606D423680A229343236022
:101DBC002523093AC254184C63681C21026C11404B
:101DCC0002228A401343636024230022C254C36A54
:101DDC00002BDFD09847DDE708229A401142D9D07A
:101DEC002B07D7D523680E22934323600A4C6268D5
:101DFC001C21036C194001231D008D402A43626095
:101E0C00C3632522835423330022C254436B002B1B
:101E1C00C0D09847BEE7C04600000240C06B704778
:101E2C0010B5104A136810490B400343136080230C
:101E3C009B00984201D0002010BD0C4B1A68530037
:101E4C009B1858000A49FEF76BF90130054B5B698A
:101E5C005B0503D5002803D00138F7E70020EBE73A
:101E6C000320E9E700700040FFF9FFFF08000020A5
:101E7C0040420F0070B5002811DB8308144DC033AD
:101E8C009B005C5903221040C000FC3216008640B7
:101E9C00B44389010A40824022435A5170BDC0B2FA
:101EAC000F230340083B9B0806339B00094A9446CA
:101EBC0063445D6803242040C000FF22140084406A
:101ECC00A54389011140814029435960E6E7C0468A
:101EDC0000E100E000ED00E0002805DB1F231840C6
:101EEC001E3B8340014A13607047C04600E100E08E
:101EFC0000280ADB1F2318401E3B83400349802225
:101F0C008B50BFF34F8FBFF36F8F704700E100E032
:101F1C0001380A4B98420FD8094A50600948036AA5
:101F2C001B021B0AC02109060B43036200239360AA
:101F3C0007331360002070470120FCE7FFFFFF0010
:101F4C0010E000E000ED00E010B50400114B196842
:101F5C00002901D1012010BDFA208000FEF7E0F825
:101F6C0001000D4B1868FEF7DBF8FFF7D1FF0028D6
:101F7C000DD1032C01D90120EDE701300022210005
:101F8C004042FFF777FF054B1C600020E3E7012080
:101F9C00E1E7C046000000200800002004000020FB
:101FAC0010B5084A116880235B000B4313600320B3
:101FBC00FFF7CAFF041E02D00124200010BDFEF75B
:101FCC0085FEFAE700200240034A136803490968BA
:101FDC005B1813607047C0461406002000000020F8
:101FEC00014B18687047C0461406002070B50400F9
:101FFC00FFF7F6FF0500631C02D0044B1B68E418C6
:10200C00FFF7EEFF401BA042FAD370BD000000208A
:10201C00024B802212059A607047C04600ED00E02A
:10202C0010B50B480B4B036000234360E0221201F8
:10203C008260094A4261036243628362C362036342
:10204C0002F07EF8002800D110BDFEF745FCFBE73E
:10205C0018060020007C0040FFFF000000B583B094
:10206C0002680C4B9A4201D003B000BD0A4BD96BED
:10207C00802212060A43DA63DB6BDB0FDB0701936A
:10208C00019B002200211120FFF7F4FE1120FFF725
:10209C0023FFE9E7007C00400010024010B519480E
:1020AC00194B0360E1235B02436000238360C36030
:1020BC0003610C2242618361C361036243628362E8
:1020CC0003F0A4FA002811D100210E4803F02CFBD8
:1020DC0000280ED100210B4803F04AFB00280BD13D
:1020EC00084803F001FB002809D110BDFEF7F4FBF2
:1020FC00EAE7FEF7F1FBEDE7FEF7EEFBF0E7FEF7A4
:10210C00EBFBF2E7AC0600200044004030B589B090
:10211C0004001422002103A804F00FFC254B2268B4
:10212C009A4201D009B030BD234BD96B802080027C
:10213C000143D963DA6B02400192019A596B012277
:10214C00114359635B6B13400293029B0C23039363
:10215C000A3B04930025059506950792A02003A938
:10216C00C005FEF7DBFD1548154B036034234360B7
:10217C008560C5604C33036145618561603BC3611B
:10218C000562FFF7BFFC002811D10C4BA3679C62C2
:10219C00002200211C20FFF76DFE1C20FFF79CFE87
:1021AC00084B1A68136810210B431360BAE7FEF74B
:1021BC0093FBEAE700440040001002405006002068
:1021CC0008000240AC06002070B59AB0002418E05C
:1021DC003848031900229A71063001F01FFF364867
:1021EC0002F028F9002C05DB324B1B1900229A71E6
:1021FC00013CF7E7402231492F4802F0B1F857E093
:10220C0001343F2C1EDC2B4B1B199B790D2BDFD083
:10221C00082BF5D1274B1B1900229A71002C04DDD9
:10222C00621E244B9B1800229A71234D280002F049
:10223C0001F9611E4022121B92B2204BC9182800D2
:10224C0002F08EF8002601966022002102A804F00C
:10225C0074FB1B221A4901A804F078FBFA25AD0087
:10226C00154C2B00062201A9200003F01DF9019644
:10227C006022002102A804F060FB1B22114901A876
:10228C0004F064FB2B00042201A9200003F00CF9DC
:10229C0001966022002102A804F04FFB074901A817
:1022AC0004F054FB82B22B0001A9200003F0FCF8CF
:1022BC001AB070BD90000020AC06002096000020E3
:1022CC00D8720008E072000810B5074B1B68074A6B
:1022DC00934200D010BDDA69D206FBD510221A62E7
:1022EC00FFF772FFF6E7C046AC0600200044004042
:1022FC00F0B5DE4657464E464546E0B59BB0A020AD
:10230C000121C005FEF744FED74B5B79092B07D89A
:10231C00002B55D0092B53D89B00D44AD3589F4639
:10232C00FF2B4DD1D04B00225A7101AC60320021F1
:10233C0002A804F002FBCE4B220003CB03C2198887
:10234C0011809B789370FA239B000A222100C948C4
:10235C0003F0AAF834E0C44B00225A716032002119
:10236C0002A804F0EAFAC44B0193FA239B0003225F
:10237C0001A9C04803F098F80024092C20DCA02007
:10238C000121C005FEF704FE6420FFF72FFE013487
:10239C00F3E7002401946022002102A804F0CDFA96
:1023AC0003F0A8FB0200B54901A804F0CFFAFA2308
:1023BC009B00092201A9AF4803F076F8AA4B5C7187
:1023CC001BB03CBC90469946A246AB46F0BD03F010
:1023DC0009FBAB4803F044FA01AC00276022002152
:1023EC0002A804F0AAFAA74B220023CB23C21B7825
:1023FC001370FA26B6009F4D33000C2221002800E2
:10240C0003F052F80021402003F06CFB019760228E
:10241C00002102A804F091FA03F04EFB02009A4945
:10242C00200004F093FA330017222100280003F057
:10243C003BF80121402003F055FB0197602200215D
:10244C0002A804F07AFA03F007FB02008F4920007F
:10245C0004F07CFA330017222100280003F024F842
:10246C000221402003F03EFB01976022002102A8CC
:10247C0004F063FA03F0F0FA02008549200004F03E
:10248C0065FA33001B222100280003F00DF803210C
:10249C00402003F027FB01976022002102A804F0E2
:1024AC004CFA03F0EDFA02007A49200004F04EFADF
:1024BC0082B233002100280002F0F6FF04214020F4
:1024CC0003F010FB01976022002102A804F035FAFA
:1024DC0003F0D6FA02007049200004F037FA82B2F9
:1024EC0033002100280002F0DFFF0621402003F01A
:1024FC00F9FA01976022002102A804F01EFA03F0F9
:10250C00ABFA02006549200004F020FA33001722D0
:10251C002100280002F0C8FF0721402003F0E2FA56
:10252C0001976022002102A804F007FA03F094FA44
:10253C0002005B49200004F009FA33001522210047
:10254C00280002F0B1FF00241CE021001031C9B2B8
:10255C00402003F0C7FA002301936022002102A857
:10256C0004F0EBF903F078FA030022004D4901A8BE
:10257C0004F0ECF9FA2382B29B0001A93D4802F069
:10258C0093FF01340E2CE0DD0024062C21DC072CFB
:10259C001DD821002031C9B2402003F0A3FA00233A
:1025AC0001936022002102A804F0C7F903F054FA49
:1025BC00030022003C4901A804F0C8F9FA239B004F
:1025CC001B2201A92B4802F06FFF0134DDE700212B
:1025DC00E2E70024062C21DC072C1DD82100283131
:1025EC00C9B2402003F07EFA00230193602200213F
:1025FC0002A804F0A2F903F02FFA030022002B49E1
:10260C0001A804F0A3F9FA239B001A2201A9194886
:10261C0002F04AFF0134DDE70021E2E70024062C3A
:10262C0048DC072C1DD821003031C9B2402003F002
:10263C0059FA002301936022002102A804F07DF9CD
:10264C0003F01EFA03002200194901A804F07EF9D8
:10265C00FA2382B29B0001A9064802F025FF01343F
:10266C00DDE70021E2E7C046900000209C750008E1
:10267C0090750008AC0600206F6B0A00747300089C
:10268C0038070020E8720008F8720008147300087C
:10269C002C73000848730008647300087C730008EE
:1026AC0094730008AC730008C4730008E47300084A
:1026BC00007400080024062C21DC072C1DD82100F6
:1026CC003831C9B2402003F00DFA00230193602287
:1026DC00002102A804F031F903F0D2F90300220022
:1026EC00604901A804F032F9FA2382B29B0001A9D7
:1026FC005D4802F0D9FE0134DDE70021E2E75B4BD7
:10270C0000225A715A4803F017F903F043F957E6BF
:10271C0000240F2C50DC554B9B4625001235AD0088
:10272C0000239846534A0023594668580021FDF768
:10273C00B1FE514A0023FDF78DFE82468946434681
:10274C0001936022002102A804F0F7F822004B4903
:10275C0001A804F0FBF8FA27BF0082B2424E3B00FE
:10276C0001A9300002F0A0FE434601936022002133
:10277C0002A804F0E2F852464B46414901A804F085
:10278C00E5F83B000F2201A9300002F08DFE434614
:10279C0001936022002102A804F0CFF85B46EA58AE
:1027AC00384901A804F0D2F882B23B0001A93000EC
:1027BC0002F07AFE0134ACE72C4B00225A71FFE593
:1027CC00002401946022002102A804F0B6F800F065
:1027DC004BFD2D4A0023FDF719FE02000B002B497F
:1027EC0001A804F0B3F8FA26B60082B21E4D3300ED
:1027FC0001A9280002F058FE01946022002102A8D1
:10280C0004F09BF800F030FDFA2292000023FDF753
:10281C00FDFDFA2292000023FDF7F8FD1C4901A8EA
:10282C0004F094F882B2330001A9280002F03CFEB7
:10283C000E4B5C71C4E501AD0024019460220021B3
:10284C0002A804F07AF80A232B80F0339B000122B3
:10285C002900054802F028FE03F06AFA034B5C716C
:10286C00AEE5C0461C740008AC06002090000020A9
:10287C003807002040771B00FFFFFF00387400086A
:10288C00407400087473000840420F004C74000838
:10289C005074000801AC00239B466022002102A862
:1028AC0004F04BF8FD4B1A6801929B88A380FA2523
:1028BC00AD00FB4E2B0005222100300002F0F4FD90
:1028CC006022002102A804F038F8F64B220083CBDA
:1028DC0083C21B7813702B000C222100300002F0F5
:1028EC00E3FD5B4601936022002102A804F025F869
:1028FC000B2000F097FCFA2292000023FDF7AAFDB2
:10290C0002000B00E8498A46200004F01FF882B24E
:10291C002B002100300002F0C7FD5B4601936022C2
:10292C00002102A804F009F80B2000F07BFCFA222D
:10293C0092000023FDF78EFDDC498946200004F04F
:10294C0005F82B000A222100300002F0ADFD6022B8
:10295C00002102A803F0F1FFD54B220083CB83C2E8
:10296C001B7813702B000C222100300002F09CFD10
:10297C005B4601936022002102A803F0DEFF0620D3
:10298C0000F050FCFA2292000023FDF763FD0200D8
:10299C000B005146200003F0D9FF82B22B0021001E
:1029AC00300002F081FD5B4601936022002102A8F9
:1029BC0003F0C3FF062000F035FCFA22920000233E
:1029CC00FDF748FD4946200003F0C0FF2B000A220A
:1029DC002100300002F068FD6022002102A803F003
:1029EC00ACFFB44B220083CB83C21B7813702B003B
:1029FC000C222100300002F057FD5B46019360224F
:102A0C00002102A803F099FF002000F00BFCFA2231
:102A1C0092000023FDF71EFD02000B005146200022
:102A2C0003F094FF82B22B002100300002F03CFD39
:102A3C005B4601936022002102A803F07EFF002078
:102A4C0000F0F0FBFA2292000023FDF703FD49464B
:102A5C00200003F07BFF2B000A222100300002F043
:102A6C0023FD6022002102A803F067FF924B220095
:102A7C0083CB83C21B7813702B000C2221003000F7
:102A8C0002F012FD5B4601936022002102A803F0C4
:102A9C0054FF0E2000F0C6FBFA2292000023FDF733
:102AAC00D9FC02000B005146200003F04FFF82B20C
:102ABC002B002100300002F0F7FC5B4601936022F2
:102ACC00002102A803F039FF0E2000F0ABFBFA2224
:102ADC0092000023FDF7BEFC4946200003F036FFB0
:102AEC002B000A222100300002F0DEFC60220021C3
:102AFC0002A803F022FF714B220083CB83C21B7808
:102B0C0013702B000C222100300002F0CDFC5B4630
:102B1C0001936022002102A803F00FFF022000F0B5
:102B2C0081FBFA2292000023FDF794FC02000B00BB
:102B3C005146200003F00AFF82B22B002100300026
:102B4C0002F0B2FC5B4601936022002102A803F064
:102B5C00F4FE022000F066FBFA2292000023FDF73F
:102B6C0079FC4946200003F0F1FE2B000A222100DB
:102B7C00300002F099FC6022002102A803F0DDFE77
:102B8C004F4B220083CB83C2196811601B791371E0
:102B9C002B0010222100300002F086FC5B460193D2
:102BAC006022002102A803F0C8FE0C2000F074FB88
:102BBC00FA2292000023FDF729FC02000B00414988
:102BCC008946200003F0C2FE82B22B0021003000A7
:102BDC0002F06AFC5B4601936022002102A803F01C
:102BEC00ACFE0C2000F058FBC317C018584029004D
:102BFC00FDF706FC0A00344B9A461900200003F03E
:102C0C00A5FE2B0009222100300002F04DFC6022B1
:102C1C00002102A803F091FE2C4B220083CB83C22F
:102C2C00196811601B7913712B00102221003000E0
:102C3C0002F03AFC5B4601936022002102A803F0EB
:102C4C007CFE052000F028FBFA2292000023FDF701
:102C5C00DDFB02000B004946200003F077FE82B238
:102C6C002B002100300002F01FFC5B460193602218
:102C7C00002102A803F061FE052000F00DFBC31734
:102C8C00C01858402900FDF7BBFB0A005146200034
:102C9C0003F05CFE2B000922210019E05C74000893
:102CAC00AC06002064740008747400087C7400087E
:102CBC008C7400089C740008AC740008BC74000888
:102CCC00CC740008E0740008E8740008F474000880
:102CDC00300002F0E9FB6022002102A803F02DFE77
:102CEC00FB4B220083CB83C2196811601B791371D3
:102CFC002B0010222100300002F0D6FB5B46019322
:102D0C006022002102A803F018FE012000F0C4FA92
:102D1C00FA2292000023FDF779FB02000B004946D2
:102D2C00200003F013FE82B22B002100300002F0D1
:102D3C00BBFB5B4601936022002102A803F0FDFD62
:102D4C00012000F0A9FAC317C01858402900FDF75C
:102D5C0057FB0A005146200003F0F8FD2B00092216
:102D6C002100300002F0A0FB6022002102A803F039
:102D7C00E4FDD84B220083CB83C2196811601B7908
:102D8C0013712B0010222100300002F08DFB5B46EA
:102D9C0001936022002102A803F0CFFD0D2000F06A
:102DAC007BFAFA2292000023FDF730FB02000B00A5
:102DBC004946200003F0CAFD82B22B0021003000EE
:102DCC0002F072FB5B4601936022002102A803F023
:102DDC00B4FD0D2000F060FAC317C018584029004C
:102DEC00FDF70EFB0A005146200003F0AFFD2B004F
:102DFC0009222100300002F057FB6022002102A8BA
:102E0C0003F09BFDB44B220083CB83C21968116085
:102E1C001B7913712B0010222100300002F044FBAF
:102E2C005B4601936022002102A803F086FD03207B
:102E3C0000F032FAFA2292000023FDF7E7FA0200C2
:102E4C000B004946200003F081FD82B22B002100CB
:102E5C00300002F029FB5B4601936022002102A89E
:102E6C0003F06BFD032000F017FAC317C01858408D
:102E7C002900FDF7C5FA0A005146200003F066FD53
:102E8C002B0009222100300002F00EFB60220021F1
:102E9C0002A803F052FD914B220083CB83C21B8806
:102EAC0013802B000D222100300002F0FDFA5B464E
:102EBC0001936022002102A803F03FFD042000F0E2
:102ECC00FBF9FA2292000023FDF7A0FA02000B0096
:102EDC004946200003F03AFD82B22B00210030005D
:102EEC0002F0E2FA5B4601936022002102A803F093
:102EFC0024FD042000F0E0F9C317C0185840290045
:102F0C00FDF77EFA0A007649200003F01FFD2B0026
:102F1C000A222100300002F0C7FA201D6022002195
:102F2C0003F00BFD01AC6F4B220023CB23C21B889B
:102F3C001380FA25AD006C4E2B000D2221003000C1
:102F4C0002F0B2FA002301936022002102A803F0E0
:102F5C00F4FC0A2000F0B0F9FA2292000023FDF7ED
:102F6C0055FA02000B0061498946200003F0EEFC83
:102F7C0082B22B002100300002F096FA5B460193DE
:102F8C006022002102A803F0D8FC0A2000F094F97A
:102F9C00C317C01858402900FDF732FA0A00504BED
:102FAC0098461900200003F0D1FC2B000A222100C6
:102FBC00300002F079FA6022002102A803F0BDFC77
:102FCC004B4B220083CB83C21B8813802B000D221A
:102FDC002100300002F068FA5B4601936022002168
:102FEC0002A803F0AAFC092000F066F9FA2292006C
:102FFC000023FDF70BFA02000B004946200003F0FA
:10300C00A5FC82B22B002100300002F04DFA5B4689
:10301C0001936022002102A803F08FFC092000F02C
:10302C004BF9C317C01858402900FDF7E9F90A00FD
:10303C004146200003F08AFC2B000A2221003000BC
:10304C0002F032FA6022002102A803F076FC294B30
:10305C00220083CB83C21B8813802B000D222100FE
:10306C00300002F021FA5B4601936022002102A895
:10307C0003F063FC0F2000F01FF9FA2292000023EA
:10308C00FDF7C4F902000B004946200003F05EFC7A
:10309C0082B22B002100300002F006FA5B4601934D
:1030AC006022002102A803F048FC0F2000F004F974
:1030BC00C317C01858402900FDF7A2F90A00414671
:1030CC00200003F043FC2B000A222100300013E007
:1030DC00087500081C750008307500084475000858
:1030EC005475000860750008AC060020E0740008F8
:1030FC00707500088075000802F0D6F9024B5A462C
:10310C005A71FFF75DF9C0469000002030B593B0BE
:10311C002C4A47230021D154402202A803F00DFC75
:10312C000F2000E00138002819DD00210F29F9DCFF
:10313C00431E244C1B015B1822339B0002015218C6
:10314C00223292001D5915518A0002AD5559019534
:10315C001B59AC46634402AC13510131E6E7002223
:10316C0017E01849130012339B005B5810002230F3
:10317C0080004350900002AC04590194A44663446F
:10318C0002AC03511B0910002330FF308000435068
:10319C0001320F2AE5DD0B499922D2008B5C0133F9
:1031AC00DBB28B54102B05D8074BCB5C002B07D014
:1031BC00012300E001230349034A8B5413B030BDB3
:1031CC000023F8E790000020C904000010B523305C
:1031DC00FF308000054BC058054A00230021FDF745
:1031EC0059F9044A0023FDF735F910BD9000002071
:1031FC0000D2496BFFFFFF0010B52330FF30800079
:10320C00054BC058054A00230021FDF743F9044A39
:10321C000023FDF71FF910BD9000002040771B0024
:10322C00FFFFFF0010B5FFF7D1FF054A0023121A6C
:10323C008B4110001900034A0023FDF70BF910BD58
:10324C0000D2496B1027000010B5FFF7BFFF054AED
:10325C000023121A8B41100019000A220023FDF7DB
:10326C00F9F810BD00D2496B10B50720FFF7C4FF69
:10327C00074A0023FDF70EF9842252000023FDF7C4
:10328C00E9F8044A01235B428018594110BDC0463D
:10329C005C440000889103FC10B5FFF7ADFF1E22C3
:1032AC000023FDF7D7F8034A01235B4280185941EC
:1032BC0010BDC046D08AFFFF10B5A0B0040080221C
:1032CC000B49684603F030FB2000FFF795FFE40044
:1032DC006C4422686368801A994114220023FDF71C
:1032EC0095F8044A01235B428018594120B010BD67
:1032FC00C87100081802FFFFF0B5DE4657464E466F
:10330C004546E0B5A7B0B020400302F0E9FCCE483A
:10331C0002F0E6FCCD4B9C22D20094466344CC4890
:10332C00032118605960002399460A930793089368
:10333C00069327E00120404203E10127C34EC54B11
:10334C00F754C117009A019BFDF7A4F804000D0077
:10335C00F917029A039B3800FDF79CF824184D418D
:10336C009A23DB009C46664434607560E023DB00E6
:10337C009C46E144029B039C0A930794009B019C8E
:10338C0008930694B44B994500D9EBE0B020400368
:10339C00484402F0A5FC6420FEF728FEAB4B98468F
:1033AC00AE4A00234146086E0021FDF773F8AC4A83
:1033BC000023FDF74FF8A94C002522002B00121A10
:1033CC008B41100019000A220023FDF743F80090EE
:1033DC00019122002B004146886C0021FDF75AF820
:1033EC009F4A0023FDF736F8241A8D41200029004E
:1033FC000A220023FDF72EF802900391994A00232C
:10340C0016001F0000980199361A8F4102980399F3
:10341C00121A8B410492059332003B0030003900A4
:10342C00FDF738F804000D000498059902000B0014
:10343C00FDF730F824184D419C23DB0043441A68F7
:10344C005B68AB4202DC91D1A2428FD900239B4630
:10345C000D93602200210EA803F06FFA009A019BD5
:10346C0081490DA803F072FAFA229200924682B2B8
:10347C007E49884653460DA9404602F015F85A4637
:10348C000D92603200210EA803F057FA029A039BAA
:10349C0077490DA803F05AFA82B253460DA940465B
:1034AC0002F002F85A460D92603200210EA803F089
:1034BC0044FA32003B006F490DA803F047FA82B280
:1034CC0053460DA9404601F0EFFF5A460D9260326B
:1034DC0000210EA803F031FA049A059B66490DA849
:1034EC0003F034FA82B253460DA9404601F0DCFFDA
:1034FC005A460D92603200210EA803F01EFA2200EB
:10350C002B005E490DA803F021FA82B253460DA997
:10351C00404601F0C9FF4D4B9B22D20049469950C1
:10352C000832944663441C605D60009B019C069AC3
:10353C00944205D800D0FDE6089A934200D8F9E6EB
:10354C000120424A4E4BD054029B039C079A944252
:10355C0000D9F2E603D10A9A934200D9EDE601278D
:10356C007F42EBE600270D97602200210EA803F0A6
:10357C00E4F9364C9A23DB00E3181A685B6841497E
:10358C000DA803F0E3F9FA26B60082B2374D3300EA
:10359C000DA9280001F088FF0D97602200210EA8CC
:1035AC0003F0CBF9364BE25637490DA803F0CEF9B0
:1035BC0082B233000DA9280001F076FF0D9760222E
:1035CC0000210EA803F0B9F9224BE2562F490DA8A1
:1035DC0003F0BCF982B233000DA9280001F064FF9E
:1035EC000D97602200210EA803F0A7F99B27FF007E
:1035FC00E25927490DA803F0A9F982B233000DA9AD
:10360C00280001F051FFE059B0235B039C46604455
:10361C0002F066FBA020400302F062FB1D4802F0A2
:10362C005FFB9F23DB009C466444094A0323226012
:10363C00636000230B9307930A9306931C0053E0DB
:10364C00012040422FE1C046FF7F17009000002070
:10365C00006298C5CB040000FEFF000040771B0001
:10366C00FFFFFF00905F0100C4750008AC0600204E
:10367C00D4750008E4750008F47500080476000899
:10368C00CA040000147600082C7600083C7600086A
:10369C004C760008FF7F150001239846BB4DBC4BB0
:1036AC004246EA54C117009A019BFCF7F3FE060050
:1036BC000F004346D917029A039B4046FCF7EAFEDB
:1036CC0036184F419D23DB009C4665442E606F608D
:1036DC00E023DB009C466444029A039B0B92079305
:1036EC00009A019B0A920693AA4B9C4200D9EDE0EA
:1036FC00A0235B03E01802F0F3FA6420FEF776FCDB
:10370C00A24D8023E858A44A00230021FCF7C2FEF6
:10371C00A24A0023FCF79EFE9F4E002732003B007E
:10372C00121A8B41100019000A220023FCF792FE9A
:10373C000090019132003B00286D0021FCF7AAFE9D
:10374C00964A0023FCF786FE361A8F41300039006A
:10375C000A220023FCF77EFE02900391904A00237C
:10376C0010001900009E019F801BB941089009911F
:10377C00029E039F921BBB410492059302000B0017
:10378C00FCF788FE06000F000498059902000B0058
:10379C00FCF780FE36184F419F23DB009C466544A6
:1037AC002A686B68BB4202DC92D1B24290D90023EA
:1037BC0099460D93602200210EA803F0BEF8009AE2
:1037CC00019B78490DA803F0C1F8FA239B00984699
:1037DC0082B2754D0DA9280001F066FE4B460D9383
:1037EC00602200210EA803F0A8F8029A039B6F49EF
:1037FC000DA803F0ABF882B243460DA9280001F0E6
:10380C0053FE4B460D93602200210EA803F095F851
:10381C00674B9A46089A099B51460DA803F096F8F7
:10382C0082B243460DA9280001F03EFE4B460D9393
:10383C00602200210EA803F080F8049A059B5146E3
:10384C000DA803F083F882B243460DA9280001F0BD
:10385C002BFE4B460D93602200210EA803F06DF851
:10386C0032003B0053490DA803F070F882B2434676
:10387C000DA9280001F018FE444B9E22D2009C504A
:10388C009F21C9008C4663441E605F60009A019BB7
:10389C0006998B4206D800D0D2E613000A9A9342BE
:1038AC0000D8CDE60120394A434BD054029A039BF1
:1038BC0007998B4200D9EFE604D113000B9A93427F
:1038CC0000D9E9E601235B429846E7E600270D970D
:1038DC00602200210EA803F030F82C4C9D23DB0055
:1038EC00E3181A685B6835490DA803F02FF8FA261F
:1038FC00B60082B22C4D33000DA9280001F0D4FD86
:10390C000D97602200210EA803F017F82A4BE256FF
:10391C002B490DA803F01AF882B233000DA9280028
:10392C0001F0C2FD0D97602200210EA803F005F8EE
:10393C00174BE25623490DA803F008F882B2330066
:10394C000DA9280001F0B0FD0D97602200210EA8F2
:10395C0002F0F3FF9E27FF00E2591B490DA802F06D
:10396C00F5FF82B233000DA9280001F09DFDE0594E
:10397C00A0235B039C46604402F0B2F927B03CBC28
:10398C0090469946A246AB46F0BDC046900000203A
:10399C00CD040000FEFF000040771B00FFFFFF007E
:1039AC00905F010060760008AC060020707600087D
:1039BC008076000890760008CC040000A076000801
:1039CC00B8760008C8760008D8760008F0B5234E03
:1039DC00234FA023DB00F7500833F318012040429B
:1039EC00C11718605960A223DB00F31818605960E6
:1039FC00A323DB00F3181B4C00251C605D60A42383
:103A0C00DB009C46B44400220023644622606360C1
:103A1C00A524E400A446B444644622606360A62452
:103A2C00E400375108343719386079600834371995
:103A3C0038607960A921C90071180A4C00250C6006
:103A4C004D60AA21C90071180A604B60AB21C900F6
:103A5C008C46664432607360F0BDC0469000002016
:103A6C00FF7F000040420F00F8B5CE46474680B5B8
:103A7C00364E374BF456E5170E20FFF7E5FB0200E8
:103A8C000B0020002900FCF705FD04000D00314B54
:103A9C00F756FB1798460220FFF7D6FB02000B00E7
:103AAC0038004146FCF7F6FC24184D419D23DB0001
:103ABC00F31818685968FA2292000023FCF7EAFC04
:103ACC00241A8D41A423DB00F3181C605D60A52330
:103ADC00DB00F7183868796800196941103BF31856
:103AEC001A685B68FCF792FC804638607960A02706
:103AFC00FF00F3599946A123DB00F3181A685B68A1
:103B0C0020002900FCF7C6FCFA2292000023FCF7E7
:103B1C007DFC03004B44A222D200B218106842462E
:103B2C005043C018F0510C4B984201D90B49F1513C
:103B3C00064AA023DB00D058A8235B039C466044B4
:103B4C0002F0CEF80CBC90469946F8BD90000020CF
:103B5C00CC040000CD040000FEFF0000FFFF0000BD
:103B6C00F8B5CE46474680B5364E374BF456E5177A
:103B7C000620FFF769FB02000B0020002900FCF770
:103B8C0089FC04000D00314BF756FB1798460020BA
:103B9C00FFF75AFB02000B0038004146FCF77AFC99
:103BAC0024184D419A23DB00F31818685968FA223F
:103BBC0092000023FCF76EFC241A8D41AA23DB0033
:103BCC00F3181C605D60AB23DB00F718386879686C
:103BDC0000196941103BF3181A685B68FCF716FC76
:103BEC00804638607960A627FF00F3599946A723D1
:103BFC00DB00F3181A685B6820002900FCF74AFC0C
:103C0C00FA2292000023FCF701FC03004B44A8228B
:103C1C00D200B218106842465043C018F0510C4BF9
:103C2C00984201D90B49F151064AA623DB00D05822
:103C3C00B8235B039C46604402F052F80CBC9046DF
:103C4C009946F8BD90000020CA040000CB04000087
:103C5C00FEFF0000FFFF0000F0B5DE4657464E4663
:103C6C004546E0B59BB0FFF7FFFEFFF779FF01ACCF
:103C7C006022002102A802F060FED74B220023CB69
:103C8C0023C2196811601B791371FA26B600D34D43
:103C9C00330010222100280001F006FC00270197B8
:103CAC006022002102A802F048FECD4B98469A23D0
:103CBC00DB00434418685968FA2292000023FCF791
:103CCC00E9FB02000B00C749200002F03FFE82B264
:103CDC0033002100280001F0E7FB0197602200214E
:103CEC0002A802F02AFEA623DB004246D258BE49A7
:103CFC00200002F02BFE82B233002100280001F0DC
:103D0C00D3FB01976022002102A802F016FEAA2321
:103D1C00DB0043441A685B68B449200002F016FECD
:103D2C0082B233002100280001F0BEFB602200218A
:103D3C0002A802F002FEAE4B220083CB83C21B789A
:103D4C00137033000C222100280001F0ADFB00277A
:103D5C0001976022002102A802F0EFFD0620FFF778
:103D6C0073FAA44A0023FCF775FB02000B00A2496E
:103D7C008A46200002F0EAFD82B2330021002800BE
:103D8C0001F092FB01976022002102A802F0D5FD00
:103D9C000620FFF759FA974A0023FCF75BFB97497B
:103DAC008B46200002F0D2FD33000D2221002800AA
:103DBC0001F07AFB6022002102A802F0BEFD904BBC
:103DCC00220083CB83C21B78137033000C2221009A
:103DDC00280001F069FB002701976022002102A84E
:103DEC0002F0ABFD0020FFF72FFA824A0023FCF70C
:103DFC0031FB02000B005146200002F0A7FD82B2FD
:103E0C0033002100280001F04FFB019760220021B4
:103E1C0002A802F092FD0020FFF716FA754A002363
:103E2C00FCF718FB7749200002F090FD82B23300BA
:103E3C002100280001F038FB01976022002102A824
:103E4C0002F07BFD9D23DB00434418685968FA227D
:103E5C0092000023FCF71EFB02000B006A492000B5
:103E6C0002F074FD82B233002100280001F01CFB2B
:103E7C0001976022002102A802F05FFDA023DB0065
:103E8C004246D2586149200002F060FD82B23300F4
:103E9C002100280001F008FB01976022002102A8F4
:103EAC0002F04BFDA423DB0043441A685B685849BD
:103EBC00200002F04BFD82B233002100280001F0FB
:103ECC00F3FA6022002102A802F037FD514B2200C8
:103EDC0083CB83C21B78137033000C222100280083
:103EEC0001F0E2FA002701976022002102A802F0FB
:103EFC0024FD0E20FFF7A8F93E4A0023FCF7AAFA8E
:103F0C0002000B005146200002F020FD82B233006B
:103F1C002100280001F0C8FA01976022002102A8B4
:103F2C0002F00BFD0E20FFF78FF9324A0023FCF74D
:103F3C0091FA5946200002F009FD33000D222100B0
:103F4C00280001F0B1FA6022002102A802F0F5FC71
:103F5C00314B220083CB83C21B78137033000C22AD
:103F6C002100280001F0A0FA00270197602200210F
:103F7C0002A802F0E2FC0220FFF766F91D4A0023BA
:103F8C00FCF768FA02000B005146200002F0DEFC40
:103F9C0082B233002100280001F086FA01976022DA
:103FAC00002102A802F0C9FC0220FFF74DF9114ACA
:103FBC000023FCF74FFA5946200002F0C7FC3300EF
:103FCC000D222100280001F06FFA1BB03CBC90467A
:103FDC009946A246AB46F0BDEC760008AC06002034
:103FEC00900000201476000800770008187700086D
:103FFC008C74000840420F00747400082C77000881
:10400C009C7400083C770008A07600084C770008E8
:10401C0064770008AC740008BC74000830B59BB021
:10402C00040001AD6022002102A802F086FC394B8D
:10403C001A6801921B792B71FA239B000422290028
:10404C00354801F031FA35492000FCF755F80028C5
:10405C0004D1334B01225A711BB030BD31492000C1
:10406C00FCF74AF8002803D12D4B02225A71F3E7D2
:10407C002D492000FCF740F8002803D1284B0322DF
:10408C005A71E9E729492000FCF736F8002803D1DA
:10409C00234B04225A71DFE725492000FCF72CF84A
:1040AC00002809D023492000FCF726F8002818D155
:1040BC001B4B07225A71CFE701AC002301936022FE
:1040CC00002102A802F039FC0A232380F0339B0064
:1040DC0001222100104801F0E7F9114B06225A7118
:1040EC00BAE715492000FCF707F8002803D10C4B60
:1040FC0008225A71B0E711492000FBF7FDFF002898
:10410C0003D1074B09225A71A6E7054BFF225A71BE
:10411C00A2E7C04678770008AC060020807700083C
:10412C009000002088770008907700089C770008A2
:10413C00A8770008B4770008BC770008C877000897
:10414C0070B5041E4CD03623C35C002B3DD03623F7
:10415C000222E2542568EB686068012804D08022B2
:10416C001204A16A914201D11E22934361691D4A36
:10417C00914201D01C4A13401C4A1A40A3680343C5
:10418C00266A3343666A3343A66A334313430128D2
:10419C0003D080221204964203D1E26820690243C4
:1041AC001343104A914204D0A2691143E2691143AE
:1041BC000B43EB6023680E4A93420CD0E26A5A62BE
:1041CC0036230122E254002070BD35330022C25444
:1041DC00FDF744FFBBE7E26A216B0A435A62EFE743
:1041EC000120F1E7FFFF00003F1FFFFFF8F119FF6F
:1041FC00007C004010B536230222C2544368012BC8
:10420C0004D080231B04826A9A4219D002689368F6
:10421C00102423439360026893680E3C23439360FD
:10422C0004682369012213432361036899610168BF
:10423C000B69042423430B613623C254002010BDA8
:10424C000268D368014C2340D360DFE7FFF1FFFF26
:10425C00704770477047704770477047704710B58C
:10426C00040003681A68D20702D59A68D2072AD4C8
:10427C0023681A68920702D59A68920728D4236893
:10428C001A68520702D59A68520727D423681A680D
:10429C00120702D59A68120726D423681A68D20628
:1042AC0002D59A68D20625D423681A68920602D5DC
:1042BC009A68920624D423681A68520602D59A6822
:1042CC00520623D410BD01225A60FFF7C1FFCFE77D
:1042DC0002225A602000FFF7BCFFD0E704225A608C
:1042EC002000FFF7B7FFD1E708225A602000FFF744
:1042FC00B2FFD2E710225A602000FFF7ADFFD3E7E0
:10430C0020225A602000FFF7A8FFD4E740225A6011
:10431C002000FFF7A3FFD5E702681368C0218B4389
:10432C0013600268936803490B409360802320223A
:10433C00C2507047FFFF7FFF0268136806490B40AD
:10434C0013600268936805490B4093608423202214
:10435C00C2500023C3667047DFFEFFFFFEFFFFEF76
:10436C0010B5040084202058202855D1002955D0A0
:10437C00002A55D080235B01A06898423AD07C2358
:10438C00E35C012B4ED07C230120E054A165203B43
:10439C00E2522C330021E150043B2231E150A36F57
:1043AC00002B13D02049D962A36F20491963A36F46
:1043BC001F495963A36F00219963216824311300AD
:1043CC00A26DA06FFDF7F6FB00281AD17C2300220A
:1043DC00E2542268116884330B431360226893689B
:1043EC0001210B439360226893683F310B43936028
:1043FC00002012E02369002BC1D1CB07BFD50120CF
:10440C000BE088231022E2500C3B0022E2540433D0
:10441C002032E250012000E0022010BD0120FCE718
:10442C000120FAE70220F8E7F54400083B450008B4
:10443C004745000870B504008023C0588422A55855
:10444C00226891680B4201D0212807D023689A6812
:10445C00520636D5222D1AD0002033E093688021E5
:10446C008B439360606F002803D0FDF7EFFB0028AF
:10447C0003D12000FFF750FFE8E7606FFDF7CEFC9B
:10448C002028F6D188231022E2501D381AE09A68B1
:10449C0040218A439A60A06F002803D0FDF7D6FB19
:1044AC00002804D12000FFF747FF00200AE0A06F8E
:1044BC00FDF7B4FC2028F5D188231022E2501D38DA
:1044CC0000E0002070BD704710B5026813684021F1
:1044DC008B43136080232022C25000230367FFF715
:1044EC00F2FF10BD7047000010B5836A02681268B5
:1044FC00920615D45E220021995219680A680A485E
:10450C0002400A6019688A680330FF3082438A606F
:10451C0019688A683F3082438A608422202199502E
:10452C001800FFF7DFFF10BDFFFEFFFF704710B54F
:10453C00806AFFF7FBFF10BD704770B5846A80235B
:10454C00E1588422A55822689268134201D021298F
:10455C000ED023689B685B0601D5222D0FD08822D4
:10456C00A35810210B43A3502000FFF7E5FF70BDAB
:10457C002A3B0022E2522000FFF7CEFEE9E75E2341
:10458C000022E2522000FFF7D7FEE8E7F8B504005E
:10459C000168CB6908688D680F221A400BD19E0602
:1045AC0009D5860601D4EE0005D5E36E002B01D0AB
:1045BC0020009847F8BD002A74D0534A2A4003D1F2
:1045CC009026760030426DD0DE0707D5C60505D59E
:1045DC0001270F628826A1593943A151990709D5A2
:1045EC00E90707D5216802260E628636A1590427F1
:1045FC003943A151590709D5E90707D52168042684
:10460C000E628436A15902273943A15119070AD5E4
:10461C00810601D4002A06D0226808261662882159
:10462C006258324362508822A258002AC2D09B069C
:10463C0008D5830601D4EB0004D5E36E002B01D022
:10464C00200098478823E25823689B685B0601D4B6
:10465C00130720D52000FFF76FFE23689A685206D7
:10466C0015D59A6840218A439A60A36F002B0AD013
:10467C00264A9A63A06FFDF729FB00289AD0A06FF9
:10468C00836B984796E72000FFF756FF92E72000D0
:10469C00FFF752FF8EE72000FFF74EFF8823002222
:1046AC00E25087E7DA0201D56A020CD41A0611D55A
:1046BC00020601D42A020DD5236F002B00D179E715
:1046CC002000984776E780235B030B62200001F003
:1046DC0007F86FE75A0601D542060DD41A0201D528
:1046EC0042000DD4DB0100D464E7002800DB61E755
:1046FC00200000F0F6FF5DE72000FFF7E5FE59E72C
:10470C00200000F0EFFF55E7010000101D470008E6
:10471C0010B5806A00235E228352083A8352FFF759
:10472C000BFF10BDF8B504000168836802691343E0
:10473C0042691343C2691343426E1A430B68BD4866
:10474C00034013430B6022685368BB490B40E1687C
:10475C000B435360A1692268B84B9A4201D0236A7B
:10476C0019439368B64803400B4393602268D36A9D
:10477C000F218B43616A0B43D3622368B14A934286
:10478C005CD0B14A93426DD0B04A934200D19EE0C6
:10479C00AF4A934200D19CE0A84A934277D01025AF
:1047AC00A64A934200D198E080231B02E2699A4208
:1047BC0000D151E3022D01D100F0F8FC01D800F03A
:1047CC00A1FC042D01D100F02DFD082D01D000F02D
:1047DC0093FD636A002B01D100F067FD012B01D121
:1047EC0000F06FFD022B01D100F06EFD032B01D107
:1047FC0000F06DFD042B01D100F06BFD052B01D1F8
:10480C0000F06AFD062B01D100F068FD072B01D1E9
:10481C0000F066FD082B01D100F065FD092B01D1DC
:10482C0000F064FD0A2B01D100F063FD0B2B01D1CC
:10483C0000F039FD80231B0200F039FD854A516DD3
:10484C0003220A40012A09D0002A05D0022A3AD0B4
:10485C00032A05D01025A3E70025A1E704259FE72F
:10486C0008259DE77B4A516D0C220A40042A0AD088
:10487C0005D9082A29D00C2A07D1082590E7002A47
:10488C0003D100258CE704258AE7102588E7714AB7
:10489C00526DC02109010A408021C9008A420ED004
:1048AC0009D9802109018A4215D0C02109018A4207
:1048BC0007D1082574E7002A03D1002570E70425E9
:1048CC006EE710256CE702256AE7022568E70025EC
:1048DC0066E7002564E7022562E7022D00D1C1E0FE
:1048EC002ED9042D00D1DAE0082D01D000F007FDFF
:1048FC00636A002B00D122E1012B00D122E1022BB3
:10490C0000D122E1032B00D122E1042B00D121E1C3
:10491C00052B00D121E1062B00D120E1072B00D182
:10492C001FE1082B00D11FE1092B00D11FE10A2B3D
:10493C0000D11FE10B2B00D1E9E08020000226E022
:10494C00002D01D000F0DBFCFCF7CCFE636A002BE1
:10495C001AD0012B5FD0022B5FD0032B5FD0042B1E
:10496C005FD0052B5FD0062B5FD0072B5FD0082BB9
:10497C0072D0092B72D00A2B72D00B2B01D00121D3
:10498C0003E08021490000E00121FBF7C9FB00286E
:10499C0001D100F0B6FC626853009B18834201D928
:1049AC0000F0B1FC1303834201D200F0AEFC022DE7
:1049BC0000D142E100D8E0E0042D00D186E1082DC1
:1049CC0000D046E2636A002B00D110E2012B00D12B
:1049DC001AE2022B00D11BE2032B00D11CE2042BA8
:1049EC0000D11CE2052B00D11DE2062B00D11DE2EB
:1049FC00072B00D11DE2082B00D11EE2092B00D1A0
:104A0C001FE20A2B00D120E20B2B00D1EBE1802618
:104A1C0036040027EEE10221B7E70421B5E70621B1
:104A2C00B3E70821B1E70A21AFE70C21ADE710216C
:104A3C00ABE7C046F369FFCFFFCFFFFF008000401C
:104A4C00FFF4FF11003801400044004000480040D2
:104A5C00004C004000100240202196E7402194E7D2
:104A6C00802192E7636A002B53D0012B53D0022B89
:104A7C0053D0032B53D0042B53D0052B53D0062BE0
:104A8C0053D0072B53D0082B53D0092B53D00A2BC0
:104A9C0053D00B2B01D0AA4879E7AA4877E7FCF74B
:104AAC00F7FC636A002B1AD0012B1CD0022B1CD0F4
:104ABC00032B1CD0042B1CD0052B1CD0062B1CD07C
:104ACC00072B1CD0082B1CD0092B1CD00A2B1CD05C
:104ADC000B2B01D0012103E08021490000E00121D2
:104AEC00FBF71EFB53E70221FAE70421F8E7062146
:104AFC00F6E70821F4E70A21F2E70C21F0E7102190
:104B0C00EEE72021ECE74021EAE78021E8E780206E
:104B1C003DE78B483BE78C4839E78C4837E78C48B6
:104B2C0035E78C4833E78C4831E78C482FE78C48C5
:104B3C002DE78C482BE78C4829E78C4827E7802009
:104B4C00000224E78020C00121E7802080011EE7BD
:104B5C0087481CE78020400119E7864817E78648FC
:104B6C0015E78020000112E78020C0000FE78020AD
:104B7C0080000CE78020400009E7002D00D068E1A0
:104B8C00FCF7B0FD636A002B1CD0012B37D0022B35
:104B9C0038D0032B39D0042B3AD0052B3BD0062B25
:104BAC003CD0072B3DD0082B3ED0092B3FD00A2BF5
:104BBC0040D00B2B02D00122002305E080225200B2
:104BCC00002301E0012200230021FBF743FC050E2A
:104BDC000B022B43020265686808002180185941BA
:104BEC002A000023FBF736FC020000206349644BCB
:104BFC00D3188B4200D98AE32368DA60B9E2022227
:104C0C000023E1E704220023DEE706220023DBE792
:104C1C0008220023D8E70A220023D5E70C22002320
:104C2C00D2E710220023CFE720220023CCE740223A
:104C3C000023C9E780220023C6E7636A002B1BD040
:104C4C00012B25D0022B26D0032B27D0042B28D0C8
:104C5C00052B29D0062B2AD0072B2BD0082B2CD098
:104C6C00092B2DD00A2B2ED00B2B02D0454E002712
:104C7C0004E0334E002701E0424E0027500800218B
:104C8C00801979410023FBF7E5FB02000020ADE71A
:104C9C003D4E0027F2E73D4E0027EFE73C4E002744
:104CAC00ECE73C4E0027E9E73B4E0027E6E73B4E9E
:104CBC000027E3E73A4E0027E0E73A4E0027DDE70E
:104CCC00394E0027DAE7394E0027D7E7FCF7E0FB2F
:104CDC00636A002B1CD0012B2FD0022B68D0032B26
:104CEC0069D0042B6AD0052B6BD0062B6CD0072B0C
:104CFC006DD0082B6ED0092B6FD00A2B70D00B2BDC
:104D0C0002D00122002305E080225200002301E0A2
:104D1C00012200230021FBF79DFB050E0B022B4308
:104D2C000202656868080021801859412A00002396
:104D3C00FBF790FB0200002058E702220023E9E772
:104D4C000024F40024F4000000127A0000093D0055
:104D5C00AAB0280080841E00006A18005558140060
:104D6C0040420F0020A1070090D0030048E801004A
:104D7C0055150000CC0C0000AA0A0000FFFC0F0027
:104D8C0000FDFFFF000024F40000127A0000093D32
:104D9C0000AAB0280080841E00006A180055581420
:104DAC000040420F0020A1070090D0030048E8010A
:104DBC0004220023AEE706220023ABE708220023DF
:104DCC00A8E70A220023A5E70C220023A2E7102261
:104DDC0000239FE7202200239CE74022002399E731
:104DEC008022002396E780263602002702E08026E8
:104DFC003604002750080021801979410023FBF765
:104E0C0029FB02000020F1E68026F6030027F1E7DB
:104E1C008026B6030027EDE7A74E0027EAE7802699
:104E2C0076030027E6E7A54E0027E3E7A44E00270C
:104E3C00E0E7802636030027DCE78026F602002711
:104E4C00D8E78026B6020027D4E780267602002712
:104E5C00D0E701200022C9E6022D00D182E02DD935
:104E6C00042D00D1BAE0082D00D022E1636A002B9A
:104E7C0000D1F7E0012B00D100E1022B00D100E1C1
:104E8C00032B00D100E1042B00D1FFE0052B00D156
:104E9C00FFE0062B00D1FEE0072B00D1FDE0082B34
:104EAC0000D1FDE0092B00D1FDE00A2B00D1FDE083
:104EBC000B2B00D1D4E080235B02D5E0002D00D079
:104ECC00F7E0FCF70FFC636A002B1AD0012B35D0EE
:104EDC00022B35D0032B35D0042B35D0052B35D0F8
:104EEC00062B35D0072B35D0082B35D0092B35D0D8
:104EFC000A2B35D00B2B01D0012103E08021490076
:104F0C0000E00121FBF70CF9400063685B08C01856
:104F1C006168FBF705F903041B0C002069491A00B2
:104F2C00103A8A4200D9F4E10F22190091435B0830
:104F3C00083A13400B432268D3601AE10221E1E7DF
:104F4C000421DFE70621DDE70821DBE70A21D9E7A9
:104F5C000C21D7E71021D5E72021D3E74021D1E759
:104F6C008021CFE7636A002B19D0012B22D0022BB2
:104F7C0022D0032B22D0042B22D0052B22D0062B9F
:104F8C0022D0072B22D0082B22D0092B22D00A2B7F
:104F9C0022D00B2B01D04C4B02E04C4B00E04A4B87
:104FAC0062685008C0181100FBF7BAF803041B0C18
:104FBC000020B3E7464BF3E7464BF1E7464BEFE7F0
:104FCC00464BEDE7464BEBE7464BE9E7464BE7E74D
:104FDC00464BE5E7464BE3E7464BE1E7FCF758FA6F
:104FEC00636A002B1AD0012B26D0022B26D0032B60
:104FFC0026D0042B26D0052B26D0062B26D0072B0B
:10500C0026D0082B26D0092B26D00A2B26D00B2BEA
:10501C0001D0012103E08021490000E00121FBF7D0
:10502C007FF8400063685B08C0186168FBF778F88C
:10503C0003041B0C002071E70221F0E70421EEE7CA
:10504C000621ECE70821EAE70A21E8E70C21E6E76C
:10505C001021E4E72021E2E74021E0E78021DEE7B0
:10506C00F53301E080235B0262685008C018110020
:10507C00FBF756F803041B0C00204FE780231B02A0
:10508C00F2E78023DB01EFE71B4BEDE780239B016D
:10509C00EAE71A4BE8E71A4BE6E780235B01E3E704
:1050AC0080231B01E0E78023DB00DDE780239B00EE
:1050BC00DAE70120002331E70055150000CC0C0085
:1050CC0000AA0A00EFFF00000048E80148E80100D0
:1050DC000024F40000127A005461510000093D00D4
:1050EC0000D43000AAB0280080841E0040420F007B
:1050FC0020A1070090D00300AA2A000098190000F4
:10510C0054150000002D00D0F6E0FCF7EBFA636AB2
:10511C00002B1AD0012B35D0022B35D0032B35D0D8
:10512C00042B35D0052B35D0062B35D0072B35D09D
:10513C00082B35D0092B35D00A2B35D00B2B01D0B1
:10514C00012103E08021490000E00121FAF7E8FF8A
:10515C0063685B08C0186168FAF7E2FF03041B0C74
:10516C0000206E491A00103A8A4200D9D3E0226816
:10517C00D36001236A22A352023AA3520023E366AE
:10518C002367F8BD0221E1E70421DFE70621DDE713
:10519C000821DBE70A21D9E70C21D7E71021D5E755
:1051AC002021D3E74021D1E78021CFE7636A002B90
:1051BC0019D0012B22D0022B22D0032B22D0042B6E
:1051CC0022D0052B22D0062B22D0072B22D0082B45
:1051DC0022D0092B22D00A2B22D00B2B01D0504BE2
:1051EC0002E0504B00E04E4B62685008C0181100B2
:1051FC00FAF796FF03041B0C0020B2E74A4BF3E7C7
:10520C004A4BF1E74A4BEFE74A4BEDE74A4BEBE7EA
:10521C004A4BE9E74A4BE7E74A4BE5E74A4BE3E7FA
:10522C004A4BE1E7FCF734F9636A002B1AD0012BE7
:10523C0025D0022B25D0032B25D0042B25D0052BD4
:10524C0025D0062B25D0072B25D0082B25D0092BB4
:10525C0025D00A2B25D00B2B01D0012103E0802176
:10526C00490000E00121FAF75BFF63685B08C01896
:10527C006168FAF755FF03041B0C002071E702214B
:10528C00F1E70421EFE70621EDE70821EBE70A211E
:10529C00E9E70C21E7E71021E5E72021E3E74021CE
:1052AC00E1E78021DFE7753301E080231B026268B0
:1052BC005008C0181100FAF733FF03041B0C002030
:1052CC004FE78023DB01F2E780239B01EFE7204BC4
:1052DC00EDE780235B01EAE71E4BE8E71E4BE6E7B0
:1052EC0080231B01E3E78023DB00E0E780239B00A6
:1052FC00DDE780235B00DAE70120002331E70120A2
:10530C0037E7002035E7012033E7012031E70120A2
:10531C002FE701202DE701202BE7C046EFFF00000F
:10532C000024F40024F4000000127A0000093D006F
:10533C00AAB0280080841E00006A1800555814007A
:10534C0040420F0020A1070090D0030048E8010064
:10535C0055150000CC0C0000AA0A0000836ADB077C
:10536C0006D5026853682C490B40C16A0B43536045
:10537C00836A9B0706D50268536828490B40016B6A
:10538C000B435360836A5B0706D502685368244954
:10539C000B40416B0B435360836A1B0706D50268B5
:1053AC00536820490B40816B0B435360836ADB06C7
:1053BC0006D5026893681C490B40C16B0B43936084
:1053CC00836A9B0606D50268936818490B40016CEA
:1053DC000B439360836A5B060BD5026853681449D0
:1053EC000B40416C0B43536080235B03426C9A422D
:1053FC000AD0836A1B0606D5026853680D490B4018
:10540C00C16C0B4353607047026853680A490B40E8
:10541C00816C0B435360ECE7FFFFFDFFFFFFFEFFCA
:10542C00FFFFFBFFFF7FFFFFFFEFFFFFFFDFFFFF34
:10543C00FFFFEFFFFFFFF7FFFFFF9FFFF0B5C64633
:10544C0000B506000C0017009846069D3368DB6912
:10545C0023401B1B5A425341BB421ED16B1CF5D03F
:10546C00FCF7BEFD4346C01AA84201D8002DEDD171
:10547C00326813680B490B40136032689368A33190
:10548C00FF318B43936020238022B3500432B350FE
:10549C005C330022F254032000E0002004BC904650
:1054AC00F0BDC0465FFEFFFFF0B585B004000E00F6
:1054BC0017001D008023C358202B62D1002963D014
:1054CC00002A63D080235B0182689A421AD07C2325
:1054DC00E35C012B5CD07C230122E2540C330022D0
:1054EC00E250083B2132E250FCF77AFD0390542342
:1054FC00E7520233E75280235B01A2689A4208D03C
:10550C00002716E00369002BE1D1CB07DFD5012082
:10551C0038E02369002B21D000270AE03B88226861
:10552C00DB05DB0D936202375622A35A013B9BB27B
:10553C00A3525623E35A9BB2002B12D00095039B27
:10554C00002280212000FFF779FF002822D1002EB5
:10555C00E4D0327823689A620136E5E737000026FA
:10556C00E7E70095039B002240212000FFF766FF30
:10557C00002811D180232022E250043B0022E25467
:10558C0000E0022005B0F0BD0120FBE70120F9E7A7
:10559C000220F7E70320F5E70320F3E730B583B0EB
:1055AC00040088230022C250FCF71AFD0500236872
:1055BC001B681B070ED423681B685B0717D42023BA
:1055CC008022A3500432A3505C330022E25400200A
:1055DC0003B030BD80210C4B0093030000228903E3
:1055EC002000FFF72BFF0028E5D00320F0E78021F7
:1055FC00054B00932B000022C9032000FFF71EFF70
:10560C000028DCD00320E3E7FFFFFF0110B5041EE8
:10561C0030D08023C358002B22D080232422E25088
:10562C002268136801218B4313602000FFF77AF87E
:10563C00012814D0A36A002B18D1226853680E4994
:10564C000B405360226893682A218B439360226835
:10565C00136829390B4313602000FFF79FFF10BD1F
:10566C007C330022C254FCF751FDD6E72000FFF733
:10567C0075FEE2E70120F2E7FFB7FFFF70B584B0DB
:10568C00040002A9154A130005CB05C16A4603CBD9
:10569C0003C2636E002B1AD0226895686D0E072327
:1056AC001D409268520F134002AEF05CC0006A4677
:1056BC00D15CFAF7BFFD6A23E052705DC0006B4607
:1056CC00595DFAF7B7FD6823E05204B070BD0133A1
:1056DC006A22A352023AA352F7E7C0464872000866
:1056EC00704770477047000070B57C23C35C012B7A
:1056FC0015D07C24012606558025242343510268AD
:10570C0013681168B1431160064A134000224266C7
:10571C0001680B60202343510255002070BD02200C
:10572C00FCE7C046FFFFFFDFF8B504007C23C35C39
:10573C00012B1BD07C250120605580262423A351EE
:10574C0023681F681A6882431A6022689368DB001A
:10575C00DB08194391602000FFF790FF23681F605E
:10576C002023A351002363550020F8BD0220FCE741
:10577C00F8B504007C23C35C012B1BD07C250120D5
:10578C00605580262423A35123681F681A6882431E
:10579C001A602268936808480340194391602000FE
:1057AC00FFF76CFF23681F602023A3510023635570
:1057BC000020F8BD0220FCE7FFFFFFF110B51248F6
:1057CC00124B036082235B00436000238360E02262
:1057DC00D200C260022202614361FF32FF32826159
:1057EC00D13AFF3AC261036243628362293AC262D0
:1057FC0003630833436300F00BFC002800D110BD99
:10580C00FBF76AF8FBE7C0469C070020003001401C
:10581C0010B51148114B036082235B0043600023D9
:10582C008360E022D200C260036143618022920057
:10583C008261D13AFF3AC261036243628362293AC0
:10584C00C26203630833436300F0E2FB002800D11B
:10585C0010BDFBF741F8FBE738070020003800408B
:10586C0070B58AB004001422002105A801F065F877
:10587C0023682D4A934204D02C4A93421FD00AB07D
:10588C0070BD2B4B196C80204001014319641A6CBC
:10589C0002400192019A596B0222114359635B6BCE
:1058AC0013400293029B382305930692002307931F
:1058BC000893099305A91F48FBF730FADFE71C4B47
:1058CC00D96B8020C0010143D963DA6B024003928B
:1058DC00039A5A6B02252A435A635B6B2B40049341
:1058EC00049B4023059306950024079408943C3BA5
:1058FC000993104E05A93000FBF710FAC0235B008A
:10590C000593069507940894803BFF3B099305A9E2
:10591C003000FBF703FA002200211A20FCF7AAFA48
:10592C001A20FCF7D9FAAAE70030014000380040F1
:10593C00001002400004005010B503680F4A934257
:10594C0003D00F4A93420AD010BD0E4A136C0E4975
:10595C000B40136438210D48FBF79AFAF4E7094A17
:10596C00D36B0B490B40D363E02149000748FBF78D
:10597C008FFA1A20FCF7BCFAE6E7C046003001406B
:10598C000038004000100240FFEFFFFF0004005001
:10599C00FFBFFFFF00B587B0002205920E49486B90
:1059AC00022318434863496B0B400093009B402330
:1059BC0001930A4B02930392049201A90848FBF746
:1059CC00ADF9052205210720FCF754FA0720FCF756
:1059DC0083FA07B000BDC046001002400000211041
:1059EC000004005010B540210348FBF751FA072082
:1059FC00FCF77EFA10BDC0460004005000B585B01F
:105A0C0003A90870074B1B786A46137201235B428B
:105A1C000093023302AA044800F050FC6B46187A3B
:105A2C0005B000BD707400083807002000B585B0C3
:105A3C00030A6A461373507300231381013B0093CE
:105A4C00033302AA03A9034800F038FC6B46187A0A
:105A5C0005B000BD3807002010B582B001AC0023A2
:105A6C00238001335B4202222100044800F08EFDAA
:105A7C0023781B026078184302B010BD3807002051
:105A8C0010B582B001AC0A4B1B8823800023A37095
:105A9C0001335B4203222100064800F077FD207899
:105AAC00000463781B021843A378184302B010BD9E
:105ABC00587200083807002000B583B0074B1B78DC
:105ACC006A46137101235B42012201A9044800F0CC
