:020000040800F2
:1000000000900020D96B0008E11B0008E31B0008EA
:1000100000000000000000000000000000000000E0
:10002000000000000000000000000000E51B0008C8
:100030000000000000000000E71B0008E91B0008AA
:10004000296C0008296C0008296C0008F11B0008C5
:10005000F91B0008296C0008296C0008FB1B00082C
:10006000296C0008051C0008296C0008296C000890
:10007000296C0008296C0008296C0008296C00080C
:10008000296C0008151C0008296C0008296C000860
:10009000296C0008296C0008296C0008296C0008EC
:1000A000296C0008296C0008391C0008296C00081C
:0C00B000491C0008296C0008296C00089D
:1000BC000448054B10B5834203D0044B002B00D0F1
:1000CC00984710BD70000020700000200000000058
:1000DC0006480749091A8910CB0F591810B5491051
:1000EC0003D0044B002B00D0984710BD70000020AB
:1000FC00700000200000000010B5074C2378002B86
:10010C0009D1FFF7D5FF054B002B02D0044800E0C6
:10011C0000BF0123237010BD700000200000000000
:10012C002C6C0008054B10B5002B03D00449054876
:10013C0000E000BFFFF7CCFF10BDC0460000000080
:10014C00740000202C6C000870B50D4E0D4DAD1BCD
:10015C00AD1006D00024A300F35801349847A542F3
:10016C00F9D106F05DFD084E084DAD1BAD1006D063
:10017C000024A300F35801349847A542F9D170BD6F
:10018C0024710008247100082471000828710008EB
:10019C00F0B50F2A38D90D0005430C000300AD074C
:1001AC0036D110271500BC46103D2D092E013618EE
:1001BC00B444276866681F605E60A768E6689F6045
:1001CC00DE60103310346345F3D10F2401352D015B
:1001DC00491914404519032C1CD90023CE58EE5054
:1001EC000433E61A032EF9D80323043CA408013483
:1001FC00A4002D1909191A4005D00023CC5CEC542D
:10020C0001339342FAD1F0BD0500002AF5D1FAE78B
:10021C000500F2E72200F8E7F0B5830746D0541E3C
:10022C00002A42D0CEB20200032502E01A00013CA3
:10023C003BD3531C16702B42F8D1032C2DD9FF2223
:10024C000A40150215432A0415430F2C16D9270012
:10025C00103F3F093E01B4461E001A00103666449A
:10026C00156055609560D5601032B242F8D10F22FE
:10027C0001373F01DB191440032C0ED9261FB60899
:10028C00B700BC461A001F1D674420C2BA42FCD1FD
:10029C0003220136B6009B191440002C05D0C9B2BC
:1002AC001C19197001339C42FBD1F0BD14000300E2
:1002BC00C3E7C0460CB400B59DB002910691094944
:1002CC001EAB07910491084904CB059102A9019337
:1002DC0000F064F90023029A13701DB008BC02B040
:1002EC001847C046FFFFFF7F0802FFFF0EB400B5A2
:1002FC000B499CB0079104910A491DAB05910A4921
:10030C0004CB02900690086802A9019300F046F90C
:10031C000023029A13701CB008BC03B01847C046E7
:10032C00FFFFFF7F0802FFFF00000020024670B5B0
:10033C000A4392072AD11E4DEE0104C808C9541B6A
:10034C009443344017D0D0B2D9B2401A210601439D
:10035C0010D190B299B2401A210401430AD1100273
:10036C001902000A090A401A2102014302D1100E97
:10037C00190E401A70BD9A42DFD010BA19BA8842D1
:10038C0001D9012070BD0020C04370BD02780B78EC
:10039C0001300131002A09D09A4207D102780B783A
:1003AC0001300131002A01D09A42EFD0D01A70BD31
:1003BC0001010101F0B546464F46D646C0B58E68E0
:1003CC0081460C0090461D0008689E4227D890225A
:1003DC008B89D200134234D00969421A9246626961
:1003EC00681C5700BF18FA0FD7197F1050443A00F9
:1003FC00B84201D9070002005B0524D5110048461C
:10040C0000F0CEFC061E31D052462169FFF7C0FE2B
:10041C00A3891B4A134080221343A38118E01E00BA
:10042C002A00414600F018FCA36800209E1B23689C
:10043C00A6609C46654425601CBC90469946A24625
:10044C00F0BD3500ECE7484600F010FD061E09D063
:10045C003000534650446761FF1A266120602E001D
:10046C00A760DDE72169484600F044FC0C234A46AE
:10047C00136040220120A38940421343A381DBE790
:10048C007FFBFFFFF0B557464E46DE464546E0B5CE
:10049C00936883B001900E009246002B6CD01368C9
:1004AC0008688D681F0044E09022B389D200134283
:1004BC002ED03169421A9346706942001218D00F3F
:1004CC008218601C521058449046904201D98046C4
:1004DC0002008020C000034237D01100019800F0C8
:1004EC005FFC051E53D05A463169FFF751FEB389A4
:1004FC00294A134080221343B381434628005A46AD
:10050C003561A0462500584473619B1A3060B36076
:10051C004246494600F0A0FBB3685D1B3368B560EA
:10052C0043443360180053469B681C1B53469C6025
:10053C0022D03B687C6899460837A846002CF8D036
:10054C00AC42B1D22500A046E2E7019800F08EFC47
:10055C00051ED2D1019C3169200000F0CBFB0C238D
:10056C0023604022B38901201343B38152460023F8
:10057C0040429360536003E00023524600205360D6
:10058C0003B03CBC90469946A246AB46F0BD0C234A
:10059C00019A1360E5E7C0467FFBFFFFF0B5DE462E
:1005AC00454657464E46E0B59FB003901D008B89DB
:1005BC008B4614001B0603D50B69002B00D106E1FA
:1005CC00002306AE7361203373761033B3768A4BF7
:1005DC0005959846012399462378002B00D189E094
:1005EC002500252B03D117E0252B00D1C5E00135C3
:1005FC002B78002BF8D12F1B7CD03B0022005946C6
:10060C000398FFF7D7FE431C74D073699C462B7874
:10061C0067447761002B6DD0012200235242726037
:10062C0044326C1C3360F360B360B354B36507E0C1
:10063C004346C01A4B4683402C0032681343336048
:10064C0021780522404600F0C7FA651C2F000028CF
:10065C00EED13368DA0602D543222021B1541A07B1
:10066C0002D543222B21B15421782A294FD00A00DC
:10067C00303A2700092A0FD8F06801E02C00013528
:10068C0083001B1829785B0098180A00303A2F0059
:10069C00092AF3D9A51CF0602E2943D0574C03220C
:1006AC00200000F099FA002853D04023001B83400F
:1006BC003268297813435248062233606C1C317619
:1006CC0000F08AFA00284ED04E4B002B59D005ABC7
:1006DC0000935A464C4B3100039800E000BF824611
:1006EC005346013306D07369534473612378002B4E
:1006FC0000D075E75B469B895B0600D573E070699B
:10070C001FB03CBC90469946A246AB46F0BD059A3C
:10071C00111D12680591002A3ADBF2606178A51C64
:10072C002E29BBD179782A2938D1059BB9781A1D85
:10073C001B68FD1C059273600237002BAEDA012397
:10074C002E4C5B4203222000736000F045FA002817
:10075C00ABD12C003D00297806222948317600F0D7
:10076C003BFA0028B0D105AB00935A46264B31001A
:10077C00039800F0DFF88246B2E72F1B00D14BE75D
:10078C003BE70722059B0733934308330593AAE7FE
:10079C005242F260022213433360BFE70A00002387
:1007AC00303A73600020092A01D90DE03D00830026
:1007BC001B1869785B0098180A00303A6F1C092ADC
:1007CC00F4D90235706069E72F00013566E74021E6
:1007DC0000F0E6FA5B4618601861002806D040234A
:1007EC005A465361ECE60120404289E70C23039AF8
:1007FC000138136084E7C046E0700008E870000818
:10080C00EC70000800000000C1030008F0B54F4672
:10081C004646D646C0B51F00089B914698468A6846
:10082C000B6906000C00934200DA13004A46136071
:10083C004322A25C002A02D04A460133136023688B
:10084C009A0660D54B461B6806209A1C4B461A60CC
:10085C002368190018421FD1E16800258A1A192152
:10086C008A461900A244002A07DC15E04B46E268D0
:10087C001B680135D31AAB420DDD012352463900FA
:10088C003000C047431CF1D1012040421CBC9046B3
:10089C009946A246F0BD21684323E35C5A1E93415E
:1008AC008A060AD53020E1184331087045215A1CBC
:1008BC00615CA218433202331170220039004332BA
:1008CC003000C047431CDFD0E36821689C464B4690
:1008DC001D680623A26820690B40042B19D08242A4
:1008EC0021DD00239946121A91441A34002502E0A6
:1008FC0001354D4517D00123220039003000C04787
:10090C00431CF5D1C0E706221A420ED14A461268A2
:10091C00A2E76346591BCB43DB170B409946824237
:10092C00E1DC0029E1DC0020B0E74323E35C5A1E44
:10093C009341C2E7F0B545469846432357464E4689
:10094C00DE469A46E0B50B7E85B0170006000C001B
:10095C000E9A8A446E2B52D00FD8632B00D1E3E051
:10096C0000D9CAE0002B58D0582B00D0F9E0452113
:10097C006354974923688B4613E0732B00D1E1E055
:10098C0000D985E06F2B00D1F2E0702B00D0E8E0AD
:10099C00202309680B4323604521782060548D493E
:1009AC008B4611680D1D08681560190603D459068D
:1009BC0001D50004000CDA0702D520221343236072
:1009CC00002800D075E0202322689A43226013008F
:1009DC004322A0546268A260002A00DA84E0042159
:1009EC008B43236010239946002A00D07EE05546A5
:1009FC004B46082B52D053465B1B236110E06369B6
:100A0C0009689C4613681D1D15601B686246080624
:100A1C0002D4490600D5C1E01A6000235546236173
:100A2C00434603AA009321003B003000FFF7EEFE83
:100A3C00431C20D023692A0039003000C047431CD6
:100A4C0019D022680398E36892071DD51A1A002A58
:100A5C001ADD192399460025A14405E0E3680398A3
:100A6C0001351A1AAA420FDD01234A46390030001B
:100A7C00C047431CF2D10120404205B03CBC90461B
:100A8C009946A246AB46F0BD9842F6DA1800F4E758
:100A9C00752B6DD0782B64D10B687DE72368DB0751
:100AAC00A9D5636822699342A5DC3023013D2B70E4
:100ABC00A1E71023994643230022E2546268A26006
:100ACC00002A2EDB2168042399432160002800D1E1
:100ADC008AE75546494600F0A5FA5B465B5C013D4A
:100AEC002B700028F6D183E7102399465B4625002E
:100AFC001A7842234235E2547AE7642B01D0692BF1
:100B0C002FD113682168181D10600D0601D44D06F5
:100B1C0046D41868002846DB2D4B9B460A23994681
:100B2C00CCE70028D5D1E1E713682500191D116029
:100B3C001A684223E254413B42352361432300228D
:100B4C00E2546DE71368191D11601D68626800217D
:100B5C00280000F041F8002837D0401B606020616D
:100B6C00ECE742222500A354012342352361E5E73B
:100B7C0010682168051DAC460D0601D4490609D440
:100B8C006146116000686F2B1AD0114B9B460A23EB
:100B9C00994690E7614600881160F4E71A803CE7BB
:100BAC000020185EB6E743232D22E254084B6268FE
:100BBC009B460A234042A2609946002A83DA88E7C2
:100BCC00034B9B460823994675E760682061B5E79F
:100BDC00F47000080871000870B5CCB2830734D0EB
:100BEC00531E002A1BD00278A24219D0032504E020
:100BFC00013B14D30278A24212D001302842F7D123
:100C0C00032B0ED8002B0AD00278A24208D0C318AE
:100C1C0002E00278A24203D001308342F9D10020D5
:100C2C0070BDFF220D062D0C114029430D04084EFA
:100C3C000D43026807496A40511891433142E3D190
:100C4C00043B0430032BF4D8DCE71300D8E7C04690
:100C5C0080808080FFFEFEFEF0B588420AD98B189A
:100C6C00984207D2531E002A03D0CA5CC254013BDF
:100C7C00FBD2F0BD0F2A09D80500002AF9D00023B9
:100C8C00CC5CEC5401339342FAD1F2E70D000543EE
:100C9C000C000300AD0729D11500103D2D092F01C3
:100CAC003F18103726681E6066685E60A6689E60F6
:100CBC00E6681034DE601033BB42F3D10F240135EB
:100CCC002D01491914404519032C11D90023CE5874
:100CDC00EE500433E61A032EF9D80323043CA4087F
:100CEC000134A4002D1909191A40C6E70500C6E7FE
:100CFC002200C2E770B50500002915D00C1F23682F
:100D0C00002B27DB280000F0EBF8244B1A68002A94
:100D1C0005D0A2420CD92168601882421CD06260B6
:100D2C0028001C6000F0DEF870BDA34203D81A0046
:100D3C005368002BF9D111685018A04219D012D861
:100D4C0021686018834221D063605460280000F051
:100D5C00C9F8E9E7E418D5E710685268844661449D
:100D6C0021606260DCE70C2328002B6000F0BAF8ED
:100D7C00DAE720680918501811608342E6D1186828
:100D8C005B688446614411605360DFE718685B68F8
:100D9C0084466144216063605460D7E78C00002076
:100DAC00F8B50323CD1C9D43083506000C2D2AD223
:100DBC000C25A94229D8300000F092F82A4F3A6845
:100DCC00002A0AD013685B1B04D440E023685B1B29
:100DDC001FD522005468002CF8D17B68002B3DD025
:100DEC002900300000F06AF8431C29D00323C41CEE
:100DFC009C43A04205D0211A300000F05FF8431C40
:100E0C001ED025600AE0002DD3DA0C2300203360BD
:100E1C00F8BD0B2B0FD92360E4182560300000F0CF
:100E2C0061F8200007220B30231D9043C31AEFD02A
:100E3C005A42E250ECE7A2420DD063685360EDE7F2
:100E4C000C233000336000F04DF80020E0E7140074
:100E5C000B2BE0D854683C601400DFE70021300015
:100E6C0000F02CF87860BBE78C000020F8B5070088
:100E7C000C001500002917D0002A1AD000F034F805
:100E8C002600A84201D33000F8BD29003800FFF736
:100E9C0087FF061EF7D021002A00FFF779F9210001
:100EAC003800FFF727FFEEE71100FFF779FF060088
:100EBC00E9E7FFF71FFF0026E5E7C046002370B502
:100ECC00064C05000800236000F018F8431C00D005
:100EDC0070BD2368002BFBD02B60F9E74404002085
:100EEC007047C0467047C0460B1F1B68181F002B6D
:100EFC0000DB70470B58C018FBE7C046044A136868
:100F0C00002B00D1034B1818106018007047C04616
:100F1C009400002048040020002243088B4274D324
:100F2C0003098B425FD3030A8B4244D3030B8B42DE
:100F3C0028D3030C8B420DD3FF22090212BA030CE7
:100F4C008B4202D31212090265D0030B8B4219D3C8
:100F5C0000E0090AC30B8B4201D3CB03C01A5241E8
:100F6C00830B8B4201D38B03C01A5241430B8B4230
:100F7C0001D34B03C01A5241030B8B4201D30B0319
:100F8C00C01A5241C30A8B4201D3CB02C01A524140
:100F9C00830A8B4201D38B02C01A5241430A8B4203
:100FAC0001D34B02C01A5241030A8B4201D30B02EC
:100FBC00C01A5241CDD2C3098B4201D3CB01C01A06
:100FCC00524183098B4201D38B01C01A5241430910
:100FDC008B4201D34B01C01A524103098B4201D3FE
:100FEC000B01C01A5241C3088B4201D3CB00C01A6B
:100FFC00524183088B4201D38B00C01A52414308E3
:10100C008B4201D34B00C01A5241411A00D2014607
:10101C00524110467047FFE701B5002000F0F0F890
:10102C0002BDC0460029F7D076E7704703460B4354
:10103C007FD4002243088B4274D303098B425FD3C5
:10104C00030A8B4244D3030B8B4228D3030C8B42F1
:10105C000DD3FF22090212BA030C8B4202D31212D7
:10106C00090265D0030B8B4219D300E0090AC30BAC
:10107C008B4201D3CB03C01A5241830B8B4201D359
:10108C008B03C01A5241430B8B4201D34B03C01A42
:10109C005241030B8B4201D30B03C01A5241C30ABA
:1010AC008B4201D3CB02C01A5241830A8B4201D32B
:1010BC008B02C01A5241430A8B4201D34B02C01A15
:1010CC005241030A8B4201D30B02C01A5241CDD2BA
:1010DC00C3098B4201D3CB01C01A524183098B4205
:1010EC0001D38B01C01A524143098B4201D34B01EE
:1010FC00C01A524103098B4201D30B01C01A524151
:10110C00C3088B4201D3CB00C01A524183088B42D7
:10111C0001D38B00C01A524143088B4201D34B00C0
:10112C00C01A5241411A00D2014652411046704732
:10113C005DE0CA0F00D04942031000D34042534037
:10114C0000229C4603098B422DD3030A8B4212D3F7
:10115C00FC22890112BA030A8B420CD38901921129
:10116C008B4208D3890192118B4204D389013AD066
:10117C00921100E08909C3098B4201D3CB01C01A3B
:10118C00524183098B4201D38B01C01A524143094E
:10119C008B4201D34B01C01A524103098B4201D33C
:1011AC000B01C01A5241C3088B4201D3CB00C01AA9
:1011BC00524183088B4201D38B00C01A5241D9D2C1
:1011CC0043088B4201D34B00C01A5241411A00D242
:1011DC000146634652415B10104601D34042002B3E
:1011EC0000D54942704763465B1000D3404201B5BD
:1011FC00002000F005F802BD0029F8D016E7704772
:10120C007047C046002B11D1002A0FD1002900D104
:10121C00002802D00021C943081C07B4024802A1CF
:10122C004018029003BDC046D9FFFFFF03B46846C7
:10123C0001B5029800F030F8019B9E4602B00CBC40
:10124C007047C046F0B5CE46474615042D0C2E000F
:10125C0080B50704140C3F0C9946030C7E435D4388
:10126C00674363437F19340CE4199C46A54203D9A8
:10127C0080235B029846C4444B4643435143250CA0
:10128C0036046544360C2404A4195B195918200043
:10129C000CBC90469946F0BDF0B54F464646D64636
:1012AC00C0B5040082B00D00914698468B422FD8F1
:1012BC002CD04146484600F0B1F829000600200029
:1012CC0000F0ACF8331A9C46203B9A4600D576E0E9
:1012DC004B46524693401F004B46624693401E00BD
:1012EC00AF4228D825D05346A41BBD41002B00DAB1
:1012FC007BE000220023009201930123524693408D
:10130C000193012362469340009318E08242D0D9A6
:10131C0000220023009201930A9B002B01D01C6039
:10132C005D600098019902B01CBC90469946A2469B
:10133C00F0BDA342D7D9002200230092019363464B
:10134C00002BE9D0FB079846414672080A437B08FC
:10135C0066460EE0AB4201D1A2420CD8A41A9D41C4
:10136C00012024196D410021013E24184D41002E0D
:10137C0006D0AB42EED9013E24196D41002EF8D1B6
:10138C0000980199534600196941002B23DB2B006F
:10139C005246D3402A006446E2401C0053461500D6
:1013AC00002B2DDB26005746BE4033002600674637
:1013BC00BE403200801A994100900191ACE7624620
:1013CC0020239B1A4A46DA406146130042468A4063
:1013DC0017001F4380E7624620239B1A2A006646AB
:1013EC009A402300F3401343D4E7624620230021A4
:1013FC009B1A0022009101920122DA40019280E7AF
:10140C002023624626009B1ADE402F00B04666461B
:10141C00B74046463B003343C8E7C04610B50029E9
:10142C0003D100F007F8203002E0081C00F002F8AD
:10143C0010BDC0461C2101231B04984201D3000C93
:10144C0010391B0A984201D3000A08391B0998422B
:10145C0001D30009043902A2105C40187047C04641
:10146C000403020201010101000000000000000061
:10147C0010B5002408E0A0200121C00500F054FDA7
:10148C00642001F07FFD0134092CF4DDA020002242
:10149C000121C00500F042FD10BD000000B5A1B057
:1014AC003822002112A8FEF7B7FE102200210EA848
:1014BC00FEF7B2FE3422002101A8FEF7ADFE80201B
:1014CC00800001F079FC0A231293F6331593002364
:1014DC001693402217923F3A1892013219921A929F
:1014EC001B9308331C9380239B021D9380239B0426
:1014FC001E9380239B051F9312A800F035FD002836
:10150C001AD107230E93053B0F93002310931193CD
:10151C0002210EA800F0E6FF002810D10B4B01931E
:10152C00002303938023DB02079301A801F0BAF890
:10153C00002807D121B000BDFFF79AFFE1E7FFF7C4
:10154C0097FFEBE7FFF794FFF4E7C04602020000B9
:10155C00F0B5C64600B59AB001F0EEFCFFF79EFF61
:10156C0000F09AFA05F01AFB01F026FD01F062FD7D
:10157C0004F0DEFA04F0B2FA324C200001F03AFD2D
:10158C00FA21200002F0C6FF2F4804F0F9FA2F4888
:10159C0004F0F6FA01AC4A2200211E206844FEF742
:1015AC003BFE2B4923000A0023CA23C323CA23C3AF
:1015BC0012881A80FA23274D9B001922210028003B
:1015CC0004F002F904F0CCFC04F09EFC4022224909
:1015DC00280003F055F804F003FD002001F080FC16
:1015EC0000220121072001F011FC00220221092018
:1015FC0001F00CFC00220221112001F007FC00225A
:10160C0002211A2001F002FC002202211C2001F010
:10161C00FDFB124804F004FD04F00AFC02F0C6FDC8
:10162C0002F0C2FA0023984604E00D4A4B23D35C27
:10163C00002B17D10A4B5B7A002BF6D001F01EFE63
:10164C00F3E7C0465C0200207C030020E00300208E
:10165C00546C0008F0020020A2000020FAFF1600D3
:10166C009800002001239C46E04402F035FA02F079
:10167C0061FE0A214046FFF7D5FC0129DAD101AC05
:10168C00622200216B46981DFEF7C6FDEF4B1A88AF
:10169C0022809B78A370FA239B0002222100EC4845
:1016AC0004F092F8642200212000FEF7B5FDE94D0C
:1016BC0087235B00EA56E8492000FEF717FE82B24A
:1016CC00FA239B002100E24804F07EF864220021FA
:1016DC002000FEF7A1FD1023FF33EA56DF4920005E
:1016EC00FEF704FE82B2FA239B002100D84804F0D6
:1016FC006BF8642200212000FEF78EFD88235B002E
:10170C00EA56D7492000FEF7F1FD82B2FA239B007E
:10171C002100CF4804F058F8642200212000FEF785
:10172C007BFD1223FF33EA56CE492000FEF7DEFD87
:10173C0082B2FA239B002100C54804F045F86422CC
:10174C0000212000FEF768FD2B006933FF331A6877
:10175C005B68C5492000FEF7C9FD82B2FA239B00E5
:10176C002100BB4804F030F8642200212000FEF771
:10177C0053FD2B009933FF331A685B68BB4920007B
:10178C00FEF7B4FD82B2FA239B002100B04804F0AE
:10179C001BF8642200212000FEF73EFD2B001933BC
:1017AC00FF331A685B68B2492000FEF79FFD82B2D6
:1017BC00FA239B002100A64804F006F864220021BD
:1017CC002000FEF729FD2B007933FF331A685B6884
:1017DC00A8492000FEF78AFD82B2FA239B00210063
:1017EC009B4803F0F1FF5822002104A8FEF714FDDA
:1017FC00A14B260007CB07C61B783370FA239B003E
:10180C000C222100924803F0DFFF6422002120000B
:10181C00FEF702FD062002F0B7F9FA218900FFF766
:10182C0005FC020095492000FEF760FD82B2FA2308
:10183C009B002100864803F0C7FF64220021200092
:10184C00FEF7EAFC062002F09FF9FA218900FFF767
:10185C00D3FC0A008A492000FEF748FD82B2FA2325
:10186C009B0021007A4803F0AFFF58220021300082
:10187C00FEF7D2FC834B220083CB83C21B783370E0
:10188C00FA239B000C222100714803F09DFF642277
:10189C0000212000FEF7C0FC002002F075F9FA21AF
:1018AC008900FFF7C3FB020074492000FEF71EFD00
:1018BC0082B2FA239B002100654803F085FF642265
:1018CC0000212000FEF7A8FC002002F05DF9FA21AF
:1018DC008900FFF791FC0A0069492000FEF706FD1C
:1018EC0082B2FA239B002100594803F06DFF642259
:1018FC0000212000FEF790FC2B003133FF331A68D7
:10190C005B6861492000FEF7F1FC82B2FA239B0070
:10191C0021004F4803F058FF642200212000FEF7FD
:10192C007BFC2B004933FF331A685B685749200056
:10193C00FEF7DCFC82B2FA239B002100444803F042
:10194C0043FF582200213000FEF766FC504B22006A
:10195C0023CB23C21B783370FA239B000C2221006B
:10196C003B4803F031FF642200212000FEF754FCB9
:10197C000E2002F009F9FA218900FFF757FB02004B
:10198C003E492000FEF7B2FC82B2FA239B002100F4
:10199C002F4803F019FF642200212000FEF73CFCC5
:1019AC000E2002F0F1F8FA218900FFF725FC0A005D
:1019BC0033492000FEF79AFC82B2FA239B002100E7
:1019CC00234803F001FF582200213000FEF724FCCD
:1019DC00304B220023CB23C21B783370FA239B009D
:1019EC000C2221001A4803F0EFFE64220021200093
:1019FC00FEF712FC022002F0C7F8FA218900FFF76B
:101A0C0015FB02001D492000FEF770FC82B2FA2380
:101A1C009B0021000E4803F0D7FE64220021200019
:101A2C00FEF7FAFB022002F0AFF8FA218900FFF76B
:101A3C00E3FB0A0012492000FEF758FC82B2FA239D
:101A4C009B002100024803F0BFFEF3E5706C000818
:101A5C00F002002098000020746C00087C6C0008D8
:101A6C00846C00088C6C0008946C0008A86C00084E
:101A7C00BC6C0008D46C0008EC6C0008FC6C000812
:101A8C00046D0008146D0008246D00083C6D0008FE
:101A9C00546D0008646D0008F0B5CE4600B58AB0F0
:101AAC001422002105A8FEF7B7FB434B5A6B042404
:101ABC0022435A635A6B22400192019A596B20229D
:101ACC0011435963596B0A400292029A5A6B0127CF
:101ADC003A435A635A6B3A400392039A5A6B022167
:101AEC0089460A435A635B6B0B400493049B334E49
:101AFC0000223100A020C00500F010FA00220121C4
:101B0C002F4800F00BFA002240212E4800F006FA74
:101B1C000594032506950024079405A92A4800F08E
:101B2C00C9F8059606970794089405A9A020C00546
:101B3C0000F0C0F8254B05930695079405A9A02045
:101B4C00C00500F0B7F8402605960694079405A941
:101B5C00A020C00500F0AEF80597069707940894EE
:101B6C0005A9174800F0A6F84B460593069507946F
:101B7C0005A9134800F09EF805960697079408945B
:101B8C0005A9104800F096F880231B010593104B13
:101B9C000693079405A9A020C00500F08BF800223D
:101BAC000221072001F032F9072001F061F90AB097
:101BBC0004BC9146F0BDC04600100240838000007A
:101BCC0000040050000800500014005030110000B8
:101BDC00000011107047FEE77047704710B501F018
:101BEC00BFF910BD10B500F081FE10BD704710B5E7
:101BFC00402000F0A1F910BD10B5024801F074F8B6
:101C0C0010BDC0469402002010B5064A136801337B
:101C1C001360A0200221C00500F086F9024802F0F2
:101C2C00AEFC10BD980000205C02002010B50248EC
:101C3C0004F01CFF10BDC0467C03002010B5044C02
:101C4C00200002F033FE200001F004FB10BDC04662
:101C5C00F002002010B5402800D010BD04F0E8F8C8
:101C6C00FBE7000000B583B0114B196C0122114346
:101C7C001964196C0A400092009ADA6B80214905AC
:101C8C000A43DA63DB6B0B400193019B00220021BA
:101C9C00032001F0BBF8032001F0EAF80022002138
:101CAC00042001F0B3F8042001F0E2F803B000BD09
:101CBC0000100240F0B5C64600B500233BE00326F9
:101CCC0000E00026AE4035003D43534E1834A400CE
:101CDC00A551802435594246D4432E0026404A68EB
:101CEC00D20302D5424615432E004B4D8027EE51B0
:101CFC008426AD592E0026404A68920302D54246EE
:101D0C0015432E00444D8427EE512D682E0026409D
:101D1C004A68D20202D5424615432E003E4D2E6033
:101D2C006D682C404A68920202D542462A43140040
:101D3C00394A546001330A681400DC4069D001252B
:101D4C009D402A409046F5D04C68022C01D0122CB4
:101D5C000ED1DC080834A400275807261E40B60014
:101D6C000F22B24097430A69B24016003E432650F8
:101D7C0002685F0003242600BE40F64332409446BE
:101D8C004A681440BC406246144304604C68621EAE
:101D9C00012A03D9112C01D0122C10D184683440A3
:101DAC00A446CC68BC406246144384604468AC438F
:101DBC004A681209012515409D4025434560C468B9
:101DCC0026408C68BC403443C4604A68D200B1D50C
:101DDC009C0825001835AD000F4EAF5903251D404A
:101DEC00ED000F26AE40B743A026F605B04200D159
:101DFC0067E70A4EB04208D0094EB04207D0094EF0
:101E0C00B04200D15BE705265CE701265AE70226C3
:101E1C0058E704BC9046F0BD001802400004005086
:101E2C0000080050000C0050F0B5CE46474680B577
:101E3C008946002324E00321884601E000218846DE
:101E4C004146A140A94246D006685F000325BD402B
:101E5C002E430660DC080834A400275807261E40D1
:101E6C00B6000F21B1408F4327508668EC432640C3
:101E7C008660456895434560C2681440C460013370
:101E8C004A46DA403ED001229A404E461640F6D0E1
:101E9C0099088C460C001834A4001C4D6559032479
:101EAC001C40E4000F27A7403D40A021C9058842F3
:101EBC00C4D01749884208D01649884208D0164920
:101ECC008842B8D005218846BAE701218846B7E791
:101EDC0002218846B4E70D4D80216C58F6433440FE
:101EEC006C5004316C5834406C502C6834402C606D
:101EFC006C6826406E6064461834A4006659BE4374
:101F0C006651A1E70CBC90469946F0BD0018024002
:101F1C000004005000080050000C0050002A01D1B1
:101F2C00816270478161FCE74369194201D181618B
:101F3C0070478162FCE7704710B50400094BDB6801
:101F4C00184204D1074B1B69234205D110BD054B28
:101F5C00D860FFF7F0FFF5E7024B1C612000FFF79C
:101F6C0079FEF3E70018024070B582B0041E00D170
:101F7C003EE20368DB0739D5C14A916838230B4030
:101F8C00D16803220A40102B26D0082B26D0636878
:101F9C008022520293427FD0A022D202934200D1DF
:101FAC0081E0B74B1A68B7490A401A601A68B649FB
:101FBC000A401A606368002B00D180E000F0DCFF5F
:101FCC000500AF4B1B689B0310D400F0D5FF401BE2
:101FDC006428F6D903200CE2032AD6D1A84B1B683F
:101FEC009B0303D56368002B00D104E223689B0795
:101FFC0031D5A34A936838210B40D16803220A409B
:10200C00102B6AD0002B6BD19D4A1268520503D558
:10201C00E268002A00D1F0E1994842689B490A40E5
:10202C00616909020A434260002B0DD1036898498B
:10203C000B4021690B4303600368DB0A07221A403B
:10204C00944BD340944A1360944B186800F048FFAB
:10205C00002800D0D3E123681B0700D481E0884B13
:10206C009A6838231340182B73D0A369002B00D126
:10207C0091E0834A136E01210B43136600F07CFF41
:10208C0005007F4B1B6E9B076BD400F075FF401B4C
:10209C000228F6D90320ACE1794A116880235B024F
:1020AC000B43136086E7764B19688022D2020A43F1
:1020BC001A601968802252020A431A607AE700F00B
:1020CC005BFF05006E4B1B689B038FD500F054FF24
:1020DC00401B6428F6D903208BE1022A92D193E7A6
:1020EC00E368002B22D0664A136869490B402169CA
:1020FC000B431360116880235B000B43136000F0EB
:10210C003BFF05005E4B1B685B0506D400F034FFFB
:10211C00401B0228F6D903206BE159494B685B4AF6
:10212C0013406269120213434B6094E7544A1368DC
:10213C005B490B40136000F01FFF0500504B1B6800
:10214C005B0588D500F018FF401B0228F6D9032048
:10215C004FE14B4B1B6E9B0703D5A369002B00D1A2
:10216C004FE123685B0700D4A2E0454B9A68382303
:10217C001340202B22D0424BDB6BDB0027D4404A90
:10218C00D16B802040050143D163D36B0340019395
:10219C00019B01251CE03A4A136E01218B43136607
:1021AC0000F0EAFE0500364B1B6E9B07D9D500F0FC
:1021BC00E3FE401B0228F6D903201AE1304BDB6DFD
:1021CC009B0775D5A368002B72D1012011E1002566
:1021DC00344B1B68DB051FD5A368012B30D0052BB6
:1021EC0034D0274BDA6D01218A43DA65DA6D03317D
:1021FC008A43DA65A368002B32D000F0BDFE0600DE
:10220C001F4BDB6D9B0751D400F0B6FE801B264B99
:10221C009842F5D90320ECE0224A116880235B0038
:10222C000B43136000F0A8FE06001E4B1B68DB0579
:10223C00D2D400F0A1FE801B0228F6D90320D8E0EE
:10224C000F4AD36D01210B43D365D3E70C4BDA6DE9
:10225C0004210A43DA65DA6D03390A43DA65C9E702
:10226C0000F08AFE0600064BDB6D9B071ED500F0C6
:10227C0083FE801B0C4B9842F5D90320B9E0C04675
:10228C0000100240FFFFFEFFFFFFFBFFFF80FFFF80
:10229C00FFC7FFFF0024F4006C0000206800002042
:1022AC00FFFEFFFF0070004010270000012D26D01C
:1022BC00E369002B00D1A6E0564A916838220A4007
:1022CC00102A63D0022B20D0524B1A6852490A4074
:1022DC001A60DA6803218A43DA60DA684F490A40E7
:1022EC00DA6000F049FE04004A4B1B689B014BD599
:1022FC0000F042FE001B0228F6D9032079E0454A83
:10230C00D36B47490B40D363D2E7424A1368424927
:10231C000B40136000F030FE05003E4B1B689B0128
:10232C0006D500F029FE401B0228F6D9032060E0F8
:10233C00384AD3683B491940236A606A0343A06A50
:10234C0000020343E06A0343206B0343606B0343C7
:10235C000B43D360116880235B040B431360D1687B
:10236C0080235B050B43D36000F006FE0400294B71
:10237C001B689B0106D400F0FFFD001B0228F6D958
:10238C00032036E0002034E0002032E0012B3CD06A
:10239C00204BDA6803231340216A8B4201D00120C1
:1023AC0027E070231340616A8B4201D0012020E0AA
:1023BC00FE21C9011140A36A1B02994201D00120E0
:1023CC0017E0F8239B031340E16A8B4201D00120F4
:1023DC000FE0E0231B051340216B8B4201D0012041
:1023EC0007E0520F5207636B9A4210D0012000E0B5
:1023FC00012002B070BD0120FBE70120F9E70120AC
:10240C00F7E70120F5E70020F3E70120F1E70020D2
:10241C00EFE7C04600100240FFFFFFFEFFFFFEEE9D
:10242C00FFFFFFEF8C80C11110B52B4B9B6838223E
:10243C001A4219D0284B9A6838231340082B46D0DF
:10244C00254B9A6838231340102B18D0224B9A68CE
:10245C0038231340202B3CD01F4B9A683823134051
:10246C00182B31D0002009E01B4B1A68D20A072325
:10247C001340012199401948FEF74EFD10BD164A34
:10248C00D1680D3B0B40D268120907211140013174
:10249C00032B0FD11248FEF73FFD0F4BDA68120ADF
:1024AC007F23134058430C4BD968490F0131FEF779
:1024BC0033FDE3E70948FEF72FFD074BDA68120AF4
:1024CC007F2313405843EEE7FA20C001D6E70448B7
:1024DC00D4E780200002D1E7001002400024F40071
:1024EC0000127A0070B504000D00002800D1AAE09B
:1024FC00574B1A68072313408B4221D323689A0742
:10250C000ED55B0705D5534A9168E023DB010B43DD
:10251C009360504A936850490B40A1680B439360F9
:10252C002368DB0754D56368012B20D0022B3BD0EA
:10253C00002B3FD1474A126852051CD401206AE097
:10254C00434A136807218B432B43136000F014FD9F
:10255C0006003F4B1A6807231340AB42CED000F065
:10256C000BFD801B3D4B9842F3D9032053E0394AB5
:10257C001268920369D537498A680720824313434E
:10258C008B6000F0F9FC0600324B9B6838221A4035
:10259C006368DB009A421BD000F0EEFC801B2F4BD3
:1025AC009842F1D9032036E02A4A12689201E2D40B
:1025BC00012030E0032B05D0264AD26D9207DAD4E5
:1025CC00012028E0234A126E9207D4D4012022E085
:1025DC001F4B1A6807231340AB421DD823685B07B7
:1025EC0006D51C4A93681E490B40E1680B43936067
:1025FC00FFF71AFF174B9A68120A0F2313409B0020
:10260C00184A9A581F231340D840174B1860174B81
:10261C00186800F065FC70BD0D4A136807218B43E8
:10262C002B43136000F0A8FC0600094B1A68072323
:10263C001340AB42D2D000F09FFC801B074B98425A
:10264C00F3D90320E7E70120E5E70120E3E7C046E3
:10265C000020024000100240FFF0FFFF8813000032
:10266C00FF8FFFFF746D00086C00002068000020D5
:10267C00014B18687047C0466C00002010B5FFF77E
:10268C00F7FF064B9A68120B072313409B00044A72
:10269C009A581F231340D84010BDC046001002406A
:1026AC00B46D0008F0B583B0040003689B0360D5DB
:1026BC00804BDB6BDB001ED47E4AD16B8020400547
:1026CC000143D163D36B03400193019B01267A4AEA
:1026DC00116880235B000B43136000F04DFC050078
:1026EC00754B1B68DB0508D400F046FC401B022828
:1026FC00F6D9032502E00026E9E70025002D21D1BB
:10270C006C4BDB6DC0229200134010D0226B9A42AE
:10271C000DD0684AD36D69490B40D06D80214902B8
:10272C000143D165D16D66480140D165D365DB07A6
:10273C0010D4002D06D15F4AD36D60490B40216B3C
:10274C000B43D365012E15D15A4AD36B5D490B400F
:10275C00D3630FE000F010FC0700564BDB6D9B07BA
:10276C00E7D400F009FCC01B574B9842F5D9032560
:10277C00DFE700252368DB0706D54E4A536D03219E
:10278C008B4361680B43536523689B0706D5494A05
:10279C00536D0C218B43A1680B43536523689B0637
:1027AC0006D5444A536D49490B40E1680B435365C8
:1027BC0023689B0506D53F4A536D45490B40A169DB
:1027CC000B43536523685B0506D53A4A536D414963
:1027DC000B40E1690B43536523685B0606D5354A0C
:1027EC00536D3D490B4021690B43536523685B04D2
:1027FC000BD5304A536D9B009B08216A0B435365E4
:10280C008023DB05226A9A4239D023681B0306D544
:10281C00284A536D40218B43616A0B4353652368EF
:10282C009B020BD5234A536D2C490B40A16A0B43D9
:10283C0053658023DB03A26A9A4227D023685B028C
:10284C000BD51C4A536D26490B40E16A0B4353656B
:10285C0080235B04E26A9A421FD023681B050BD5C8
:10286C00144A536D1F490B4061690B4353656269F0
:10287C008023DB019A4215D0280003B0F0BD0D4A2D
:10288C00D16880235B020B43D360BEE7094AD16851
:10289C0080235B040B43D360D0E7064AD1680B431B
:1028AC00D360DAE7034AD16880235B020B43D36021
:1028BC00E2E7C0460010024000700040FFFCFFFF42
:1028CC00FFFFFEFFFFFFFFEF10270000FFF3FFFFEE
:1028DC00FFFFF3FFFFFFCFFFFFCFFFFFFFFFBFFFA8
:1028EC00FFFFFFFEFF3FFFFF7047704710B5334AF5
:1028FC0013693349194093698020C00503400B4389
:10290C00516930488068814351612F4A10423BD055
:10291C002C4AD468002B15D02A494A681A434A60BD
:10292C009A0F920703D02549886902438A619B005C
:10293C009B0801D0214A1361224B00229A6020008F
:10294C00FFF7D3FF1D4B1B69DB070CD51B4B01227B
:10295C001A611C4B9B68022B1FD01A4B00229A60E9
:10296C002000FFF7C1FF174B9B68002B0BD1134BBB
:10297C009A6916490A409A615A6915490A405A617E
:10298C00104B00221A7010BD0622024202D00D4AD2
:10299C001469BFE701246442BCE70A4A5369013B4E
:1029AC005361002B03D1074B00229A60D8E7130028
:1029BC001269501C186100F00DF8D1E7002002409C
:1029CC00FAC300004002002001000400FFFFFFFEDC
:1029DC00FFFFFFFC044A536904490B40C000184335
:1029EC00034B1843506170470020024007FEFFFF65
:1029FC0002000100F0B5846CC56C6560046D002CA0
:102A0C0002D0446D856D65600B4F7C681C26056C8F
:102A1C002E400125B5402C437C60046863608368BC
:102A2C00102B04D0036899600368DA60F0BD03686A
:102A3C009A600368D960F9E70000024010B5040001
:102A4C00FF202368184008381421FEF765FA236C20
:102A5C009B08064A944663449B006364044BA3643E
:102A6C001C2318401B3B8340E36410BD0082001004
:102A7C0080080240FF2342681340064A9A189200CD
:102A8C000265054A4265013B03221A40012393402B
:102A9C00836570473F8200104009024070B5041EE8
:102AAC004DD00568274BE8181421FEF735FA800045
:102ABC00206425230222E2542B68234A13402B6006
:102ACC0021680A68A368E0680343206903436069CE
:102ADC000343A0690343E0690343206A03431343A0
:102AEC000B602000FFF7AAFF8023DB01A2689A424B
:102AFC0018D0626CFF2361680B401360A36CE26C0E
:102B0C005A606368013B032B0FD90023236563656F
:102B1C00A3650023E36325220121A154013AA354A8
:102B2C00002070BD00236360E3E72000FFF7A2FFE5
:102B3C00236D00221A60636DA26D5A60E9E70120D3
:102B4C00EFE7C046F8FFFDBF0F80FFFF70B5040034
:102B5C002420205C012843D0242001252554013059
:102B6C00205C012804D0022024230022E25470BDF2
:102B7C002430013525540020E0632568286801269F
:102B8C00B04328602000FFF735FF236B002B1CD0CF
:102B9C00226813680E210B431360636C1A68D2030E
:102BAC0004D51968802252000A431A60236D002B49
:102BBC0004D01968802252000A431A6022681368F4
:102BCC0001210B4313600020CEE722681368042117
:102BDC008B4313602268136806310B431360DCE7E8
:102BEC000220C4E730B5002836D02523C35C022B65
:102BFC0006D00423C36320330022C254012030BD0D
:102C0C00026813680E218B431360426C13681349DE
:102C1C000B40136001680A6801239A430A60104C48
:102C2C0062681C21056C29408B4013436360836CE4
:102C3C00C26C5A60036D002B06D01A6807490A4013
:102C4C001A60436D826D5A6025230122C254013BE8
:102C5C000022C2540020D2E70120D0E7FFFEFFFF84
:102C6C000000024070B524230122C2540133C35C1E
:102C7C00022B03D00423C363012070BD02681368C8
:102C8C000E218B43136001680A6801239A430A6082
:102C9C00416C0A68124C22400A60124C62681C217A
:102CAC00056C29408B4013436360836CC26C5A6083
:102CBC00036D002B06D01A6809490A401A60436D4F
:102CCC00826D5A6025230122C254013B0022C2545A
:102CDC00836B002B02D098470020CEE70020CCE776
:102CEC00FFFEFFFF0000024070B5314B196804680D
:102CFC0025681C23026C134004229A40114216D002
:102D0C006A0714D523689B0603D4236804229343D3
:102D1C002360274C63681C21026C114004228A40FA
:102D2C0013436360036B002B00D0984770BD0222E5
:102D3C009A4011421CD0AA071AD523689B0606D4C8
:102D4C0023680A22934323602523093AC254184C62
:102D5C0063681C21026C114002228A401343636099
:102D6C0024230022C254C36A002BDFD09847DDE72E
:102D7C0008229A401142D9D02B07D7D523680E22AE
:102D8C00934323600A4C62681C21036C1940012395
:102D9C001D008D402A436260C36325228354233374
:102DAC000022C254436B002BC0D09847BEE7C046EC
:102DBC0000000240C06B704710B5104A13681049F0
:102DCC000B400343136080239B00984201D00020EA
:102DDC0010BD0C4B1A6853009B1858000A49FEF79B
:102DEC009BF80130054B5B695B0503D5002803D0CC
:102DFC000138F7E70020EBE70320E9E7007000401B
:102E0C00FFF9FFFF6C00002040420F0070B5002856
:102E1C0011DB8308144DC0339B005C590322104016
:102E2C00C000FC3216008640B44389010A4082403F
:102E3C0022435A5170BDC0B20F230340083B9B087C
:102E4C0006339B00094A944663445D680324204082
:102E5C00C000FF2214008440A54389011140814029
:102E6C0029435960E6E7C04600E100E000ED00E0D0
:102E7C00002805DB1F2318401E3B8340014A1360CA
:102E8C007047C04600E100E000280ADB1F23184011
:102E9C001E3B8340034980228B50BFF34F8FBFF3FF
:102EAC006F8F704700E100E001380A4B98420FD851
:102EBC00094A50600948036A1B021B0AC021090613
:102ECC000B430362002393600733136000207047A9
:102EDC000120FCE7FFFFFF0010E000E000ED00E048
:102EEC0010B50400114B1968002901D1012010BD47
:102EFC00FA208000FEF710F801000D4B1868FEF761
:102F0C000BF8FFF7D1FF00280DD1032C01D90120BC
:102F1C00EDE70130002221004042FFF777FF054B1F
:102F2C001C600020E3E70120E1E7C04664000020BC
:102F3C006C0000206800002010B5084A116880233E
:102F4C005B000B4313600320FFF7CAFF041E02D083
:102F5C000124200010BDFEF785FEFAE70020024098
:102F6C00034A1368034909685B1813607047C0462D
:102F7C005802002064000020014B18687047C046BE
:102F8C005802002070B50400FFF7F6FF0500631C23
:102F9C0002D0044B1B68E418FFF7EEFF401BA04265
:102FAC00FAD370BD64000020024B802212059A6097
:102FBC007047C04600ED00E010B50B480B4B0360AA
:102FCC0000234360E02212018260094A42610362DD
:102FDC0043628362C362036301F042FA002800D1AA
:102FEC0010BDFEF745FAFBE75C020020007C0040B8
:102FFC00FFFF000000B583B002680C4B9A4201D071
:10300C0003B000BD0A4BD96B802212060A43DA6367
:10301C00DB6BDB0FDB070193019B002200211120EE
:10302C00FFF7F4FE1120FFF723FFE9E7007C0040D7
:10303C000010024010B51948194B0360E1235B02E4
:10304C00436000238360C36003610C22426183618F
:10305C00C36103624362836202F068FC002811D1F1
:10306C0000210E4802F0F0FC00280ED100210B4884
:10307C0002F00EFD00280BD1084802F0C5FC002818
:10308C0009D110BDFEF7F4F9EAE7FEF7F1F9EDE727
:10309C00FEF7EEF9F0E7FEF7EBF9F2E7F0020020AD
:1030AC000044004010B588B004001422002103A88D
:1030BC00FDF7B2F8244B22689A4201D008B010BD3B
:1030CC00224BD96B802080020143D963DA6B02401A
:1030DC000192019A596B0122114359635B6B1340A6
:1030EC000293029B0C2303930A3B04930792A020A8
:1030FC0003A9C005FEF7DEFD1548164B036034230B
:10310C00436000238360C36080220261436183615A
:10311C00603AC2610362FFF7C1FC002811D10C4B6D
:10312C00A3679C62002200211C20FFF76FFE1C206D
:10313C00FFF79EFE084B1A68136810210B431360AF
:10314C00BCE7FEF795F9EAE70044004000100240A6
:10315C009402002008000240F002002030B59BB021
:10316C0000243F2C38DC364B1B199B7A0D2B03D0DB
:10317C00082B19D00134F4E73148031900229A7254
:10318C000A3001F0DDF82F4801F0E4FA04E02C4B92
:10319C001B1900229A72013C002CF8DA40222A49B1
:1031AC00284801F06DFA49E0254B1B1900229A7250
:1031BC00002C04DD621E224B9B1800229A72214DBA
:1031CC00280001F0C7FA611E4022121B92B21E4B5E
:1031DC00C918280001F054FA6422002101A8FDF757
:1031EC001BF81B22194901A8FDF780F8FA25AD0040
:1031FC00144C2B00062201A9200002F0E5FA6422EF
:10320C00002101A8FDF708F81B22114901A8FDF7C0
:10321C006DF82B00042201A9200002F0D5FA6422DB
:10322C00002101A8FCF7F8FF074901A8FDF75EF89B
:10323C0082B22B0001A9200002F0C6FA1BB030BDEF
:10324C0098000020F0020020A2000020D46D00089D
:10325C00DC6D000810B5074B1B68074A934200D081
:10326C0010BDDA69D206FBD510221A62FFF776FF81
:10327C00F6E7C046F002002000440040F0B5C64618
:10328C0000B59CB0A0200121C005FEF74DFED54B2A
:10329C005B7A062B00D142E226D9082B00D172E2D0
:1032AC0000D23EE2092B00D19CE2FF2B40D1CD4B4A
:1032BC0000225A7203AC5A3200210E2002AB9C46FB
:1032CC006044FCF7A9FFC84B220003CB03C21900D2
:1032DC001B8813808B789370FA239B000A222100A1
:1032EC00C24802F071FA23E0022B25D0042B3AD00D
:1032FC00012B1DD1BB4B00225A726032002104A855
:10330C00FCF78AFFBA4B0393FA239B00032203A911
:10331C00B64802F059FA002408E0A0200121C005AB
:10332C00FEF702FE6420FFF72DFE0134092CF4DDBC
:10333C001CB004BC9046F0BD6422002103A8FCF72D
:10334C006BFF02F05DFD0200AA4903A8FCF7CEFF5B
:10335C00FA239B00092203A9A44802F035FAA14BD9
:10336C0000225A72E4E702F0CDFCA34802F008FCFC
:10337C0003AC5822002106A8FCF74EFF9F4B2200FD
:10338C0023CB23C21B781370FA26B600974D33005B
:10339C000C222100280002F017FA0021402002F034
:1033AC0027FD642200212000FCF736FF02F00EFD01
:1033BC00020093492000FCF799FF330017222100EB
:1033CC00280002F001FA0121402002F011FD6422D4
:1033DC0000212000FCF720FF02F0CAFC0200894902
:1033EC002000FCF783FF330017222100280002F095
:1033FC00EBF90221402002F0FBFC642200212000AA
:10340C00FCF70AFF02F0B4FC02007F492000FCF735
:10341C006DFF33001B222100280002F0D5F9032197
:10342C00402002F0E5FC642200212000FCF7F4FEB1
:10343C0002F0B2FC020075492000FCF757FF82B283
:10344C0033002100280002F0BFF90421402002F0D3
:10345C00CFFC642200212000FCF7DEFE02F09CFC75
:10346C0002006B492000FCF741FF82B233002100BF
:10347C00280002F0A9F90621402002F0B9FC6422D0
:10348C0000212000FCF7C8FE02F072FC020061492A
:10349C002000FCF72BFF330017222100280002F03C
:1034AC0093F90721402002F0A3FC642200212000A4
:1034BC00FCF7B2FE02F05CFC020057492000FCF75E
:1034CC0015FF330015222100280002F07DF900249D
:1034DC001AE021001031C9B2402002F089FC6422AC
:1034EC00002103A8FCF798FE02F042FC0300220026
:1034FC004A4903A8FCF7FAFEFA2382B29B0003A9FF
:10350C003A4802F061F901340E2CE2DD00241CE093
:10351C00072C1ED821002031C9B2402002F068FCD3
:10352C006422002103A8FCF777FE02F021FC0300C3
:10353C0022003B4903A8FCF7D9FEFA2382B29B0078
:10354C0003A92A4802F040F90134062CE0DD0024DE
:10355C001EE00021E1E7072C1ED821002831C9B25A
:10356C00402002F045FC6422002103A8FCF754FE25
:10357C0002F0FEFB030022002A4903A8FCF7B6FE6A
:10358C00FA2382B29B0003A9184802F01DF90134FA
:10359C00062CE0DD00241EE00021E1E7072C1ED8FC
:1035AC0021003031C9B2402002F022FC64220021FB
:1035BC0003A8FCF731FE02F0EFFB030022001A49CE
:1035CC0003A8FCF793FEFA2382B29B0003A90748D9
:1035DC0002F0FAF80134062CE0DD002443E000216F
:1035EC00E1E7C04698000020806F0008F002002040
:1035FC006F6B0A00706E00087C030020E46D0008FD
:10360C00F46D0008106E0008286E0008446E000867
:10361C00606E0008786E0008906E0008A86E0008B6
:10362C00C06E0008E06E0008FC6E0008072C25D860
:10363C0021003831C9B2402002F0DAFB64220021AB
:10364C0003A8FCF7E9FD02F0A7FB0300220059498F
:10365C0003A8FCF74BFEFA2382B29B0003A9564841
:10366C0002F0B2F80134062CE0DD544B00225A7201
:10367C00534802F0F1FA02F01DFB59E60021DAE79B
:10368C00330012339B004D4FFF184E4A00237868CD
:10369C000021FDF7D7FD4C4A0023FDF7B3FD009048
:1036AC0001916422002103AB1800FCF7B5FD320038
:1036BC00464903AB1800FCF719FEFA25AD0082B29F
:1036CC003D4C2B0003A9200002F07EF8642200215F
:1036DC0003AB1800FCF7A0FD009A019B3C4903A822
:1036EC00FCF704FE82B22B0003A9200002F06CF858
:1036FC006422002103A8FCF78FFD7A68354903A8E2
:10370C00FCF7F4FD82B22B0003A9200002F05CF858
:10371C0001360F2EB4DD294B00225A7208E6002622
:10372C00F7E76422002103A8FCF776FD234D2A4914
:10373C006868FDF77BFC0200284903A8FCF7D6FD5E
:10374C00FA24A40082B21C4E230003A9300002F01C
:10375C003BF86422002103A8FCF75EFD2100686899
:10376C00FDF764FC2100FDF747FD0A001C4903A886
:10377C00FCF7BCFD82B2230003A9300002F024F850
:10378C0000236B72D4E503AC6222002102AB981DBE
:10379C00FCF742FD0A232380F0339B000122210019
:1037AC00054802F011F802F063FC044B00225A7237
:1037BC00BEE5C046186F0008F002002098000020FB
:1037CC007C03002040771B00FFFFFF00346F0008D4
:1037DC003C6F0008706E000840420F00486F0008F4
:1037EC004C6F000803AC5E2200210A2002AB9C4601
:1037FC006044FCF711FDAE4B1A6803929B88A380C2
:10380C00FA26B600AB4D330005222100280001F04A
:10381C00DBFF5822002106A8FCF7FEFCA64B270074
:10382C0007CB07C7B8461B783B7033000C2221002E
:10383C00280001F0C9FF642200212000FCF7ECFCF9
:10384C000B2000F0A1F9FA2292000023FDF7DAFC1C
:10385C0002000B0099492000FCF748FD82B23300AE
:10386C002100280001F0B0FF642200212000FCF7A9
:10387C00D3FC0B2000F088F9FA2292000023FDF70C
:10388C00C1FC8F492000FCF731FD82B233002100CE
:10389C00280001F099FF582200213800FCF7BCFCED
:1038AC00884B220083CB83C21B78424613703300B3
:1038BC000C222100280001F087FF64220021200047
:1038CC00FCF7AAFC062000F05FF9FA229200002314
:1038DC00FDF798FC02000B0078492000FCF706FD70
:1038EC0082B233002100280001F06EFF6422002117
:1038FC002000FCF791FC062000F046F9FA22920019
:10390C000023FDF77FFC6E492000FCF7EFFC82B230
:10391C0033002100280001F057FF582200214046B7
:10392C00FCF77AFC684B220083CB83C21B7842469F
:10393C00137033000C222100280001F045FF642293
:10394C0000212000FCF768FC002000F01DF9FA2291
:10395C0092000023FDF756FC02000B005749200093
:10396C00FCF7C4FC82B233002100280001F02CFFCC
:10397C00642200212000FCF74FFC002000F004F929
:10398C00FA2292000023FDF73DFC4D492000FCF784
:10399C00ADFC82B233002100280001F015FF582243
:1039AC0000214046FCF738FC484B220083CB83C2F5
:1039BC001B784246137033000C222100280001F0C2
:1039CC0003FF642200212000FCF726FC0E2000F0EF
:1039DC00DBF8FA2292000023FDF714FC02000B0026
:1039EC0036492000FCF782FC82B23300210028000B
:1039FC0001F0EAFE642200212000FCF70DFC0E20F1
:103A0C0000F0C2F8FA2292000023FDF7FBFB2C49D0
:103A1C002000FCF76BFC82B233002100280001F07F
:103A2C00D3FE582200214046FCF7F6FB284B22001F
:103A3C0083CB83C21B784246137033000C222100C7
:103A4C00280001F0C1FE642200212000FCF7E4FBF9
:103A5C00022000F099F8FA2292000023FDF7D2FB25
:103A6C0002000B0015492000FCF740FC82B2330029
:103A7C002100280001F0A8FE642200212000FCF7A0
:103A8C00CBFB022000F080F8FA2292000023FDF715
:103A9C00B9FB0B492000FCF729FC82B23300210052
:103AAC00280001F091FE0B4B00225A7240E4C046F4
:103ABC00586F0008F0020020606F0008FC6C0008D2
:103ACC00706F0008EC6C0008146D0008546D000851
:103ADC00646D00089800002010B592B01E4A4B236C
:103AEC000021D154402202A8FCF796FB002318E0D9
:103AFC00194A1900123189005118496818002230EE
:103B0C00800010184160980002AC04590194A4463E
:103B1C00614402AC0151180032308000121851601F
:103B2C0001330F2BE4DD0C49862252008B5C0133F0
:103B3C00DBB28B54012B06D90121074A0E23FF332C
:103B4C00D15412B010BD0E23FF33CB5C002B01D12E
:103B5C000021F2E70121F0E79800002010B5323087
:103B6C008000064B18184068054A00230021FDF719
:103B7C0069FB044A0023FDF745FB10BD98000020AB
:103B8C0040771B00FFFFFF0010B5FFF7E7FF0A228D
:103B9C000023FDF737FB034A0023121A8B41100058
:103BAC00190010BD20BF0200F0B5DE4657464E4648
:103BBC004546E0B5A3B0B020400302F031FAB74857
:103BCC0002F02EFAB64B2933FF33B64803211860A6
:103BDC0059600023994607939B4606939A461DE02D
:103BEC0001235B42EAE00121AD4A1020FF30115461
:103BFC0002984343049841435B18D9171932FF329A
:103C0C0013605160E023DB009C46E144049B059C5F
:103C1C000793A346029B039C0693A246A24B99458D
:103C2C0000DDDDE0B0204003484402F0F9F96420E7
:103C3C00FFF7A8F99A4B98469C4A00234146486ED8
:103C4C000021FDF7FFFA9A4A0023FDF7DBFA060084
:103C5C000F00984C002522002B00921BBB410292B6
:103C6C000393924A00234146C86C0021FDF7EAFAFF
:103C7C008F4A0023FDF7C6FA009001910A0001005B
:103C8C00641A9541049405956422002109A8FCF757
:103C9C00C3FA029A039B884909A8FCF727FB82B256
:103CAC00FA239B0009A9854801F08EFD64220021AE
:103CBC0009A8FCF7B1FA22002B00814909A8FCF7EE
:103CCC0015FB82B2FA239B0009A97C4801F07CFD0C
:103CDC007C4A01235B42B6185F41009C019DA418ED
:103CEC005D410094019532003B0030003900FDF736
:103CFC00A9FA04000D000098019902000B00FDF7D1
:103D0C00A1FA24184D416422002109AB1800FCF7DC
:103D1C0083FA32003B006C4909A8FCF7E7FA82B23F
:103D2C00FA239B0009A9654801F04EFD642200218D
:103D3C0009AB1800FCF770FA009A019B634909A8BB
:103D4C00FCF7D4FA82B2FA239B0009A95B4801F074
:103D5C003BFD6422002109A8FCF75EFA22002B002F
:103D6C005B4909A8FCF7C2FA82B2FA239B0009A9A5
:103D7C00524801F029FD43462933FF331A685B682A
:103D8C00AB4204DC00D03DE7A24200D83AE7444BFA
:103D9C001A002132FF3249461160C917516029338C
:103DAC00FF331C605D60029B039C544505D800D01A
:103DBC0016E7069A934200D812E701233849872266
:103DCC0052008B540499059A5A4500D90BE704D13B
:103DDC000A0007998A4200D905E70121494203E705
:103DEC006422002109A8FCF717FA2D4C2300193383
:103DFC00FF331A685B68374909A8FCF777FAFA268B
:103E0C00B60082B22D4D330009A9280001F0DCFC6C
:103E1C006422002109A8FCF7FFF987235B00E25616
:103E2C002D4909A8FCF762FA82B2330009A92800CF
:103E3C0001F0CAFC6422002109A8FCF7EDF910235B
:103E4C00FF33E256254909A8FCF750FA82B2330039
:103E5C0009A9280001F0B8FC23002133FF331868AE
:103E6C00B0235B039C46604402F0DAF8A0204003C8
:103E7C0002F0D6F81A4802F0D3F84134FF34094A5C
:103E8C000323226063600023994607939B460693A5
:103E9C009A463FE001235B4210E1C046FF7F1700CA
:103EAC0098000020006298C5FEFF000040771B00C0
:103EBC00F6FFFF0920BF02008C6F0008F002002003
:103ECC009C6F000870A0FEFFAC6F0008BC6F000870
:103EDC00CC6F0008DC6F0008F46F00080470000859
:103EEC00FF7F15000121A34A1220FF3011540298C4
:103EFC00434361435B18D9173132FF321360516071
:103F0C00E023DB009C46E1440794AB46029B039CF8
:103F1C000693A246984B994500DDDEE0A0204003B5
:103F2C00484402F07DF86420FFF72CF8914B98463A
:103F3C0084234246D058914A00230021FDF782F990
:103F4C008F4A0023FDF75EF906000F008D4C00250B
:103F5C0022002B00921BBB4102920393874A002341
:103F6C004146486D0021FDF76DF9854A0023FDF7A8
:103F7C0049F9009001910A000100641A95416422EC
:103F8C00002109AB1800FCF747F9029A039B7E4904
:103F9C0009A8FCF7ABF982B2FA239B0009A97B486C
:103FAC0001F012FC6422002109AB1800FCF734F973
:103FBC0022002B00764909A8FCF798F982B2FA2363
:103FCC009B0009A9714801F0FFFB724A01235B4277
:103FDC00B6185F41009801998018594100900191E1
:103FEC0032003B000496059730003900FDF72AF9A2
:103FFC0006000F000098019902000B00FDF722F952
:10400C0036184F416422002109AB1800FCF704F963
:10401C00049A059B604909A8FCF768F982B2FA2357
:10402C009B0009A9594801F0CFFB6422002109AB80
:10403C001800FCF7F1F8009A019B574909A8FCF706
:10404C0055F982B2FA239B0009A9504801F0BCFB38
:10405C006422002109A8FCF7DFF832003B004F492D
:10406C0009A8FCF743F982B2FA239B0009A9474837
:10407C0001F0AAFB43464133FF331A685B68BB422D
:10408C0004DC00D03CE7B24200D839E7394B1A00C7
:10409C003932FF3249461160C91751604133FF3341
:1040AC001E605F60029A039B534506D800D0F1E670
:1040BC001300069A934200D8ECE601232D4988227E
:1040CC0052008B545D4500D90CE703D1079A9442FA
:1040DC0000D907E70121494205E76422002109A81C
:1040EC00FCF79AF8234C23003133FF331A685B68D2
:1040FC002B4909A8FCF7FAF8FA26B60082B2234D30
:10410C00330009A9280001F05FFB6422002109A8F3
:10411C00FCF782F888235B00E256224909A8FCF7D9
:10412C00E5F882B2330009A9280001F04DFB6422A6
:10413C00002109A8FCF770F81223FF33E2561A4944
:10414C0009A8FCF7D3F882B2330009A9280001F0C2
:10415C003BFB3934FF342068A0235B039C4660444E
:10416C0001F05EFF23B03CBC90469946A246AB469C
:10417C00F0BDC04698000020FEFF000040771B00F9
:10418C00F6FFFF0920BF020014700008F0020020A7
:10419C002470000870A0FEFF347000084470000802
:1041AC00547000086C7000087C700008F0B5224E4A
:1041BC0031004931FF31002200230A604B6034008A
:1041CC005134FF3401204042C1172060616034003B
:1041DC005934FF342060616037006137FF370124A8
:1041EC0000253C607D6037006937FF373A607B60A3
:1041FC0037007137FF373A607B6037007937FF370C
:10420C003A607B6037008137FF3738607960370060
:10421C008937FF373860796031009131FF310C609C
:10422C004D6031009931FF310A604B60A136FF3689
:10423C0032607360F0BDC04698000020F8B51D4F89
:10424C0088235B00FC560E20FFF79EFC4443122390
:10425C00FF33FD560220FFF797FC684324183B0000
:10426C003133FF331868201AC1173B006933FF3311
:10427C00186059603C007134FF3400220023226026
:10428C0063603E004936FF36346875685137FF3736
:10429C003A687B68FCF7D6FF24184D412404240CA3
:1042AC00346000237360A8235B03E01801F0B8FEB0
:1042BC00F8BDC04698000020F8B51D4F87235B0061
:1042CC00FC560620FFF760FC44431023FF33FD56D9
:1042DC000020FFF759FC684324183B001933FF33C7
:1042EC001868201AC1173B009933FF3318605960C6
:1042FC003C00A134FF3400220023226063603E00A6
:10430C007936FF36346875688137FF373A687B68D1
:10431C00FCF798FF24184D412404240C346000232E
:10432C007360B8235B03E01801F07AFEF8BDC04659
:10433C009800002010B5FFF781FFFFF7BDFF10BDFF
:10434C0030B59BB0040001AD6022002102A8FBF740
:10435C0063FF384B1A6801921B792B71FA239B006F
:10436C0004222900344801F02FFA34492000FBF7CD
:10437C00DDFF00282DD032492000FBF7D7FF0028A5
:10438C002CD030492000FBF7D1FF00282AD02E4931
:10439C002000FBF7CBFF002828D02C492000FBF78E
:1043AC00C5FF002826D02A492000FBF7BFFF0028B4
:1043BC0034D028492000FBF7B9FF002832D0264919
:1043CC002000FBF7B3FF002830D0244BFF225A7299
:1043DC0002E0224B01225A721BB030BD1F4B02224D
:1043EC005A72F9E71D4B03225A72F5E71B4B042254
:1043FC005A72F1E701AC622200216B46981DFBF763
:10440C000BFF0A232380F0339B00012221000A4872
:10441C0001F0DAF9114B06225A72DDE70F4B072235
:10442C005A72D9E70D4B08225A72D5E70B4B092269
:10443C005A72D1E78C700008F002002094700008CA
:10444C009C700008A4700008B0700008BC700008D4
:10445C00C8700008D0700008DC70000898000020BC
:10446C0070B5041E4CD03623C35C002B3DD03623D4
:10447C000222E2542568EB686068012804D080228F
:10448C001204A16A914201D11E22934361691D4A13
:10449C00914201D01C4A13401C4A1A40A3680343A2
:1044AC00266A3343666A3343A66A334313430128AF
:1044BC0003D080221204964203D1E26820690243A1
:1044CC001343104A914204D0A2691143E26911438B
:1044DC000B43EB6023680E4A93420CD0E26A5A629B
:1044EC0036230122E254002070BD35330022C25421
:1044FC00FEF780FDBBE7E26A216B0A435A62EFE7E5
:10450C000120F1E7FFFF00003F1FFFFFF8F119FF4B
:10451C00007C004010B536230222C2544368012BA4
:10452C0004D080231B04826A9A4219D002689368D3
:10453C00102423439360026893680E3C23439360DA
:10454C00046823690122134323610368996101689C
:10455C000B69042423430B613623C254002010BD85
:10456C000268D368014C2340D360DFE7FFF1FFFF03
:10457C00704770477047704770477047704710B569
:10458C00040003681A68D20702D59A68D2072AD4A5
:10459C0023681A68920702D59A68920728D4236870
:1045AC001A68520702D59A68520727D423681A68EA
:1045BC00120702D59A68120726D423681A68D20605
:1045CC0002D59A68D20625D423681A68920602D5B9
:1045DC009A68920624D423681A68520602D59A68FF
:1045EC00520623D410BD01225A60FFF7C1FFCFE75A
:1045FC0002225A602000FFF7BCFFD0E704225A6069
:10460C002000FFF7B7FFD1E708225A602000FFF720
:10461C00B2FFD2E710225A602000FFF7ADFFD3E7BC
:10462C0020225A602000FFF7A8FFD4E740225A60EE
:10463C002000FFF7A3FFD5E702681368C0218B4366
:10464C0013600268936803490B4093608023202217
:10465C00C2507047FFFF7FFF0268136806490B408A
:10466C0013600268936805490B40936084232022F1
:10467C00C2500023C3667047DFFEFFFFFEFFFFEF53
:10468C0010B5040084202058202855D1002955D07D
:10469C00002A55D080235B01A06898423AD07C2335
:1046AC00E35C012B4ED07C230120E054A165203B20
:1046BC00E2522C330021E150043B2231E150A36F34
:1046CC00002B13D02049D962A36F20491963A36F23
:1046DC001F495963A36F002199632168243113008A
:1046EC00A26DA06FFEF732FA00281AD17C230022AB
:1046FC00E2542268116884330B4313602268936878
:10470C0001210B439360226893683F310B43936004
:10471C00002012E02369002BC1D1CB07BFD50120AB
:10472C000BE088231022E2500C3B0022E2540433AD
:10473C002032E250012000E0022010BD0120FCE7F5
:10474C000120FAE70220F8E7154800085B4800084A
:10475C006748000870B504008023C0588422A5580F
:10476C00226891680B4201D0212807D023689A68EF
:10477C00520636D5222D1AD0002033E093688021C2
:10478C008B439360606F002803D0FEF72BFA002850
:10479C0003D12000FFF750FFE8E7606FFEF70AFB3C
:1047AC002028F6D188231022E2501D381AE09A688E
:1047BC0040218A439A60A06F002803D0FEF712FABA
:1047CC00002804D12000FFF747FF00200AE0A06F6B
:1047DC00FEF7F0FA2028F5D188231022E2501D387C
:1047EC0000E0002070BD704710B5026813684021CE
:1047FC008B43136080232022C25000230367FFF7F2
:10480C00F2FF10BD7047000010B5836A0268126891
:10481C00920615D45E220021995219680A680A483A
:10482C0002400A6019688A680330FF3082438A604C
:10483C0019688A683F3082438A608422202199500B
:10484C001800FFF7DFFF10BDFFFEFFFF704710B52C
:10485C00806AFFF7FBFF10BD704770B5846A802338
:10486C00E1588422A55822689268134201D021296C
:10487C000ED023689B685B0601D5222D0FD08822B1
:10488C00A35810210B43A3502000FFF7E5FF70BD88
:10489C002A3B0022E2522000FFF7CEFEE9E75E231E
:1048AC000022E2522000FFF7D7FEE8E7F8B504003B
:1048BC000168CB6908688D680F221A400BD19E06DF
:1048CC0009D5860601D4EE0005D5E36E002B01D088
:1048DC0020009847F8BD002A74D0534A2A4003D1CF
:1048EC009026760030426DD0DE0707D5C60505D57B
:1048FC0001270F628826A1593943A151990709D57F
:10490C00E90707D5216802260E628636A1590427CD
:10491C003943A151590709D5E90707D52168042660
:10492C000E628436A15902273943A15119070AD5C1
:10493C00810601D4002A06D0226808261662882136
:10494C006258324362508822A258002AC2D09B0679
:10495C0008D5830601D4EB0004D5E36E002B01D0FF
:10496C00200098478823E25823689B685B0601D493
:10497C00130720D52000FFF76FFE23689A685206B4
:10498C0015D59A6840218A439A60A36F002B0AD0F0
:10499C00264A9A63A06FFEF765F900289AD0A06F9B
:1049AC00836B984796E72000FFF756FF92E72000AD
:1049BC00FFF752FF8EE72000FFF74EFF88230022FF
:1049CC00E25087E7DA0201D56A020CD41A0611D537
:1049DC00020601D42A020DD5236F002B00D179E7F2
:1049EC002000984776E780235B030B62200001F0E0
:1049FC0007F86FE75A0601D542060DD41A0201D505
:104A0C0042000DD4DB0100D464E7002800DB61E731
:104A1C00200000F0F6FF5DE72000FFF7E5FE59E708
:104A2C00200000F0EFFF55E7010000103D4A0008A0
:104A3C0010B5806A00235E228352083A8352FFF736
:104A4C000BFF10BDF8B504000168836802691343BD
:104A5C0042691343C2691343426E1A430B68BD4843
:104A6C00034013430B6022685368BB490B40E16859
:104A7C000B435360A1692268B84B9A4201D0236A58
:104A8C0019439368B64803400B4393602268D36A7A
:104A9C000F218B43616A0B43D3622368B14A934263
:104AAC005CD0B14A93426DD0B04A934200D19EE0A3
:104ABC00AF4A934200D19CE0A84A934277D010258C
:104ACC00A64A934200D198E080231B02E2699A42E5
:104ADC0000D151E3022D01D100F0F8FC01D800F017
:104AEC00A1FC042D01D100F02DFD082D01D000F00A
:104AFC0093FD636A002B01D100F067FD012B01D1FE
:104B0C0000F06FFD022B01D100F06EFD032B01D1E3
:104B1C0000F06DFD042B01D100F06BFD052B01D1D4
:104B2C0000F06AFD062B01D100F068FD072B01D1C6
:104B3C0000F066FD082B01D100F065FD092B01D1B9
:104B4C0000F064FD0A2B01D100F063FD0B2B01D1A9
:104B5C0000F039FD80231B0200F039FD854A516DB0
:104B6C0003220A40012A09D0002A05D0022A3AD091
:104B7C00032A05D01025A3E70025A1E704259FE70C
:104B8C0008259DE77B4A516D0C220A40042A0AD065
:104B9C0005D9082A29D00C2A07D1082590E7002A24
:104BAC0003D100258CE704258AE7102588E7714A94
:104BBC00526DC02109010A408021C9008A420ED0E1
:104BCC0009D9802109018A4215D0C02109018A42E4
:104BDC0007D1082574E7002A03D1002570E70425C6
:104BEC006EE710256CE702256AE7022568E70025C9
:104BFC0066E7002564E7022562E7022D00D1C1E0DB
:104C0C002ED9042D00D1DAE0082D01D000F007FDDB
:104C1C00636A002B00D122E1012B00D122E1022B8F
:104C2C0000D122E1032B00D122E1042B00D121E1A0
:104C3C00052B00D121E1062B00D120E1072B00D15F
:104C4C001FE1082B00D11FE1092B00D11FE10A2B1A
:104C5C0000D11FE10B2B00D1E9E08020000226E0FF
:104C6C00002D01D000F0DBFCFDF708FD636A002B82
:104C7C001AD0012B5FD0022B5FD0032B5FD0042BFB
:104C8C005FD0052B5FD0062B5FD0072B5FD0082B96
:104C9C0072D0092B72D00A2B72D00B2B01D00121B0
:104CAC0003E08021490000E00121FCF735F90028E0
:104CBC0001D100F0B6FC626853009B18834201D905
:104CCC0000F0B1FC1303834201D200F0AEFC022DC4
:104CDC0000D142E100D8E0E0042D00D186E1082D9E
:104CEC0000D046E2636A002B00D110E2012B00D108
:104CFC001AE2022B00D11BE2032B00D11CE2042B85
:104D0C0000D11CE2052B00D11DE2062B00D11DE2C7
:104D1C00072B00D11DE2082B00D11EE2092B00D17C
:104D2C001FE20A2B00D120E20B2B00D1EBE18026F5
:104D3C0036040027EEE10221B7E70421B5E706218E
:104D4C00B3E70821B1E70A21AFE70C21ADE7102149
:104D5C00ABE7C046F369FFCFFFCFFFFF00800040F9
:104D6C00FFF4FF11003801400044004000480040AF
:104D7C00004C004000100240202196E7402194E7AF
:104D8C00802192E7636A002B53D0012B53D0022B66
:104D9C0053D0032B53D0042B53D0052B53D0062BBD
:104DAC0053D0072B53D0082B53D0092B53D00A2B9D
:104DBC0053D00B2B01D0AA4879E7AA4877E7FDF727
:104DCC0033FB636A002B1AD0012B1CD0022B1CD096
:104DDC00032B1CD0042B1CD0052B1CD0062B1CD059
:104DEC00072B1CD0082B1CD0092B1CD00A2B1CD039
:104DFC000B2B01D0012103E08021490000E00121AF
:104E0C00FCF78AF853E70221FAE70421F8E70621B8
:104E1C00F6E70821F4E70A21F2E70C21F0E710216C
:104E2C00EEE72021ECE74021EAE78021E8E780204B
:104E3C003DE78B483BE78C4839E78C4837E78C4893
:104E4C0035E78C4833E78C4831E78C482FE78C48A2
:104E5C002DE78C482BE78C4829E78C4827E78020E6
:104E6C00000224E78020C00121E7802080011EE79A
:104E7C0087481CE78020400119E7864817E78648D9
:104E8C0015E78020000112E78020C0000FE780208A
:104E9C0080000CE78020400009E7002D00D068E17D
:104EAC00FDF7ECFB636A002B1CD0012B37D0022BD7
:104EBC0038D0032B39D0042B3AD0052B3BD0062B02
:104ECC003CD0072B3DD0082B3ED0092B3FD00A2BD2
:104EDC0040D00B2B02D00122002305E0802252008F
:104EEC00002301E0012200230021FCF78BF9050EC1
:104EFC000B022B4302026568680800218018594197
:104F0C002A000023FCF77EF9020000206349644B61
:104F1C00D3188B4200D98AE32368DA60B9E2022203
:104F2C000023E1E704220023DEE706220023DBE76F
:104F3C0008220023D8E70A220023D5E70C220023FD
:104F4C00D2E710220023CFE720220023CCE7402217
:104F5C000023C9E780220023C6E7636A002B1BD01D
:104F6C00012B25D0022B26D0032B27D0042B28D0A5
:104F7C00052B29D0062B2AD0072B2BD0082B2CD075
:104F8C00092B2DD00A2B2ED00B2B02D0454E0027EF
:104F9C0004E0334E002701E0424E00275008002168
:104FAC00801979410023FCF72DF902000020ADE7B0
:104FBC003D4E0027F2E73D4E0027EFE73C4E002721
:104FCC00ECE73C4E0027E9E73B4E0027E6E73B4E7B
:104FDC000027E3E73A4E0027E0E73A4E0027DDE7EB
:104FEC00394E0027DAE7394E0027D7E7FDF71CFAD0
:104FFC00636A002B1CD0012B2FD0022B68D0032B03
:10500C0069D0042B6AD0052B6BD0062B6CD0072BE8
:10501C006DD0082B6ED0092B6FD00A2B70D00B2BB8
:10502C0002D00122002305E080225200002301E07F
:10503C00012200230021FCF7E5F8050E0B022B439F
:10504C000202656868080021801859412A00002373
:10505C00FCF7D8F80200002058E702220023E9E709
:10506C000024F40024F4000000127A0000093D0032
:10507C00AAB0280080841E00006A1800555814003D
:10508C0040420F0020A1070090D0030048E8010027
:10509C0055150000CC0C0000AA0A0000FFFC0F0004
:1050AC0000FDFFFF000024F40000127A0000093D0F
:1050BC0000AAB0280080841E00006A1800555814FD
:1050CC000040420F0020A1070090D0030048E801E7
:1050DC0004220023AEE706220023ABE708220023BC
:1050EC00A8E70A220023A5E70C220023A2E710223E
:1050FC0000239FE7202200239CE74022002399E70E
:10510C008022002396E780263602002702E08026C4
:10511C003604002750080021801979410023FCF740
:10512C0071F802000020F1E68026F6030027F1E773
:10513C008026B6030027EDE7A74E0027EAE7802676
:10514C0076030027E6E7A54E0027E3E7A44E0027E9
:10515C00E0E7802636030027DCE78026F6020027EE
:10516C00D8E78026B6020027D4E7802676020027EF
:10517C00D0E701200022C9E6022D00D182E02DD912
:10518C00042D00D1BAE0082D00D022E1636A002B77
:10519C0000D1F7E0012B00D100E1022B00D100E19E
:1051AC00032B00D100E1042B00D1FFE0052B00D133
:1051BC00FFE0062B00D1FEE0072B00D1FDE0082B11
:1051CC0000D1FDE0092B00D1FDE00A2B00D1FDE060
:1051DC000B2B00D1D4E080235B02D5E0002D00D056
:1051EC00F7E0FDF74BFA636A002B1AD0012B35D090
:1051FC00022B35D0032B35D0042B35D0052B35D0D5
:10520C00062B35D0072B35D0082B35D0092B35D0B4
:10521C000A2B35D00B2B01D0012103E08021490052
:10522C0000E00121FBF778FE400063685B08C018C2
:10523C006168FBF771FE03041B0C002069491A001E
:10524C00103A8A4200D9F4E10F22190091435B080D
:10525C00083A13400B432268D3601AE10221E1E7BC
:10526C000421DFE70621DDE70821DBE70A21D9E786
:10527C000C21D7E71021D5E72021D3E74021D1E736
:10528C008021CFE7636A002B19D0012B22D0022B8F
:10529C0022D0032B22D0042B22D0052B22D0062B7C
:1052AC0022D0072B22D0082B22D0092B22D00A2B5C
:1052BC0022D00B2B01D04C4B02E04C4B00E04A4B64
:1052CC0062685008C0181100FBF726FE03041B0C83
:1052DC000020B3E7464BF3E7464BF1E7464BEFE7CD
:1052EC00464BEDE7464BEBE7464BE9E7464BE7E72A
:1052FC00464BE5E7464BE3E7464BE1E7FDF794F811
:10530C00636A002B1AD0012B26D0022B26D0032B3C
:10531C0026D0042B26D0052B26D0062B26D0072BE7
:10532C0026D0082B26D0092B26D00A2B26D00B2BC7
:10533C0001D0012103E08021490000E00121FBF7AD
:10534C00EBFD400063685B08C0186168FBF7E4FD87
:10535C0003041B0C002071E70221F0E70421EEE7A7
:10536C000621ECE70821EAE70A21E8E70C21E6E749
:10537C001021E4E72021E2E74021E0E78021DEE78D
:10538C00F53301E080235B0262685008C0181100FD
:10539C00FBF7C2FD03041B0C00204FE780231B020C
:1053AC00F2E78023DB01EFE71B4BEDE780239B014A
:1053BC00EAE71A4BE8E71A4BE6E780235B01E3E7E1
:1053CC0080231B01E0E78023DB00DDE780239B00CB
:1053DC00DAE70120002331E70055150000CC0C0062
:1053EC0000AA0A00EFFF00000048E80148E80100AD
:1053FC000024F40000127A005461510000093D00B1
:10540C0000D43000AAB0280080841E0040420F0057
:10541C0020A1070090D00300AA2A000098190000D0
:10542C0054150000002D00D0F6E0FDF727F9636A53
:10543C00002B1AD0012B35D0022B35D0032B35D0B5
:10544C00042B35D0052B35D0062B35D0072B35D07A
:10545C00082B35D0092B35D00A2B35D00B2B01D08E
:10546C00012103E08021490000E00121FBF754FDFC
:10547C0063685B08C0186168FBF74EFD03041B0CE6
:10548C0000206E491A00103A8A4200D9D3E02268F3
:10549C00D36001236A22A352023AA3520023E3668B
:1054AC002367F8BD0221E1E70421DFE70621DDE7F0
:1054BC000821DBE70A21D9E70C21D7E71021D5E732
:1054CC002021D3E74021D1E78021CFE7636A002B6D
:1054DC0019D0012B22D0022B22D0032B22D0042B4B
:1054EC0022D0052B22D0062B22D0072B22D0082B22
:1054FC0022D0092B22D00A2B22D00B2B01D0504BBF
:10550C0002E0504B00E04E4B62685008C01811008E
:10551C00FBF702FD03041B0C0020B2E74A4BF3E738
:10552C004A4BF1E74A4BEFE74A4BEDE74A4BEBE7C7
:10553C004A4BE9E74A4BE7E74A4BE5E74A4BE3E7D7
:10554C004A4BE1E7FCF770FF636A002B1AD0012B82
:10555C0025D0022B25D0032B25D0042B25D0052BB1
:10556C0025D0062B25D0072B25D0082B25D0092B91
:10557C0025D00A2B25D00B2B01D0012103E0802153
:10558C00490000E00121FBF7C7FC63685B08C01809
:10559C006168FBF7C1FC03041B0C002071E70221BE
:1055AC00F1E70421EFE70621EDE70821EBE70A21FB
:1055BC00E9E70C21E7E71021E5E72021E3E74021AB
:1055CC00E1E78021DFE7753301E080231B0262688D
:1055DC005008C0181100FBF79FFC03041B0C0020A3
:1055EC004FE78023DB01F2E780239B01EFE7204BA1
:1055FC00EDE780235B01EAE71E4BE8E71E4BE6E78D
:10560C0080231B01E3E78023DB00E0E780239B0082
:10561C00DDE780235B00DAE70120002331E701207E
:10562C0037E7002035E7012033E7012031E701207F
:10563C002FE701202DE701202BE7C046EFFF0000EC
:10564C000024F40024F4000000127A0000093D004C
:10565C00AAB0280080841E00006A18005558140057
:10566C0040420F0020A1070090D0030048E8010041
:10567C0055150000CC0C0000AA0A0000836ADB0759
:10568C0006D5026853682C490B40C16A0B43536022
:10569C00836A9B0706D50268536828490B40016B47
:1056AC000B435360836A5B0706D502685368244931
:1056BC000B40416B0B435360836A1B0706D5026892
:1056CC00536820490B40816B0B435360836ADB06A4
:1056DC0006D5026893681C490B40C16B0B43936061
:1056EC00836A9B0606D50268936818490B40016CC7
:1056FC000B439360836A5B060BD5026853681449AD
:10570C000B40416C0B43536080235B03426C9A4209
:10571C000AD0836A1B0606D5026853680D490B40F4
:10572C00C16C0B4353607047026853680A490B40C5
:10573C00816C0B435360ECE7FFFFFDFFFFFFFEFFA7
:10574C00FFFFFBFFFF7FFFFFFFEFFFFFFFDFFFFF11
:10575C00FFFFEFFFFFFFF7FFFFFF9FFFF0B5C64610
:10576C0000B506000C0017009846069D3368DB69EF
:10577C0023401B1B5A425341BB421ED16B1CF5D01C
:10578C00FDF7FAFB4346C01AA84201D8002DEDD113
:10579C00326813680B490B40136032689368A3316D
:1057AC00FF318B43936020238022B3500432B350DB
:1057BC005C330022F254032000E0002004BC90462D
:1057CC00F0BDC0465FFEFFFFF0B585B004000E00D3
:1057DC0017001D008023C358202B62D1002963D0F1
:1057EC00002A63D080235B0182689A421AD07C2302
:1057FC00E35C012B5CD07C230122E2540C330022AD
:10580C00E250083B2132E250FDF7B6FB03905423E3
:10581C00E7520233E75280235B01A2689A4208D018
:10582C00002716E00369002BE1D1CB07DFD501205F
:10583C0038E02369002B21D000270AE03B8822683E
:10584C00DB05DB0D936202375622A35A013B9BB258
:10585C00A3525623E35A9BB2002B12D00095039B04
:10586C00002280212000FFF779FF002822D1002E92
:10587C00E4D0327823689A620136E5E737000026D7
:10588C00E7E70095039B002240212000FFF766FF0D
:10589C00002811D180232022E250043B0022E25444
:1058AC0000E0022005B0F0BD0120FBE70120F9E784
:1058BC000220F7E70320F5E70320F3E730B583B0C8
:1058CC00040088230022C250FDF756FB0500236814
:1058DC001B681B070ED423681B685B0717D4202397
:1058EC008022A3500432A3505C330022E2540020E7
:1058FC0003B030BD80210C4B0093030000228903C0
:10590C002000FFF72BFF0028E5D00320F0E78021D3
:10591C00054B00932B000022C9032000FFF71EFF4C
:10592C000028DCD00320E3E7FFFFFF0110B5041EC5
:10593C0030D08023C358002B22D080232422E25065
:10594C002268136801218B4313602000FFF77AF85B
:10595C00012814D0A36A002B18D1226853680E4971
:10596C000B405360226893682A218B439360226812
:10597C00136829390B4313602000FFF79FFF10BDFC
:10598C007C330022C254FDF78DFBD6E72000FFF7D5
:10599C0075FEE2E70120F2E7FFB7FFFF70B584B0B8
:1059AC00040002A9154A130005CB05C16A4603CBB6
:1059BC0003C2636E002B1AD0226895686D0E072304
:1059CC001D409268520F134002AEF05CC0006A4654
:1059DC00D15CFBF72BFB6A23E052705DC0006B4679
:1059EC00595DFBF723FB6823E05204B070BD013313
:1059FC006A22A352023AA352F7E7C046446C00084D
:105A0C00704770477047000070B57C23C35C012B56
:105A1C0015D07C2401260655802524234351026889
:105A2C0013681168B1431160064A134000224266A4
:105A3C0001680B60202343510255002070BD0220E9
:105A4C00FCE7C046FFFFFFDFF8B504007C23C35C16
:105A5C00012B1BD07C250120605580262423A351CB
:105A6C0023681F681A6882431A6022689368DB00F7
:105A7C00DB08194391602000FFF790FF23681F603B
:105A8C002023A351002363550020F8BD0220FCE71E
:105A9C00F8B504007C23C35C012B1BD07C250120B2
:105AAC00605580262423A35123681F681A688243FB
:105ABC001A602268936808480340194391602000DB
:105ACC00FFF76CFF23681F602023A351002363554D
