:020000040800F2
:100000000090002015600008BD170008BF17000809
:1000100000000000000000000000000000000000E0
:10002000000000000000000000000000C1170008F0
:100030000000000000000000C3170008C5170008FA
:10004000656000086560000865600008CD1700085D
:10005000D51700086560000865600008D71700081C
:1000600065600008E1170008656000086560000829
:10007000656000086560000865600008656000084C
:1000800065600008F11700086560000865600008F9
:10009000656000086560000865600008656000082C
:1000A00065600008656000081518000865600008B4
:0C00B00025180008656000086560000865
:1000BC000448054B10B5834203D0044B002B00D0F1
:1000CC00984710BD70000020700000200000000058
:1000DC0006480749091A8910CB0F591810B5491051
:1000EC0003D0044B002B00D0984710BD70000020AB
:1000FC00700000200000000010B5074C2378002B86
:10010C0009D1FFF7D5FF054B002B02D0044800E0C6
:10011C0000BF0123237010BD700000200000000000
:10012C0068600008054B10B5002B03D00449054846
:10013C0000E000BFFFF7CCFF10BDC0460000000080
:10014C00740000206860000870B50D4E0D4DAD1B9D
:10015C00AD1006D00024A300F35801349847A542F3
:10016C00F9D105F07BFF084E084DAD1BAD1006D044
:10017C000024A300F35801349847A542F9D170BD6F
:10018C00D4630008D4630008D4630008D863000863
:10019C00F0B5830746D0541E002A42D0CEB20200DE
:1001AC00032502E01A00013C3BD3531C16702B4272
:1001BC00F8D1032C2DD9FF220A40150215432A042D
:1001CC0015430F2C16D92700103F3F093E01B446AA
:1001DC001E001A0010366644156055609560D56097
:1001EC001032B242F8D10F2201373F01DB19144013
:1001FC00032C0ED9261FB608B700BC461A001F1DCB
:10020C00674420C2BA42FCD103220136B6009B19C6
:10021C001440002C05D0C9B21C19197001339C4232
:10022C00FBD1F0BD14000300C3E7C0460CB400B50D
:10023C009DB00291069109491EAB079104910849A2
:10024C0004CB059102A9019300F064F90023029AF2
:10025C0013701DB008BC02B01847C046FFFFFF7FEB
:10026C000802FFFF0EB400B50B499CB00791049136
:10027C000A491DAB05910A4904CB02900690086807
:10028C0002A9019300F046F90023029A13701CB0E6
:10029C0008BC03B01847C046FFFFFF7F0802FFFFF2
:1002AC0000000020024670B50A4392072AD11E4D69
:1002BC00EE0104C808C9541B9443344017D0D0B283
:1002CC00D9B2401A2106014310D190B299B2401A0A
:1002DC00210401430AD110021902000A090A401A2A
:1002EC002102014302D1100E190E401A70BD9A4220
:1002FC00DFD010BA19BA884201D9012070BD002094
:10030C00C04370BD02780B7801300131002A09D04E
:10031C009A4207D102780B7801300131002A01D0C2
:10032C009A42EFD0D01A70BD01010101F0B54646DA
:10033C004F46D646C0B58E6881460C0090461D00CF
:10034C0008689E4227D890228B89D200134234D061
:10035C000969421A92466269681C5700BF18FA0F65
:10036C00D7197F1050443A00B84201D90700020057
:10037C005B0524D51100484600F012FD061E31D055
:10038C005246216900F024FCA3891B4A13408022A9
:10039C001343A38118E01E002A00414600F05CFCC8
:1003AC00A36800209E1B2368A6609C4665442560BC
:1003BC001CBC90469946A246F0BD3500ECE7484679
:1003CC0000F054FD061E09D03000534650446761BE
:1003DC00FF1A266120602E00A760DDE721694846E0
:1003EC0000F088FC0C234A46136040220120A389AC
:1003FC0040421343A381DBE77FFBFFFFF0B5574679
:10040C004E46DE464546E0B5936883B001900E003B
:10041C009246002B6CD0136808688D681F0044E06E
:10042C009022B389D20013422ED03169421A9346DE
:10043C00706942001218D00F8218601C5210584478
:10044C009046904201D9804602008020C0000342B1
:10045C0037D01100019800F0A3FC051E53D05A466A
:10046C00316900F0B5FBB389294A1340802213434C
:10047C00B381434628005A463561A04625005844AE
:10048C0073619B1A3060B3604246494600F0E4FB4E
:10049C00B3685D1B3368B560434433601800534642
:1004AC009B681C1B53469C6022D03B687C68994619
:1004BC000837A846002CF8D0AC42B1D22500A04693
:1004CC00E2E7019800F0D2FC051ED2D1019C316903
:1004DC00200000F00FFC0C2323604022B389012084
:1004EC001343B3815246002340429360536003E0B0
:1004FC00002352460020536003B03CBC9046994602
:10050C00A246AB46F0BD0C23019A1360E5E7C0464A
:10051C007FFBFFFFF0B5DE46454657464E46E0B53D
:10052C009FB003901D008B898B4614001B0603D5CE
:10053C000B69002B00D106E1002306AE736120335A
:10054C0073761033B3768A4B0595984601239946FA
:10055C002378002B00D189E02500252B03D117E04F
:10056C00252B00D1C5E001352B78002BF8D12F1BA2
:10057C007CD03B00220059460398FFF7D7FE431C62
:10058C0074D073699C462B7867447761002B6DD0CF
:10059C00012200235242726044326C1C3360F360BF
:1005AC00B360B354B36507E04346C01A4B4683406F
:1005BC002C0032681343336021780522404600F04A
:1005CC00C7FA651C2F000028EED13368DA0602D575
:1005DC0043222021B1541A0702D543222B21B154B6
:1005EC0021782A294FD00A00303A2700092A0FD83F
:1005FC00F06801E02C00013583001B1829785B00A2
:10060C0098180A00303A2F00092AF3D9A51CF0607B
:10061C002E2943D0574C0322200000F099FA0028D1
:10062C0053D04023001B834032682978134352482F
:10063C00062233606C1C317600F08AFA00284ED00A
:10064C004E4B002B59D005AB00935A464C4B310006
:10065C00039800E000BF82465346013306D073690D
:10066C00534473612378002B00D075E75B469B895C
:10067C005B0600D573E070691FB03CBC9046994690
:10068C00A246AB46F0BD059A111D12680591002AD1
:10069C003ADBF2606178A51C2E29BBD179782A2926
:1006AC0038D1059BB9781A1D1B68FD1C0592736027
:1006BC000237002BAEDA01232E4C5B4203222000C2
:1006CC00736000F045FA0028ABD12C003D0029786E
:1006DC0006222948317600F03BFA0028B0D105AB50
:1006EC0000935A46264B3100039800F0DFF88246FF
:1006FC00B2E72F1B00D14BE73BE70722059B0733E3
:10070C00934308330593AAE75242F2600222134343
:10071C003360BFE70A000023303A73600020092AD7
:10072C0001D90DE03D0083001B1869785B00981817
:10073C000A00303A6F1C092AF4D90235706069E757
:10074C002F00013566E7402100F02AFB5B4618605C
:10075C001861002806D040235A465361ECE601206C
:10076C00404289E70C23039A0138136084E7C046A2
:10077C0090630008986300089C6300080000000068
:10078C0039030008F0B54F464646D646C0B51F00A3
:10079C00089B914698468A680B6906000C009342A8
:1007AC0000DA13004A4613604322A25C002A02D0EE
:1007BC004A460133136023689A0660D54B461B6882
:1007CC0006209A1C4B461A602368190018421FD148
:1007DC00E16800258A1A19218A461900A244002AC8
:1007EC0007DC15E04B46E2681B680135D31AAB42B7
:1007FC000DDD0123524639003000C047431CF1D1B6
:10080C00012040421CBC90469946A246F0BD21688E
:10081C004323E35C5A1E93418A060AD53020E11823
:10082C004331087045215A1C615CA21843320233D3
:10083C0011702200390043323000C047431CDFD016
:10084C00E36821689C464B461D680623A268206914
:10085C000B40042B19D0824221DD00239946121A39
:10086C0091441A34002502E001354D4517D001237F
:10087C00220039003000C047431CF5D1C0E70622E6
:10088C001A420ED14A461268A2E76346591BCB4363
:10089C00DB170B4099468242E1DC0029E1DC0020A9
:1008AC00B0E74323E35C5A1E9341C2E7F0B54546DB
:1008BC009846432357464E46DE469A46E0B50B7E95
:1008CC0085B0170006000C000E9A8A446E2B52D08D
:1008DC000FD8632B00D1E3E000D9CAE0002B58D02D
:1008EC00582B00D0F9E045216354974923688B4677
:1008FC0013E0732B00D1E1E000D985E06F2B00D120
:10090C00F2E0702B00D0E8E0202309680B43236051
:10091C004521782060548D498B4611680D1D08685F
:10092C001560190603D4590601D50004000CDA072A
:10093C0002D5202213432360002800D075E0202329
:10094C0022689A43226013004322A0546268A2607A
:10095C00002A00DA84E004218B432360102399469B
:10096C00002A00D07EE055464B46082B52D0534609
:10097C005B1B236110E0636909689C4613681D1DAD
:10098C0015601B686246080602D4490600D5C1E012
:10099C001A60002355462361434603AA00932100A5
:1009AC003B003000FFF7EEFE431C20D023692A00E9
:1009BC0039003000C047431C19D022680398E36803
:1009CC0092071DD51A1A002A1ADD192399460025FB
:1009DC00A14405E0E368039801351A1AAA420FDD19
:1009EC0001234A4639003000C047431CF2D1012094
:1009FC00404205B03CBC90469946A246AB46F0BD81
:100A0C009842F6DA1800F4E7752B6DD0782B64D188
:100A1C000B687DE72368DB07A9D5636822699342DD
:100A2C00A5DC3023013D2B70A1E71023994643230D
:100A3C000022E2546268A260002A2EDB21680423A3
:100A4C0099432160002800D18AE75546494600F0B9
:100A5C00E9FA5B465B5C013D2B700028F6D183E71D
:100A6C00102399465B4625001A7842234235E254FE
:100A7C007AE7642B01D0692B2FD113682168181DDC
:100A8C0010600D0601D44D0646D41868002846DBCC
:100A9C002D4B9B460A239946CCE70028D5D1E1E79C
:100AAC0013682500191D11601A684223E254413B5A
:100ABC004235236143230022E2546DE71368191D6C
:100ACC0011601D6862680021280000F041F80028C0
:100ADC0037D0401B60602061ECE742222500A35414
:100AEC00012342352361E5E710682168051DAC46FA
:100AFC000D0601D4490609D46146116000686F2BBC
:100B0C001AD0114B9B460A23994690E76146008800
:100B1C001160F4E71A803CE70020185EB6E7432327
:100B2C002D22E254084B62689B460A234042A26085
:100B3C009946002A83DA88E7034B9B46082399469B
:100B4C0075E760682061B5E7A4630008B863000826
:100B5C0070B5CCB2830734D0531E002A1BD0027858
:100B6C00A24219D0032504E0013B14D30278A2421F
:100B7C0012D001302842F7D1032B0ED8002B0AD00B
:100B8C000278A24208D0C31802E00278A24203D035
:100B9C0001308342F9D1002070BDFF220D062D0CCF
:100BAC00114029430D04084E0D43026807496A4061
:100BBC00511891433142E3D1043B0430032BF4D858
:100BCC00DCE71300D8E7C04680808080FFFEFEFE85
:100BDC00F0B50F2A38D90D0005430C000300AD0702
:100BEC0036D110271500BC46103D2D092E013618A4
:100BFC00B444276866681F605E60A768E6689F60FB
:100C0C00DE60103310346345F3D10F2401352D0110
:100C1C00491914404519032C1CD90023CE58EE5009
:100C2C000433E61A032EF9D80323043CA408013438
:100C3C00A4002D1909191A4005D00023CC5CEC54E2
:100C4C0001339342FAD1F0BD0500002AF5D1FAE741
:100C5C000500F2E72200F8E7F0B588420AD98B18B4
:100C6C00984207D2531E002A03D0CA5CC254013BDF
:100C7C00FBD2F0BD0F2A09D80500002AF9D00023B9
:100C8C00CC5CEC5401339342FAD1F2E70D000543EE
:100C9C000C000300AD0729D11500103D2D092F01C3
:100CAC003F18103726681E6066685E60A6689E60F6
:100CBC00E6681034DE601033BB42F3D10F240135EB
:100CCC002D01491914404519032C11D90023CE5874
:100CDC00EE500433E61A032EF9D80323043CA4087F
:100CEC000134A4002D1909191A40C6E70500C6E7FE
:100CFC002200C2E770B50500002915D00C1F23682F
:100D0C00002B27DB280000F0EBF8244B1A68002A94
:100D1C0005D0A2420CD92168601882421CD06260B6
:100D2C0028001C6000F0DEF870BDA34203D81A0046
:100D3C005368002BF9D111685018A04219D012D861
:100D4C0021686018834221D063605460280000F051
:100D5C00C9F8E9E7E418D5E710685268844661449D
:100D6C0021606260DCE70C2328002B6000F0BAF8ED
:100D7C00DAE720680918501811608342E6D1186828
:100D8C005B688446614411605360DFE718685B68F8
:100D9C0084466144216063605460D7E78C00002076
:100DAC00F8B50323CD1C9D43083506000C2D2AD223
:100DBC000C25A94229D8300000F092F82A4F3A6845
:100DCC00002A0AD013685B1B04D440E023685B1B29
:100DDC001FD522005468002CF8D17B68002B3DD025
:100DEC002900300000F06AF8431C29D00323C41CEE
:100DFC009C43A04205D0211A300000F05FF8431C40
:100E0C001ED025600AE0002DD3DA0C2300203360BD
:100E1C00F8BD0B2B0FD92360E4182560300000F0CF
:100E2C0061F8200007220B30231D9043C31AEFD02A
:100E3C005A42E250ECE7A2420DD063685360EDE7F2
:100E4C000C233000336000F04DF80020E0E7140074
:100E5C000B2BE0D854683C601400DFE70021300015
:100E6C0000F02CF87860BBE78C000020F8B5070088
:100E7C000C001500002917D0002A1AD000F034F805
:100E8C002600A84201D33000F8BD29003800FFF736
:100E9C0087FF061EF7D021002A00FFF799FE2100DC
:100EAC003800FFF727FFEEE71100FFF779FF060088
:100EBC00E9E7FFF71FFF0026E5E7C046002370B502
:100ECC00064C05000800236000F018F8431C00D005
:100EDC0070BD2368002BFBD02B60F9E76C0700205A
:100EEC007047C0467047C0460B1F1B68181F002B6D
:100EFC0000DB70470B58C018FBE7C046044A136868
:100F0C00002B00D1034B1818106018007047C04616
:100F1C009400002070070020002243088B4274D3F9
:100F2C0003098B425FD3030A8B4244D3030B8B42DE
:100F3C0028D3030C8B420DD3FF22090212BA030CE7
:100F4C008B4202D31212090265D0030B8B4219D3C8
:100F5C0000E0090AC30B8B4201D3CB03C01A5241E8
:100F6C00830B8B4201D38B03C01A5241430B8B4230
:100F7C0001D34B03C01A5241030B8B4201D30B0319
:100F8C00C01A5241C30A8B4201D3CB02C01A524140
:100F9C00830A8B4201D38B02C01A5241430A8B4203
:100FAC0001D34B02C01A5241030A8B4201D30B02EC
:100FBC00C01A5241CDD2C3098B4201D3CB01C01A06
:100FCC00524183098B4201D38B01C01A5241430910
:100FDC008B4201D34B01C01A524103098B4201D3FE
:100FEC000B01C01A5241C3088B4201D3CB00C01A6B
:100FFC00524183088B4201D38B00C01A52414308E3
:10100C008B4201D34B00C01A5241411A00D2014607
:10101C00524110467047FFE701B5002000F0F0F890
:10102C0002BDC0460029F7D076E7704703460B4354
:10103C007FD4002243088B4274D303098B425FD3C5
:10104C00030A8B4244D3030B8B4228D3030C8B42F1
:10105C000DD3FF22090212BA030C8B4202D31212D7
:10106C00090265D0030B8B4219D300E0090AC30BAC
:10107C008B4201D3CB03C01A5241830B8B4201D359
:10108C008B03C01A5241430B8B4201D34B03C01A42
:10109C005241030B8B4201D30B03C01A5241C30ABA
:1010AC008B4201D3CB02C01A5241830A8B4201D32B
:1010BC008B02C01A5241430A8B4201D34B02C01A15
:1010CC005241030A8B4201D30B02C01A5241CDD2BA
:1010DC00C3098B4201D3CB01C01A524183098B4205
:1010EC0001D38B01C01A524143098B4201D34B01EE
:1010FC00C01A524103098B4201D30B01C01A524151
:10110C00C3088B4201D3CB00C01A524183088B42D7
:10111C0001D38B00C01A524143088B4201D34B00C0
:10112C00C01A5241411A00D2014652411046704732
:10113C005DE0CA0F00D04942031000D34042534037
:10114C0000229C4603098B422DD3030A8B4212D3F7
:10115C00FC22890112BA030A8B420CD38901921129
:10116C008B4208D3890192118B4204D389013AD066
:10117C00921100E08909C3098B4201D3CB01C01A3B
:10118C00524183098B4201D38B01C01A524143094E
:10119C008B4201D34B01C01A524103098B4201D33C
:1011AC000B01C01A5241C3088B4201D3CB00C01AA9
:1011BC00524183088B4201D38B00C01A5241D9D2C1
:1011CC0043088B4201D34B00C01A5241411A00D242
:1011DC000146634652415B10104601D34042002B3E
:1011EC0000D54942704763465B1000D3404201B5BD
:1011FC00002000F005F802BD0029F8D016E7704772
:10120C007047C046002B11D1002A0FD1002900D104
:10121C00002802D00021C943081C07B4024802A1CF
:10122C004018029003BDC046D9FFFFFF03B46846C7
:10123C0001B5029800F030F8019B9E4602B00CBC40
:10124C007047C046F0B5CE46474615042D0C2E000F
:10125C0080B50704140C3F0C9946030C7E435D4388
:10126C00674363437F19340CE4199C46A54203D9A8
:10127C0080235B029846C4444B4643435143250CA0
:10128C0036046544360C2404A4195B195918200043
:10129C000CBC90469946F0BDF0B54F464646D64636
:1012AC00C0B5040082B00D00914698468B422FD8F1
:1012BC002CD04146484600F0B1F829000600200029
:1012CC0000F0ACF8331A9C46203B9A4600D576E0E9
:1012DC004B46524693401F004B46624693401E00BD
:1012EC00AF4228D825D05346A41BBD41002B00DAB1
:1012FC007BE000220023009201930123524693408D
:10130C000193012362469340009318E08242D0D9A6
:10131C0000220023009201930A9B002B01D01C6039
:10132C005D600098019902B01CBC90469946A2469B
:10133C00F0BDA342D7D9002200230092019363464B
:10134C00002BE9D0FB079846414672080A437B08FC
:10135C0066460EE0AB4201D1A2420CD8A41A9D41C4
:10136C00012024196D410021013E24184D41002E0D
:10137C0006D0AB42EED9013E24196D41002EF8D1B6
:10138C0000980199534600196941002B23DB2B006F
:10139C005246D3402A006446E2401C0053461500D6
:1013AC00002B2DDB26005746BE4033002600674637
:1013BC00BE403200801A994100900191ACE7624620
:1013CC0020239B1A4A46DA406146130042468A4063
:1013DC0017001F4380E7624620239B1A2A006646AB
:1013EC009A402300F3401343D4E7624620230021A4
:1013FC009B1A0022009101920122DA40019280E7AF
:10140C002023624626009B1ADE402F00B04666461B
:10141C00B74046463B003343C8E7C04610B50029E9
:10142C0003D100F007F8203002E0081C00F002F8AD
:10143C0010BDC0461C2101231B04984201D3000C93
:10144C0010391B0A984201D3000A08391B0998422B
:10145C0001D30009043902A2105C40187047C04641
:10146C000403020201010101000000000000000061
:10147C0010B5002408E0A0200121C00500F05AFBA3
:10148C00642001F085FB0134092CF4DDA02000223E
:10149C000121C00500F048FB10BD000000B5A1B053
:1014AC003822002112A8FEF773FE102200210EA88C
:1014BC00FEF76EFE3422002101A8FEF769FE8020A3
:1014CC00800001F081FA0A231293F633159300235E
:1014DC001693402217923F3A1892013219921A929F
:1014EC001B9308331C9380239B021D9380239B0426
:1014FC001E9380239B051F9312A800F03BFB002832
:10150C001AD107230E93053B0F93002310931193CD
:10151C0002210EA800F0EAFD002810D10B4B01931C
:10152C00002303938023DB02079301A800F0BEFE87
:10153C00002807D121B000BDFFF79AFFE1E7FFF7C4
:10154C0097FFEBE7FFF794FFF4E7C04602020000B9
:10155C0030B59BB001F0F6FAFFF7A0FF00F07EF873
:10156C0004F03AFD01F02EFB01F06AFB03F0DAFC0B
:10157C0003F0AEFC304C200001F042FBFA212000BD
:10158C0002F0D4F92D4803F0F5FC2D4803F0F2FCE1
:10159C0001AC4A2200211E206844FEF7F9FD2949BE
:1015AC0023000A0023CA23C323CA23C312881A8028
:1015BC00FA23254D9B0019222100280003F0ECFA98
:1015CC0003F0CCFE03F0A0FE40222049280002F0DC
:1015DC0063FA03F001FF002001F088FA00220121D8
:1015EC00072001F01BFA00220221092001F016FA53
:1015FC0000220221112001F011FA002202211A20EE
:10160C0001F00CFA002202211C2001F007FA10480C
:10161C0003F002FF03F010FE03E00E4B5B7A002B8D
:10162C0007D10C4A0C4BD35C002BF6D001F040FCDC
:10163C00F3E701F081FFF4E784050020A406002005
:10164C00080700208C6000081806002028050020E0
:10165C00FAFF1600980000208F040000F0B5DE465B
:10166C0057464E464546E0B58BB01422002105A8DE
:10167C00FEF78EFD474B5A6B042422435A635A6B78
:10168C0022400192019A596B202211435963596BE4
:10169C000A400292029A5A6B01252A435A635A6BEA
:1016AC002A400392039A5A6B022188460A435A63D2
:1016BC005B6B0B400493049B374B9A46A026F605B4
:1016CC0000221900300000F02FFA344F00220121C3
:1016DC00380000F029FA324B9946002240211800BC
:1016EC0000F022FA059403239B46069300240794EA
:1016FC0005A92C4800F0CCF85346059306950794A1
:10170C00089405A9300000F0C3F8274B05935B46FD
:10171C000693079405A9300000F0BAF840239A46C6
:10172C0005930694079405A9300000F0B1F80595CF
:10173C0006950794089405A9380000F0A9F84346CB
:10174C0005935B460693079405A9380000F0A0F8B2
:10175C005346059306950794089405A9484600F04E
:10176C0097F880231B010593104B0693079405A94A
:10177C00300000F08DF800220221072001F04EF914
:10178C00072001F07BF90BB03CBC90469946A24671
:10179C00AB46F0BD001002408380000000040050F6
:1017AC00000800500014005030110000000011100F
:1017BC007047FEE77047704710B501F0D7F910BDC0
:1017CC0010B500F099FE10BD704710B5402000F028
:1017DC00B9F910BD10B5024801F08EF810BDC04625
:1017EC00BC05002010B5064A136801331360A02015
:1017FC000221C00500F09EF9024802F0CCF810BDA1
:10180C00980000208405002010B5024804F048FB25
:10181C0010BDC046A406002010B5044C200002F0F8
:10182C0051FA200001F030FB10BDC0461806002014
:10183C0010B5402800D010BD03F0FEFCFBE7000003
:10184C0000B583B0114B196C012211431964196C4A
:10185C000A400092009ADA6B802149050A43DA6348
:10186C00DB6B0B400193019B00220021032001F054
:10187C00D5F8032001F002F900220021042001F028
:10188C00CDF8042001F0FAF803B000BD00100240BE
:10189C00F0B5D6464F464646C0B500233BE003267E
:1018AC0000E00026A64034003C435A4E1832920009
:1018BC0094518022B4584A46D24326004D46AE433A
:1018CC004D68ED0302D54D462C432600514C802724
:1018DC00E6518426A459260016404D68AD0302D566
:1018EC004D462C4326004B4C8427E6512468260099
:1018FC0016404D68ED0202D54D462C432600454C52
:10190C002660646822404D68AD0201D54A462243E8
:10191C00404C626001330C682200DA4075D0012221
:10192C009A4025001540A9461442F3D04C68022C6D
:10193C0001D0122C0ED1DC080834A400275807263D
:10194C001E40B6000F25B540AF430D69B5402E00C3
:10195C003E4326500468A4465E000324A24627009A
:10196C00B740B846FF4365464446A543AC464C6871
:10197C00554625402C00B44065462C4304604C6809
:10198C00651E012D03D9112C01D0122C13D18468A2
:10199C003C40A446CC68B44065462C438460446803
:1019AC00944322004C682409A446012465462C402B
:1019BC009C4014434460C26817408A68B2403A4362
:1019CC00C2604A68D200A5D59A0814001834A40045
:1019DC00104EA75903241C40E4000F26A640B74321
:1019EC00A026F605B04200D15BE70B4EB04208D002
:1019FC000A4EB04207D00A4EB04200D14FE705263E
:101A0C0050E701264EE702264CE71CBC904699464F
:101A1C00A246F0BD0018024000040050000800501F
:101A2C00000C0050F0B5CE46474680B589460023E1
:101A3C0023E00321884601E0002188464146A1406D
:101A4C00A94247D004685E000325B5402C430460CE
:101A5C00DC080834A400275807261E40B6000F21C6
:101A6C00B1408F4327508468AC43846044689443EE
:101A7C004460C268AA43C26001334A46DA4046D089
:101A8C0001229A404C461440A44649461142F3D0D8
:101A9C009F083C001834A4001F4D655903241C40BA
:101AAC00E4000F26A6403540A021C9058842C3D0CA
:101ABC001A49884208D01A49884208D019498842E4
:101ACC00B7D005218846B9E701218846B6E702213F
:101ADC008846B3E7104D802188466C5861468C438C
:101AEC0041466C50043188466C5861468C434146E3
:101AFC006C502C6861468C432C606C688C436C6019
:101B0C003C001834A4006759B74367519AE70CBCE2
:101B1C0090469946F0BDC0460018024000040050A3
:101B2C0000080050000C0050002A01D08161704761
:101B3C008162FCE74369194201D08162704781617F
:101B4C00FCE7704710B50400094BDB68184204D160
:101B5C00074B1B69234205D110BD054BD860FFF71D
:101B6C00F0FFF5E7024B1C612000FFF761FEF3E785
:101B7C000018024070B582B0041E00D134E2036834
:101B8C00DB0739D5C14A916838230B40D168032251
:101B9C000A40102B26D0082B26D0636880225202D4
:101BAC0093427FD0A022D202934200D181E0B74B66
:101BBC001A68B7490A401A601A68B6490A401A608E
:101BCC006368002B00D180E000F0DCFF0500AF4B18
:101BDC001B689B0310D400F0D5FF401B6428F6D97A
:101BEC00032002E2032AD6D1A84B1B689B0303D522
:101BFC006368002B00D1FAE123689B0731D5A34A17
:101C0C00936838210B40D16803220A40102B6AD00C
:101C1C00002B6BD19D4A1268520503D5E268002A4D
:101C2C0000D1E6E1994842689B490A406169090282
:101C3C000A434260002B0DD1036898490B4021697F
:101C4C000B4303600368DB0A07221A40944BD34012
:101C5C00944A1360944B186800F048FF002800D099
:101C6C00C9E123681B0700D481E0884B9A683823AC
:101C7C001340182B73D0A369002B00D1B4E0834A16
:101C8C00136E01210B43136600F07CFF05007F4BA4
:101C9C001B6E9B076BD400F075FF401B0228F6D916
:101CAC000320A2E1794A116880235B020B43136085
:101CBC0086E7764B19688022D2020A431A601968AB
:101CCC00802252020A431A607AE700F05BFF05009B
:101CDC006E4B1B689B038FD500F054FF401B642890
:101CEC00F6D9032081E1022A92D193E7E368002B15
:101CFC0022D0664A136869490B4021690B43136073
:101D0C00116880235B000B43136000F03BFF050060
:101D1C005E4B1B685B0506D400F034FF401B0228A9
:101D2C00F6D9032061E159494B685B4A134062695B
:101D3C00120213434B6094E7544A13685B490B40FF
:101D4C00136000F01FFF0500504B1B685B0588D526
:101D5C0000F018FF401B0228F6D9032045E14B4B3D
:101D6C001B6E9B0703D5A369002B00D145E12368AB
:101D7C005B0700D4A2E0454B9A6838231340202B14
:101D8C0045D0424BDB6BDB004AD4404AD16B802000
:101D9C0040050143D163D36B03400193019B0125A3
:101DAC00434B1B68DB053DD5A368012B4ED0052B9F
:101DBC0052D0364BDA6D01218A43DA65DA6D033184
:101DCC008A43DA65A368002B50D000F0DBFE0600D6
:101DDC002E4BDB6D9B076FD400F0D4FE801B354B74
:101DEC009842F5D9032000E1284A136E01218B4358
:101DFC00136600F0C7FE0500244B1B6E9B07B6D57F
:101E0C0000F0C0FE401B0228F6D90320EDE01F4B6A
:101E1C00DB6D9B0752D5A368002B4FD10120E4E06A
:101E2C000025BDE7224A116880235B000B43136039
:101E3C0000F0A8FE06001E4B1B68DB05B4D400F0B6
:101E4C00A1FE801B0228F6D90320CEE00F4AD36DE9
:101E5C0001210B43D365B5E70C4BDA6D04210A4322
:101E6C00DA65DA6D03390A43DA65ABE700F08AFE0E
:101E7C000600064BDB6D9B071ED500F083FE801B16
:101E8C000C4B9842F5D90320AFE0C046001002403D
:101E9C00FFFFFEFFFFFFFBFFFF80FFFFFFC7FFFF02
:101EAC000024F4006C00002068000020FFFEFFFFFF
:101EBC000070004010270000012D26D0E369002B94
:101ECC0000D19CE0564A916838220A40102A63D00F
:101EDC00022B20D0524B1A6852490A401A60DA6819
:101EEC0003218A43DA60DA684F490A40DA6000F06D
:101EFC0049FE04004A4B1B689B014BD500F042FE87
:101F0C00001B0228F6D903206FE0454AD36B4749E2
:101F1C000B40D363D2E7424A136842490B4013602B
:101F2C0000F030FE05003E4B1B689B0106D500F00F
:101F3C0029FE401B0228F6D9032056E0384AD36804
:101F4C003B491940236A606A0343A06A00020343B9
:101F5C00E06A0343206B0343606B03430B43D36082
:101F6C00116880235B040B431360D16880235B05ED
:101F7C000B43D36000F006FE0400294B1B689B0149
:101F8C0006D400F0FFFD001B0228F6D903202CE03C
:101F9C0000202AE0002028E0012B32D0204BDA6808
:101FAC0003231340216A8B422DD170231340616AA5
:101FBC008B422AD1FE21C9011140A36A1B0299420E
:101FCC0025D1F8239B031340E16A8B4221D1E023F6
:101FDC001B051340216B8B421DD1520F5207636BB3
:101FEC009A421AD1002000E0012002B070BD0120FD
:101FFC00FBE70120F9E70120F7E70120F5E70020D6
:10200C00F3E70120F1E70120EFE70120EDE70120E4
:10201C00EBE70120E9E70120E7E70120E5E7C0460F
:10202C0000100240FFFFFFFEFFFFFEEEFFFFFFEF81
:10203C008C80C11110B52A4B9B6838221A4207D1EB
:10204C00274B1A68D20A072313402648D84010BDE4
:10205C00234B9A6838231340082B3BD0204B9A68AB
:10206C0038231340102B0DD01D4B9A683823134086
:10207C00202B31D01A4B9A6838231340182B26D0BA
:10208C000020E4E7164AD1680D3B0B40D2681209D8
:10209C00072111400131032B0FD01248FEF73CFFF2
:1020AC000F4BDA68120A7F23134058430C4BD96844
:1020BC00490F0131FEF730FFC9E70B48FEF72CFF43
:1020CC00074BDA68120A7F2313405843EEE7FA20D5
:1020DC00C001BCE70448BAE780200002B7E7C0465D
:1020EC00001002400024F40000127A0070B50400C5
:1020FC000D00002800D1AAE0574B1A6807231340A3
:10210C008B4221D323689A070ED55B0705D5534A1A
:10211C009168E023DB010B439360504A936850496C
:10212C000B40A1680B4393602368DB0754D56368AD
:10213C00012B20D0022B3BD0002B3FD1474A1268F9
:10214C0052051CD401206AE0434A136807218B43D3
:10215C002B43136000F016FD06003F4B1A68072353
:10216C001340AB42CED000F00DFD801B3D4A904297
:10217C00F3D9032053E0394A1268920369D53749E1
:10218C008A680720824313438B6000F0FBFC060037
:10219C00324B9B6838221A406368DB009A421BD092
:1021AC0000F0F0FC801B2F4B9842F1D9032036E055
:1021BC002A4A12689201E2D4012030E0032B05D0A8
:1021CC00264AD26D9207DAD4012028E0234A126EF7
:1021DC009207D4D4012022E01F4B1A680723134026
:1021EC00AB421DD823685B0706D51C4A93681E4971
:1021FC000B40E1680B439360FFF71CFF174B9A6889
:10220C00120A0F2313409B00184A9A581F2313409D
:10221C00D840174B1860174B186800F067FC70BD5E
:10222C000D4A136807218B432B43136000F0AAFC63
:10223C000600094B1A6807231340AB42D2D000F0BA
:10224C00A1FC801B074B9842F3D90320E7E7012040
:10225C00E5E70120E3E7C046002002400010024001
:10226C00FFF0FFFF88130000FF8FFFFFA86000083E
:10227C006C00002068000020014B18687047C046B5
:10228C006C00002010B5FFF7F7FF064B9A68120B95
:10229C00072313409B00044A9A581F231340D8402D
:1022AC0010BDC04600100240E8600008F0B583B0D5
:1022BC00040003689B0362D5814BDB6BDB001ED4EF
:1022CC007F4AD16B802040050143D163D36B03401F
:1022DC000193019B01267B4A116880235B000B4311
:1022EC00136000F04FFC0500764B1B68DB0508D42F
:1022FC0000F048FC401B0228F6D9032502E000261A
:10230C00E9E70025002D23D16D4BD96DC022920039
:10231C000B001340114210D0226B9A420DD0684A28
:10232C00D36D69490B40D06D802149020143D165C1
:10233C00D16D66480140D165D365DB0710D4002D03
:10234C0006D15F4AD36D60490B40216B0B43D365BB
:10235C00012E15D15A4AD36B5D490B40D3630FE064
:10236C0000F010FC0700564BDB6D9B07E7D400F028
:10237C0009FCC01B574B9842F5D90325DFE7002514
:10238C002368DB0706D54E4A536D03218B436168E6
:10239C000B43536523689B0706D5494A536D0C21A3
:1023AC008B43A1680B43536523689B0606D5444AAF
:1023BC00536D49490B40E1680B43536523689B05FA
:1023CC0006D53F4A536D45490B40A1690B435365F4
:1023DC0023685B0506D53A4A536D41490B40E169C8
:1023EC000B43536523685B0606D5354A536D3D494F
:1023FC000B4021690B43536523685B040BD5304AB2
:10240C00536D9B009B08216A0B4353658023DB05AE
:10241C00226A9A4239D023681B0306D5284A536D89
:10242C0040218B43616A0B43536523689B020BD598
:10243C00234A536D2C490B40A16A0B4353658023EF
:10244C00DB03A26A9A4227D023685B020BD51C4A95
:10245C00536D26490B40E16A0B43536580235B04A3
:10246C00E26A9A421FD023681B050BD5144A536DA0
:10247C001F490B4061690B43536562698023DB0183
:10248C009A4215D0280003B0F0BD0D4AD1688023C4
:10249C005B020B43D360BEE7094AD16880235B041F
:1024AC000B43D360D0E7064AD1680B43D360DAE71D
:1024BC00034AD16880235B020B43D360E2E7C0463A
:1024CC000010024000700040FFFCFFFFFFFFFEFF0A
:1024DC00FFFFFFEF10270000FFF3FFFFFFFFF3FFED
:1024EC00FFFFCFFFFFCFFFFFFFFFBFFFFFFFFFFE91
:1024FC00FF3FFFFF7047704710B5344A13693449EA
:10250C00194093698020C00503400B435169314841
:10251C00806881435161304A10423DD02D4AD468C5
:10252C00002B17D02B494A681A434A609A0F91071F
:10253C00002A03D0254A9069014391619B009A08B7
:10254C00002B01D0214B1A61224B00229A602000F3
:10255C00FFF7D1FF1D4B1B69DB070CD51B4B012271
:10256C001A611C4B9B68022B1FD01A4B00229A60DD
:10257C002000FFF7BFFF174B9B68002B0BD1134BB1
:10258C009A6916490A409A615A6915490A405A6172
:10259C00104B00221A7010BD0622024202D00D4AC6
:1025AC001469BDE701246442BAE70A4A5369013B46
:1025BC005361002B03D1074B00229A60D8E713001C
:1025CC001269501C186100F00DF8D1E70020024090
:1025DC00FAC300006805002001000400FFFFFFFEA5
:1025EC00FFFFFFFC044A536904490B40C000184329
:1025FC00034B1843506170470020024007FEFFFF59
:10260C0002000100F0B5846CC56C6560046D002C93
:10261C0002D0446D856D65600B4F7C681C26056C83
:10262C002E400125B5402C437C60046863608368B0
:10263C00102B04D0036899600368DA60F0BD03685E
:10264C009A600368D960F9E70000024010B50400F5
:10265C00FF202368184008381421FEF75DFC236C1A
:10266C009B08064A944663449B006364044BA36432
:10267C001C2318401B3B8340E36410BD00820010F8
:10268C0080080240FF2342681340064A9A189200C1
:10269C000265054A4265013B03221A40012393401F
:1026AC00836570473F8200104009024070B5041EDC
:1026BC004DD00568274BE8181421FEF72DFC80003F
:1026CC00206425230222E2542B68234A13402B60FA
:1026DC0021680A68A368E0680343206903436069C2
:1026EC000343A0690343E0690343206A0343134394
:1026FC000B602000FFF7AAFF8023DB01A2689A423F
:10270C0018D0626CFF2361680B401360A36CE26C01
:10271C005A606368013B032B0FD900232365636563
:10272C00A3650023E36325220121A154013AA3549C
:10273C00002070BD00236360E3E72000FFF7A2FFD9
:10274C00236D00221A60636DA26D5A60E9E70120C7
:10275C00EFE7C046F8FFFDBF0F80FFFF70B5040028
:10276C002420205C012843D024200125255401304D
:10277C00205C012804D0022024230022E25470BDE6
:10278C002430013525540020E06325682868012693
:10279C00B04328602000FFF735FF236B002B1CD0C3
:1027AC00226813680E210B431360636C1A68D20302
:1027BC0004D51968802252000A431A60236D002B3D
:1027CC0004D01968802252000A431A6022681368E8
:1027DC0001210B4313600020CEE72268136804210B
:1027EC008B4313602268136806310B431360DCE7DC
:1027FC000220C4E730B5002836D02523C35C022B59
:10280C0006D00423C36320330022C254012030BD00
:10281C00026813680E218B431360426C13681349D2
:10282C000B40136001680A6801239A430A60104C3C
:10283C0062681C21056C29408B4013436360836CD8
:10284C00C26C5A60036D002B06D01A6807490A4007
:10285C001A60436D826D5A6025230122C254013BDC
:10286C000022C2540020D2E70120D0E7FFFEFFFF78
:10287C000000024070B524230122C2540133C35C12
:10288C00022B03D00423C363012070BD02681368BC
:10289C000E218B43136001680A6801239A430A6076
:1028AC00416C0A68124C22400A60124C62681C216E
:1028BC00056C29408B4013436360836CC26C5A6077
:1028CC00036D002B06D01A6809490A401A60436D43
:1028DC00826D5A6025230122C254013B0022C2544E
:1028EC00836B002B02D098470020CEE70020CCE76A
:1028FC00FFFEFFFF0000024070B5314B1968046801
:10290C0025681C23026C134004229A40114216D0F5
:10291C006A0714D523689B0603D4236804229343C7
:10292C002360274C63681C21026C114004228A40EE
:10293C0013436360036B002B00D0984770BD0222D9
:10294C009A4011421CD0AA071AD523689B0606D4BC
:10295C0023680A22934323602523093AC254184C56
:10296C0063681C21026C114002228A40134363608D
:10297C0024230022C254C36A002BDFD09847DDE722
:10298C0008229A401142D9D02B07D7D523680E22A2
:10299C00934323600A4C62681C21036C1940012389
:1029AC001D008D402A436260C36325228354233368
:1029BC000022C254436B002BC0D09847BEE7C046E0
:1029CC0000000240C06B704710B5104A13681049E4
:1029DC000B400343136080239B00984201D00020DE
:1029EC0010BD0C4B1B685800C01840000A49FEF77C
:1029FC0093FA0130054B5B695B0503D5002803D0C6
:102A0C000138F7E70020EBE70320E9E7007000400E
:102A1C00FFF9FFFF6C00002040420F0070B500284A
:102A2C0011DB8308134EC0339B009D5903242040B7
:102A3C00C000FF2214008440A54389010A40824053
:102A4C002A439A5170BD0F230340083B9B08063361
:102A5C009B00094A944663445C6803221040C00002
:102A6C00FC3215008540AC4389010A408240224368
:102A7C005A60E7E700E100E000ED00E0002805DB2C
:102A8C001F2318401E3B8340014A13607047C04609
:102A9C0000E100E000280ADB1F2318401E3B8340A6
:102AAC00034980228B50BFF34F8FBFF36F8F70475A
:102ABC0000E100E0013880235B0498420FD2094A00
:102ACC0050600948036A1B021B0AC02109060B430C
:102ADC0003620023936007331360002070470120CA
:102AEC00FCE7C04610E000E000ED00E010B504008B
:102AFC00114B1968002901D1012010BDFA2080006A
:102B0C00FEF70AFA01000D4B1868FEF705FAFFF7FD
:102B1C00D1FF00280DD1032C01D90120EDE70130A4
:102B2C00002221004042FFF779FF054B1C6000207A
:102B3C00E3E70120E1E7C046640000206C000020C0
:102B4C006800002010B5084A116880235B000B4315
:102B5C0013600320FFF7CAFF041E02D001242000DB
:102B6C0010BDFEF76DFEFAE700200240034A136821
:102B7C00034909685B1813607047C0468005002044
:102B8C0064000020014B18687047C0468005002087
:102B9C0070B50400FFF7F6FF0500631C02D0044B70
:102BAC001B68E418FFF7EEFF401BA042FAD370BD80
:102BBC0064000020024B802212059A607047C046C8
:102BCC0000ED00E010B50B480B4B03600023436095
:102BDC00E02212018260094A42610362436283620D
:102BEC00C362036300F048FE002800D110BDFEF75D
:102BFC003FFCFBE784050020007C0040FFFF000049
:102C0C0000B583B002680C4B9A4201D003B000BDF2
:102C1C000A4BD96B802212060A43DA63DB6BDB0F9B
:102C2C00DB070193019B002200211120FFF7F6FE28
:102C3C001120FFF723FFE9E7007C00400010024061
:102C4C0010B51948194B0360E1235B024360002364
:102C5C008360C36003610C2242618361C3610362C0
:102C6C004362836202F056F8002811D100210E480D
:102C7C0002F0E0F800280ED100210B4802F000F918
:102C8C0000280BD1084802F0B5F8002809D110BD76
:102C9C00FEF7EEFBEAE7FEF7EBFBEDE7FEF7E8FBF2
:102CAC00F0E7FEF7E5FBF2E71806002000440040D1
:102CBC0030B589B004001422002103A8FDF768FA8E
:102CCC00254B22689A4201D009B030BD234BD96BF9
:102CDC00802080020143D963DA6B02400192019A91
:102CEC00596B0122114359635B6B13400293029B96
:102CFC000C2303930A3B0493002505950695079234
:102D0C00A02003A9C005FEF7C3FD1548154B0360B1
:102D1C00342343608560C5604C3303614561856134
:102D2C00603BC3610562FFF7C1FC002811D10C4B5D
:102D3C00A3679C62002200211C20FFF76FFE1C2061
:102D4C00FFF79CFE084B1A68136810210B431360A5
:102D5C00BAE7FEF78DFBEAE70044004000100240A2
:102D6C00BC050020080002401806002070B59AB07F
:102D7C0000241DE03F480319634400221A7060448C
:102D8C0000F0DEFC3C4800F0F1FE002C09DB394B76
:102D9C001B199222D2009446634400221A70013C03
:102DAC00F3E740223549344800F076FE60E0013408
:102DBC003F2C27DC2F4B1B199222D20094466344E4
:102DCC001B780D2BD6D0082BF1D12A4B1B19922234
:102DDC00D2009446634400221A70002C05DD621E5A
:102DEC00244B9B18634400221A70234D280000F0DA
:102DFC00BDFE611E4022121B92B2204BC918280046
:102E0C0000F04AFE002601966022002102A8FDF780
:102E1C00BFF91B221A4901A8FDF724FAFA25AD00C7
:102E2C00154C2B00062201A9200001F0B5FE0196DD
:102E3C006022002102A8FDF7ABF91B22114901A861
:102E4C00FDF710FA2B00042201A9200001F0A4FECA
:102E5C0001966022002102A8FDF79AF9074901A802
:102E6C00FDF700FA82B22B0001A9200001F094FEBC
:102E7C001AB070BD9800002018060020280500200C
:102E8C00086100081061000810B5074B1B68074A61
:102E9C00934200D010BDDA69D206FBD510221A621B
:102EAC00FFF764FFF6E7C046180600200044004018
:102EBC00F0B5DE4657464E464546E0B59BB0A020E1
:102ECC000121C005FEF736FED34AD44BD35C092B47
:102EDC0007D8002B56D0092B54D89B00D04AD35876
:102EEC009F46FF2B4ED1CC4ACC4B0021D15401AC88
:102EFC00602202A8FDF74CF9CA4B220003CB03C297
:102F0C00198811809B789370FA239B000A22210068
:102F1C00C54801F041FE35E0BF4AC04B0021D154F9
:102F2C00602202A8FDF734F9C04B0193FA239B00F1
:102F3C00032201A9BC4801F02FFE0024092C21DC3E
:102F4C00A0200121C005FEF7F5FD6420FFF720FE4F
:102F5C000134F3E7002401946022002102A8FDF75C
:102F6C0017F902F051F90200B14901A8FDF77AF9FD
:102F7C00FA239B00092201A9AB4801F00DFEA64AD9
:102F8C00A64BD4541BB03CBC90469946A246AB46CB
:102F9C00F0BD02F0B1F8A74801F0ECFF01AC00273E
:102FAC006022002102A8FDF7F3F8A34B220023CBEB
:102FBC0023C21B781370FA26B6009B4D33000C22EB
:102FCC002100280001F0E8FD0021402002F014F956
:102FDC0001976022002102A8FDF7DAF802F0F6F85A
:102FEC00020096492000FDF73DF93300172221001D
:102FFC00280001F0D1FD0121402002F0FDF80197DD
:10300C006022002102A8FDF7C3F802F0AFF802001D
:10301C008B492000FDF726F93300172221002800E8
:10302C0001F0BAFD0221402002F0E6F8019760227F
:10303C00002102A8FDF7ACF802F098F802008149D3
:10304C002000FDF70FF933001B222100280001F0AE
:10305C00A3FD0321402002F0CFF80197602200214C
:10306C0002A8FDF795F802F095F8020076492000C9
:10307C00FDF7F8F882B233002100280001F08CFD36
:10308C000421402002F0B8F801976022002102A828
:10309C00FDF77EF802F07EF802006C492000FDF787
:1030AC00E1F882B233002100280001F075FD062101
:1030BC00402002F0A1F801976022002102A8FDF740
:1030CC0067F802F053F8020061492000FDF7CAF8D6
:1030DC00330017222100280001F05EFD072140205B
:1030EC0002F08AF801976022002102A8FDF750F83F
:1030FC0002F03CF8020057492000FDF7B3F833000A
:10310C0015222100280001F047FD00241CE02100BD
:10311C001031C9B2402002F06FF8002301936022F5
:10312C00002102A8FDF734F802F020F80300220079
:10313C00494901A8FDF796F8FA2382B29B0001A930
:10314C00394801F029FD01340E2CE0DD00241CE08F
:10315C0021002031C9B2402002F04EF80023019327
:10316C006022002102A8FDF713F801F0FFFF030015
:10317C0022003A4901A8FDF775F8FA239B001B229F
:10318C0001A9294801F008FD0134062CE0DD0024DA
:10319C001CE021002831C9B2402002F02DF8002398
:1031AC0001936022002102A8FCF7F2FF01F0DEFF80
:1031BC00030022002A4901A8FDF754F8FA239B00CA
:1031CC001A2201A9184801F0E7FC0134062CE0DDB5
:1031DC0000241CE021003031C9B2402002F00CF870
:1031EC00002301936022002102A8FCF7D1FF01F01B
:1031FC00D1FF030022001B4901A8FDF733F8FA2385
:10320C0082B29B0001A9084801F0C6FC0134062CCF
:10321C00E0DD002445E0C046980000208F0400004B
:10322C00CC620008C0620008180600206F6B0A0010
:10323C00A4610008A4060020186100082861000899
:10324C00446100085C610008786100089461000822
:10325C00AC610008C4610008DC610008F46100087E
:10326C00146200083062000821003831C9B24020D5
:10327C0001F0C2FF002301936022002102A8FCF799
:10328C0087FF01F087FF030022009B4901A8FCF790
:10329C00E9FFFA2382B29B0001A9984801F07CFC5B
:1032AC000134062CE0DD964A964B0021D154964809
:1032BC0001F0CCFE01F0F8FE64E600240F2C4DDC8E
:1032CC00A51CAD008E4B5D19002398468F4A002338
:1032DC0068680021FDF7B6FF8D4A0023FDF792FFC9
:1032EC0082468946434601936022002102A8FCF7DE
:1032FC004FFF2200874901A8FCF7B4FFFA27BF0053
:10330C0082B27E4E3B0001A9300001F045FC4346E1
:10331C0001936022002102A8FCF73AFF52464B466B
:10332C007D4901A8FCF79EFF3B000F2201A930004C
:10333C0001F032FC434601936022002102A8FCF705
:10334C0027FF6A68754901A8FCF78CFF82B23B0025
:10335C0001A9300001F020FC0134AFE7684A694B49
:10336C000021D1540EE6002601966022002102A80D
:10337C00FCF70EFF624D6A496868FDF757FE0200C4
:10338C00684901A8FCF76EFFFA24A40082B25B4FD7
:10339C00230001A9380001F0FFFB019660220021F7
:1033AC0002A8FCF7F5FE21006868FDF73FFE21003E
:1033BC00FDF722FF0A005C4901A8FCF753FF82B21B
:1033CC00230001A9380001F0E7FB4E4BEE54D9E580
:1033DC0001AD002401946022002102A8FCF7D8FE64
:1033EC000A232B80F0339B0001222900434801F073
:1033FC00D3FB02F039F8424A424BD454C2E501AC3B
:10340C00002701976022002102A8FCF7C1FE0A23C5
:10341C002380FA26B600394D330001222100280002
:10342C0001F0BAFB364B9846364B4246D754374AD6
:10343C0000234146C8680021FDF704FF344A0023ED
:10344C00FDF7E0FE834689466022002102A8FCF7C6
:10345C009FFE364B220083CB83C203CB03C23300C7
:10346C0013222100280001F097FB0027019760220E
:10347C00002102A8FCF78CFE2D4B9A465A464B466F
:10348C0051462000FCF7EEFE3300102221002800EC
:10349C0001F082FB434618691C4A00230021FDF70A
:1034AC00D1FE1B4A0023FDF7ADFE81468846602203
:1034BC00002102A8FCF76CFE1E4B220083CB83C2BA
:1034CC0003CB03C2330013222100280001F064FB5C
:1034DC00002701976022002102A8FCF759FE4A46FA
:1034EC00434651462000FCF7BDFE3300102221005C
:1034FC00280001F051FB45E54C620008180600203D
:10350C00980000208F040000A406002040771B00C8
:10351C00FFFFFF006862000870620008A4610008E9
:10352C0040420F007C620008806200088C62000838
:10353C00A0620008AC620008F0B5ABB0784B00227A
:10354C005A72403200211AA8FCF722FE0F2418E010
:10355C00631E73481B015B1812339B00C3182201B6
:10356C005218123292008218586850601AAA8800B9
:10357C005B688558AC466344835001310F29E7DD05
:10358C00013C002C01DD0021F8E700220F2A18DC99
:10359C006349931C9B00CB185B68100012308000B1
:1035AC00081843601AA894002558AC46634423506D
:1035BC001B0910001330FF30800009184B600132DA
:1035CC00E4E75749574A8B5C0133DBB28B5410222A
:1035DC009A429B415B42544A8B5401AC5A220021C3
:1035EC000E206844FCF7D4FD504B220003CB03C2E1
:1035FC0019001B8813808B789370FA239B000A2286
:10360C0021004B4801F0C8FA00240F2C18DC64226E
:10361C00002101A8FCF7BCFD22001332FF329200FE
:10362C003F4B9B185A68434901A8FCF71BFEFA2331
:10363C0082B29B0001A93E4801F0AEFA0134E4E7E6
:10364C0001AC5E2200210A206844FCF7A1FD3A4B34
:10365C001A6801929A88A2809B79A371FA239B0025
:10366C0006222100324801F097FA00240F2C16DCB8
:10367C006422002101A8FCF78BFDA21C9200284BB0
:10368C009B185A682B4901A8FCF7ECFDFA2382B26F
:10369C009B0001A9264801F07FFA0134E6E7204A95
:1036AC00214BD35C002B1AD101AC422200212620E5
:1036BC006844FCF76DFD214923000A0023CA23C38B
:1036CC0023CA23C303CA03C312881A80FA239B009C
:1036DC0021222100164801F05FFA2BB0F0BD01AC9D
:1036EC00622200216B46981DFCF752FD0A272780A9
:1036FC00FA26B6000E4D330001222100280001F0FD
:10370C004BFA622200216B46981DFCF741FD278085
:10371C00330001222100280001F03EFADDE7C0460B
:10372C00980000208C0400008D040000F462000856
:10373C001806002000630008046300080C630008EE
:10374C0030B59BB0040001AD6022002102A8FCF74B
:10375C001FFD3D4B1A6801921B792B71FA239B00BC
:10376C0004222900394801F017FA39492000FCF7E6
:10377C0099FD002805D1374A374B0121D1541BB094
:10378C0030BD36492000FCF78DFD002804D1314AAC
:10379C00314B0221D154F2E731492000FCF782FD74
:1037AC00002804D12B4A2C4B0321D154E7E72D4997
:1037BC002000FCF777FD002804D1264A264B042173
:1037CC00D154DCE728492000FCF76CFD00280AD016
:1037DC0026492000FCF766FD00281AD11D4A1E4B15
:1037EC000721D154CBE701AC0023019360220021C7
:1037FC0002A8FCF7CDFC0A232380F0339B000122A6
:10380C002100124801F0C8F9124A134B0621D15479
:10381C00B5E717492000FCF745FD002804D10D4AF7
:10382C000D4B0821D154AAE712492000FCF73AFDB0
:10383C00002804D1074A084B0921D1549FE7054AB7
:10384C00054BFF21D1549AE730630008180600207D
:10385C0038630008980000208F04000040630008C3
:10386C004863000854630008606300086C63000838
:10387C00746300088063000870B5041E4CD03623B6
:10388C00C35C002B3DD036230222E2542568EB6842
:10389C006068012804D080221204A16A914201D1EF
:1038AC001E22934361691D4A914201D01C4A134068
:1038BC001C4A1A40A3680343266A3343666A33439F
:1038CC00A66A33431343012803D080221204964284
:1038DC0003D1E268206902431343104A914204D099
:1038EC00A2691143E26911430B43EB6023680E4A52
:1038FC0093420CD0E26A5A6236230122E254002031
:10390C0070BD35330022C254FFF77AF9BBE7E26A87
:10391C00216B0A435A62EFE70120F1E7FFFF000039
:10392C003F1FFFFFF8F119FF007C004010B5362354
:10393C000222C2544368012B04D080231B04826AE8
:10394C009A4219D00268936810242343936002684A
:10395C0093680E3C2343936004682369012213434C
:10396C0023610368996101680B69042423430B618B
:10397C003623C254002010BD0268D368014C23408A
:10398C00D360DFE7FFF1FFFF704770477047704768
:10399C0070477047704710B5040003681A68D20767
:1039AC0002D59A68D2072AD423681A68920702D5DE
:1039BC009A68920728D423681A68520702D59A6825
:1039CC00520727D423681A68120702D59A6812077F
:1039DC0026D423681A68D20602D59A68D20625D452
:1039EC0023681A68920602D59A68920624D4236832
:1039FC001A68520602D59A68520623D410BD0122C9
:103A0C005A60FFF7C1FFCFE702225A602000FFF790
:103A1C00BCFFD0E704225A602000FFF7B7FFD1E7C4
:103A2C0008225A602000FFF7B2FFD2E710225A603A
:103A3C002000FFF7ADFFD3E720225A602000FFF7EC
:103A4C00A8FFD4E740225A602000FFF7A3FFD5E778
:103A5C0002681368C0218B431360026893680349A2
:103A6C000B40936080232022C2507047FFFF7FFFE2
:103A7C000268136806490B40136002689368054995
:103A8C000B40936084232022C2500023C3667047EE
:103A9C00DFFEFFFFFEFFFFEF10B504008423C358C9
:103AAC00202B55D1002955D0002A55D080235B01FD
:103ABC008068984231D07C23E35C012B4ED07C2370
:103ACC000120E054A165203BE2522C330021E1504F
:103ADC00043B2231E150A36F002B25D02049D96241
:103AEC00A36F20491963A36F1F495963A36F00216A
:103AFC009963216824311300A26DA06FFEF72EFE8E
:103B0C00002811D088231022E2500C3B0022E254F2
:103B1C0004332032E25001201BE02369002BCAD170
:103B2C00CB07C8D5012014E07C230022E254226884
:103B3C00116884330B4313602268936801210B4393
:103B4C009360226893683F310B439360002000E040
:103B5C00022010BD0120FCE70120FAE70220F8E763
:103B6C002D3C0008733C00087F3C000870B5040035
:103B7C008023C0588422A558226891680B4201D03A
:103B8C00212807D023689A68520636D5222D1AD0E0
:103B9C00002033E0936880218B439360606F002892
:103BAC0003D0FEF727FE002803D12000FFF750FFBB
:103BBC00E8E7606FFEF706FF2028F6D18823102275
:103BCC00E2501D381AE09A6840218A439A60A06F2F
:103BDC00002803D0FEF70EFE002804D12000FFF7CA
:103BEC0047FF00200AE0A06FFEF7ECFE2028F5D17D
:103BFC0088231022E2501D3800E0002070BD704771
:103C0C0010B50268136840218B4313608023202277
:103C1C00C25000230367FFF7F2FF10BD704700008E
:103C2C0010B50300806A1B681B689B0615D45E23C5
:103C3C000022C2520268136809490B4013600268E3
:103C4C0093680331FF318B439360026893683F3173
:103C5C008B43936084232022C250FFF7DFFF10BDFB
:103C6C00FFFEFFFF704710B5806AFFF7FBFF10BD2A
:103C7C00704770B5846A8023E1588422A558226865
:103C8C009268134201D021290ED023689B685B06F1
:103C9C0001D5222D0FD08822A35810210B43A350FD
:103CAC002000FFF7E5FF70BD2A3B0022E252200006
:103CBC00FFF7CEFEE9E75E230022E2522000FFF779
:103CCC00D7FEE8E7F8B504000268D3691568906878
:103CDC000F210E001E40194205D1990603D5A906E5
:103CEC0029D4C10027D4002E08D05A4906000E4012
:103CFC00084226D1902149000D4222D1D90202D589
:103D0C00410200D58BE01A0605D52A0600D58DE0B8
:103D1C00020200D58AE05A0602D56A0600D58CE06C
:103D2C001A0202D56A0000D58BE0DB0102D5002D0A
:103D3C0000DA8AE0F8BDE36E002BFBD02000984738
:103D4C00F8E7D90707D5E90505D5012717628821BA
:103D5C0062583A4362509A0709D5C20707D52268C0
:103D6C00022111628631625804273A4362505A0785
:103D7C0009D5C20707D52268042111628431625823
:103D8C0002273A4362501A070AD5AA0601D4002E1C
:103D9C0006D0226808261662882162583243625087
:103DAC008822A258002AC5D09B0608D5AB0601D4A0
:103DBC00C30004D5E36E002B01D020009847882364
:103DCC00E25823689B685B0601D4130720D52000BA
:103DDC00FFF74EFE23689A68520615D59A68402163
:103DEC008A439A60A36F002B0AD01B4A9A63A06F78
:103DFC00FEF740FD00289DD0A06F836B984799E794
:103E0C002000FFF735FF95E72000FFF731FF91E722
:103E1C002000FFF72DFF88230022E2508AE7802341
:103E2C005B031362200000F0E1FF83E7236F002B9C
:103E3C0000D17FE7200098477CE72000FFF7E0FEE9
:103E4C0078E7200000F0D4FF74E7200000F0CFFFEB
:103E5C0070E7C04601000010693E000810B5806A8A
:103E6C0000235E228352083A8352FFF701FF10BDF4
:103E7C0070B50400016883680269134342691343F7
:103E8C00C2691343426E1A430B68A948034013439B
:103E9C000B6022685368A7490B40E1680B435360E1
:103EAC00A1692268A44B9A4201D0236A19439368F2
:103EBC00A24803400B4393602268D36A0F218B43C3
:103ECC00616A0B43D36223689D4A93420FD09D4A8B
:103EDC0093426CD09C4A934200D1A1E09B4A9342FE
:103EEC0000D19FE0944A934272D010260EE0984A7B
:103EFC00516D03220A40022A00D181E053D8002AD6
:103F0C0000D17FE0012A00D07EE004268A4A934249
:103F1C0000D191E080231B02E2699A4200D136E382
:103F2C00042E01D100F019FD01D900F070FC002E17
:103F3C0001D100F0A9FC022E01D000F065FC636AEF
:103F4C00002B01D100F0E7FC012B01D100F0F1FCBA
:103F5C00022B01D100F0EFFC032B01D100F0EDFCA2
:103F6C00042B01D100F0EBFC052B01D100F0E9FC96
:103F7C00062B01D100F0E7FC072B01D100F0E5FC8A
:103F8C00082B01D100F0E3FC092B01D100F0E1FC7E
:103F9C000A2B01D100F0DFFC0B2B01D100F0B8FC97
:103FAC00012100F0B9FC032A30D10826AEE7684A9B
:103FBC00516D0C220A40082A2AD005D8002A29D093
:103FCC00042A29D10426A1E70C2A27D108269DE72B
:103FDC005F4A526DC02109010A40802109018A42C1
:103FEC0022D007D8002A21D08021C9008A421FD1B3
:103FFC0004268BE7C02109018A421BD1082685E7DC
:10400C00022683E7002681E710267FE710267DE74E
:10401C0002267BE7002679E7102677E7102675E75E
:10402C00002673E7002671E702266FE700266DE78E
:10403C0010266BE7102669E7042E00D100E12CD87E
:10404C00002E55D0022E26D1636A002B00D1DEE063
:10405C00012B00D1E0E0022B00D1DFE0032B00D1DB
:10406C00DEE0042B00D1DDE0052B00D1DCE0062BDB
:10407C0000D1DBE0072B00D1DAE0082B00D1D9E02E
:10408C00092B00D1D8E00A2B00D1D7E00B2B00D1A3
:10409C00BAE00121BCE00126ECE3082E26D1636ACC
:1040AC00002B00D107E1012B00D10AE1022B00D13A
:1040BC0009E1032B00D108E1042B00D107E1052B0A
:1040CC0000D106E1062B00D105E1072B00D104E15C
:1040DC00082B00D103E1092B00D102E10A2B00D1FE
:1040EC0001E10B2B00D1E3E00121E5E00126C1E366
:1040FC00FEF7C8F8636A002B2CD0012B70D0022B72
:10410C0070D0032B70D0042B70D0052B70D0062BE5
:10411C0070D0072B70D0082B70D0092B70D00A2BC5
:10412C0070D00B2B01D0012115E08021490012E049
:10413C00F369FFCFFFCFFFFF00800040FFF4FF11BA
:10414C00003801400044004000480040004C004052
:10415C00001002400121FCF7DFFE002801D100F025
:10416C0063FC65686B005B19834201D900F05EFC4F
:10417C002B03834201D200F05BFC042E00D175E1CD
:10418C0000D9B5E0002E00D1E7E0022E00D0ACE063
:10419C00636A002B00D137E1012B00D148E1022BDF
:1041AC0000D148E1032B00D148E1042B00D148E1B8
:1041BC00052B00D148E1062B00D148E1072B00D19B
:1041CC0048E1082B00D148E1092B00D148E10A2B2A
:1041DC0000D148E10B2B00D112E10122002315E1A3
:1041EC000221B8E70421B6E70621B4E70821B2E7BB
:1041FC000A21B0E70C21AEE71021ACE72021AAE799
:10420C004021A8E78021A6E78021490000E0012198
:10421C00A748FCF781FEA0E70221F9E70421F7E7A4
:10422C000621F5E70821F3E70A21F1E70C21EFE776
:10423C001021EDE72021EBE74021E9E78021E7E7BA
:10424C00FDF7F8FE636A002B1AD0012B1CD0022B51
:10425C001CD0032B1CD0042B1CD0052B1CD0062BE4
:10426C001CD0072B1CD0082B1CD0092B1CD00A2BC4
:10427C001CD00B2B01D0012103E08021490000E070
:10428C000121FCF749FE68E70221FAE70421F8E76F
:10429C000621F6E70821F4E70A21F2E70C21F0E702
:1042AC001021EEE72021ECE74021EAE78021E8E746
:1042BC008021490000E0012180200002FCF72CFE47
:1042CC004BE70221F8E70421F6E70621F4E7082181
:1042DC00F2E70A21F0E70C21EEE71021ECE72021B0
:1042EC00EAE74021E8E78021E6E7012600202BE001
:1042FC00082E27D1636A002B00D115E1012B00D1C8
:10430C0027E1022B00D127E1032B00D127E1042B5D
:10431C0000D127E1052B00D127E1062B00D127E1A5
:10432C00072B00D127E1082B00D127E1092B00D165
:10433C0027E10A2B00D127E10B2B00D1F0E0012261
:10434C000023F3E0012600205A4A5B4BC31893422A
:10435C0000D96FE32368D8608CE2FDF793FF636AA2
:10436C00002B1CD0012B2DD0022B2ED0032B2FD0A9
:10437C00042B30D0052B31D0062B32D0072B33D069
:10438C00082B34D0092B35D00A2B36D00B2B02D06E
:10439C000122002305E080225200002301E00122CB
:1043AC0000230021FCF72EFF050E0B022B4302020B
:1043BC00656868080021801859412A000023FCF721
:1043CC0021FFC1E702220023EBE704220023E8E7E8
:1043DC0006220023E5E708220023E2E70A22002355
:1043EC00DFE70C220023DCE710220023D9E7202290
:1043FC000023D6E740220023D3E780220023D0E716
:10440C0080225200002301E00122002328480021D1
:10441C00FCF7F8FE060E0B0233430202680800217B
:10442C00801859412A000023FCF7ECFE00268BE78C
:10443C0002220023EAE704220023E7E706220023F6
:10444C00E4E708220023E1E70A220023DEE70C223E
:10445C000023DBE710220023D8E720220023D5E736
:10446C0040220023D2E780220023CFE7FDF7E2FDB4
:10447C00636A002B22D0012B34D0022B35D0032BB6
:10448C0036D0042B37D0052B38D0062B39D0072B40
:10449C003AD0082B3BD0092B3CD00A2B3DD00B2B10
:1044AC0002D0012200230BE080225200002307E0FF
:1044BC000024F400FFFC0F0000FDFFFF012200238D
:1044CC000021FCF79FFE050E0B022B4302026568D0
:1044DC0068080021801859412A000023FCF792FE3D
:1044EC00002631E702220023EAE704220023E7E753
:1044FC0006220023E4E708220023E1E70A22002336
:10450C00DEE70C220023DBE710220023D8E7202271
:10451C000023D5E740220023D2E780220023CFE7F7
:10452C0080225200002301E001220023802000029F
:10453C000021FCF767FE060E0B02334302026808EB
:10454C000021801859412A000023FCF75BFE00264D
:10455C00FAE602220023E9E704220023E6E706221A
:10456C000023E3E708220023E0E70A220023DDE72B
:10457C000C220023DAE710220023D7E720220023A5
:10458C00D4E740220023D1E780220023CEE7042E7B
:10459C0000D1D0E02DD8002E66D0022E26D1636A31
:1045AC00002B00D1A4E0012B00D1B0E0022B00D1F4
:1045BC00AFE0032B00D1AEE0042B00D1ADE0052B16
:1045CC0000D1ACE0062B00D1ABE0072B00D1AAE068
:1045DC00082B00D1A9E0092B00D1A8E00A2B00D1AF
:1045EC00A7E00B2B00D180E0012182E00126002006
:1045FC002AE0082E26D1636A002B00D1E0E0012BC3
:10460C0000D1EDE0022B00D1ECE0032B00D1EBE06C
:10461C00042B00D1EAE0052B00D1E9E0062B00D1F8
:10462C00E8E0072B00D1E7E0082B00D1E6E0092BEE
:10463C0000D1E5E00A2B00D1E4E00B2B00D1BCE06B
:10464C000121BEE001260020A84A0300103B934242
:10465C0000D9F1E10F2302009A434008083B1840AF
:10466C0010432368D86005E1FDF70CFE636A002B4C
:10467C001AD0012B25D0022B25D0032B25D0042BAF
:10468C0025D0052B25D0062B25D0072B25D0082B84
:10469C0025D0092B25D00A2B25D00B2B01D001219D
:1046AC0003E08021490000E00121FCF735FC4000CB
:1046BC0063685B08C0186168FCF72EFC0004000CF2
:1046CC00C2E70221F1E70421EFE70621EDE708211B
:1046DC00EBE70A21E9E70C21E7E71021E5E72021C8
:1046EC00E3E74021E1E78021DFE78021490000E09A
:1046FC0001217F48FCF710FC400063685B08C01880
:10470C006168FCF709FC0004000C00269CE7022100
:10471C00EFE70421EDE70621EBE70821E9E70A21A1
:10472C00E7E70C21E5E71021E3E72021E1E7402151
:10473C00DFE78021DDE7FDF77DFC636A002B1AD0F3
:10474C00012B26D0022B26D0032B26D0042B26D0CF
:10475C00052B26D0062B26D0072B26D0082B26D0AF
:10476C00092B26D00A2B26D00B2B01D0012103E0DC
:10477C008021490000E00121FCF7CEFB400063687A
:10478C005B08C0186168FCF7C7FB0004000C00262E
:10479C005AE70221F0E70421EEE70621ECE70821B5
:1047AC00EAE70A21E8E70C21E6E71021E4E72021FB
:1047BC00E2E74021E0E78021DEE78021490000E0CC
:1047CC00012180200002FCF7A7FB400063685B0816
:1047DC00C0186168FCF7A0FB0004000C002633E74E
:1047EC000221EEE70421ECE70621EAE70821E8E7DD
:1047FC000A21E6E70C21E4E71021E2E72021E0E7BB
:10480C004021DEE78021DCE7012600202AE0082E8B
:10481C0026D1636A002B00D1E3E0012B00D1EFE03D
:10482C00022B00D1EEE0032B00D1EDE0042B00D1E4
:10483C00ECE0052B00D1EBE0062B00D1EAE0072BD6
:10484C0000D1E9E0082B00D1E8E0092B00D1E7E02A
:10485C000A2B00D1E6E00B2B00D1BFE00121C1E017
:10486C0001260020214A0300103B934200D9E5E0C9
:10487C002368D86001236A22A352023AA352002370
:10488C00E3662367300070BDFDF7FCFC636A002B08
:10489C001AD0012B24D0022B24D0032B24D0042B90
:1048AC0028D0052B28D0062B28D0072B28D0082B56
:1048BC0028D0092B28D00A2B28D00B2B01D0012172
:1048CC0003E08021490000E00121FCF725FB63682F
:1048DC005B08C0186168FCF71FFB0004000CC1E703
:1048EC000221F2E70421F0E70621EEE7EFFF0000DA
:1048FC000024F4000821E8E70A21E6E70C21E4E7AC
:10490C001021E2E72021E0E74021DEE78021DCE70F
:10491C008021490000E001214948FCF7FDFA636859
:10492C005B08C0186168FCF7F7FA0004000C00265D
:10493C0098E70221F0E70421EEE70621ECE70821D5
:10494C00EAE70A21E8E70C21E6E71021E4E7202159
:10495C00E2E74021E0E78021DEE7FDF76BFB636ACD
:10496C00002B1AD0012B25D0022B25D0032B25D0C0
:10497C00042B25D0052B25D0062B25D0072B25D095
:10498C00082B25D0092B25D00A2B25D00B2B01D099
:10499C00012103E08021490000E00121FCF7BCFA71
:1049AC0063685B08C0186168FCF7B6FA0004000C79
:1049BC00002657E70221F1E70421EFE70621EDE796
:1049CC000821EBE70A21E9E70C21E7E71021E5E7ED
:1049DC002021E3E74021E1E78021DFE78021490046
:1049EC0000E0012180200002FCF796FA63685B0866
:1049FC00C0186168FCF790FA0004000C002631E73F
:104A0C000221EFE70421EDE70621EBE70821E9E7B6
:104A1C000A21E7E70C21E5E71021E3E72021E1E794
:104A2C004021DFE78021DDE7002623E7012621E78F
:104A3C0001261FE701261DE701261BE7012619E7C2
:104A4C000024F400836ADB0706D5026853682C49FE
:104A5C000B40C16A0B435360836A9B0706D50268FF
:104A6C00536828490B40016B0B435360836A5B0707
:104A7C0006D50268536824490B40416B0B435360C5
:104A8C00836A1B0706D50268536820490B40816B6B
:104A9C000B435360836ADB0606D5026893681C4996
:104AAC000B40C16B0B439360836A9B0606D502686F
:104ABC00936818490B40016C0B439360836A5B0647
:104ACC000BD50268536814490B40416C0B4353607F
:104ADC0080235B03426C9A420AD0836A1B0606D57C
:104AEC00026853680D490B40C16C0B43536070470F
:104AFC00026853680A490B40816C0B435360ECE726
:104B0C00FFFFFDFFFFFFFEFFFFFFFBFFFF7FFFFF30
:104B1C00FFEFFFFFFFDFFFFFFFFFEFFFFFFFF7FFE1
:104B2C00FFFF9FFFF8B5CE46474680B506000D0047
:104B3C0017009946089B98463368DC692C40641B27
:104B4C0063425C41BC4220D143460133F4D0FEF7B2
:104B5C0019F84B46C01A404502D84346002BEBD1FE
:104B6C00326813680B490B40136032689368A331A9
:104B7C00FF318B43936020238022B3500432B35017
:104B8C005C330022F254032000E000200CBC904661
:104B9C009946F8BD5FFEFFFFF0B5C64600B582B082
:104BAC0004000D0090461E008023C358202B6AD1B0
:104BBC00002900D16CE0002A00D16BE080235B015E
:104BCC0082689A421CD07C23E35C012B64D07C234A
:104BDC000122E2540C330022E250083B2132E25015
:104BEC00FDF7D0FF070054234246E2520233E25253
:104BFC0080235B01A2689A4209D0002398461AE0F0
:104C0C000369002BDFD1CB07DDD501203CE0236904
:104C1C00002B25D0002398460DE043461B882268C4
:104C2C00DB05DB0D936202239C46E0445623E25ADB
:104C3C00013A92B2E2525623E35A9BB2002B12D0A5
:104C4C0000963B00002280212000FFF76BFF00281C
:104C5C0024D1002DE1D02A7823689A620135E5E74A
:104C6C00A8460025E7E700963B00002240212000E3
:104C7C00FFF758FF002813D180232022E250043B79
:104C8C000022E25400E0022002B004BC9046F0BDC9
:104C9C000120F9E70120F7E70220F5E70320F3E70D
:104CAC000320F1E730B583B0040088230022C25002
:104CBC00FDF768FF050023681B681B070ED42368EB
:104CCC001B685B0717D420238022A3500432A35007
:104CDC005C330022E254002003B030BD80210C4B29
:104CEC0000930300002289032000FFF71BFF00281C
:104CFC00E5D00320F0E78021054B00932B00002228
:104D0C00C9032000FFF70EFF0028DCD00320E3E7E7
:104D1C00FFFFFF0110B5041E30D08023C358002BB9
:104D2C0022D080232422E2502268136801218B4375
:104D3C0013602000FFF79CF8012814D0A36A002B05
:104D4C0018D1226853680E490B405360226893684F
:104D5C002A218B4393602268136829390B43136013
:104D6C002000FFF79FFF10BD7C330022C254FDF7DB
:104D7C009FFFD6E72000FFF765FEE2E70120F2E790
:104D8C00FFB7FFFF70B584B0040002AA154B03CB2C
:104D9C0003C26A46144B03CB03C2636E002B06D1CD
:104DAC0001336A22A352023AA35204B070BD2268A6
:104DBC0095686D0E07231D409268520F134002AE8A
:104DCC00F05CC0006A46D15CFCF730F96A23E05213
:104DDC00705DC0006B46595DFCF728F96823E05202
:104DEC00E3E7C046806000088463000870477047A2
:104DFC007047000070B57C23C35C012B15D07C245C
:104E0C000126065580252423435102681368116836
:104E1C00B1431160064A13400022426601680B60E0
:104E2C00202343510255002070BD0220FCE7C046F0
:104E3C00FFFFFFDFF8B504000B007C22825C012A27
:104E4C001BD07C250120605580262422A25122688B
:104E5C00176811688143116022689168C900C908FC
:104E6C00194391602000FFF78DFF23681F602023FA
:104E7C00A351002363550020F8BD0220FCE700007D
:104E8C00F8B504000B007C22825C012A1BD07C2527
:104E9C000120605580262422A251226817681168CF
:104EAC008143116022689168084801401943916060
:104EBC002000FFF767FF23681F602023A351002306
:104ECC0063550020F8BD0220FCE7C046FFFFFFF150
:104EDC0010B51248124B036082235B004360002321
:104EEC008360E022D200C260022202614361FF3281
:104EFC00FF328261D13AFF3AC2610362436283623C
:104F0C00293AC26203630833436300F031FC002882
:104F1C0000D110BDFCF7ACFAFBE7C0460807002037
:104F2C000030014010B51148114B036082235B0027
:104F3C00436000238360E022D200C26003614361BE
:104F4C00802292008261D13AFF3AC26103624362CD
:104F5C008362293AC26203630833436300F008FC9E
:104F6C00002800D110BDFCF783FAFBE7A406002053
:104F7C000038004070B58AB004001422002105A846
:104F8C00FBF706F923682D4A934204D02C4A93422E
:104F9C001FD00AB070BD2B4B196C8020400101430F
:104FAC0019641A6C02400192019A596B0222114346
:104FBC0059635B6B13400293029B38230593069253
:104FCC00002307930893099305A91F48FCF760FC7D
:104FDC00DFE71C4BD96B8020C0010143D963DA6B2E
:104FEC0002400392039A5A6B02252A435A635B6B65
:104FFC002B400493049B40230593069500240794AF
:10500C0008943C3B0993104E05A93000FCF740FC7A
:10501C00C0235B000593069507940894803BFF3BE7
:10502C00099305A93000FCF733FC002200211A205B
:10503C00FDF7F4FC1A20FDF721FDAAE70030014032
:10504C0000380040001002400004005010B5036806
:10505C000F4A934203D00F4A93420AD010BD0E4A16
:10506C00136C0E490B40136438210D48FCF7DAFC25
:10507C00F4E7094AD36B0B490B40D363E021490099
:10508C000748FCF7CFFC1A20FDF704FDE6E7C04605
:10509C00003001400038004000100240FFEFFFFFDD
:1050AC0000040050FFBFFFFF00B587B0002205923F
:1050BC000E49486B022318434863496B0B4000931D
:1050CC00009B402301930A4B02930392049201A983
:1050DC000848FCF7DDFB052205210720FDF79EFCA7
:1050EC000720FDF7CBFC07B000BDC0460010024006
:1050FC00000021100004005010B540210348FCF7BB
:10510C0091FC0720FDF7C6FC10BDC0460004005002
:10511C0000B585B003A90870074B1B786A4613725B
:10512C0001235B420093023302AA044800F07CFC8A
:10513C006B46187A05B000BD8C630008A4060020ED
:10514C0000B585B0030A6A461373507300231381AC
:10515C00013B0093033302AA03A9034800F064FC4B
:10516C006B46187A05B000BDA406002010B582B0BD
:10517C0001AC0023238001335B420222210004484E
:10518C0000F0BAFD23781B026078184302B010BD02
:10519C00A406002010B582B001AC0A4B1B882380FA
:1051AC000023A37001335B4203222100064800F068
:1051BC00A3FD2078000463781B021843A3781843DE
:1051CC0002B010BD88600008A406002000B583B0B2
:1051DC00074B1B786A46137101235B42012201A91C
:1051EC00044800F089FD6B46187903B000BDC04639
:1051FC008C630008A406002010B508430400FFF7D8
:10520C0087FF200010BD000070B5FFF775FF094D3A
:10521C002800FFF7AFFE07214020FFF7EDFFFFF757
:10522C00A5FF04002800FFF711FFFFF73DFF20004A
:10523C0070BDC046A406002070B5FFF75DFF2C487A
:10524C00FFF798FE2B4B1B7A102B21D0002140200E
:10525C00FFF7D2FFFFF7BAFF0F230340254D2B7248
:10526C0004214020FFF7C8FF2C7AFFF793FF02348C
:10527C00A4002C1960602B7A072B1CD01D4B1B7AB9
:10528C000F2B31D01A48FFF7E1FEFFF70DFF70BD71
:10529C00A024E405002280212000FCF745FC01201D
:1052AC00FDF776FC012280212000FCF73DFC114B20
:1052BC0000221A72E2E70F4C0F4A0023A06A002169
:1052CC00FBF7C0FF0D4A0023FBF79CFF0C4A0023A1
:1052DC00FBF7B8FF842252000023FBF793FF094B26
:1052EC009C4660446060C9E7024B01225A72C9E7D0
:1052FC00A40600209800002040771B00FFFFFF0051
:10530C005C440000889103FC10B500240F2C0EDCCB
:10531C0021001031C9B20020FFF76EFF60010D4B68
:10532C009C46604480B2FFF70BFF0134EEE720216E
:10533C000020FFF761FFF0200001FFF701FF28219B
:10534C000020FFF759FF1220FFF7FAFE024B102244
:10535C001A7210BD168000009800002010B586B09F
:10536C0000230593C02252000192803AFF3A029228
:10537C00039304930D4C01A92000FCF789FA012238
:10538C0080212000FCF7D0FB0024C72C09DC8021F5
:10539C0049000648FCF7CEFB0120FDF7F9FB013470
:1053AC00F3E70348FFF7E6FD06B010BD000400501C
:1053BC00A406002000B583B0030C01A90B70030AEE
:1053CC004B70887001235B420322024800F036FACE
:1053DC0003B000BD0807002010B58021A0200122D9
:1053EC000902C005FCF7A0FB012201210848FCF7CB
:1053FC009BFB084C002240212000FCF795FB0A2067
:10540C00FDF7C6FB012240212000FCF78DFB10BDEF
:10541C00000400500008005070B5040080263602CD
:10542C00A025ED05002231002800FCF77DFB2000B3
:10543C00FFF7C0FF012231002800FCF775FB0120AB
:10544C00FDF7A6FB074C002201212000FCF76CFBAA
:10545C000120FDF79DFB012201212000FCF764FBDC
:10546C0070BDC0460004005030B59BB000248023B2
:10547C005B029C4242DA80235B03E018FFF7CCFF0F
:10548C0088235B03E018FFF7C7FF90235B03E0184A
:10549C00FFF7C2FF98235B03E018FFF7BDFFA023C3
:1054AC005B03E018FFF7B8FFA8235B03E018FFF7D6
:1054BC00B3FFB0235B03E018FFF7AEFFB8235B0329
:1054CC00E018FFF7A9FF002301936022002102A836
:1054DC00FAF75EFE22000A4901A8FAF7C3FEFA2584
:1054EC00AD002B00072201A90648FFF755FB280049
:1054FC00FDF74EFB044B9C466444B8E71BB030BD33
:10550C00546100081806002033330000F0B5C6467D
:10551C0000B507000D0090461E003B689C682C40AF
:10552C00641B63425C4144453BD0731CF5D0FDF7D2
:10553C0029FB069BC01AB04201D2002EEDD13A686D
:10554C005368E0218B43536082235B007A689A4254
:10555C000CD080239B01BA6A9A4216D05D2301229B
:10556C00FA54013B0022FA5403201BE0BB68802252
:10557C001202934203D08022D2009342E9D13A68BE
:10558C00136840218B431360E3E73A6813680749BB
:10559C000B4013603A68116880239B010B43136026
:1055AC00DCE7002004BC9046F0BDC046FFDFFFFFE7
:1055BC00F8B5CE46474680B581460E001700984692
:1055CC0002E0434601330DD14B461D68AC683440B4
:1055DC00BC424AD0C021C9008E42F2D1002FF0D17A
:1055EC002B7BEEE7FDF7CEFA089BC01A404502D2A2
:1055FC004346002BE8D14B461A685368E0218B4395
:10560C00536082235B004A4652689A420ED0802334
:10561C009B014A46926A9A4219D05D23012249465F
:10562C00CA54013B0022CA5403201FE04B469B681E
:10563C0080221202934203D08022D2009342E6D100
:10564C004B461A68136840218B431360DFE74B46C7
:10565C001A68136807490B4013604B461A681168A7
:10566C0080239B010B431360D7E700200CBC9046B2
:10567C009946F8BDFFDFFFFF70B582B004000D0046
:10568C001600C02100922B0000224901FFF790FF69
:10569C00002818D100962B00002280212000FFF753
:1056AC0035FF002816D1C02100962B000022C9001E
:1056BC002000FFF77DFF00280AD0236E2022134321
:1056CC002366032004E0236E202213432366032069
:1056DC0002B070BD236E2022134323660320F7E72C
:1056EC0070B582B004000D00160082235B00426886
:1056FC009A420FD000962B00002280212000FFF749
:10570C0005FF002815D182235B0062689A4216D0EF
:10571C0002B070BD836880221202934203D08022B3
:10572C00D2009342E6D12268136840218B43136068
:10573C00E0E7236E2022134323660320E8E7A368E7
:10574C0080221202934203D08022D2009342DFD1F6
:10575C00C02100962B000022C9002000FFF728FF73
:10576C000028D5D0236E2022134323660320CFE7D5
:10577C0010B5041E5ED0002383625D33C35C002B26
:10578C004CD05D230222E2542268136840218B43E3
:10579C001360E368E022D200934245D90022F02145
:1057AC0009018B4205D0E021C9008B4201D00021B8
:1057BC00A162216B002905D1E021C9008B4236D9A9
:1057CC00022323636368A1680B4321690B4361695E
:1057DC000B4380218900A06901400B43E1690B4315
:1057EC00216A0B432168A06A03430B60618B04237D
:1057FC000B40616A0B43616B0B43E1680B432168FF
:10580C0013434B602268D3690B490B40D3610023CF
:10581C0023665D330122E254002010BD5C3300226C
:10582C00C254FFF7A7FBACE780225201B7E7012374
:10583C002363C7E70120F0E7FFF7FFFFF0B5CE4683
:10584C0000B584B00400019191461D005C23C35C3B
:10585C00012B00D1E5E05C230122C254FDF792F943
:10586C0006005D23E35CDFB2012B00D0C5E001999B
:10587C00002900D1C2E04B46002B00D1BEE05D23D5
:10588C000322E25400232366A1634A46A287E287DF
:10589C0023644422A3520232A3522365E36480237F
:1058AC001B02A2689A421ED023681A68520603D4BF
:1058BC001A6840210A431A60E023DB00E2689A422E
:1058CC0036D96368002B02D04B46012B1DD12368BF
:1058DC00A26B1288DA60A36B0233A363E38F013BE4
:1058EC009BB2E38711E0226811688023DB010B4334
:1058FC001360D9E7FDF746F9801BA84202D36B1C55
:10590C0000D086E0002D00D185E0E28F92B2002A13
:10591C005BD023689A689207ECD5A26B1288DA6088
:10592C00A36B0233A363E38F013B9BB2E387ECE7EA
:10593C006368002B02D04B46012B2FD1E38F9BB217
:10594C00012B0BD92368A26B1288DA60A36B02338C
:10595C00A363E38F023B9BB2E3871FE0A36B1B782F
:10596C0022681373A36B0133A363E38F013B9BB2D8
:10597C00E38713E0A36B1B781373A36B0133A3634F
:10598C00E38F013B9BB2E38708E0FDF7FBF8801B3C
:10599C00A84201D36B1C40D1002D40D0E28F92B2B3
:1059AC00002A12D0226893689B07EED5E38F9BB236
:1059BC00012BDFD9A36B1B88D360A36B0233A363CA
:1059CC00E38F023B9BB2E387E8E73200290020001B
:1059DC00FFF752FE002801D020232366A368002B7A
:1059EC0006D103932368DA6803929B680393039BA5
:1059FC00236E002B02D1002700E002275D23012239
:105A0C00E254013B0022E254380004B004BC91463D
:105A1C00F0BD0327F2E70327F0E70327EEE70327A0
:105A2C00ECE70227F0E70000F0B583B0040000912A
:105A3C0001921E00089D5C23C35C012B00D157E131
:105A4C005C230122C254FDF79DF807005D23E35C43
:105A5C00D9B26268012B0BD082235B009A4200D032
:105A6C002DE1A368002B00D032E1042900D031E1F4
:105A7C00009B002B00D12FE1019B002B00D12DE1CD
:105A8C00002E00D12CE15D23E35C042B02D05D23BE
:105A9C000522E25400232366019A22644622A65270
:105AAC00023AA652009AA263E687A687E3642365AE
:105ABC00E023DB00E2689A4201D8012E23D9226848
:105ACC0053688C490B40536023681A68520603D400
